{
	"UniswapV2Locker.sol": {
		"UniswapV2Locker": {
			"abi": [
				{
					"inputs": [
						{
							"internalType": "contract IUniFactory",
							"name": "_uniswapFactory",
							"type": "address"
						}
					],
					"stateMutability": "nonpayable",
					"type": "constructor"
				},
				{
					"anonymous": false,
					"inputs": [
						{
							"indexed": true,
							"internalType": "address",
							"name": "previousOwner",
							"type": "address"
						},
						{
							"indexed": true,
							"internalType": "address",
							"name": "newOwner",
							"type": "address"
						}
					],
					"name": "OwnershipTransferred",
					"type": "event"
				},
				{
					"anonymous": false,
					"inputs": [
						{
							"indexed": false,
							"internalType": "address",
							"name": "lpToken",
							"type": "address"
						},
						{
							"indexed": false,
							"internalType": "address",
							"name": "user",
							"type": "address"
						},
						{
							"indexed": false,
							"internalType": "uint256",
							"name": "amount",
							"type": "uint256"
						},
						{
							"indexed": false,
							"internalType": "uint256",
							"name": "lockDate",
							"type": "uint256"
						},
						{
							"indexed": false,
							"internalType": "uint256",
							"name": "unlockDate",
							"type": "uint256"
						}
					],
					"name": "onDeposit",
					"type": "event"
				},
				{
					"anonymous": false,
					"inputs": [
						{
							"indexed": false,
							"internalType": "address",
							"name": "lpToken",
							"type": "address"
						},
						{
							"indexed": false,
							"internalType": "uint256",
							"name": "amount",
							"type": "uint256"
						}
					],
					"name": "onWithdraw",
					"type": "event"
				},
				{
					"inputs": [],
					"name": "gFees",
					"outputs": [
						{
							"internalType": "uint256",
							"name": "ethFee",
							"type": "uint256"
						},
						{
							"internalType": "contract IERCBurn",
							"name": "secondaryFeeToken",
							"type": "address"
						},
						{
							"internalType": "uint256",
							"name": "secondaryTokenFee",
							"type": "uint256"
						},
						{
							"internalType": "uint256",
							"name": "secondaryTokenDiscount",
							"type": "uint256"
						},
						{
							"internalType": "uint256",
							"name": "liquidityFee",
							"type": "uint256"
						},
						{
							"internalType": "uint256",
							"name": "referralPercent",
							"type": "uint256"
						},
						{
							"internalType": "contract IERCBurn",
							"name": "referralToken",
							"type": "address"
						},
						{
							"internalType": "uint256",
							"name": "referralHold",
							"type": "uint256"
						},
						{
							"internalType": "uint256",
							"name": "referralDiscount",
							"type": "uint256"
						}
					],
					"stateMutability": "view",
					"type": "function"
				},
				{
					"inputs": [
						{
							"internalType": "uint256",
							"name": "_index",
							"type": "uint256"
						}
					],
					"name": "getLockedTokenAtIndex",
					"outputs": [
						{
							"internalType": "address",
							"name": "",
							"type": "address"
						}
					],
					"stateMutability": "view",
					"type": "function"
				},
				{
					"inputs": [],
					"name": "getNumLockedTokens",
					"outputs": [
						{
							"internalType": "uint256",
							"name": "",
							"type": "uint256"
						}
					],
					"stateMutability": "view",
					"type": "function"
				},
				{
					"inputs": [
						{
							"internalType": "address",
							"name": "_lpToken",
							"type": "address"
						}
					],
					"name": "getNumLocksForToken",
					"outputs": [
						{
							"internalType": "uint256",
							"name": "",
							"type": "uint256"
						}
					],
					"stateMutability": "view",
					"type": "function"
				},
				{
					"inputs": [
						{
							"internalType": "address",
							"name": "_user",
							"type": "address"
						},
						{
							"internalType": "address",
							"name": "_lpToken",
							"type": "address"
						},
						{
							"internalType": "uint256",
							"name": "_index",
							"type": "uint256"
						}
					],
					"name": "getUserLockForTokenAtIndex",
					"outputs": [
						{
							"internalType": "uint256",
							"name": "",
							"type": "uint256"
						},
						{
							"internalType": "uint256",
							"name": "",
							"type": "uint256"
						},
						{
							"internalType": "uint256",
							"name": "",
							"type": "uint256"
						},
						{
							"internalType": "uint256",
							"name": "",
							"type": "uint256"
						},
						{
							"internalType": "uint256",
							"name": "",
							"type": "uint256"
						},
						{
							"internalType": "address",
							"name": "",
							"type": "address"
						}
					],
					"stateMutability": "view",
					"type": "function"
				},
				{
					"inputs": [
						{
							"internalType": "address",
							"name": "_user",
							"type": "address"
						},
						{
							"internalType": "uint256",
							"name": "_index",
							"type": "uint256"
						}
					],
					"name": "getUserLockedTokenAtIndex",
					"outputs": [
						{
							"internalType": "address",
							"name": "",
							"type": "address"
						}
					],
					"stateMutability": "view",
					"type": "function"
				},
				{
					"inputs": [
						{
							"internalType": "address",
							"name": "_user",
							"type": "address"
						}
					],
					"name": "getUserNumLockedTokens",
					"outputs": [
						{
							"internalType": "uint256",
							"name": "",
							"type": "uint256"
						}
					],
					"stateMutability": "view",
					"type": "function"
				},
				{
					"inputs": [
						{
							"internalType": "address",
							"name": "_user",
							"type": "address"
						},
						{
							"internalType": "address",
							"name": "_lpToken",
							"type": "address"
						}
					],
					"name": "getUserNumLocksForToken",
					"outputs": [
						{
							"internalType": "uint256",
							"name": "",
							"type": "uint256"
						}
					],
					"stateMutability": "view",
					"type": "function"
				},
				{
					"inputs": [
						{
							"internalType": "address",
							"name": "_user",
							"type": "address"
						}
					],
					"name": "getUserWhitelistStatus",
					"outputs": [
						{
							"internalType": "bool",
							"name": "",
							"type": "bool"
						}
					],
					"stateMutability": "view",
					"type": "function"
				},
				{
					"inputs": [
						{
							"internalType": "uint256",
							"name": "_index",
							"type": "uint256"
						}
					],
					"name": "getWhitelistedUserAtIndex",
					"outputs": [
						{
							"internalType": "address",
							"name": "",
							"type": "address"
						}
					],
					"stateMutability": "view",
					"type": "function"
				},
				{
					"inputs": [],
					"name": "getWhitelistedUsersLength",
					"outputs": [
						{
							"internalType": "uint256",
							"name": "",
							"type": "uint256"
						}
					],
					"stateMutability": "view",
					"type": "function"
				},
				{
					"inputs": [
						{
							"internalType": "address",
							"name": "_lpToken",
							"type": "address"
						},
						{
							"internalType": "uint256",
							"name": "_index",
							"type": "uint256"
						},
						{
							"internalType": "uint256",
							"name": "_lockID",
							"type": "uint256"
						},
						{
							"internalType": "uint256",
							"name": "_amount",
							"type": "uint256"
						}
					],
					"name": "incrementLock",
					"outputs": [],
					"stateMutability": "nonpayable",
					"type": "function"
				},
				{
					"inputs": [
						{
							"internalType": "address",
							"name": "_lpToken",
							"type": "address"
						},
						{
							"internalType": "uint256",
							"name": "_amount",
							"type": "uint256"
						},
						{
							"internalType": "uint256",
							"name": "_unlock_date",
							"type": "uint256"
						},
						{
							"internalType": "address payable",
							"name": "_referral",
							"type": "address"
						},
						{
							"internalType": "bool",
							"name": "_fee_in_eth",
							"type": "bool"
						},
						{
							"internalType": "address payable",
							"name": "_withdrawer",
							"type": "address"
						}
					],
					"name": "lockLPToken",
					"outputs": [],
					"stateMutability": "payable",
					"type": "function"
				},
				{
					"inputs": [
						{
							"internalType": "address",
							"name": "_lpToken",
							"type": "address"
						},
						{
							"internalType": "uint256",
							"name": "_index",
							"type": "uint256"
						},
						{
							"internalType": "uint256",
							"name": "_lockID",
							"type": "uint256"
						},
						{
							"internalType": "uint256",
							"name": "_amount",
							"type": "uint256"
						}
					],
					"name": "migrate",
					"outputs": [],
					"stateMutability": "nonpayable",
					"type": "function"
				},
				{
					"inputs": [],
					"name": "owner",
					"outputs": [
						{
							"internalType": "address",
							"name": "",
							"type": "address"
						}
					],
					"stateMutability": "view",
					"type": "function"
				},
				{
					"inputs": [
						{
							"internalType": "address",
							"name": "_lpToken",
							"type": "address"
						},
						{
							"internalType": "uint256",
							"name": "_index",
							"type": "uint256"
						},
						{
							"internalType": "uint256",
							"name": "_lockID",
							"type": "uint256"
						},
						{
							"internalType": "uint256",
							"name": "_unlock_date",
							"type": "uint256"
						}
					],
					"name": "relock",
					"outputs": [],
					"stateMutability": "nonpayable",
					"type": "function"
				},
				{
					"inputs": [],
					"name": "renounceOwnership",
					"outputs": [],
					"stateMutability": "nonpayable",
					"type": "function"
				},
				{
					"inputs": [
						{
							"internalType": "address payable",
							"name": "_devaddr",
							"type": "address"
						}
					],
					"name": "setDev",
					"outputs": [],
					"stateMutability": "nonpayable",
					"type": "function"
				},
				{
					"inputs": [
						{
							"internalType": "uint256",
							"name": "_referralPercent",
							"type": "uint256"
						},
						{
							"internalType": "uint256",
							"name": "_referralDiscount",
							"type": "uint256"
						},
						{
							"internalType": "uint256",
							"name": "_ethFee",
							"type": "uint256"
						},
						{
							"internalType": "uint256",
							"name": "_secondaryTokenFee",
							"type": "uint256"
						},
						{
							"internalType": "uint256",
							"name": "_secondaryTokenDiscount",
							"type": "uint256"
						},
						{
							"internalType": "uint256",
							"name": "_liquidityFee",
							"type": "uint256"
						}
					],
					"name": "setFees",
					"outputs": [],
					"stateMutability": "nonpayable",
					"type": "function"
				},
				{
					"inputs": [
						{
							"internalType": "contract IMigrator",
							"name": "_migrator",
							"type": "address"
						}
					],
					"name": "setMigrator",
					"outputs": [],
					"stateMutability": "nonpayable",
					"type": "function"
				},
				{
					"inputs": [
						{
							"internalType": "contract IERCBurn",
							"name": "_referralToken",
							"type": "address"
						},
						{
							"internalType": "uint256",
							"name": "_hold",
							"type": "uint256"
						}
					],
					"name": "setReferralTokenAndHold",
					"outputs": [],
					"stateMutability": "nonpayable",
					"type": "function"
				},
				{
					"inputs": [
						{
							"internalType": "address",
							"name": "_secondaryFeeToken",
							"type": "address"
						}
					],
					"name": "setSecondaryFeeToken",
					"outputs": [],
					"stateMutability": "nonpayable",
					"type": "function"
				},
				{
					"inputs": [
						{
							"internalType": "address",
							"name": "_lpToken",
							"type": "address"
						},
						{
							"internalType": "uint256",
							"name": "_index",
							"type": "uint256"
						},
						{
							"internalType": "uint256",
							"name": "_lockID",
							"type": "uint256"
						},
						{
							"internalType": "uint256",
							"name": "_amount",
							"type": "uint256"
						}
					],
					"name": "splitLock",
					"outputs": [],
					"stateMutability": "payable",
					"type": "function"
				},
				{
					"inputs": [
						{
							"internalType": "address",
							"name": "",
							"type": "address"
						},
						{
							"internalType": "uint256",
							"name": "",
							"type": "uint256"
						}
					],
					"name": "tokenLocks",
					"outputs": [
						{
							"internalType": "uint256",
							"name": "lockDate",
							"type": "uint256"
						},
						{
							"internalType": "uint256",
							"name": "amount",
							"type": "uint256"
						},
						{
							"internalType": "uint256",
							"name": "initialAmount",
							"type": "uint256"
						},
						{
							"internalType": "uint256",
							"name": "unlockDate",
							"type": "uint256"
						},
						{
							"internalType": "uint256",
							"name": "lockID",
							"type": "uint256"
						},
						{
							"internalType": "address",
							"name": "owner",
							"type": "address"
						}
					],
					"stateMutability": "view",
					"type": "function"
				},
				{
					"inputs": [
						{
							"internalType": "address",
							"name": "_lpToken",
							"type": "address"
						},
						{
							"internalType": "uint256",
							"name": "_index",
							"type": "uint256"
						},
						{
							"internalType": "uint256",
							"name": "_lockID",
							"type": "uint256"
						},
						{
							"internalType": "address payable",
							"name": "_newOwner",
							"type": "address"
						}
					],
					"name": "transferLockOwnership",
					"outputs": [],
					"stateMutability": "nonpayable",
					"type": "function"
				},
				{
					"inputs": [
						{
							"internalType": "address",
							"name": "newOwner",
							"type": "address"
						}
					],
					"name": "transferOwnership",
					"outputs": [],
					"stateMutability": "nonpayable",
					"type": "function"
				},
				{
					"inputs": [],
					"name": "uniswapFactory",
					"outputs": [
						{
							"internalType": "contract IUniFactory",
							"name": "",
							"type": "address"
						}
					],
					"stateMutability": "view",
					"type": "function"
				},
				{
					"inputs": [
						{
							"internalType": "address",
							"name": "_user",
							"type": "address"
						},
						{
							"internalType": "bool",
							"name": "_add",
							"type": "bool"
						}
					],
					"name": "whitelistFeeAccount",
					"outputs": [],
					"stateMutability": "nonpayable",
					"type": "function"
				},
				{
					"inputs": [
						{
							"internalType": "address",
							"name": "_lpToken",
							"type": "address"
						},
						{
							"internalType": "uint256",
							"name": "_index",
							"type": "uint256"
						},
						{
							"internalType": "uint256",
							"name": "_lockID",
							"type": "uint256"
						},
						{
							"internalType": "uint256",
							"name": "_amount",
							"type": "uint256"
						}
					],
					"name": "withdraw",
					"outputs": [],
					"stateMutability": "nonpayable",
					"type": "function"
				}
			],
			"devdoc": {
				"kind": "dev",
				"methods": {
					"lockLPToken(address,uint256,uint256,address,bool,address)": {
						"params": {
							"_amount": "amount of LP tokens to lock",
							"_fee_in_eth": "fees can be paid in eth or in a secondary token such as Luckmoon Locker with a discount on univ2 tokens",
							"_lpToken": "the univ2 token address",
							"_referral": "the referrer address if any or address(0) for none",
							"_unlock_date": "the unix timestamp (in seconds) until unlock",
							"_withdrawer": "the user who can withdraw liquidity once the lock expires."
						}
					},
					"owner()": {
						"details": "Returns the address of the current owner."
					},
					"renounceOwnership()": {
						"details": "Leaves the contract without owner. It will not be possible to call `onlyOwner` functions anymore. Can only be called by the current owner. NOTE: Renouncing ownership will leave the contract without an owner, thereby removing any functionality that is only available to the owner."
					},
					"setReferralTokenAndHold(address,uint256)": {
						"params": {
							"_hold": "holding period to lock contract",
							"_referralToken": "is "
						}
					},
					"setSecondaryFeeToken(address)": {
						"details": "setSecondaryFeeToken allows the owner of the contract to set the scondary fee token  The secondary fee tokenis an ERC20 token used for paying secondary fees.  ",
						"params": {
							"_secondaryFeeToken": "is address of seconary Fee Token. "
						}
					},
					"transferOwnership(address)": {
						"details": "Transfers ownership of the contract to a new account (`newOwner`). Can only be called by the current owner."
					}
				},
				"version": 1
			},
			"evm": {
				"assembly": "    /* \"UniswapV2Locker.sol\":1228:18884  contract UniswapV2Locker is Ownable, ReentrancyGuard {\r... */\n  mstore(0x40, 0x80)\n    /* \"UniswapV2Locker.sol\":3181:3566  constructor(IUniFactory _uniswapFactory) public {\r... */\n  callvalue\n  dup1\n  iszero\n  tag_1\n  jumpi\n  0x00\n  dup1\n  revert\ntag_1:\n  pop\n  mload(0x40)\n  sub(codesize, bytecodeSize)\n  dup1\n  bytecodeSize\n  dup4\n  codecopy\n  dup2\n  dup2\n  add\n  0x40\n  mstore\n  0x20\n  dup2\n  lt\n  iszero\n  tag_2\n  jumpi\n  0x00\n  dup1\n  revert\ntag_2:\n  pop\n  mload\n    /* \"Ownable.sol\":1013:1030  address msgSender */\n  0x00\n    /* \"Ownable.sol\":1033:1045  _msgSender() */\n  tag_7\n    /* \"Ownable.sol\":1033:1043  _msgSender */\n  tag_8\n    /* \"Ownable.sol\":1033:1045  _msgSender() */\n  jump\t// in\ntag_7:\n    /* \"Ownable.sol\":1055:1061  _owner */\n  0x00\n    /* \"Ownable.sol\":1055:1073  _owner = msgSender */\n  dup1\n  sload\n  not(sub(shl(0xa0, 0x01), 0x01))\n  and\n  sub(shl(0xa0, 0x01), 0x01)\n  dup4\n  and\n  swap1\n  dup2\n  or\n  dup3\n  sstore\n    /* \"Ownable.sol\":1088:1131  OwnershipTransferred(address(0), msgSender) */\n  mload(0x40)\n    /* \"Ownable.sol\":1055:1073  _owner = msgSender */\n  swap3\n  swap4\n  pop\n  swap2\n    /* \"Ownable.sol\":1088:1131  OwnershipTransferred(address(0), msgSender) */\n  0x8be0079c531659141344cd1fd0a4f28419497f9722a3daafe3b4186f6b6457e0\n  swap1\n    /* \"Ownable.sol\":1055:1061  _owner */\n  dup3\n  swap1\n    /* \"Ownable.sol\":1088:1131  OwnershipTransferred(address(0), msgSender) */\n  log3\n  pop\n    /* \"ReentrancyGuard.sol\":1823:1824  1 */\n  0x01\n    /* \"ReentrancyGuard.sol\":1944:1966  _status = _NOT_ENTERED */\n  dup1\n  sstore\n    /* \"UniswapV2Locker.sol\":3236:3243  devaddr */\n  0x12\n    /* \"UniswapV2Locker.sol\":3236:3256  devaddr = msg.sender */\n  dup1\n  sload\n    /* \"UniswapV2Locker.sol\":3246:3256  msg.sender */\n  caller\n  not(sub(shl(0xa0, 0x01), 0x01))\n    /* \"UniswapV2Locker.sol\":3236:3256  devaddr = msg.sender */\n  swap2\n  dup3\n  and\n  or\n  swap1\n  swap2\n  sstore\n    /* \"UniswapV2Locker.sol\":3287:3290  250 */\n  0xfa\n    /* \"UniswapV2Locker.sol\":3263:3284  gFees.referralPercent */\n  0x0c\n    /* \"UniswapV2Locker.sol\":3263:3290  gFees.referralPercent = 250 */\n  sstore\n    /* \"UniswapV2Locker.sol\":3319:3323  1e18 */\n  0x0de0b6b3a7640000\n    /* \"UniswapV2Locker.sol\":3263:3268  gFees */\n  0x07\n    /* \"UniswapV2Locker.sol\":3304:3323  gFees.ethFee = 1e18 */\n  sstore\n    /* \"UniswapV2Locker.sol\":3356:3362  100e18 */\n  0x056bc75e2d63100000\n    /* \"UniswapV2Locker.sol\":3330:3353  gFees.secondaryTokenFee */\n  0x09\n    /* \"UniswapV2Locker.sol\":3330:3362  gFees.secondaryTokenFee = 100e18 */\n  sstore\n    /* \"UniswapV2Locker.sol\":3400:3403  200 */\n  0xc8\n    /* \"UniswapV2Locker.sol\":3369:3397  gFees.secondaryTokenDiscount */\n  0x0a\n    /* \"UniswapV2Locker.sol\":3369:3403  gFees.secondaryTokenDiscount = 200 */\n  swap1\n  dup2\n  sstore\n  0x0b\n    /* \"UniswapV2Locker.sol\":3417:3440  gFees.liquidityFee = 10 */\n  sstore\n    /* \"UniswapV2Locker.sol\":3474:3479  10e18 */\n  0x8ac7230489e80000\n    /* \"UniswapV2Locker.sol\":3453:3471  gFees.referralHold */\n  0x0e\n    /* \"UniswapV2Locker.sol\":3453:3479  gFees.referralHold = 10e18 */\n  sstore\n    /* \"UniswapV2Locker.sol\":3511:3514  100 */\n  0x64\n    /* \"UniswapV2Locker.sol\":3486:3508  gFees.referralDiscount */\n  0x0f\n    /* \"UniswapV2Locker.sol\":3486:3514  gFees.referralDiscount = 100 */\n  sstore\n  0x02\n    /* \"UniswapV2Locker.sol\":3528:3560  uniswapFactory = _uniswapFactory */\n  dup1\n  sload\n  swap1\n  swap2\n  and\n  sub(shl(0xa0, 0x01), 0x01)\n  swap3\n  swap1\n  swap3\n  and\n  swap2\n  swap1\n  swap2\n  or\n  swap1\n  sstore\n    /* \"UniswapV2Locker.sol\":1228:18884  contract UniswapV2Locker is Ownable, ReentrancyGuard {\r... */\n  jump(tag_11)\n    /* \"Context.sol\":731:835  function _msgSender() internal view virtual returns (address payable) {... */\ntag_8:\n    /* \"Context.sol\":818:828  msg.sender */\n  caller\n    /* \"Context.sol\":731:835  function _msgSender() internal view virtual returns (address payable) {... */\n  swap1\n  jump\t// out\n    /* \"UniswapV2Locker.sol\":1228:18884  contract UniswapV2Locker is Ownable, ReentrancyGuard {\r... */\ntag_11:\n  dataSize(sub_0)\n  dup1\n  dataOffset(sub_0)\n  0x00\n  codecopy\n  0x00\n  return\nstop\n\nsub_0: assembly {\n        /* \"UniswapV2Locker.sol\":1228:18884  contract UniswapV2Locker is Ownable, ReentrancyGuard {\r... */\n      mstore(0x40, 0x80)\n      jumpi(tag_1, lt(calldatasize, 0x04))\n      shr(0xe0, calldataload(0x00))\n      dup1\n      0x8da5cb5b\n      gt\n      tag_31\n      jumpi\n      dup1\n      0xb9863a44\n      gt\n      tag_32\n      jumpi\n      dup1\n      0xd4ff493f\n      gt\n      tag_33\n      jumpi\n      dup1\n      0xd4ff493f\n      eq\n      tag_27\n      jumpi\n      dup1\n      0xee424278\n      eq\n      tag_28\n      jumpi\n      dup1\n      0xf02c2643\n      eq\n      tag_29\n      jumpi\n      dup1\n      0xf2fde38b\n      eq\n      tag_30\n      jumpi\n      jump(tag_1)\n    tag_33:\n      dup1\n      0xb9863a44\n      eq\n      tag_23\n      jumpi\n      dup1\n      0xbef497fd\n      eq\n      tag_24\n      jumpi\n      dup1\n      0xccebfa3f\n      eq\n      tag_25\n      jumpi\n      dup1\n      0xd477f05f\n      eq\n      tag_26\n      jumpi\n      jump(tag_1)\n    tag_32:\n      dup1\n      0x91ff1eb1\n      gt\n      tag_34\n      jumpi\n      dup1\n      0x91ff1eb1\n      eq\n      tag_19\n      jumpi\n      dup1\n      0xa3969815\n      eq\n      tag_20\n      jumpi\n      dup1\n      0xa69d9c4f\n      eq\n      tag_21\n      jumpi\n      dup1\n      0xa9b07cea\n      eq\n      tag_22\n      jumpi\n      jump(tag_1)\n    tag_34:\n      dup1\n      0x8da5cb5b\n      eq\n      tag_16\n      jumpi\n      dup1\n      0x903df806\n      eq\n      tag_17\n      jumpi\n      dup1\n      0x90e1a003\n      eq\n      tag_18\n      jumpi\n      jump(tag_1)\n    tag_31:\n      dup1\n      0x715018a6\n      gt\n      tag_35\n      jumpi\n      dup1\n      0x8931a4be\n      gt\n      tag_36\n      jumpi\n      dup1\n      0x8931a4be\n      eq\n      tag_12\n      jumpi\n      dup1\n      0x8af416f6\n      eq\n      tag_13\n      jumpi\n      dup1\n      0x8bdb2afa\n      eq\n      tag_14\n      jumpi\n      dup1\n      0x8c301df8\n      eq\n      tag_15\n      jumpi\n      jump(tag_1)\n    tag_36:\n      dup1\n      0x715018a6\n      eq\n      tag_9\n      jumpi\n      dup1\n      0x783451e8\n      eq\n      tag_10\n      jumpi\n      dup1\n      0x86f6c3c1\n      eq\n      tag_11\n      jumpi\n      jump(tag_1)\n    tag_35:\n      dup1\n      0x4532d776\n      gt\n      tag_37\n      jumpi\n      dup1\n      0x4532d776\n      eq\n      tag_5\n      jumpi\n      dup1\n      0x4bb18e3f\n      eq\n      tag_6\n      jumpi\n      dup1\n      0x582d5adc\n      eq\n      tag_7\n      jumpi\n      dup1\n      0x60491d24\n      eq\n      tag_8\n      jumpi\n      jump(tag_1)\n    tag_37:\n      dup1\n      0x14dd79a3\n      eq\n      tag_2\n      jumpi\n      dup1\n      0x1f2a1d2f\n      eq\n      tag_3\n      jumpi\n      dup1\n      0x23cf3118\n      eq\n      tag_4\n      jumpi\n    tag_1:\n      0x00\n      dup1\n      revert\n        /* \"UniswapV2Locker.sol\":17306:17429  function getLockedTokenAtIndex (uint256 _index) external view returns (address) {\r... */\n    tag_2:\n      callvalue\n      dup1\n      iszero\n      tag_38\n      jumpi\n      0x00\n      dup1\n      revert\n    tag_38:\n      pop\n      tag_39\n      0x04\n      dup1\n      calldatasize\n      sub\n      0x20\n      dup2\n      lt\n      iszero\n      tag_40\n      jumpi\n      0x00\n      dup1\n      revert\n    tag_40:\n      pop\n      calldataload\n      tag_41\n      jump\t// in\n    tag_39:\n      0x40\n      dup1\n      mload\n      sub(shl(0xa0, 0x01), 0x01)\n      swap1\n      swap3\n      and\n      dup3\n      mstore\n      mload\n      swap1\n      dup2\n      swap1\n      sub\n      0x20\n      add\n      swap1\n      return\n        /* \"UniswapV2Locker.sol\":17059:17186  function getNumLocksForToken (address _lpToken) external view returns (uint256) {\r... */\n    tag_3:\n      callvalue\n      dup1\n      iszero\n      tag_42\n      jumpi\n      0x00\n      dup1\n      revert\n    tag_42:\n      pop\n      tag_43\n      0x04\n      dup1\n      calldatasize\n      sub\n      0x20\n      dup2\n      lt\n      iszero\n      tag_44\n      jumpi\n      0x00\n      dup1\n      revert\n    tag_44:\n      pop\n      calldataload\n      sub(shl(0xa0, 0x01), 0x01)\n      and\n      tag_45\n      jump\t// in\n    tag_43:\n      0x40\n      dup1\n      mload\n      swap2\n      dup3\n      mstore\n      mload\n      swap1\n      dup2\n      swap1\n      sub\n      0x20\n      add\n      swap1\n      return\n        /* \"UniswapV2Locker.sol\":3805:3897  function setMigrator(IMigrator _migrator) public onlyOwner {\r... */\n    tag_4:\n      callvalue\n      dup1\n      iszero\n      tag_46\n      jumpi\n      0x00\n      dup1\n      revert\n    tag_46:\n      pop\n      tag_47\n      0x04\n      dup1\n      calldatasize\n      sub\n      0x20\n      dup2\n      lt\n      iszero\n      tag_48\n      jumpi\n      0x00\n      dup1\n      revert\n    tag_48:\n      pop\n      calldataload\n      sub(shl(0xa0, 0x01), 0x01)\n      and\n      tag_49\n      jump\t// in\n    tag_47:\n      stop\n        /* \"UniswapV2Locker.sol\":11392:12374  function withdraw (address _lpToken, uint256 _index, uint256 _lockID, uint256 _amount) external nonReentrant {\r... */\n    tag_5:\n      callvalue\n      dup1\n      iszero\n      tag_50\n      jumpi\n      0x00\n      dup1\n      revert\n    tag_50:\n      pop\n      tag_47\n      0x04\n      dup1\n      calldatasize\n      sub\n      0x80\n      dup2\n      lt\n      iszero\n      tag_52\n      jumpi\n      0x00\n      dup1\n      revert\n    tag_52:\n      pop\n      sub(shl(0xa0, 0x01), 0x01)\n      dup2\n      calldataload\n      and\n      swap1\n      0x20\n      dup2\n      add\n      calldataload\n      swap1\n      0x40\n      dup2\n      add\n      calldataload\n      swap1\n      0x60\n      add\n      calldataload\n      tag_53\n      jump\t// in\n        /* \"UniswapV2Locker.sol\":18502:18613  function getWhitelistedUsersLength () external view returns (uint256) {\r... */\n    tag_6:\n      callvalue\n      dup1\n      iszero\n      tag_54\n      jumpi\n      0x00\n      dup1\n      revert\n    tag_54:\n      pop\n      tag_43\n      tag_56\n      jump\t// in\n        /* \"UniswapV2Locker.sol\":13664:14826  function splitLock (address _lpToken, uint256 _index, uint256 _lockID, uint256 _amount) external payable nonReentrant {\r... */\n    tag_7:\n      tag_47\n      0x04\n      dup1\n      calldatasize\n      sub\n      0x80\n      dup2\n      lt\n      iszero\n      tag_58\n      jumpi\n      0x00\n      dup1\n      revert\n    tag_58:\n      pop\n      sub(shl(0xa0, 0x01), 0x01)\n      dup2\n      calldataload\n      and\n      swap1\n      0x20\n      dup2\n      add\n      calldataload\n      swap1\n      0x40\n      dup2\n      add\n      calldataload\n      swap1\n      0x60\n      add\n      calldataload\n      tag_59\n      jump\t// in\n        /* \"UniswapV2Locker.sol\":10258:11158  function relock (address _lpToken, uint256 _index, uint256 _lockID, uint256 _unlock_date) external nonReentrant {\r... */\n    tag_8:\n      callvalue\n      dup1\n      iszero\n      tag_60\n      jumpi\n      0x00\n      dup1\n      revert\n    tag_60:\n      pop\n      tag_47\n      0x04\n      dup1\n      calldatasize\n      sub\n      0x80\n      dup2\n      lt\n      iszero\n      tag_62\n      jumpi\n      0x00\n      dup1\n      revert\n    tag_62:\n      pop\n      sub(shl(0xa0, 0x01), 0x01)\n      dup2\n      calldataload\n      and\n      swap1\n      0x20\n      dup2\n      add\n      calldataload\n      swap1\n      0x40\n      dup2\n      add\n      calldataload\n      swap1\n      0x60\n      add\n      calldataload\n      tag_63\n      jump\t// in\n        /* \"Ownable.sol\":1837:1982  function renounceOwnership() public virtual onlyOwner {... */\n    tag_9:\n      callvalue\n      dup1\n      iszero\n      tag_64\n      jumpi\n      0x00\n      dup1\n      revert\n    tag_64:\n      pop\n      tag_47\n      tag_66\n      jump\t// in\n        /* \"UniswapV2Locker.sol\":17194:17298  function getNumLockedTokens () external view returns (uint256) {\r... */\n    tag_10:\n      callvalue\n      dup1\n      iszero\n      tag_67\n      jumpi\n      0x00\n      dup1\n      revert\n    tag_67:\n      pop\n      tag_43\n      tag_69\n      jump\t// in\n        /* \"UniswapV2Locker.sol\":4902:5374  function setFees(uint256 _referralPercent, uint256 _referralDiscount, uint256 _ethFee, uint256 _secondaryTokenFee, uint256 _secondaryTokenDiscount, uint256 _liquidityFee) public onlyOwner {\r... */\n    tag_11:\n      callvalue\n      dup1\n      iszero\n      tag_70\n      jumpi\n      0x00\n      dup1\n      revert\n    tag_70:\n      pop\n      tag_47\n      0x04\n      dup1\n      calldatasize\n      sub\n      0xc0\n      dup2\n      lt\n      iszero\n      tag_72\n      jumpi\n      0x00\n      dup1\n      revert\n    tag_72:\n      pop\n      dup1\n      calldataload\n      swap1\n      0x20\n      dup2\n      add\n      calldataload\n      swap1\n      0x40\n      dup2\n      add\n      calldataload\n      swap1\n      0x60\n      dup2\n      add\n      calldataload\n      swap1\n      0x80\n      dup2\n      add\n      calldataload\n      swap1\n      0xa0\n      add\n      calldataload\n      tag_73\n      jump\t// in\n        /* \"UniswapV2Locker.sol\":4161:4303  function setSecondaryFeeToken(address _secondaryFeeToken) public onlyOwner {\r... */\n    tag_12:\n      callvalue\n      dup1\n      iszero\n      tag_74\n      jumpi\n      0x00\n      dup1\n      revert\n    tag_74:\n      pop\n      tag_47\n      0x04\n      dup1\n      calldatasize\n      sub\n      0x20\n      dup2\n      lt\n      iszero\n      tag_76\n      jumpi\n      0x00\n      dup1\n      revert\n    tag_76:\n      pop\n      calldataload\n      sub(shl(0xa0, 0x01), 0x01)\n      and\n      tag_77\n      jump\t// in\n        /* \"UniswapV2Locker.sol\":6197:10027  function lockLPToken (address _lpToken, uint256 _amount, uint256 _unlock_date, address payable _referral, bool _fee_in_eth, address payable _withdrawer) external payable nonReentrant {\r... */\n    tag_13:\n      tag_47\n      0x04\n      dup1\n      calldatasize\n      sub\n      0xc0\n      dup2\n      lt\n      iszero\n      tag_79\n      jumpi\n      0x00\n      dup1\n      revert\n    tag_79:\n      pop\n      sub(shl(0xa0, 0x01), 0x01)\n      dup2\n      calldataload\n      dup2\n      and\n      swap2\n      0x20\n      dup2\n      add\n      calldataload\n      swap2\n      0x40\n      dup3\n      add\n      calldataload\n      swap2\n      0x60\n      dup2\n      add\n      calldataload\n      dup3\n      and\n      swap2\n      0x80\n      dup3\n      add\n      calldataload\n      iszero\n      iszero\n      swap2\n      0xa0\n      add\n      calldataload\n      and\n      tag_80\n      jump\t// in\n        /* \"UniswapV2Locker.sol\":1372:1405  IUniFactory public uniswapFactory */\n    tag_14:\n      callvalue\n      dup1\n      iszero\n      tag_81\n      jumpi\n      0x00\n      dup1\n      revert\n    tag_81:\n      pop\n      tag_39\n      tag_83\n      jump\t// in\n        /* \"UniswapV2Locker.sol\":18621:18748  function getWhitelistedUserAtIndex (uint256 _index) external view returns (address) {\r... */\n    tag_15:\n      callvalue\n      dup1\n      iszero\n      tag_84\n      jumpi\n      0x00\n      dup1\n      revert\n    tag_84:\n      pop\n      tag_39\n      0x04\n      dup1\n      calldatasize\n      sub\n      0x20\n      dup2\n      lt\n      iszero\n      tag_86\n      jumpi\n      0x00\n      dup1\n      revert\n    tag_86:\n      pop\n      calldataload\n      tag_87\n      jump\t// in\n        /* \"Ownable.sol\":1214:1291  function owner() public view returns (address) {... */\n    tag_16:\n      callvalue\n      dup1\n      iszero\n      tag_88\n      jumpi\n      0x00\n      dup1\n      revert\n    tag_88:\n      pop\n      tag_39\n      tag_90\n      jump\t// in\n        /* \"UniswapV2Locker.sol\":17635:17825  function getUserLockedTokenAtIndex (address _user, uint256 _index) external view returns (address) {\r... */\n    tag_17:\n      callvalue\n      dup1\n      iszero\n      tag_91\n      jumpi\n      0x00\n      dup1\n      revert\n    tag_91:\n      pop\n      tag_39\n      0x04\n      dup1\n      calldatasize\n      sub\n      0x40\n      dup2\n      lt\n      iszero\n      tag_93\n      jumpi\n      0x00\n      dup1\n      revert\n    tag_93:\n      pop\n      sub(shl(0xa0, 0x01), 0x01)\n      dup2\n      calldataload\n      and\n      swap1\n      0x20\n      add\n      calldataload\n      tag_94\n      jump\t// in\n        /* \"UniswapV2Locker.sol\":2882:2904  FeeStruct public gFees */\n    tag_18:\n      callvalue\n      dup1\n      iszero\n      tag_95\n      jumpi\n      0x00\n      dup1\n      revert\n    tag_95:\n      pop\n      tag_96\n      tag_97\n      jump\t// in\n    tag_96:\n      mload(0x40)\n      dup1\n      dup11\n      dup2\n      mstore\n      0x20\n      add\n      dup10\n      sub(shl(0xa0, 0x01), 0x01)\n      and\n      dup2\n      mstore\n      0x20\n      add\n      dup9\n      dup2\n      mstore\n      0x20\n      add\n      dup8\n      dup2\n      mstore\n      0x20\n      add\n      dup7\n      dup2\n      mstore\n      0x20\n      add\n      dup6\n      dup2\n      mstore\n      0x20\n      add\n      dup5\n      sub(shl(0xa0, 0x01), 0x01)\n      and\n      dup2\n      mstore\n      0x20\n      add\n      dup4\n      dup2\n      mstore\n      0x20\n      add\n      dup3\n      dup2\n      mstore\n      0x20\n      add\n      swap10\n      pop\n      pop\n      pop\n      pop\n      pop\n      pop\n      pop\n      pop\n      pop\n      pop\n      mload(0x40)\n      dup1\n      swap2\n      sub\n      swap1\n      return\n        /* \"UniswapV2Locker.sol\":5508:5691  function whitelistFeeAccount(address _user, bool _add) public onlyOwner {\r... */\n    tag_19:\n      callvalue\n      dup1\n      iszero\n      tag_98\n      jumpi\n      0x00\n      dup1\n      revert\n    tag_98:\n      pop\n      tag_47\n      0x04\n      dup1\n      calldatasize\n      sub\n      0x40\n      dup2\n      lt\n      iszero\n      tag_100\n      jumpi\n      0x00\n      dup1\n      revert\n    tag_100:\n      pop\n      sub(shl(0xa0, 0x01), 0x01)\n      dup2\n      calldataload\n      and\n      swap1\n      0x20\n      add\n      calldataload\n      iszero\n      iszero\n      tag_101\n      jump\t// in\n        /* \"UniswapV2Locker.sol\":17458:17627  function getUserNumLockedTokens (address _user) external view returns (uint256) {\r... */\n    tag_20:\n      callvalue\n      dup1\n      iszero\n      tag_102\n      jumpi\n      0x00\n      dup1\n      revert\n    tag_102:\n      pop\n      tag_43\n      0x04\n      dup1\n      calldatasize\n      sub\n      0x20\n      dup2\n      lt\n      iszero\n      tag_104\n      jumpi\n      0x00\n      dup1\n      revert\n    tag_104:\n      pop\n      calldataload\n      sub(shl(0xa0, 0x01), 0x01)\n      and\n      tag_105\n      jump\t// in\n        /* \"UniswapV2Locker.sol\":17833:18030  function getUserNumLocksForToken (address _user, address _lpToken) external view returns (uint256) {\r... */\n    tag_21:\n      callvalue\n      dup1\n      iszero\n      tag_106\n      jumpi\n      0x00\n      dup1\n      revert\n    tag_106:\n      pop\n      tag_43\n      0x04\n      dup1\n      calldatasize\n      sub\n      0x40\n      dup2\n      lt\n      iszero\n      tag_108\n      jumpi\n      0x00\n      dup1\n      revert\n    tag_108:\n      pop\n      sub(shl(0xa0, 0x01), 0x01)\n      dup2\n      calldataload\n      dup2\n      and\n      swap2\n      0x20\n      add\n      calldataload\n      and\n      tag_109\n      jump\t// in\n        /* \"UniswapV2Locker.sol\":12561:13481  function incrementLock (address _lpToken, uint256 _index, uint256 _lockID, uint256 _amount) external nonReentrant {\r... */\n    tag_22:\n      callvalue\n      dup1\n      iszero\n      tag_110\n      jumpi\n      0x00\n      dup1\n      revert\n    tag_110:\n      pop\n      tag_47\n      0x04\n      dup1\n      calldatasize\n      sub\n      0x80\n      dup2\n      lt\n      iszero\n      tag_112\n      jumpi\n      0x00\n      dup1\n      revert\n    tag_112:\n      pop\n      sub(shl(0xa0, 0x01), 0x01)\n      dup2\n      calldataload\n      and\n      swap1\n      0x20\n      dup2\n      add\n      calldataload\n      swap1\n      0x40\n      dup2\n      add\n      calldataload\n      swap1\n      0x60\n      add\n      calldataload\n      tag_113\n      jump\t// in\n        /* \"UniswapV2Locker.sol\":18756:18881  function getUserWhitelistStatus (address _user) external view returns (bool) {\r... */\n    tag_23:\n      callvalue\n      dup1\n      iszero\n      tag_114\n      jumpi\n      0x00\n      dup1\n      revert\n    tag_114:\n      pop\n      tag_115\n      0x04\n      dup1\n      calldatasize\n      sub\n      0x20\n      dup2\n      lt\n      iszero\n      tag_116\n      jumpi\n      0x00\n      dup1\n      revert\n    tag_116:\n      pop\n      calldataload\n      sub(shl(0xa0, 0x01), 0x01)\n      and\n      tag_117\n      jump\t// in\n    tag_115:\n      0x40\n      dup1\n      mload\n      swap2\n      iszero\n      iszero\n      dup3\n      mstore\n      mload\n      swap1\n      dup2\n      swap1\n      sub\n      0x20\n      add\n      swap1\n      return\n        /* \"UniswapV2Locker.sol\":14932:15961  function transferLockOwnership (address _lpToken, uint256 _index, uint256 _lockID, address payable _newOwner) external {\r... */\n    tag_24:\n      callvalue\n      dup1\n      iszero\n      tag_118\n      jumpi\n      0x00\n      dup1\n      revert\n    tag_118:\n      pop\n      tag_47\n      0x04\n      dup1\n      calldatasize\n      sub\n      0x80\n      dup2\n      lt\n      iszero\n      tag_120\n      jumpi\n      0x00\n      dup1\n      revert\n    tag_120:\n      pop\n      sub(shl(0xa0, 0x01), 0x01)\n      dup2\n      calldataload\n      dup2\n      and\n      swap2\n      0x20\n      dup2\n      add\n      calldataload\n      swap2\n      0x40\n      dup3\n      add\n      calldataload\n      swap2\n      0x60\n      add\n      calldataload\n      and\n      tag_121\n      jump\t// in\n        /* \"UniswapV2Locker.sol\":2087:2136  mapping(address => TokenLock[]) public tokenLocks */\n    tag_25:\n      callvalue\n      dup1\n      iszero\n      tag_122\n      jumpi\n      0x00\n      dup1\n      revert\n    tag_122:\n      pop\n      tag_123\n      0x04\n      dup1\n      calldatasize\n      sub\n      0x40\n      dup2\n      lt\n      iszero\n      tag_124\n      jumpi\n      0x00\n      dup1\n      revert\n    tag_124:\n      pop\n      sub(shl(0xa0, 0x01), 0x01)\n      dup2\n      calldataload\n      and\n      swap1\n      0x20\n      add\n      calldataload\n      tag_125\n      jump\t// in\n    tag_123:\n      0x40\n      dup1\n      mload\n      swap7\n      dup8\n      mstore\n      0x20\n      dup8\n      add\n      swap6\n      swap1\n      swap6\n      mstore\n      dup6\n      dup6\n      add\n      swap4\n      swap1\n      swap4\n      mstore\n      0x60\n      dup6\n      add\n      swap2\n      swap1\n      swap2\n      mstore\n      0x80\n      dup5\n      add\n      mstore\n      sub(shl(0xa0, 0x01), 0x01)\n      and\n      0xa0\n      dup4\n      add\n      mstore\n      mload\n      swap1\n      dup2\n      swap1\n      sub\n      0xc0\n      add\n      swap1\n      return\n        /* \"UniswapV2Locker.sol\":3594:3684  function setDev(address payable _devaddr) public onlyOwner {\r... */\n    tag_26:\n      callvalue\n      dup1\n      iszero\n      tag_126\n      jumpi\n      0x00\n      dup1\n      revert\n    tag_126:\n      pop\n      tag_47\n      0x04\n      dup1\n      calldatasize\n      sub\n      0x20\n      dup2\n      lt\n      iszero\n      tag_128\n      jumpi\n      0x00\n      dup1\n      revert\n    tag_128:\n      pop\n      calldataload\n      sub(shl(0xa0, 0x01), 0x01)\n      and\n      tag_129\n      jump\t// in\n        /* \"UniswapV2Locker.sol\":18038:18478  function getUserLockForTokenAtIndex (address _user, address _lpToken, uint256 _index) external view \r... */\n    tag_27:\n      callvalue\n      dup1\n      iszero\n      tag_130\n      jumpi\n      0x00\n      dup1\n      revert\n    tag_130:\n      pop\n      tag_123\n      0x04\n      dup1\n      calldatasize\n      sub\n      0x60\n      dup2\n      lt\n      iszero\n      tag_132\n      jumpi\n      0x00\n      dup1\n      revert\n    tag_132:\n      pop\n      sub(shl(0xa0, 0x01), 0x01)\n      dup2\n      calldataload\n      dup2\n      and\n      swap2\n      0x20\n      dup2\n      add\n      calldataload\n      swap1\n      swap2\n      and\n      swap1\n      0x40\n      add\n      calldataload\n      tag_133\n      jump\t// in\n        /* \"UniswapV2Locker.sol\":16030:17051  function migrate (address _lpToken, uint256 _index, uint256 _lockID, uint256 _amount) external nonReentrant {\r... */\n    tag_28:\n      callvalue\n      dup1\n      iszero\n      tag_134\n      jumpi\n      0x00\n      dup1\n      revert\n    tag_134:\n      pop\n      tag_47\n      0x04\n      dup1\n      calldatasize\n      sub\n      0x80\n      dup2\n      lt\n      iszero\n      tag_136\n      jumpi\n      0x00\n      dup1\n      revert\n    tag_136:\n      pop\n      sub(shl(0xa0, 0x01), 0x01)\n      dup2\n      calldataload\n      and\n      swap1\n      0x20\n      dup2\n      add\n      calldataload\n      swap1\n      0x40\n      dup2\n      add\n      calldataload\n      swap1\n      0x60\n      add\n      calldataload\n      tag_137\n      jump\t// in\n        /* \"UniswapV2Locker.sol\":4603:4775  function setReferralTokenAndHold(IERCBurn _referralToken, uint256 _hold) public onlyOwner {\r... */\n    tag_29:\n      callvalue\n      dup1\n      iszero\n      tag_138\n      jumpi\n      0x00\n      dup1\n      revert\n    tag_138:\n      pop\n      tag_47\n      0x04\n      dup1\n      calldatasize\n      sub\n      0x40\n      dup2\n      lt\n      iszero\n      tag_140\n      jumpi\n      0x00\n      dup1\n      revert\n    tag_140:\n      pop\n      sub(shl(0xa0, 0x01), 0x01)\n      dup2\n      calldataload\n      and\n      swap1\n      0x20\n      add\n      calldataload\n      tag_141\n      jump\t// in\n        /* \"Ownable.sol\":2131:2371  function transferOwnership(address newOwner) public virtual onlyOwner {... */\n    tag_30:\n      callvalue\n      dup1\n      iszero\n      tag_142\n      jumpi\n      0x00\n      dup1\n      revert\n    tag_142:\n      pop\n      tag_47\n      0x04\n      dup1\n      calldatasize\n      sub\n      0x20\n      dup2\n      lt\n      iszero\n      tag_144\n      jumpi\n      0x00\n      dup1\n      revert\n    tag_144:\n      pop\n      calldataload\n      sub(shl(0xa0, 0x01), 0x01)\n      and\n      tag_145\n      jump\t// in\n        /* \"UniswapV2Locker.sol\":17306:17429  function getLockedTokenAtIndex (uint256 _index) external view returns (address) {\r... */\n    tag_41:\n        /* \"UniswapV2Locker.sol\":17377:17384  address */\n      0x00\n        /* \"UniswapV2Locker.sol\":17400:17423  lockedTokens.at(_index) */\n      tag_147\n        /* \"UniswapV2Locker.sol\":17400:17412  lockedTokens */\n      0x04\n        /* \"UniswapV2Locker.sol\":17416:17422  _index */\n      dup4\n        /* \"UniswapV2Locker.sol\":17400:17415  lockedTokens.at */\n      tag_148\n        /* \"UniswapV2Locker.sol\":17400:17423  lockedTokens.at(_index) */\n      jump\t// in\n    tag_147:\n        /* \"UniswapV2Locker.sol\":17393:17423  return lockedTokens.at(_index) */\n      swap3\n        /* \"UniswapV2Locker.sol\":17306:17429  function getLockedTokenAtIndex (uint256 _index) external view returns (address) {\r... */\n      swap2\n      pop\n      pop\n      jump\t// out\n        /* \"UniswapV2Locker.sol\":17059:17186  function getNumLocksForToken (address _lpToken) external view returns (uint256) {\r... */\n    tag_45:\n      sub(shl(0xa0, 0x01), 0x01)\n        /* \"UniswapV2Locker.sol\":17153:17173  tokenLocks[_lpToken] */\n      and\n        /* \"UniswapV2Locker.sol\":17130:17137  uint256 */\n      0x00\n        /* \"UniswapV2Locker.sol\":17153:17173  tokenLocks[_lpToken] */\n      swap1\n      dup2\n      mstore\n        /* \"UniswapV2Locker.sol\":17153:17163  tokenLocks */\n      0x06\n        /* \"UniswapV2Locker.sol\":17153:17173  tokenLocks[_lpToken] */\n      0x20\n      mstore\n      0x40\n      swap1\n      keccak256\n        /* \"UniswapV2Locker.sol\":17153:17180  tokenLocks[_lpToken].length */\n      sload\n      swap1\n        /* \"UniswapV2Locker.sol\":17059:17186  function getNumLocksForToken (address _lpToken) external view returns (uint256) {\r... */\n      jump\t// out\n        /* \"UniswapV2Locker.sol\":3805:3897  function setMigrator(IMigrator _migrator) public onlyOwner {\r... */\n    tag_49:\n        /* \"Ownable.sol\":1428:1440  _msgSender() */\n      tag_151\n        /* \"Ownable.sol\":1428:1438  _msgSender */\n      tag_152\n        /* \"Ownable.sol\":1428:1440  _msgSender() */\n      jump\t// in\n    tag_151:\n        /* \"Ownable.sol\":1418:1424  _owner */\n      sload(0x00)\n      sub(shl(0xa0, 0x01), 0x01)\n      swap1\n      dup2\n      and\n        /* \"Ownable.sol\":1418:1440  _owner == _msgSender() */\n      swap2\n      and\n      eq\n        /* \"Ownable.sol\":1410:1477  require(_owner == _msgSender(), \"Ownable: caller is not the owner\") */\n      tag_153\n      jumpi\n      0x40\n      dup1\n      mload\n      shl(0xe5, 0x461bcd)\n      dup2\n      mstore\n      0x20\n      0x04\n      dup3\n      add\n      dup2\n      swap1\n      mstore\n      0x24\n      dup3\n      add\n      mstore\n      0x00\n      dup1\n      mload\n      0x20\n      data_9924ebdf1add33d25d4ef888e16131f0a5687b0580a36c21b5c301a6c462effe\n      dup4\n      codecopy\n      dup2\n      mload\n      swap2\n      mstore\n      0x44\n      dup3\n      add\n      mstore\n      swap1\n      mload\n      swap1\n      dup2\n      swap1\n      sub\n      0x64\n      add\n      swap1\n      revert\n    tag_153:\n        /* \"UniswapV2Locker.sol\":3871:3879  migrator */\n      0x13\n        /* \"UniswapV2Locker.sol\":3871:3891  migrator = _migrator */\n      dup1\n      sload\n      not(sub(shl(0xa0, 0x01), 0x01))\n      and\n      sub(shl(0xa0, 0x01), 0x01)\n      swap3\n      swap1\n      swap3\n      and\n      swap2\n      swap1\n      swap2\n      or\n      swap1\n      sstore\n        /* \"UniswapV2Locker.sol\":3805:3897  function setMigrator(IMigrator _migrator) public onlyOwner {\r... */\n      jump\t// out\n        /* \"UniswapV2Locker.sol\":11392:12374  function withdraw (address _lpToken, uint256 _index, uint256 _lockID, uint256 _amount) external nonReentrant {\r... */\n    tag_53:\n        /* \"ReentrancyGuard.sol\":1867:1868  2 */\n      0x02\n        /* \"ReentrancyGuard.sol\":2473:2480  _status */\n      sload(0x01)\n        /* \"ReentrancyGuard.sol\":2473:2492  _status != _ENTERED */\n      eq\n      iszero\n        /* \"ReentrancyGuard.sol\":2465:2528  require(_status != _ENTERED, \"ReentrancyGuard: reentrant call\") */\n      tag_156\n      jumpi\n      0x40\n      dup1\n      mload\n      shl(0xe5, 0x461bcd)\n      dup2\n      mstore\n      0x20\n      0x04\n      dup3\n      add\n      mstore\n      0x1f\n      0x24\n      dup3\n      add\n      mstore\n      0x00\n      dup1\n      mload\n      0x20\n      data_0d74825aecb0211bbe1f02ccfb998d9e49771bedb2c6414e20fd8978a2e0f54c\n      dup4\n      codecopy\n      dup2\n      mload\n      swap2\n      mstore\n      0x44\n      dup3\n      add\n      mstore\n      swap1\n      mload\n      swap1\n      dup2\n      swap1\n      sub\n      0x64\n      add\n      swap1\n      revert\n    tag_156:\n        /* \"ReentrancyGuard.sol\":1867:1868  2 */\n      0x02\n        /* \"ReentrancyGuard.sol\":2606:2613  _status */\n      0x01\n        /* \"ReentrancyGuard.sol\":2606:2624  _status = _ENTERED */\n      sstore\n        /* \"UniswapV2Locker.sol\":11516:11527  _amount > 0 */\n      dup1\n        /* \"UniswapV2Locker.sol\":11508:11546  require(_amount > 0, 'ZERO WITHDRAWL') */\n      tag_158\n      jumpi\n      0x40\n      dup1\n      mload\n      shl(0xe5, 0x461bcd)\n      dup2\n      mstore\n      0x20\n      0x04\n      dup3\n      add\n      mstore\n      0x0e\n      0x24\n      dup3\n      add\n      mstore\n      shl(0x92, 0x16915493c815d2551211149055d3)\n      0x44\n      dup3\n      add\n      mstore\n      swap1\n      mload\n      swap1\n      dup2\n      swap1\n      sub\n      0x64\n      add\n      swap1\n      revert\n    tag_158:\n        /* \"UniswapV2Locker.sol\":11576:11586  msg.sender */\n      caller\n        /* \"UniswapV2Locker.sol\":11553:11567  uint256 lockID */\n      0x00\n        /* \"UniswapV2Locker.sol\":11570:11587  users[msg.sender] */\n      swap1\n      dup2\n      mstore\n        /* \"UniswapV2Locker.sol\":11570:11575  users */\n      0x03\n        /* \"UniswapV2Locker.sol\":11570:11587  users[msg.sender] */\n      0x20\n      swap1\n      dup2\n      mstore\n      0x40\n      dup1\n      dup4\n      keccak256\n      sub(shl(0xa0, 0x01), 0x01)\n        /* \"UniswapV2Locker.sol\":11570:11611  users[msg.sender].locksForToken[_lpToken] */\n      dup9\n      and\n      dup5\n      mstore\n        /* \"UniswapV2Locker.sol\":11570:11601  users[msg.sender].locksForToken */\n      0x02\n      add\n        /* \"UniswapV2Locker.sol\":11570:11611  users[msg.sender].locksForToken[_lpToken] */\n      swap1\n      swap2\n      mstore\n      dup2\n      keccak256\n        /* \"UniswapV2Locker.sol\":11570:11619  users[msg.sender].locksForToken[_lpToken][_index] */\n      dup1\n      sload\n        /* \"UniswapV2Locker.sol\":11612:11618  _index */\n      dup6\n      swap1\n        /* \"UniswapV2Locker.sol\":11570:11619  users[msg.sender].locksForToken[_lpToken][_index] */\n      dup2\n      lt\n      tag_159\n      jumpi\n      invalid\n    tag_159:\n      swap1\n      0x00\n      mstore\n      keccak256(0x00, 0x20)\n      add\n      sload\n        /* \"UniswapV2Locker.sol\":11553:11619  uint256 lockID = users[msg.sender].locksForToken[_lpToken][_index] */\n      swap1\n      pop\n        /* \"UniswapV2Locker.sol\":11626:11652  TokenLock storage userLock */\n      0x00\n        /* \"UniswapV2Locker.sol\":11655:11665  tokenLocks */\n      0x06\n        /* \"UniswapV2Locker.sol\":11655:11675  tokenLocks[_lpToken] */\n      0x00\n        /* \"UniswapV2Locker.sol\":11666:11674  _lpToken */\n      dup8\n      sub(shl(0xa0, 0x01), 0x01)\n        /* \"UniswapV2Locker.sol\":11655:11675  tokenLocks[_lpToken] */\n      and\n      sub(shl(0xa0, 0x01), 0x01)\n      and\n      dup2\n      mstore\n      0x20\n      add\n      swap1\n      dup2\n      mstore\n      0x20\n      add\n      0x00\n      keccak256\n        /* \"UniswapV2Locker.sol\":11676:11682  lockID */\n      dup3\n        /* \"UniswapV2Locker.sol\":11655:11683  tokenLocks[_lpToken][lockID] */\n      dup2\n      sload\n      dup2\n      lt\n      tag_161\n      jumpi\n      invalid\n    tag_161:\n      swap1\n      0x00\n      mstore\n      keccak256(0x00, 0x20)\n      swap1\n      0x06\n      mul\n      add\n        /* \"UniswapV2Locker.sol\":11626:11683  TokenLock storage userLock = tokenLocks[_lpToken][lockID] */\n      swap1\n      pop\n        /* \"UniswapV2Locker.sol\":11708:11715  _lockID */\n      dup4\n        /* \"UniswapV2Locker.sol\":11698:11704  lockID */\n      dup3\n        /* \"UniswapV2Locker.sol\":11698:11715  lockID == _lockID */\n      eq\n        /* \"UniswapV2Locker.sol\":11698:11747  lockID == _lockID && userLock.owner == msg.sender */\n      dup1\n      iszero\n      tag_163\n      jumpi\n      pop\n        /* \"UniswapV2Locker.sol\":11719:11733  userLock.owner */\n      0x05\n      dup2\n      add\n      sload\n      sub(shl(0xa0, 0x01), 0x01)\n      and\n        /* \"UniswapV2Locker.sol\":11737:11747  msg.sender */\n      caller\n        /* \"UniswapV2Locker.sol\":11719:11747  userLock.owner == msg.sender */\n      eq\n        /* \"UniswapV2Locker.sol\":11698:11747  lockID == _lockID && userLock.owner == msg.sender */\n    tag_163:\n        /* \"UniswapV2Locker.sol\":11690:11765  require(lockID == _lockID && userLock.owner == msg.sender, 'LOCK MISMATCH') */\n      tag_164\n      jumpi\n      0x40\n      dup1\n      mload\n      shl(0xe5, 0x461bcd)\n      dup2\n      mstore\n      0x20\n      0x04\n      dup3\n      add\n      mstore\n      0x0d\n      0x24\n      dup3\n      add\n      mstore\n      shl(0x9b, 0x0989e8696409a92a69a82a8869)\n      0x44\n      dup3\n      add\n      mstore\n      swap1\n      mload\n      swap1\n      dup2\n      swap1\n      sub\n      0x64\n      add\n      swap1\n      revert\n    tag_164:\n        /* \"UniswapV2Locker.sol\":11838:11853  block.timestamp */\n      timestamp\n        /* \"UniswapV2Locker.sol\":11816:11824  userLock */\n      dup2\n        /* \"UniswapV2Locker.sol\":11816:11835  userLock.unlockDate */\n      0x03\n      add\n      sload\n        /* \"UniswapV2Locker.sol\":11816:11853  userLock.unlockDate < block.timestamp */\n      lt\n        /* \"UniswapV2Locker.sol\":11808:11865  require(userLock.unlockDate < block.timestamp, 'NOT YET') */\n      tag_165\n      jumpi\n      0x40\n      dup1\n      mload\n      shl(0xe5, 0x461bcd)\n      dup2\n      mstore\n      0x20\n      0x04\n      dup3\n      add\n      mstore\n      0x07\n      0x24\n      dup3\n      add\n      mstore\n      shl(0xca, 0x1393d508165155)\n      0x44\n      dup3\n      add\n      mstore\n      swap1\n      mload\n      swap1\n      dup2\n      swap1\n      sub\n      0x64\n      add\n      swap1\n      revert\n    tag_165:\n        /* \"UniswapV2Locker.sol\":11890:11905  userLock.amount */\n      0x01\n      dup2\n      add\n      sload\n        /* \"UniswapV2Locker.sol\":11890:11918  userLock.amount.sub(_amount) */\n      tag_166\n      swap1\n        /* \"UniswapV2Locker.sol\":11910:11917  _amount */\n      dup5\n        /* \"UniswapV2Locker.sol\":11890:11909  userLock.amount.sub */\n      tag_167\n        /* \"UniswapV2Locker.sol\":11890:11918  userLock.amount.sub(_amount) */\n      jump\t// in\n    tag_166:\n        /* \"UniswapV2Locker.sol\":11872:11887  userLock.amount */\n      0x01\n      dup3\n      add\n        /* \"UniswapV2Locker.sol\":11872:11918  userLock.amount = userLock.amount.sub(_amount) */\n      dup2\n      swap1\n      sstore\n        /* \"UniswapV2Locker.sol\":11958:12257  if (userLock.amount == 0) {\r... */\n      tag_168\n      jumpi\n        /* \"UniswapV2Locker.sol\":12029:12039  msg.sender */\n      caller\n        /* \"UniswapV2Locker.sol\":11993:12020  uint256[] storage userLocks */\n      0x00\n        /* \"UniswapV2Locker.sol\":12023:12040  users[msg.sender] */\n      swap1\n      dup2\n      mstore\n        /* \"UniswapV2Locker.sol\":12023:12028  users */\n      0x03\n        /* \"UniswapV2Locker.sol\":12023:12040  users[msg.sender] */\n      0x20\n      swap1\n      dup2\n      mstore\n      0x40\n      dup1\n      dup4\n      keccak256\n      sub(shl(0xa0, 0x01), 0x01)\n        /* \"UniswapV2Locker.sol\":12023:12064  users[msg.sender].locksForToken[_lpToken] */\n      dup11\n      and\n      dup5\n      mstore\n        /* \"UniswapV2Locker.sol\":12023:12054  users[msg.sender].locksForToken */\n      0x02\n      add\n        /* \"UniswapV2Locker.sol\":12023:12064  users[msg.sender].locksForToken[_lpToken] */\n      swap1\n      swap2\n      mstore\n      swap1\n      keccak256\n        /* \"UniswapV2Locker.sol\":12103:12119  userLocks.length */\n      dup1\n      sload\n        /* \"UniswapV2Locker.sol\":12023:12064  users[msg.sender].locksForToken[_lpToken] */\n      dup2\n      swap1\n      not(0x00)\n        /* \"UniswapV2Locker.sol\":12103:12121  userLocks.length-1 */\n      dup2\n      add\n      swap1\n        /* \"UniswapV2Locker.sol\":12093:12122  userLocks[userLocks.length-1] */\n      dup2\n      lt\n      tag_169\n      jumpi\n      invalid\n    tag_169:\n      swap1\n      0x00\n      mstore\n      keccak256(0x00, 0x20)\n      add\n      sload\n        /* \"UniswapV2Locker.sol\":12073:12082  userLocks */\n      dup2\n        /* \"UniswapV2Locker.sol\":12083:12089  _index */\n      dup8\n        /* \"UniswapV2Locker.sol\":12073:12090  userLocks[_index] */\n      dup2\n      sload\n      dup2\n      lt\n      tag_171\n      jumpi\n      invalid\n    tag_171:\n      swap1\n      0x00\n      mstore\n      keccak256(0x00, 0x20)\n      add\n        /* \"UniswapV2Locker.sol\":12073:12122  userLocks[_index] = userLocks[userLocks.length-1] */\n      dup2\n      swap1\n      sstore\n      pop\n        /* \"UniswapV2Locker.sol\":12131:12140  userLocks */\n      dup1\n        /* \"UniswapV2Locker.sol\":12131:12146  userLocks.pop() */\n      dup1\n      sload\n      dup1\n      tag_173\n      jumpi\n      invalid\n    tag_173:\n      0x00\n      dup3\n      dup2\n      mstore\n      0x20\n      dup2\n      keccak256\n      dup3\n      add\n      not(0x00)\n      swap1\n      dup2\n      add\n      swap2\n      swap1\n      swap2\n      sstore\n      add\n      swap1\n      sstore\n        /* \"UniswapV2Locker.sol\":12159:12175  userLocks.length */\n      dup1\n      sload\n        /* \"UniswapV2Locker.sol\":12155:12250  if (userLocks.length == 0) {\r... */\n      tag_175\n      jumpi\n        /* \"UniswapV2Locker.sol\":12199:12209  msg.sender */\n      caller\n        /* \"UniswapV2Locker.sol\":12193:12210  users[msg.sender] */\n      0x00\n      swap1\n      dup2\n      mstore\n        /* \"UniswapV2Locker.sol\":12193:12198  users */\n      0x03\n        /* \"UniswapV2Locker.sol\":12193:12210  users[msg.sender] */\n      0x20\n      mstore\n      0x40\n      swap1\n      keccak256\n        /* \"UniswapV2Locker.sol\":12193:12240  users[msg.sender].lockedTokens.remove(_lpToken) */\n      tag_176\n      swap1\n        /* \"UniswapV2Locker.sol\":12231:12239  _lpToken */\n      dup9\n        /* \"UniswapV2Locker.sol\":12193:12230  users[msg.sender].lockedTokens.remove */\n      tag_177\n        /* \"UniswapV2Locker.sol\":12193:12240  users[msg.sender].lockedTokens.remove(_lpToken) */\n      jump\t// in\n    tag_176:\n      pop\n        /* \"UniswapV2Locker.sol\":12155:12250  if (userLocks.length == 0) {\r... */\n    tag_175:\n        /* \"UniswapV2Locker.sol\":11958:12257  if (userLock.amount == 0) {\r... */\n      pop\n    tag_168:\n        /* \"UniswapV2Locker.sol\":12269:12327  TransferHelper.safeTransfer(_lpToken, msg.sender, _amount) */\n      tag_178\n        /* \"UniswapV2Locker.sol\":12297:12305  _lpToken */\n      dup7\n        /* \"UniswapV2Locker.sol\":12307:12317  msg.sender */\n      caller\n        /* \"UniswapV2Locker.sol\":12319:12326  _amount */\n      dup6\n        /* \"UniswapV2Locker.sol\":12269:12296  TransferHelper.safeTransfer */\n      tag_179\n        /* \"UniswapV2Locker.sol\":12269:12327  TransferHelper.safeTransfer(_lpToken, msg.sender, _amount) */\n      jump\t// in\n    tag_178:\n        /* \"UniswapV2Locker.sol\":12339:12368  onWithdraw(_lpToken, _amount) */\n      0x40\n      dup1\n      mload\n      sub(shl(0xa0, 0x01), 0x01)\n      dup9\n      and\n      dup2\n      mstore\n      0x20\n      dup2\n      add\n      dup6\n      swap1\n      mstore\n      dup2\n      mload\n      0xccad973dcd043c7d680389db4378bd6b9775db7124092e9e0422c9e46d7985dc\n      swap3\n      swap2\n      dup2\n      swap1\n      sub\n      swap1\n      swap2\n      add\n      swap1\n      log1\n      pop\n      pop\n        /* \"ReentrancyGuard.sol\":1823:1824  1 */\n      0x01\n        /* \"ReentrancyGuard.sol\":2785:2807  _status = _NOT_ENTERED */\n      dup1\n      sstore\n      pop\n      pop\n      pop\n      pop\n        /* \"UniswapV2Locker.sol\":11392:12374  function withdraw (address _lpToken, uint256 _index, uint256 _lockID, uint256 _amount) external nonReentrant {\r... */\n      jump\t// out\n        /* \"UniswapV2Locker.sol\":18502:18613  function getWhitelistedUsersLength () external view returns (uint256) {\r... */\n    tag_56:\n        /* \"UniswapV2Locker.sol\":18563:18570  uint256 */\n      0x00\n        /* \"UniswapV2Locker.sol\":18586:18607  feeWhitelist.length() */\n      tag_181\n        /* \"UniswapV2Locker.sol\":18586:18598  feeWhitelist */\n      0x10\n        /* \"UniswapV2Locker.sol\":18586:18605  feeWhitelist.length */\n      tag_182\n        /* \"UniswapV2Locker.sol\":18586:18607  feeWhitelist.length() */\n      jump\t// in\n    tag_181:\n        /* \"UniswapV2Locker.sol\":18579:18607  return feeWhitelist.length() */\n      swap1\n      pop\n        /* \"UniswapV2Locker.sol\":18502:18613  function getWhitelistedUsersLength () external view returns (uint256) {\r... */\n      swap1\n      jump\t// out\n        /* \"UniswapV2Locker.sol\":13664:14826  function splitLock (address _lpToken, uint256 _index, uint256 _lockID, uint256 _amount) external payable nonReentrant {\r... */\n    tag_59:\n        /* \"ReentrancyGuard.sol\":1867:1868  2 */\n      0x02\n        /* \"ReentrancyGuard.sol\":2473:2480  _status */\n      sload(0x01)\n        /* \"ReentrancyGuard.sol\":2473:2492  _status != _ENTERED */\n      eq\n      iszero\n        /* \"ReentrancyGuard.sol\":2465:2528  require(_status != _ENTERED, \"ReentrancyGuard: reentrant call\") */\n      tag_184\n      jumpi\n      0x40\n      dup1\n      mload\n      shl(0xe5, 0x461bcd)\n      dup2\n      mstore\n      0x20\n      0x04\n      dup3\n      add\n      mstore\n      0x1f\n      0x24\n      dup3\n      add\n      mstore\n      0x00\n      dup1\n      mload\n      0x20\n      data_0d74825aecb0211bbe1f02ccfb998d9e49771bedb2c6414e20fd8978a2e0f54c\n      dup4\n      codecopy\n      dup2\n      mload\n      swap2\n      mstore\n      0x44\n      dup3\n      add\n      mstore\n      swap1\n      mload\n      swap1\n      dup2\n      swap1\n      sub\n      0x64\n      add\n      swap1\n      revert\n    tag_184:\n        /* \"ReentrancyGuard.sol\":1867:1868  2 */\n      0x02\n        /* \"ReentrancyGuard.sol\":2606:2613  _status */\n      0x01\n        /* \"ReentrancyGuard.sol\":2606:2624  _status = _ENTERED */\n      sstore\n        /* \"UniswapV2Locker.sol\":13797:13808  _amount > 0 */\n      dup1\n        /* \"UniswapV2Locker.sol\":13789:13824  require(_amount > 0, 'ZERO AMOUNT') */\n      tag_186\n      jumpi\n      0x40\n      dup1\n      mload\n      shl(0xe5, 0x461bcd)\n      dup2\n      mstore\n      0x20\n      0x04\n      dup3\n      add\n      mstore\n      0x0b\n      0x24\n      dup3\n      add\n      mstore\n      shl(0xaa, 0x16915493c8105353d55395)\n      0x44\n      dup3\n      add\n      mstore\n      swap1\n      mload\n      swap1\n      dup2\n      swap1\n      sub\n      0x64\n      add\n      swap1\n      revert\n    tag_186:\n        /* \"UniswapV2Locker.sol\":13854:13864  msg.sender */\n      caller\n        /* \"UniswapV2Locker.sol\":13831:13845  uint256 lockID */\n      0x00\n        /* \"UniswapV2Locker.sol\":13848:13865  users[msg.sender] */\n      swap1\n      dup2\n      mstore\n        /* \"UniswapV2Locker.sol\":13848:13853  users */\n      0x03\n        /* \"UniswapV2Locker.sol\":13848:13865  users[msg.sender] */\n      0x20\n      swap1\n      dup2\n      mstore\n      0x40\n      dup1\n      dup4\n      keccak256\n      sub(shl(0xa0, 0x01), 0x01)\n        /* \"UniswapV2Locker.sol\":13848:13889  users[msg.sender].locksForToken[_lpToken] */\n      dup9\n      and\n      dup5\n      mstore\n        /* \"UniswapV2Locker.sol\":13848:13879  users[msg.sender].locksForToken */\n      0x02\n      add\n        /* \"UniswapV2Locker.sol\":13848:13889  users[msg.sender].locksForToken[_lpToken] */\n      swap1\n      swap2\n      mstore\n      dup2\n      keccak256\n        /* \"UniswapV2Locker.sol\":13848:13897  users[msg.sender].locksForToken[_lpToken][_index] */\n      dup1\n      sload\n        /* \"UniswapV2Locker.sol\":13890:13896  _index */\n      dup6\n      swap1\n        /* \"UniswapV2Locker.sol\":13848:13897  users[msg.sender].locksForToken[_lpToken][_index] */\n      dup2\n      lt\n      tag_187\n      jumpi\n      invalid\n    tag_187:\n      swap1\n      0x00\n      mstore\n      keccak256(0x00, 0x20)\n      add\n      sload\n        /* \"UniswapV2Locker.sol\":13831:13897  uint256 lockID = users[msg.sender].locksForToken[_lpToken][_index] */\n      swap1\n      pop\n        /* \"UniswapV2Locker.sol\":13904:13930  TokenLock storage userLock */\n      0x00\n        /* \"UniswapV2Locker.sol\":13933:13943  tokenLocks */\n      0x06\n        /* \"UniswapV2Locker.sol\":13933:13953  tokenLocks[_lpToken] */\n      0x00\n        /* \"UniswapV2Locker.sol\":13944:13952  _lpToken */\n      dup8\n      sub(shl(0xa0, 0x01), 0x01)\n        /* \"UniswapV2Locker.sol\":13933:13953  tokenLocks[_lpToken] */\n      and\n      sub(shl(0xa0, 0x01), 0x01)\n      and\n      dup2\n      mstore\n      0x20\n      add\n      swap1\n      dup2\n      mstore\n      0x20\n      add\n      0x00\n      keccak256\n        /* \"UniswapV2Locker.sol\":13954:13960  lockID */\n      dup3\n        /* \"UniswapV2Locker.sol\":13933:13961  tokenLocks[_lpToken][lockID] */\n      dup2\n      sload\n      dup2\n      lt\n      tag_189\n      jumpi\n      invalid\n    tag_189:\n      swap1\n      0x00\n      mstore\n      keccak256(0x00, 0x20)\n      swap1\n      0x06\n      mul\n      add\n        /* \"UniswapV2Locker.sol\":13904:13961  TokenLock storage userLock = tokenLocks[_lpToken][lockID] */\n      swap1\n      pop\n        /* \"UniswapV2Locker.sol\":13986:13993  _lockID */\n      dup4\n        /* \"UniswapV2Locker.sol\":13976:13982  lockID */\n      dup3\n        /* \"UniswapV2Locker.sol\":13976:13993  lockID == _lockID */\n      eq\n        /* \"UniswapV2Locker.sol\":13976:14025  lockID == _lockID && userLock.owner == msg.sender */\n      dup1\n      iszero\n      tag_191\n      jumpi\n      pop\n        /* \"UniswapV2Locker.sol\":13997:14011  userLock.owner */\n      0x05\n      dup2\n      add\n      sload\n      sub(shl(0xa0, 0x01), 0x01)\n      and\n        /* \"UniswapV2Locker.sol\":14015:14025  msg.sender */\n      caller\n        /* \"UniswapV2Locker.sol\":13997:14025  userLock.owner == msg.sender */\n      eq\n        /* \"UniswapV2Locker.sol\":13976:14025  lockID == _lockID && userLock.owner == msg.sender */\n    tag_191:\n        /* \"UniswapV2Locker.sol\":13968:14043  require(lockID == _lockID && userLock.owner == msg.sender, 'LOCK MISMATCH') */\n      tag_192\n      jumpi\n      0x40\n      dup1\n      mload\n      shl(0xe5, 0x461bcd)\n      dup2\n      mstore\n      0x20\n      0x04\n      dup3\n      add\n      mstore\n      0x0d\n      0x24\n      dup3\n      add\n      mstore\n      shl(0x9b, 0x0989e8696409a92a69a82a8869)\n      0x44\n      dup3\n      add\n      mstore\n      swap1\n      mload\n      swap1\n      dup2\n      swap1\n      sub\n      0x64\n      add\n      swap1\n      revert\n    tag_192:\n        /* \"UniswapV2Locker.sol\":14113:14118  gFees */\n      0x07\n        /* \"UniswapV2Locker.sol\":14113:14125  gFees.ethFee */\n      sload\n        /* \"UniswapV2Locker.sol\":14100:14109  msg.value */\n      callvalue\n        /* \"UniswapV2Locker.sol\":14100:14125  msg.value == gFees.ethFee */\n      eq\n        /* \"UniswapV2Locker.sol\":14092:14141  require(msg.value == gFees.ethFee, 'FEE NOT MET') */\n      tag_193\n      jumpi\n      0x40\n      dup1\n      mload\n      shl(0xe5, 0x461bcd)\n      dup2\n      mstore\n      0x20\n      0x04\n      dup3\n      add\n      mstore\n      0x0b\n      0x24\n      dup3\n      add\n      mstore\n      shl(0xaa, 0x119151481393d508135155)\n      0x44\n      dup3\n      add\n      mstore\n      swap1\n      mload\n      swap1\n      dup2\n      swap1\n      sub\n      0x64\n      add\n      swap1\n      revert\n    tag_193:\n        /* \"UniswapV2Locker.sol\":14148:14155  devaddr */\n      sload(0x12)\n        /* \"UniswapV2Locker.sol\":14165:14170  gFees */\n      0x07\n        /* \"UniswapV2Locker.sol\":14165:14177  gFees.ethFee */\n      sload\n        /* \"UniswapV2Locker.sol\":14148:14178  devaddr.transfer(gFees.ethFee) */\n      mload(0x40)\n      sub(shl(0xa0, 0x01), 0x01)\n        /* \"UniswapV2Locker.sol\":14148:14155  devaddr */\n      swap1\n      swap3\n      and\n      swap2\n        /* \"UniswapV2Locker.sol\":14148:14178  devaddr.transfer(gFees.ethFee) */\n      dup2\n      iszero\n      0x08fc\n      mul\n      swap2\n        /* \"UniswapV2Locker.sol\":14165:14177  gFees.ethFee */\n      swap1\n        /* \"UniswapV2Locker.sol\":14148:14155  devaddr */\n      0x00\n        /* \"UniswapV2Locker.sol\":14148:14178  devaddr.transfer(gFees.ethFee) */\n      dup2\n        /* \"UniswapV2Locker.sol\":14148:14155  devaddr */\n      dup2\n        /* \"UniswapV2Locker.sol\":14148:14178  devaddr.transfer(gFees.ethFee) */\n      dup2\n        /* \"UniswapV2Locker.sol\":14165:14177  gFees.ethFee */\n      dup6\n        /* \"UniswapV2Locker.sol\":14148:14155  devaddr */\n      dup9\n        /* \"UniswapV2Locker.sol\":14148:14178  devaddr.transfer(gFees.ethFee) */\n      dup9\n      call\n      swap4\n      pop\n      pop\n      pop\n      pop\n      iszero\n      dup1\n      iszero\n      tag_195\n      jumpi\n      returndatasize\n      0x00\n      dup1\n      returndatacopy\n      revert(0x00, returndatasize)\n    tag_195:\n      pop\n        /* \"UniswapV2Locker.sol\":14209:14224  userLock.amount */\n      0x01\n      dup2\n      add\n      sload\n        /* \"UniswapV2Locker.sol\":14209:14237  userLock.amount.sub(_amount) */\n      tag_196\n      swap1\n        /* \"UniswapV2Locker.sol\":14229:14236  _amount */\n      dup5\n        /* \"UniswapV2Locker.sol\":14209:14228  userLock.amount.sub */\n      tag_167\n        /* \"UniswapV2Locker.sol\":14209:14237  userLock.amount.sub(_amount) */\n      jump\t// in\n    tag_196:\n        /* \"UniswapV2Locker.sol\":14191:14206  userLock.amount */\n      0x01\n      dup3\n      add\n        /* \"UniswapV2Locker.sol\":14191:14237  userLock.amount = userLock.amount.sub(_amount) */\n      sstore\n        /* \"UniswapV2Locker.sol\":14250:14277  TokenLock memory token_lock */\n      tag_197\n      tag_198\n      jump\t// in\n    tag_197:\n        /* \"UniswapV2Locker.sol\":14306:14323  userLock.lockDate */\n      dup2\n      sload\n        /* \"UniswapV2Locker.sol\":14284:14323  token_lock.lockDate = userLock.lockDate */\n      dup2\n      mstore\n        /* \"UniswapV2Locker.sol\":14330:14347  token_lock.amount */\n      0x20\n      dup1\n      dup3\n      add\n        /* \"UniswapV2Locker.sol\":14330:14357  token_lock.amount = _amount */\n      dup6\n      dup2\n      mstore\n        /* \"UniswapV2Locker.sol\":14364:14388  token_lock.initialAmount */\n      0x40\n      dup1\n      dup5\n      add\n        /* \"UniswapV2Locker.sol\":14364:14398  token_lock.initialAmount = _amount */\n      swap7\n      dup8\n      mstore\n        /* \"UniswapV2Locker.sol\":14429:14448  userLock.unlockDate */\n      0x03\n      swap5\n      dup6\n      add\n      sload\n        /* \"UniswapV2Locker.sol\":14405:14426  token_lock.unlockDate */\n      0x60\n      dup6\n      add\n        /* \"UniswapV2Locker.sol\":14405:14448  token_lock.unlockDate = userLock.unlockDate */\n      swap1\n      dup2\n      mstore\n      sub(shl(0xa0, 0x01), 0x01)\n        /* \"UniswapV2Locker.sol\":14475:14495  tokenLocks[_lpToken] */\n      swap11\n      dup12\n      and\n      0x00\n      dup2\n      dup2\n      mstore\n        /* \"UniswapV2Locker.sol\":14475:14485  tokenLocks */\n      0x06\n        /* \"UniswapV2Locker.sol\":14475:14495  tokenLocks[_lpToken] */\n      dup1\n      dup8\n      mstore\n      dup5\n      dup3\n      keccak256\n        /* \"UniswapV2Locker.sol\":14475:14502  tokenLocks[_lpToken].length */\n      dup1\n      sload\n        /* \"UniswapV2Locker.sol\":14455:14472  token_lock.lockID */\n      0x80\n      dup11\n      add\n        /* \"UniswapV2Locker.sol\":14455:14502  token_lock.lockID = tokenLocks[_lpToken].length */\n      dup2\n      dup2\n      mstore\n        /* \"UniswapV2Locker.sol\":14528:14538  msg.sender */\n      caller\n        /* \"UniswapV2Locker.sol\":14509:14525  token_lock.owner */\n      0xa0\n      dup13\n      add\n        /* \"UniswapV2Locker.sol\":14509:14538  token_lock.owner = msg.sender */\n      dup2\n      dup2\n      mstore\n        /* \"UniswapV2Locker.sol\":14589:14609  tokenLocks[_lpToken] */\n      dup6\n      dup13\n      mstore\n        /* \"UniswapV2Locker.sol\":14589:14626  tokenLocks[_lpToken].push(token_lock) */\n      0x01\n      dup1\n      dup6\n      add\n      dup7\n      sstore\n      swap5\n      dup8\n      mstore\n      dup12\n      dup8\n      keccak256\n      swap13\n      mload\n      swap4\n      swap1\n      swap6\n      mul\n      swap1\n      swap12\n      add\n      swap2\n      dup3\n      sstore\n      swap8\n      mload\n      dup2\n      dup4\n      add\n      sstore\n      swap12\n      mload\n      0x02\n      dup1\n      dup15\n      add\n      swap2\n      swap1\n      swap2\n      sstore\n      swap5\n      mload\n      dup13\n      dup12\n      add\n      sstore\n      dup7\n      mload\n      0x04\n      dup14\n      add\n      sstore\n      swap1\n      mload\n      0x05\n      swap1\n      swap12\n      add\n      dup1\n      sload\n      not(sub(shl(0xa0, 0x01), 0x01))\n      and\n      swap12\n      swap1\n      swap15\n      and\n      swap11\n      swap1\n      swap11\n      or\n      swap1\n      swap13\n      sstore\n        /* \"UniswapV2Locker.sol\":14696:14713  users[msg.sender] */\n      swap5\n      dup12\n      mstore\n      swap5\n      dup4\n      mstore\n      dup1\n      dup11\n      keccak256\n        /* \"UniswapV2Locker.sol\":14751:14779  user.locksForToken[_lpToken] */\n      swap4\n      dup11\n      mstore\n        /* \"UniswapV2Locker.sol\":14751:14769  user.locksForToken */\n      swap3\n      swap1\n      swap4\n      add\n        /* \"UniswapV2Locker.sol\":14751:14779  user.locksForToken[_lpToken] */\n      dup2\n      mstore\n      swap1\n      dup8\n      keccak256\n        /* \"UniswapV2Locker.sol\":14802:14819  token_lock.lockID */\n      swap2\n      mload\n        /* \"UniswapV2Locker.sol\":14786:14820  user_locks.push(token_lock.lockID) */\n      dup3\n      sload\n      dup1\n      dup7\n      add\n      dup5\n      sstore\n      swap3\n      dup9\n      mstore\n      swap7\n      keccak256\n      add\n      swap5\n      swap1\n      swap5\n      sstore\n        /* \"ReentrancyGuard.sol\":2785:2807  _status = _NOT_ENTERED */\n      dup1\n      sstore\n      pop\n      pop\n      pop\n        /* \"UniswapV2Locker.sol\":13664:14826  function splitLock (address _lpToken, uint256 _index, uint256 _lockID, uint256 _amount) external payable nonReentrant {\r... */\n      jump\t// out\n        /* \"UniswapV2Locker.sol\":10258:11158  function relock (address _lpToken, uint256 _index, uint256 _lockID, uint256 _unlock_date) external nonReentrant {\r... */\n    tag_63:\n        /* \"ReentrancyGuard.sol\":1867:1868  2 */\n      0x02\n        /* \"ReentrancyGuard.sol\":2473:2480  _status */\n      sload(0x01)\n        /* \"ReentrancyGuard.sol\":2473:2492  _status != _ENTERED */\n      eq\n      iszero\n        /* \"ReentrancyGuard.sol\":2465:2528  require(_status != _ENTERED, \"ReentrancyGuard: reentrant call\") */\n      tag_202\n      jumpi\n      0x40\n      dup1\n      mload\n      shl(0xe5, 0x461bcd)\n      dup2\n      mstore\n      0x20\n      0x04\n      dup3\n      add\n      mstore\n      0x1f\n      0x24\n      dup3\n      add\n      mstore\n      0x00\n      dup1\n      mload\n      0x20\n      data_0d74825aecb0211bbe1f02ccfb998d9e49771bedb2c6414e20fd8978a2e0f54c\n      dup4\n      codecopy\n      dup2\n      mload\n      swap2\n      mstore\n      0x44\n      dup3\n      add\n      mstore\n      swap1\n      mload\n      swap1\n      dup2\n      swap1\n      sub\n      0x64\n      add\n      swap1\n      revert\n    tag_202:\n        /* \"ReentrancyGuard.sol\":1867:1868  2 */\n      0x02\n        /* \"ReentrancyGuard.sol\":2606:2613  _status */\n      0x01\n        /* \"ReentrancyGuard.sol\":2606:2624  _status = _ENTERED */\n      sstore\n        /* \"UniswapV2Locker.sol\":10400:10411  10000000000 */\n      0x02540be400\n        /* \"UniswapV2Locker.sol\":10385:10411  _unlock_date < 10000000000 */\n      dup2\n      lt\n        /* \"UniswapV2Locker.sol\":10377:10433  require(_unlock_date < 10000000000, 'TIMESTAMP INVALID') */\n      tag_204\n      jumpi\n      0x40\n      dup1\n      mload\n      shl(0xe5, 0x461bcd)\n      dup2\n      mstore\n      0x20\n      0x04\n      dup3\n      add\n      mstore\n      0x11\n      0x24\n      dup3\n      add\n      mstore\n      shl(0x7a, 0x1512535154d51053540812539590531251)\n      0x44\n      dup3\n      add\n      mstore\n      swap1\n      mload\n      swap1\n      dup2\n      swap1\n      sub\n      0x64\n      add\n      swap1\n      revert\n    tag_204:\n        /* \"UniswapV2Locker.sol\":10521:10531  msg.sender */\n      caller\n        /* \"UniswapV2Locker.sol\":10498:10512  uint256 lockID */\n      0x00\n        /* \"UniswapV2Locker.sol\":10515:10532  users[msg.sender] */\n      swap1\n      dup2\n      mstore\n        /* \"UniswapV2Locker.sol\":10515:10520  users */\n      0x03\n        /* \"UniswapV2Locker.sol\":10515:10532  users[msg.sender] */\n      0x20\n      swap1\n      dup2\n      mstore\n      0x40\n      dup1\n      dup4\n      keccak256\n      sub(shl(0xa0, 0x01), 0x01)\n        /* \"UniswapV2Locker.sol\":10515:10556  users[msg.sender].locksForToken[_lpToken] */\n      dup9\n      and\n      dup5\n      mstore\n        /* \"UniswapV2Locker.sol\":10515:10546  users[msg.sender].locksForToken */\n      0x02\n      add\n        /* \"UniswapV2Locker.sol\":10515:10556  users[msg.sender].locksForToken[_lpToken] */\n      swap1\n      swap2\n      mstore\n      dup2\n      keccak256\n        /* \"UniswapV2Locker.sol\":10515:10564  users[msg.sender].locksForToken[_lpToken][_index] */\n      dup1\n      sload\n        /* \"UniswapV2Locker.sol\":10557:10563  _index */\n      dup6\n      swap1\n        /* \"UniswapV2Locker.sol\":10515:10564  users[msg.sender].locksForToken[_lpToken][_index] */\n      dup2\n      lt\n      tag_205\n      jumpi\n      invalid\n    tag_205:\n      swap1\n      0x00\n      mstore\n      keccak256(0x00, 0x20)\n      add\n      sload\n        /* \"UniswapV2Locker.sol\":10498:10564  uint256 lockID = users[msg.sender].locksForToken[_lpToken][_index] */\n      swap1\n      pop\n        /* \"UniswapV2Locker.sol\":10571:10597  TokenLock storage userLock */\n      0x00\n        /* \"UniswapV2Locker.sol\":10600:10610  tokenLocks */\n      0x06\n        /* \"UniswapV2Locker.sol\":10600:10620  tokenLocks[_lpToken] */\n      0x00\n        /* \"UniswapV2Locker.sol\":10611:10619  _lpToken */\n      dup8\n      sub(shl(0xa0, 0x01), 0x01)\n        /* \"UniswapV2Locker.sol\":10600:10620  tokenLocks[_lpToken] */\n      and\n      sub(shl(0xa0, 0x01), 0x01)\n      and\n      dup2\n      mstore\n      0x20\n      add\n      swap1\n      dup2\n      mstore\n      0x20\n      add\n      0x00\n      keccak256\n        /* \"UniswapV2Locker.sol\":10621:10627  lockID */\n      dup3\n        /* \"UniswapV2Locker.sol\":10600:10628  tokenLocks[_lpToken][lockID] */\n      dup2\n      sload\n      dup2\n      lt\n      tag_207\n      jumpi\n      invalid\n    tag_207:\n      swap1\n      0x00\n      mstore\n      keccak256(0x00, 0x20)\n      swap1\n      0x06\n      mul\n      add\n        /* \"UniswapV2Locker.sol\":10571:10628  TokenLock storage userLock = tokenLocks[_lpToken][lockID] */\n      swap1\n      pop\n        /* \"UniswapV2Locker.sol\":10653:10660  _lockID */\n      dup4\n        /* \"UniswapV2Locker.sol\":10643:10649  lockID */\n      dup3\n        /* \"UniswapV2Locker.sol\":10643:10660  lockID == _lockID */\n      eq\n        /* \"UniswapV2Locker.sol\":10643:10692  lockID == _lockID && userLock.owner == msg.sender */\n      dup1\n      iszero\n      tag_209\n      jumpi\n      pop\n        /* \"UniswapV2Locker.sol\":10664:10678  userLock.owner */\n      0x05\n      dup2\n      add\n      sload\n      sub(shl(0xa0, 0x01), 0x01)\n      and\n        /* \"UniswapV2Locker.sol\":10682:10692  msg.sender */\n      caller\n        /* \"UniswapV2Locker.sol\":10664:10692  userLock.owner == msg.sender */\n      eq\n        /* \"UniswapV2Locker.sol\":10643:10692  lockID == _lockID && userLock.owner == msg.sender */\n    tag_209:\n        /* \"UniswapV2Locker.sol\":10635:10710  require(lockID == _lockID && userLock.owner == msg.sender, 'LOCK MISMATCH') */\n      tag_210\n      jumpi\n      0x40\n      dup1\n      mload\n      shl(0xe5, 0x461bcd)\n      dup2\n      mstore\n      0x20\n      0x04\n      dup3\n      add\n      mstore\n      0x0d\n      0x24\n      dup3\n      add\n      mstore\n      shl(0x9b, 0x0989e8696409a92a69a82a8869)\n      0x44\n      dup3\n      add\n      mstore\n      swap1\n      mload\n      swap1\n      dup2\n      swap1\n      sub\n      0x64\n      add\n      swap1\n      revert\n    tag_210:\n        /* \"UniswapV2Locker.sol\":10783:10795  _unlock_date */\n      dup3\n        /* \"UniswapV2Locker.sol\":10761:10769  userLock */\n      dup2\n        /* \"UniswapV2Locker.sol\":10761:10780  userLock.unlockDate */\n      0x03\n      add\n      sload\n        /* \"UniswapV2Locker.sol\":10761:10795  userLock.unlockDate < _unlock_date */\n      lt\n        /* \"UniswapV2Locker.sol\":10753:10813  require(userLock.unlockDate < _unlock_date, 'UNLOCK BEFORE') */\n      tag_211\n      jumpi\n      0x40\n      dup1\n      mload\n      shl(0xe5, 0x461bcd)\n      dup2\n      mstore\n      0x20\n      0x04\n      dup3\n      add\n      mstore\n      0x0d\n      0x24\n      dup3\n      add\n      mstore\n      shl(0x98, 0x554e4c4f434b204245464f5245)\n      0x44\n      dup3\n      add\n      mstore\n      swap1\n      mload\n      swap1\n      dup2\n      swap1\n      sub\n      0x64\n      add\n      swap1\n      revert\n    tag_211:\n        /* \"UniswapV2Locker.sol\":10826:10846  uint256 liquidityFee */\n      0x00\n        /* \"UniswapV2Locker.sol\":10849:10898  userLock.amount.mul(gFees.liquidityFee).div(1000) */\n      tag_212\n        /* \"UniswapV2Locker.sol\":10893:10897  1000 */\n      0x03e8\n        /* \"UniswapV2Locker.sol\":10849:10888  userLock.amount.mul(gFees.liquidityFee) */\n      tag_213\n        /* \"UniswapV2Locker.sol\":10869:10874  gFees */\n      0x07\n        /* \"UniswapV2Locker.sol\":10869:10887  gFees.liquidityFee */\n      0x04\n      add\n      sload\n        /* \"UniswapV2Locker.sol\":10849:10857  userLock */\n      dup6\n        /* \"UniswapV2Locker.sol\":10849:10864  userLock.amount */\n      0x01\n      add\n      sload\n        /* \"UniswapV2Locker.sol\":10849:10868  userLock.amount.mul */\n      tag_214\n      swap1\n        /* \"UniswapV2Locker.sol\":10849:10888  userLock.amount.mul(gFees.liquidityFee) */\n      swap2\n      swap1\n      0xffffffff\n      and\n      jump\t// in\n    tag_213:\n        /* \"UniswapV2Locker.sol\":10849:10892  userLock.amount.mul(gFees.liquidityFee).div */\n      swap1\n      tag_215\n        /* \"UniswapV2Locker.sol\":10849:10898  userLock.amount.mul(gFees.liquidityFee).div(1000) */\n      jump\t// in\n    tag_212:\n        /* \"UniswapV2Locker.sol\":10826:10898  uint256 liquidityFee = userLock.amount.mul(gFees.liquidityFee).div(1000) */\n      swap1\n      pop\n        /* \"UniswapV2Locker.sol\":10905:10925  uint256 amountLocked */\n      0x00\n        /* \"UniswapV2Locker.sol\":10928:10961  userLock.amount.sub(liquidityFee) */\n      tag_216\n        /* \"UniswapV2Locker.sol\":10948:10960  liquidityFee */\n      dup3\n        /* \"UniswapV2Locker.sol\":10928:10936  userLock */\n      dup5\n        /* \"UniswapV2Locker.sol\":10928:10943  userLock.amount */\n      0x01\n      add\n      sload\n        /* \"UniswapV2Locker.sol\":10928:10947  userLock.amount.sub */\n      tag_167\n      swap1\n        /* \"UniswapV2Locker.sol\":10928:10961  userLock.amount.sub(liquidityFee) */\n      swap2\n      swap1\n      0xffffffff\n      and\n      jump\t// in\n    tag_216:\n        /* \"UniswapV2Locker.sol\":10974:10989  userLock.amount */\n      0x01\n      dup5\n      add\n        /* \"UniswapV2Locker.sol\":10974:11004  userLock.amount = amountLocked */\n      dup2\n      swap1\n      sstore\n        /* \"UniswapV2Locker.sol\":11011:11030  userLock.unlockDate */\n      0x03\n      dup5\n      add\n        /* \"UniswapV2Locker.sol\":11011:11045  userLock.unlockDate = _unlock_date */\n      dup7\n      swap1\n      sstore\n        /* \"UniswapV2Locker.sol\":11130:11137  devaddr */\n      sload(0x12)\n        /* \"UniswapV2Locker.sol\":10905:10961  uint256 amountLocked = userLock.amount.sub(liquidityFee) */\n      swap1\n      swap2\n      pop\n        /* \"UniswapV2Locker.sol\":11092:11152  TransferHelper.safeTransfer(_lpToken, devaddr, liquidityFee) */\n      tag_217\n      swap1\n        /* \"UniswapV2Locker.sol\":11120:11128  _lpToken */\n      dup10\n      swap1\n      sub(shl(0xa0, 0x01), 0x01)\n        /* \"UniswapV2Locker.sol\":11130:11137  devaddr */\n      and\n        /* \"UniswapV2Locker.sol\":11139:11151  liquidityFee */\n      dup5\n        /* \"UniswapV2Locker.sol\":11092:11119  TransferHelper.safeTransfer */\n      tag_179\n        /* \"UniswapV2Locker.sol\":11092:11152  TransferHelper.safeTransfer(_lpToken, devaddr, liquidityFee) */\n      jump\t// in\n    tag_217:\n      pop\n      pop\n        /* \"ReentrancyGuard.sol\":1823:1824  1 */\n      0x01\n        /* \"ReentrancyGuard.sol\":2785:2807  _status = _NOT_ENTERED */\n      dup1\n      sstore\n      pop\n      pop\n      pop\n      pop\n      pop\n      pop\n        /* \"UniswapV2Locker.sol\":10258:11158  function relock (address _lpToken, uint256 _index, uint256 _lockID, uint256 _unlock_date) external nonReentrant {\r... */\n      jump\t// out\n        /* \"Ownable.sol\":1837:1982  function renounceOwnership() public virtual onlyOwner {... */\n    tag_66:\n        /* \"Ownable.sol\":1428:1440  _msgSender() */\n      tag_219\n        /* \"Ownable.sol\":1428:1438  _msgSender */\n      tag_152\n        /* \"Ownable.sol\":1428:1440  _msgSender() */\n      jump\t// in\n    tag_219:\n        /* \"Ownable.sol\":1418:1424  _owner */\n      sload(0x00)\n      sub(shl(0xa0, 0x01), 0x01)\n      swap1\n      dup2\n      and\n        /* \"Ownable.sol\":1418:1440  _owner == _msgSender() */\n      swap2\n      and\n      eq\n        /* \"Ownable.sol\":1410:1477  require(_owner == _msgSender(), \"Ownable: caller is not the owner\") */\n      tag_220\n      jumpi\n      0x40\n      dup1\n      mload\n      shl(0xe5, 0x461bcd)\n      dup2\n      mstore\n      0x20\n      0x04\n      dup3\n      add\n      dup2\n      swap1\n      mstore\n      0x24\n      dup3\n      add\n      mstore\n      0x00\n      dup1\n      mload\n      0x20\n      data_9924ebdf1add33d25d4ef888e16131f0a5687b0580a36c21b5c301a6c462effe\n      dup4\n      codecopy\n      dup2\n      mload\n      swap2\n      mstore\n      0x44\n      dup3\n      add\n      mstore\n      swap1\n      mload\n      swap1\n      dup2\n      swap1\n      sub\n      0x64\n      add\n      swap1\n      revert\n    tag_220:\n        /* \"Ownable.sol\":1943:1944  0 */\n      0x00\n        /* \"Ownable.sol\":1927:1933  _owner */\n      dup1\n      sload\n        /* \"Ownable.sol\":1906:1946  OwnershipTransferred(_owner, address(0)) */\n      mload(0x40)\n      sub(shl(0xa0, 0x01), 0x01)\n        /* \"Ownable.sol\":1927:1933  _owner */\n      swap1\n      swap2\n      and\n      swap1\n        /* \"Ownable.sol\":1906:1946  OwnershipTransferred(_owner, address(0)) */\n      0x8be0079c531659141344cd1fd0a4f28419497f9722a3daafe3b4186f6b6457e0\n      swap1\n        /* \"Ownable.sol\":1943:1944  0 */\n      dup4\n      swap1\n        /* \"Ownable.sol\":1906:1946  OwnershipTransferred(_owner, address(0)) */\n      log3\n        /* \"Ownable.sol\":1973:1974  0 */\n      0x00\n        /* \"Ownable.sol\":1956:1975  _owner = address(0) */\n      dup1\n      sload\n      not(sub(shl(0xa0, 0x01), 0x01))\n      and\n      swap1\n      sstore\n        /* \"Ownable.sol\":1837:1982  function renounceOwnership() public virtual onlyOwner {... */\n      jump\t// out\n        /* \"UniswapV2Locker.sol\":17194:17298  function getNumLockedTokens () external view returns (uint256) {\r... */\n    tag_69:\n        /* \"UniswapV2Locker.sol\":17248:17255  uint256 */\n      0x00\n        /* \"UniswapV2Locker.sol\":17271:17292  lockedTokens.length() */\n      tag_181\n        /* \"UniswapV2Locker.sol\":17271:17283  lockedTokens */\n      0x04\n        /* \"UniswapV2Locker.sol\":17271:17290  lockedTokens.length */\n      tag_182\n        /* \"UniswapV2Locker.sol\":17271:17292  lockedTokens.length() */\n      jump\t// in\n        /* \"UniswapV2Locker.sol\":4902:5374  function setFees(uint256 _referralPercent, uint256 _referralDiscount, uint256 _ethFee, uint256 _secondaryTokenFee, uint256 _secondaryTokenDiscount, uint256 _liquidityFee) public onlyOwner {\r... */\n    tag_73:\n        /* \"Ownable.sol\":1428:1440  _msgSender() */\n      tag_225\n        /* \"Ownable.sol\":1428:1438  _msgSender */\n      tag_152\n        /* \"Ownable.sol\":1428:1440  _msgSender() */\n      jump\t// in\n    tag_225:\n        /* \"Ownable.sol\":1418:1424  _owner */\n      sload(0x00)\n      sub(shl(0xa0, 0x01), 0x01)\n      swap1\n      dup2\n      and\n        /* \"Ownable.sol\":1418:1440  _owner == _msgSender() */\n      swap2\n      and\n      eq\n        /* \"Ownable.sol\":1410:1477  require(_owner == _msgSender(), \"Ownable: caller is not the owner\") */\n      tag_226\n      jumpi\n      0x40\n      dup1\n      mload\n      shl(0xe5, 0x461bcd)\n      dup2\n      mstore\n      0x20\n      0x04\n      dup3\n      add\n      dup2\n      swap1\n      mstore\n      0x24\n      dup3\n      add\n      mstore\n      0x00\n      dup1\n      mload\n      0x20\n      data_9924ebdf1add33d25d4ef888e16131f0a5687b0580a36c21b5c301a6c462effe\n      dup4\n      codecopy\n      dup2\n      mload\n      swap2\n      mstore\n      0x44\n      dup3\n      add\n      mstore\n      swap1\n      mload\n      swap1\n      dup2\n      swap1\n      sub\n      0x64\n      add\n      swap1\n      revert\n    tag_226:\n        /* \"UniswapV2Locker.sol\":5097:5118  gFees.referralPercent */\n      0x0c\n        /* \"UniswapV2Locker.sol\":5097:5137  gFees.referralPercent = _referralPercent */\n      swap6\n      swap1\n      swap6\n      sstore\n        /* \"UniswapV2Locker.sol\":5144:5166  gFees.referralDiscount */\n      0x0f\n        /* \"UniswapV2Locker.sol\":5144:5186  gFees.referralDiscount = _referralDiscount */\n      swap4\n      swap1\n      swap4\n      sstore\n        /* \"UniswapV2Locker.sol\":5097:5102  gFees */\n      0x07\n        /* \"UniswapV2Locker.sol\":5193:5215  gFees.ethFee = _ethFee */\n      swap2\n      swap1\n      swap2\n      sstore\n        /* \"UniswapV2Locker.sol\":5222:5245  gFees.secondaryTokenFee */\n      0x09\n        /* \"UniswapV2Locker.sol\":5222:5266  gFees.secondaryTokenFee = _secondaryTokenFee */\n      sstore\n        /* \"UniswapV2Locker.sol\":5273:5301  gFees.secondaryTokenDiscount */\n      0x0a\n        /* \"UniswapV2Locker.sol\":5273:5327  gFees.secondaryTokenDiscount = _secondaryTokenDiscount */\n      sstore\n        /* \"UniswapV2Locker.sol\":5334:5352  gFees.liquidityFee */\n      0x0b\n        /* \"UniswapV2Locker.sol\":5334:5368  gFees.liquidityFee = _liquidityFee */\n      sstore\n        /* \"UniswapV2Locker.sol\":4902:5374  function setFees(uint256 _referralPercent, uint256 _referralDiscount, uint256 _ethFee, uint256 _secondaryTokenFee, uint256 _secondaryTokenDiscount, uint256 _liquidityFee) public onlyOwner {\r... */\n      jump\t// out\n        /* \"UniswapV2Locker.sol\":4161:4303  function setSecondaryFeeToken(address _secondaryFeeToken) public onlyOwner {\r... */\n    tag_77:\n        /* \"Ownable.sol\":1428:1440  _msgSender() */\n      tag_229\n        /* \"Ownable.sol\":1428:1438  _msgSender */\n      tag_152\n        /* \"Ownable.sol\":1428:1440  _msgSender() */\n      jump\t// in\n    tag_229:\n        /* \"Ownable.sol\":1418:1424  _owner */\n      sload(0x00)\n      sub(shl(0xa0, 0x01), 0x01)\n      swap1\n      dup2\n      and\n        /* \"Ownable.sol\":1418:1440  _owner == _msgSender() */\n      swap2\n      and\n      eq\n        /* \"Ownable.sol\":1410:1477  require(_owner == _msgSender(), \"Ownable: caller is not the owner\") */\n      tag_230\n      jumpi\n      0x40\n      dup1\n      mload\n      shl(0xe5, 0x461bcd)\n      dup2\n      mstore\n      0x20\n      0x04\n      dup3\n      add\n      dup2\n      swap1\n      mstore\n      0x24\n      dup3\n      add\n      mstore\n      0x00\n      dup1\n      mload\n      0x20\n      data_9924ebdf1add33d25d4ef888e16131f0a5687b0580a36c21b5c301a6c462effe\n      dup4\n      codecopy\n      dup2\n      mload\n      swap2\n      mstore\n      0x44\n      dup3\n      add\n      mstore\n      swap1\n      mload\n      swap1\n      dup2\n      swap1\n      sub\n      0x64\n      add\n      swap1\n      revert\n    tag_230:\n        /* \"UniswapV2Locker.sol\":4243:4266  gFees.secondaryFeeToken */\n      0x08\n        /* \"UniswapV2Locker.sol\":4243:4297  gFees.secondaryFeeToken = IERCBurn(_secondaryFeeToken) */\n      dup1\n      sload\n      not(sub(shl(0xa0, 0x01), 0x01))\n      and\n      sub(shl(0xa0, 0x01), 0x01)\n      swap3\n      swap1\n      swap3\n      and\n      swap2\n      swap1\n      swap2\n      or\n      swap1\n      sstore\n        /* \"UniswapV2Locker.sol\":4161:4303  function setSecondaryFeeToken(address _secondaryFeeToken) public onlyOwner {\r... */\n      jump\t// out\n        /* \"UniswapV2Locker.sol\":6197:10027  function lockLPToken (address _lpToken, uint256 _amount, uint256 _unlock_date, address payable _referral, bool _fee_in_eth, address payable _withdrawer) external payable nonReentrant {\r... */\n    tag_80:\n        /* \"ReentrancyGuard.sol\":1867:1868  2 */\n      0x02\n        /* \"ReentrancyGuard.sol\":2473:2480  _status */\n      sload(0x01)\n        /* \"ReentrancyGuard.sol\":2473:2492  _status != _ENTERED */\n      eq\n      iszero\n        /* \"ReentrancyGuard.sol\":2465:2528  require(_status != _ENTERED, \"ReentrancyGuard: reentrant call\") */\n      tag_233\n      jumpi\n      0x40\n      dup1\n      mload\n      shl(0xe5, 0x461bcd)\n      dup2\n      mstore\n      0x20\n      0x04\n      dup3\n      add\n      mstore\n      0x1f\n      0x24\n      dup3\n      add\n      mstore\n      0x00\n      dup1\n      mload\n      0x20\n      data_0d74825aecb0211bbe1f02ccfb998d9e49771bedb2c6414e20fd8978a2e0f54c\n      dup4\n      codecopy\n      dup2\n      mload\n      swap2\n      mstore\n      0x44\n      dup3\n      add\n      mstore\n      swap1\n      mload\n      swap1\n      dup2\n      swap1\n      sub\n      0x64\n      add\n      swap1\n      revert\n    tag_233:\n        /* \"ReentrancyGuard.sol\":1867:1868  2 */\n      0x02\n        /* \"ReentrancyGuard.sol\":2606:2613  _status */\n      0x01\n        /* \"ReentrancyGuard.sol\":2606:2624  _status = _ENTERED */\n      sstore\n        /* \"UniswapV2Locker.sol\":6410:6421  10000000000 */\n      0x02540be400\n        /* \"UniswapV2Locker.sol\":6395:6421  _unlock_date < 10000000000 */\n      dup5\n      lt\n        /* \"UniswapV2Locker.sol\":6387:6443  require(_unlock_date < 10000000000, 'TIMESTAMP INVALID') */\n      tag_235\n      jumpi\n      0x40\n      dup1\n      mload\n      shl(0xe5, 0x461bcd)\n      dup2\n      mstore\n      0x20\n      0x04\n      dup3\n      add\n      mstore\n      0x11\n      0x24\n      dup3\n      add\n      mstore\n      shl(0x7a, 0x1512535154d51053540812539590531251)\n      0x44\n      dup3\n      add\n      mstore\n      swap1\n      mload\n      swap1\n      dup2\n      swap1\n      sub\n      0x64\n      add\n      swap1\n      revert\n    tag_235:\n        /* \"UniswapV2Locker.sol\":6580:6581  0 */\n      0x00\n        /* \"UniswapV2Locker.sol\":6570:6577  _amount */\n      dup6\n        /* \"UniswapV2Locker.sol\":6570:6581  _amount > 0 */\n      gt\n        /* \"UniswapV2Locker.sol\":6562:6598  require(_amount > 0, 'INSUFFICIENT') */\n      tag_236\n      jumpi\n      0x40\n      dup1\n      mload\n      shl(0xe5, 0x461bcd)\n      dup2\n      mstore\n      0x20\n      0x04\n      dup3\n      add\n      mstore\n      0x0c\n      0x24\n      dup3\n      add\n      mstore\n      shl(0xa2, 0x125394d551919250d2515395)\n      0x44\n      dup3\n      add\n      mstore\n      swap1\n      mload\n      swap1\n      dup2\n      swap1\n      sub\n      0x64\n      add\n      swap1\n      revert\n    tag_236:\n        /* \"UniswapV2Locker.sol\":6789:6803  uniswapFactory */\n      sload(0x02)\n        /* \"UniswapV2Locker.sol\":6812:6826  lpair.token0() */\n      0x40\n      dup1\n      mload\n      shl(0xe0, 0x0dfe1681)\n      dup2\n      mstore\n      swap1\n      mload\n        /* \"UniswapV2Locker.sol\":6718:6726  _lpToken */\n      dup9\n      swap3\n        /* \"UniswapV2Locker.sol\":6672:6692  IUniswapV2Pair lpair */\n      0x00\n      swap3\n      sub(shl(0xa0, 0x01), 0x01)\n        /* \"UniswapV2Locker.sol\":6789:6803  uniswapFactory */\n      swap2\n      dup3\n      and\n      swap3\n        /* \"UniswapV2Locker.sol\":6789:6811  uniswapFactory.getPair */\n      0xe6a43905\n      swap3\n        /* \"UniswapV2Locker.sol\":6812:6824  lpair.token0 */\n      dup7\n      and\n      swap2\n      0x0dfe1681\n      swap2\n        /* \"UniswapV2Locker.sol\":6812:6826  lpair.token0() */\n      0x04\n      dup1\n      dup4\n      add\n      swap3\n      0x20\n      swap3\n      swap2\n      swap1\n      dup3\n      swap1\n      sub\n      add\n      dup2\n        /* \"UniswapV2Locker.sol\":6812:6824  lpair.token0 */\n      dup7\n        /* \"UniswapV2Locker.sol\":6812:6826  lpair.token0() */\n      dup1\n      extcodesize\n      iszero\n      dup1\n      iszero\n      tag_237\n      jumpi\n      0x00\n      dup1\n      revert\n    tag_237:\n      pop\n      gas\n      staticcall\n      iszero\n      dup1\n      iszero\n      tag_239\n      jumpi\n      returndatasize\n      0x00\n      dup1\n      returndatacopy\n      revert(0x00, returndatasize)\n    tag_239:\n      pop\n      pop\n      pop\n      pop\n      mload(0x40)\n      returndatasize\n      0x20\n      dup2\n      lt\n      iszero\n      tag_240\n      jumpi\n      0x00\n      dup1\n      revert\n    tag_240:\n      pop\n      mload\n        /* \"UniswapV2Locker.sol\":6828:6842  lpair.token1() */\n      0x40\n      dup1\n      mload\n      shl(0xe0, 0xd21220a7)\n      dup2\n      mstore\n      swap1\n      mload\n      sub(shl(0xa0, 0x01), 0x01)\n        /* \"UniswapV2Locker.sol\":6828:6840  lpair.token1 */\n      dup8\n      and\n      swap2\n      0xd21220a7\n      swap2\n        /* \"UniswapV2Locker.sol\":6828:6842  lpair.token1() */\n      0x04\n      dup1\n      dup4\n      add\n      swap3\n        /* \"UniswapV2Locker.sol\":6812:6826  lpair.token0() */\n      0x20\n      swap3\n        /* \"UniswapV2Locker.sol\":6828:6842  lpair.token1() */\n      swap2\n      swap1\n      dup3\n      swap1\n      sub\n      add\n      dup2\n        /* \"UniswapV2Locker.sol\":6828:6840  lpair.token1 */\n      dup7\n        /* \"UniswapV2Locker.sol\":6828:6842  lpair.token1() */\n      dup1\n      extcodesize\n      iszero\n      dup1\n      iszero\n      tag_241\n      jumpi\n      0x00\n      dup1\n      revert\n    tag_241:\n      pop\n      gas\n      staticcall\n      iszero\n      dup1\n      iszero\n      tag_243\n      jumpi\n      returndatasize\n      0x00\n      dup1\n      returndatacopy\n      revert(0x00, returndatasize)\n    tag_243:\n      pop\n      pop\n      pop\n      pop\n      mload(0x40)\n      returndatasize\n      0x20\n      dup2\n      lt\n      iszero\n      tag_244\n      jumpi\n      0x00\n      dup1\n      revert\n    tag_244:\n      pop\n      mload\n        /* \"UniswapV2Locker.sol\":6789:6843  uniswapFactory.getPair(lpair.token0(), lpair.token1()) */\n      0x40\n      dup1\n      mload\n      not(sub(shl(0xe0, 0x01), 0x01))\n      0xe0\n      dup7\n      swap1\n      shl\n      and\n      dup2\n      mstore\n      sub(shl(0xa0, 0x01), 0x01)\n      swap4\n      dup5\n      and\n      0x04\n      dup3\n      add\n      mstore\n      swap3\n      swap1\n      swap2\n      and\n      0x24\n      dup4\n      add\n      mstore\n      mload\n      0x44\n      dup1\n      dup4\n      add\n      swap3\n        /* \"UniswapV2Locker.sol\":6828:6842  lpair.token1() */\n      0x20\n      swap3\n        /* \"UniswapV2Locker.sol\":6789:6843  uniswapFactory.getPair(lpair.token0(), lpair.token1()) */\n      swap2\n      swap1\n      dup3\n      swap1\n      sub\n      add\n      dup2\n      dup7\n      dup1\n      extcodesize\n      iszero\n      dup1\n      iszero\n      tag_245\n      jumpi\n      0x00\n      dup1\n      revert\n    tag_245:\n      pop\n      gas\n      staticcall\n      iszero\n      dup1\n      iszero\n      tag_247\n      jumpi\n      returndatasize\n      0x00\n      dup1\n      returndatacopy\n      revert(0x00, returndatasize)\n    tag_247:\n      pop\n      pop\n      pop\n      pop\n      mload(0x40)\n      returndatasize\n      0x20\n      dup2\n      lt\n      iszero\n      tag_248\n      jumpi\n      0x00\n      dup1\n      revert\n    tag_248:\n      pop\n      mload\n      swap1\n      pop\n      sub(shl(0xa0, 0x01), 0x01)\n        /* \"UniswapV2Locker.sol\":6860:6899  factoryPairAddress == address(_lpToken) */\n      dup1\n      dup3\n      and\n      swap1\n      dup10\n      and\n      eq\n        /* \"UniswapV2Locker.sol\":6852:6913  require(factoryPairAddress == address(_lpToken), 'NOT UNIV2') */\n      tag_249\n      jumpi\n      0x40\n      dup1\n      mload\n      shl(0xe5, 0x461bcd)\n      dup2\n      mstore\n      0x20\n      0x04\n      dup3\n      add\n      mstore\n      0x09\n      0x24\n      dup3\n      add\n      mstore\n      shl(0xb9, 0x2727aa102aa724ab19)\n      0x44\n      dup3\n      add\n      mstore\n      swap1\n      mload\n      swap1\n      dup2\n      swap1\n      sub\n      0x64\n      add\n      swap1\n      revert\n    tag_249:\n        /* \"UniswapV2Locker.sol\":6928:7014  TransferHelper.safeTransferFrom(_lpToken, address(msg.sender), address(this), _amount) */\n      tag_250\n        /* \"UniswapV2Locker.sol\":6960:6968  _lpToken */\n      dup9\n        /* \"UniswapV2Locker.sol\":6978:6988  msg.sender */\n      caller\n        /* \"UniswapV2Locker.sol\":6999:7003  this */\n      address\n        /* \"UniswapV2Locker.sol\":7006:7013  _amount */\n      dup11\n        /* \"UniswapV2Locker.sol\":6928:6959  TransferHelper.safeTransferFrom */\n      tag_251\n        /* \"UniswapV2Locker.sol\":6928:7014  TransferHelper.safeTransferFrom(_lpToken, address(msg.sender), address(this), _amount) */\n      jump\t// in\n    tag_250:\n      sub(shl(0xa0, 0x01), 0x01)\n        /* \"UniswapV2Locker.sol\":7031:7054  _referral != address(0) */\n      dup6\n      and\n      iszero\n      dup1\n      iszero\n      swap1\n        /* \"UniswapV2Locker.sol\":7031:7100  _referral != address(0) && address(gFees.referralToken) != address(0) */\n      tag_252\n      jumpi\n      pop\n        /* \"UniswapV2Locker.sol\":7066:7085  gFees.referralToken */\n      and(sub(shl(0xa0, 0x01), 0x01), sload(0x0d))\n        /* \"UniswapV2Locker.sol\":7058:7100  address(gFees.referralToken) != address(0) */\n      iszero\n      iszero\n        /* \"UniswapV2Locker.sol\":7031:7100  _referral != address(0) && address(gFees.referralToken) != address(0) */\n    tag_252:\n        /* \"UniswapV2Locker.sol\":7027:7212  if (_referral != address(0) && address(gFees.referralToken) != address(0)) {\r... */\n      iszero\n      tag_258\n      jumpi\n        /* \"UniswapV2Locker.sol\":7163:7181  gFees.referralHold */\n      sload(0x0e)\n        /* \"UniswapV2Locker.sol\":7119:7138  gFees.referralToken */\n      sload(0x0d)\n        /* \"UniswapV2Locker.sol\":7119:7159  gFees.referralToken.balanceOf(_referral) */\n      0x40\n      dup1\n      mload\n      shl(0xe0, 0x70a08231)\n      dup2\n      mstore\n      sub(shl(0xa0, 0x01), 0x01)\n      dup10\n      dup2\n      and\n      0x04\n      dup4\n      add\n      mstore\n      swap2\n      mload\n        /* \"UniswapV2Locker.sol\":7119:7138  gFees.referralToken */\n      swap2\n      swap1\n      swap3\n      and\n      swap2\n        /* \"UniswapV2Locker.sol\":7119:7148  gFees.referralToken.balanceOf */\n      0x70a08231\n      swap2\n        /* \"UniswapV2Locker.sol\":7119:7159  gFees.referralToken.balanceOf(_referral) */\n      0x24\n      dup1\n      dup4\n      add\n      swap3\n      0x20\n      swap3\n      swap2\n      swap1\n      dup3\n      swap1\n      sub\n      add\n      dup2\n        /* \"UniswapV2Locker.sol\":7119:7138  gFees.referralToken */\n      dup7\n        /* \"UniswapV2Locker.sol\":7119:7159  gFees.referralToken.balanceOf(_referral) */\n      dup1\n      extcodesize\n      iszero\n      dup1\n      iszero\n      tag_254\n      jumpi\n      0x00\n      dup1\n      revert\n    tag_254:\n      pop\n      gas\n      staticcall\n      iszero\n      dup1\n      iszero\n      tag_256\n      jumpi\n      returndatasize\n      0x00\n      dup1\n      returndatacopy\n      revert(0x00, returndatasize)\n    tag_256:\n      pop\n      pop\n      pop\n      pop\n      mload(0x40)\n      returndatasize\n      0x20\n      dup2\n      lt\n      iszero\n      tag_257\n      jumpi\n      0x00\n      dup1\n      revert\n    tag_257:\n      pop\n      mload\n        /* \"UniswapV2Locker.sol\":7119:7181  gFees.referralToken.balanceOf(_referral) >= gFees.referralHold */\n      lt\n      iszero\n        /* \"UniswapV2Locker.sol\":7111:7204  require(gFees.referralToken.balanceOf(_referral) >= gFees.referralHold, 'INADEQUATE BALANCE') */\n      tag_258\n      jumpi\n      0x40\n      dup1\n      mload\n      shl(0xe5, 0x461bcd)\n      dup2\n      mstore\n      0x20\n      0x04\n      dup3\n      add\n      mstore\n      0x12\n      0x24\n      dup3\n      add\n      mstore\n      shl(0x70, 0x494e41444551554154452042414c414e4345)\n      0x44\n      dup3\n      add\n      mstore\n      swap1\n      mload\n      swap1\n      dup2\n      swap1\n      sub\n      0x64\n      add\n      swap1\n      revert\n    tag_258:\n        /* \"UniswapV2Locker.sol\":7251:7284  feeWhitelist.contains(msg.sender) */\n      tag_259\n        /* \"UniswapV2Locker.sol\":7251:7263  feeWhitelist */\n      0x10\n        /* \"UniswapV2Locker.sol\":7273:7283  msg.sender */\n      caller\n        /* \"UniswapV2Locker.sol\":7251:7272  feeWhitelist.contains */\n      tag_260\n        /* \"UniswapV2Locker.sol\":7251:7284  feeWhitelist.contains(msg.sender) */\n      jump\t// in\n    tag_259:\n        /* \"UniswapV2Locker.sol\":7246:8825  if (!feeWhitelist.contains(msg.sender)) {\r... */\n      tag_261\n      jumpi\n        /* \"UniswapV2Locker.sol\":7299:7310  _fee_in_eth */\n      dup4\n        /* \"UniswapV2Locker.sol\":7295:8683  if (_fee_in_eth) { // charge fee in eth\r... */\n      iszero\n      tag_262\n      jumpi\n        /* \"UniswapV2Locker.sol\":7361:7366  gFees */\n      0x07\n        /* \"UniswapV2Locker.sol\":7361:7373  gFees.ethFee */\n      sload\n      sub(shl(0xa0, 0x01), 0x01)\n        /* \"UniswapV2Locker.sol\":7388:7411  _referral != address(0) */\n      dup7\n      and\n      iszero\n        /* \"UniswapV2Locker.sol\":7384:7498  if (_referral != address(0)) {\r... */\n      tag_263\n      jumpi\n        /* \"UniswapV2Locker.sol\":7453:7475  gFees.referralDiscount */\n      sload(0x0f)\n        /* \"UniswapV2Locker.sol\":7435:7486  ethFee.mul(1000 - gFees.referralDiscount).div(1000) */\n      tag_264\n      swap1\n        /* \"UniswapV2Locker.sol\":7481:7485  1000 */\n      0x03e8\n      swap1\n        /* \"UniswapV2Locker.sol\":7435:7476  ethFee.mul(1000 - gFees.referralDiscount) */\n      tag_213\n      swap1\n        /* \"UniswapV2Locker.sol\":7435:7441  ethFee */\n      dup5\n      swap1\n        /* \"UniswapV2Locker.sol\":7446:7475  1000 - gFees.referralDiscount */\n      dup4\n      sub\n        /* \"UniswapV2Locker.sol\":7435:7445  ethFee.mul */\n      tag_214\n        /* \"UniswapV2Locker.sol\":7435:7476  ethFee.mul(1000 - gFees.referralDiscount) */\n      jump\t// in\n        /* \"UniswapV2Locker.sol\":7435:7486  ethFee.mul(1000 - gFees.referralDiscount).div(1000) */\n    tag_264:\n        /* \"UniswapV2Locker.sol\":7426:7486  ethFee = ethFee.mul(1000 - gFees.referralDiscount).div(1000) */\n      swap1\n      pop\n        /* \"UniswapV2Locker.sol\":7384:7498  if (_referral != address(0)) {\r... */\n    tag_263:\n        /* \"UniswapV2Locker.sol\":7529:7535  ethFee */\n      dup1\n        /* \"UniswapV2Locker.sol\":7516:7525  msg.value */\n      callvalue\n        /* \"UniswapV2Locker.sol\":7516:7535  msg.value == ethFee */\n      eq\n        /* \"UniswapV2Locker.sol\":7508:7551  require(msg.value == ethFee, 'FEE NOT MET') */\n      tag_266\n      jumpi\n      0x40\n      dup1\n      mload\n      shl(0xe5, 0x461bcd)\n      dup2\n      mstore\n      0x20\n      0x04\n      dup3\n      add\n      mstore\n      0x0b\n      0x24\n      dup3\n      add\n      mstore\n      shl(0xaa, 0x119151481393d508135155)\n      0x44\n      dup3\n      add\n      mstore\n      swap1\n      mload\n      swap1\n      dup2\n      swap1\n      sub\n      0x64\n      add\n      swap1\n      revert\n    tag_266:\n        /* \"UniswapV2Locker.sol\":7579:7585  ethFee */\n      dup1\n        /* \"UniswapV2Locker.sol\":7600:7611  ethFee != 0 */\n      dup1\n      iszero\n      dup1\n      iszero\n      swap1\n        /* \"UniswapV2Locker.sol\":7600:7638  ethFee != 0 && _referral != address(0) */\n      tag_267\n      jumpi\n      pop\n      sub(shl(0xa0, 0x01), 0x01)\n        /* \"UniswapV2Locker.sol\":7615:7638  _referral != address(0) */\n      dup8\n      and\n      iszero\n      iszero\n        /* \"UniswapV2Locker.sol\":7600:7638  ethFee != 0 && _referral != address(0) */\n    tag_267:\n        /* \"UniswapV2Locker.sol\":7596:7835  if (ethFee != 0 && _referral != address(0)) { // referral fee\r... */\n      iszero\n      tag_268\n      jumpi\n        /* \"UniswapV2Locker.sol\":7669:7688  uint256 referralFee */\n      0x00\n        /* \"UniswapV2Locker.sol\":7691:7734  devFee.mul(gFees.referralPercent).div(1000) */\n      tag_269\n        /* \"UniswapV2Locker.sol\":7729:7733  1000 */\n      0x03e8\n        /* \"UniswapV2Locker.sol\":7691:7724  devFee.mul(gFees.referralPercent) */\n      tag_213\n        /* \"UniswapV2Locker.sol\":7702:7707  gFees */\n      0x07\n        /* \"UniswapV2Locker.sol\":7702:7723  gFees.referralPercent */\n      0x05\n      add\n      sload\n        /* \"UniswapV2Locker.sol\":7691:7697  devFee */\n      dup6\n        /* \"UniswapV2Locker.sol\":7691:7701  devFee.mul */\n      tag_214\n      swap1\n        /* \"UniswapV2Locker.sol\":7691:7724  devFee.mul(gFees.referralPercent) */\n      swap2\n      swap1\n      0xffffffff\n      and\n      jump\t// in\n        /* \"UniswapV2Locker.sol\":7691:7734  devFee.mul(gFees.referralPercent).div(1000) */\n    tag_269:\n        /* \"UniswapV2Locker.sol\":7747:7778  _referral.transfer(referralFee) */\n      mload(0x40)\n        /* \"UniswapV2Locker.sol\":7669:7734  uint256 referralFee = devFee.mul(gFees.referralPercent).div(1000) */\n      swap1\n      swap2\n      pop\n      sub(shl(0xa0, 0x01), 0x01)\n        /* \"UniswapV2Locker.sol\":7747:7765  _referral.transfer */\n      dup10\n      and\n      swap1\n        /* \"UniswapV2Locker.sol\":7747:7778  _referral.transfer(referralFee) */\n      dup3\n      iszero\n      0x08fc\n      mul\n      swap1\n        /* \"UniswapV2Locker.sol\":7669:7734  uint256 referralFee = devFee.mul(gFees.referralPercent).div(1000) */\n      dup4\n      swap1\n        /* \"UniswapV2Locker.sol\":7747:7778  _referral.transfer(referralFee) */\n      0x00\n      dup2\n      dup2\n      dup2\n        /* \"UniswapV2Locker.sol\":7669:7734  uint256 referralFee = devFee.mul(gFees.referralPercent).div(1000) */\n      dup6\n        /* \"UniswapV2Locker.sol\":7747:7765  _referral.transfer */\n      dup9\n        /* \"UniswapV2Locker.sol\":7747:7778  _referral.transfer(referralFee) */\n      dup9\n      call\n      swap4\n      pop\n      pop\n      pop\n      pop\n      iszero\n      dup1\n      iszero\n      tag_272\n      jumpi\n      returndatasize\n      0x00\n      dup1\n      returndatacopy\n      revert(0x00, returndatasize)\n    tag_272:\n      pop\n        /* \"UniswapV2Locker.sol\":7800:7823  devFee.sub(referralFee) */\n      tag_273\n        /* \"UniswapV2Locker.sol\":7800:7806  devFee */\n      dup3\n        /* \"UniswapV2Locker.sol\":7811:7822  referralFee */\n      dup3\n        /* \"UniswapV2Locker.sol\":7800:7810  devFee.sub */\n      tag_167\n        /* \"UniswapV2Locker.sol\":7800:7823  devFee.sub(referralFee) */\n      jump\t// in\n    tag_273:\n        /* \"UniswapV2Locker.sol\":7791:7823  devFee = devFee.sub(referralFee) */\n      swap2\n      pop\n        /* \"UniswapV2Locker.sol\":7596:7835  if (ethFee != 0 && _referral != address(0)) { // referral fee\r... */\n      pop\n    tag_268:\n        /* \"UniswapV2Locker.sol\":7845:7852  devaddr */\n      sload(0x12)\n        /* \"UniswapV2Locker.sol\":7845:7869  devaddr.transfer(devFee) */\n      mload(0x40)\n      sub(shl(0xa0, 0x01), 0x01)\n        /* \"UniswapV2Locker.sol\":7845:7852  devaddr */\n      swap1\n      swap2\n      and\n      swap1\n        /* \"UniswapV2Locker.sol\":7845:7869  devaddr.transfer(devFee) */\n      dup3\n      iszero\n      0x08fc\n      mul\n      swap1\n        /* \"UniswapV2Locker.sol\":7862:7868  devFee */\n      dup4\n      swap1\n        /* \"UniswapV2Locker.sol\":7845:7852  devaddr */\n      0x00\n        /* \"UniswapV2Locker.sol\":7845:7869  devaddr.transfer(devFee) */\n      dup2\n        /* \"UniswapV2Locker.sol\":7845:7852  devaddr */\n      dup2\n        /* \"UniswapV2Locker.sol\":7845:7869  devaddr.transfer(devFee) */\n      dup2\n        /* \"UniswapV2Locker.sol\":7862:7868  devFee */\n      dup6\n        /* \"UniswapV2Locker.sol\":7845:7852  devaddr */\n      dup9\n        /* \"UniswapV2Locker.sol\":7845:7869  devaddr.transfer(devFee) */\n      dup9\n      call\n      swap4\n      pop\n      pop\n      pop\n      pop\n      iszero\n      dup1\n      iszero\n      tag_275\n      jumpi\n      returndatasize\n      0x00\n      dup1\n      returndatacopy\n      revert(0x00, returndatasize)\n    tag_275:\n      pop\n        /* \"UniswapV2Locker.sol\":7295:8683  if (_fee_in_eth) { // charge fee in eth\r... */\n      pop\n      pop\n      jump(tag_276)\n    tag_262:\n        /* \"UniswapV2Locker.sol\":7937:7960  gFees.secondaryTokenFee */\n      sload(0x09)\n      sub(shl(0xa0, 0x01), 0x01)\n        /* \"UniswapV2Locker.sol\":7975:7998  _referral != address(0) */\n      dup7\n      and\n      iszero\n        /* \"UniswapV2Locker.sol\":7971:8087  if (_referral != address(0)) {\r... */\n      tag_277\n      jumpi\n        /* \"UniswapV2Locker.sol\":8042:8064  gFees.referralDiscount */\n      sload(0x0f)\n        /* \"UniswapV2Locker.sol\":8023:8075  burnFee.mul(1000 - gFees.referralDiscount).div(1000) */\n      tag_278\n      swap1\n        /* \"UniswapV2Locker.sol\":8070:8074  1000 */\n      0x03e8\n      swap1\n        /* \"UniswapV2Locker.sol\":8023:8065  burnFee.mul(1000 - gFees.referralDiscount) */\n      tag_213\n      swap1\n        /* \"UniswapV2Locker.sol\":8023:8030  burnFee */\n      dup5\n      swap1\n        /* \"UniswapV2Locker.sol\":8035:8064  1000 - gFees.referralDiscount */\n      dup4\n      sub\n        /* \"UniswapV2Locker.sol\":8023:8034  burnFee.mul */\n      tag_214\n        /* \"UniswapV2Locker.sol\":8023:8065  burnFee.mul(1000 - gFees.referralDiscount) */\n      jump\t// in\n        /* \"UniswapV2Locker.sol\":8023:8075  burnFee.mul(1000 - gFees.referralDiscount).div(1000) */\n    tag_278:\n        /* \"UniswapV2Locker.sol\":8013:8075  burnFee = burnFee.mul(1000 - gFees.referralDiscount).div(1000) */\n      swap1\n      pop\n        /* \"UniswapV2Locker.sol\":7971:8087  if (_referral != address(0)) {\r... */\n    tag_277:\n        /* \"UniswapV2Locker.sol\":8137:8160  gFees.secondaryFeeToken */\n      sload(0x08)\n        /* \"UniswapV2Locker.sol\":8097:8207  TransferHelper.safeTransferFrom(address(gFees.secondaryFeeToken), address(msg.sender), address(this), burnFee) */\n      tag_280\n      swap1\n      sub(shl(0xa0, 0x01), 0x01)\n        /* \"UniswapV2Locker.sol\":8137:8160  gFees.secondaryFeeToken */\n      and\n        /* \"UniswapV2Locker.sol\":8171:8181  msg.sender */\n      caller\n        /* \"UniswapV2Locker.sol\":8192:8196  this */\n      address\n        /* \"UniswapV2Locker.sol\":8199:8206  burnFee */\n      dup5\n        /* \"UniswapV2Locker.sol\":8097:8128  TransferHelper.safeTransferFrom */\n      tag_251\n        /* \"UniswapV2Locker.sol\":8097:8207  TransferHelper.safeTransferFrom(address(gFees.secondaryFeeToken), address(msg.sender), address(this), burnFee) */\n      jump\t// in\n    tag_280:\n        /* \"UniswapV2Locker.sol\":8222:8243  gFees.referralPercent */\n      sload(0x0c)\n        /* \"UniswapV2Locker.sol\":8222:8248  gFees.referralPercent != 0 */\n      iszero\n      dup1\n      iszero\n      swap1\n        /* \"UniswapV2Locker.sol\":8222:8275  gFees.referralPercent != 0 && _referral != address(0) */\n      tag_281\n      jumpi\n      pop\n      sub(shl(0xa0, 0x01), 0x01)\n        /* \"UniswapV2Locker.sol\":8252:8275  _referral != address(0) */\n      dup7\n      and\n      iszero\n      iszero\n        /* \"UniswapV2Locker.sol\":8222:8275  gFees.referralPercent != 0 && _referral != address(0) */\n    tag_281:\n        /* \"UniswapV2Locker.sol\":8218:8626  if (gFees.referralPercent != 0 && _referral != address(0)) { // referral fee\r... */\n      iszero\n      tag_282\n      jumpi\n        /* \"UniswapV2Locker.sol\":8306:8325  uint256 referralFee */\n      0x00\n        /* \"UniswapV2Locker.sol\":8328:8372  burnFee.mul(gFees.referralPercent).div(1000) */\n      tag_283\n        /* \"UniswapV2Locker.sol\":8367:8371  1000 */\n      0x03e8\n        /* \"UniswapV2Locker.sol\":8328:8362  burnFee.mul(gFees.referralPercent) */\n      tag_213\n        /* \"UniswapV2Locker.sol\":8340:8345  gFees */\n      0x07\n        /* \"UniswapV2Locker.sol\":8340:8361  gFees.referralPercent */\n      0x05\n      add\n      sload\n        /* \"UniswapV2Locker.sol\":8328:8335  burnFee */\n      dup6\n        /* \"UniswapV2Locker.sol\":8328:8339  burnFee.mul */\n      tag_214\n      swap1\n        /* \"UniswapV2Locker.sol\":8328:8362  burnFee.mul(gFees.referralPercent) */\n      swap2\n      swap1\n      0xffffffff\n      and\n      jump\t// in\n        /* \"UniswapV2Locker.sol\":8328:8372  burnFee.mul(gFees.referralPercent).div(1000) */\n    tag_283:\n        /* \"UniswapV2Locker.sol\":8420:8443  gFees.secondaryFeeToken */\n      sload(0x08)\n        /* \"UniswapV2Locker.sol\":8306:8372  uint256 referralFee = burnFee.mul(gFees.referralPercent).div(1000) */\n      swap1\n      swap2\n      pop\n        /* \"UniswapV2Locker.sol\":8385:8469  TransferHelper.safeApprove(address(gFees.secondaryFeeToken), _referral, referralFee) */\n      tag_285\n      swap1\n      sub(shl(0xa0, 0x01), 0x01)\n        /* \"UniswapV2Locker.sol\":8420:8443  gFees.secondaryFeeToken */\n      and\n        /* \"UniswapV2Locker.sol\":8446:8455  _referral */\n      dup9\n        /* \"UniswapV2Locker.sol\":8306:8372  uint256 referralFee = burnFee.mul(gFees.referralPercent).div(1000) */\n      dup4\n        /* \"UniswapV2Locker.sol\":8385:8411  TransferHelper.safeApprove */\n      tag_286\n        /* \"UniswapV2Locker.sol\":8385:8469  TransferHelper.safeApprove(address(gFees.secondaryFeeToken), _referral, referralFee) */\n      jump\t// in\n    tag_285:\n        /* \"UniswapV2Locker.sol\":8518:8541  gFees.secondaryFeeToken */\n      sload(0x08)\n        /* \"UniswapV2Locker.sol\":8482:8567  TransferHelper.safeTransfer(address(gFees.secondaryFeeToken), _referral, referralFee) */\n      tag_287\n      swap1\n      sub(shl(0xa0, 0x01), 0x01)\n        /* \"UniswapV2Locker.sol\":8518:8541  gFees.secondaryFeeToken */\n      and\n        /* \"UniswapV2Locker.sol\":8544:8553  _referral */\n      dup9\n        /* \"UniswapV2Locker.sol\":8555:8566  referralFee */\n      dup4\n        /* \"UniswapV2Locker.sol\":8482:8509  TransferHelper.safeTransfer */\n      tag_179\n        /* \"UniswapV2Locker.sol\":8482:8567  TransferHelper.safeTransfer(address(gFees.secondaryFeeToken), _referral, referralFee) */\n      jump\t// in\n    tag_287:\n        /* \"UniswapV2Locker.sol\":8590:8614  burnFee.sub(referralFee) */\n      tag_288\n        /* \"UniswapV2Locker.sol\":8590:8597  burnFee */\n      dup3\n        /* \"UniswapV2Locker.sol\":8602:8613  referralFee */\n      dup3\n        /* \"UniswapV2Locker.sol\":8590:8601  burnFee.sub */\n      tag_167\n        /* \"UniswapV2Locker.sol\":8590:8614  burnFee.sub(referralFee) */\n      jump\t// in\n    tag_288:\n        /* \"UniswapV2Locker.sol\":8580:8614  burnFee = burnFee.sub(referralFee) */\n      swap2\n      pop\n        /* \"UniswapV2Locker.sol\":8218:8626  if (gFees.referralPercent != 0 && _referral != address(0)) { // referral fee\r... */\n      pop\n    tag_282:\n        /* \"UniswapV2Locker.sol\":8636:8659  gFees.secondaryFeeToken */\n      sload(0x08)\n        /* \"UniswapV2Locker.sol\":8636:8673  gFees.secondaryFeeToken.burn(burnFee) */\n      0x40\n      dup1\n      mload\n      shl(0xe3, 0x0852cd8d)\n      dup2\n      mstore\n      0x04\n      dup2\n      add\n      dup5\n      swap1\n      mstore\n      swap1\n      mload\n      sub(shl(0xa0, 0x01), 0x01)\n        /* \"UniswapV2Locker.sol\":8636:8659  gFees.secondaryFeeToken */\n      swap1\n      swap3\n      and\n      swap2\n        /* \"UniswapV2Locker.sol\":8636:8664  gFees.secondaryFeeToken.burn */\n      0x42966c68\n      swap2\n        /* \"UniswapV2Locker.sol\":8636:8673  gFees.secondaryFeeToken.burn(burnFee) */\n      0x24\n      dup1\n      dup3\n      add\n      swap3\n        /* \"UniswapV2Locker.sol\":8636:8659  gFees.secondaryFeeToken */\n      0x00\n      swap3\n        /* \"UniswapV2Locker.sol\":8636:8673  gFees.secondaryFeeToken.burn(burnFee) */\n      swap1\n      swap2\n      swap1\n      dup3\n      swap1\n      sub\n      add\n      dup2\n        /* \"UniswapV2Locker.sol\":8636:8659  gFees.secondaryFeeToken */\n      dup4\n      dup8\n        /* \"UniswapV2Locker.sol\":8636:8673  gFees.secondaryFeeToken.burn(burnFee) */\n      dup1\n      extcodesize\n      iszero\n      dup1\n      iszero\n      tag_289\n      jumpi\n      0x00\n      dup1\n      revert\n    tag_289:\n      pop\n      gas\n      call\n      iszero\n      dup1\n      iszero\n      tag_291\n      jumpi\n      returndatasize\n      0x00\n      dup1\n      returndatacopy\n      revert(0x00, returndatasize)\n    tag_291:\n      pop\n      pop\n      pop\n      pop\n        /* \"UniswapV2Locker.sol\":7295:8683  if (_fee_in_eth) { // charge fee in eth\r... */\n      pop\n    tag_276:\n        /* \"UniswapV2Locker.sol\":7246:8825  if (!feeWhitelist.contains(msg.sender)) {\r... */\n      jump(tag_293)\n    tag_261:\n        /* \"UniswapV2Locker.sol\":8700:8709  msg.value */\n      callvalue\n        /* \"UniswapV2Locker.sol\":8700:8713  msg.value > 0 */\n      iszero\n        /* \"UniswapV2Locker.sol\":8696:8825  if (msg.value > 0){\r... */\n      tag_293\n      jumpi\n        /* \"UniswapV2Locker.sol\":8787:8817  msg.sender.transfer(msg.value) */\n      mload(0x40)\n        /* \"UniswapV2Locker.sol\":8787:8797  msg.sender */\n      caller\n      swap1\n        /* \"UniswapV2Locker.sol\":8807:8816  msg.value */\n      callvalue\n        /* \"UniswapV2Locker.sol\":8787:8817  msg.sender.transfer(msg.value) */\n      dup1\n      iszero\n      0x08fc\n      mul\n      swap2\n      0x00\n      dup2\n      dup2\n      dup2\n        /* \"UniswapV2Locker.sol\":8807:8816  msg.value */\n      dup6\n        /* \"UniswapV2Locker.sol\":8787:8797  msg.sender */\n      dup9\n        /* \"UniswapV2Locker.sol\":8787:8817  msg.sender.transfer(msg.value) */\n      dup9\n      call\n      swap4\n      pop\n      pop\n      pop\n      pop\n      iszero\n      dup1\n      iszero\n      tag_295\n      jumpi\n      returndatasize\n      0x00\n      dup1\n      returndatacopy\n      revert(0x00, returndatasize)\n    tag_295:\n      pop\n        /* \"UniswapV2Locker.sol\":8696:8825  if (msg.value > 0){\r... */\n    tag_293:\n        /* \"UniswapV2Locker.sol\":8857:8877  uint256 liquidityFee */\n      0x00\n        /* \"UniswapV2Locker.sol\":8880:8921  _amount.mul(gFees.liquidityFee).div(1000) */\n      tag_296\n        /* \"UniswapV2Locker.sol\":8916:8920  1000 */\n      0x03e8\n        /* \"UniswapV2Locker.sol\":8880:8911  _amount.mul(gFees.liquidityFee) */\n      tag_213\n        /* \"UniswapV2Locker.sol\":8892:8897  gFees */\n      0x07\n        /* \"UniswapV2Locker.sol\":8892:8910  gFees.liquidityFee */\n      0x04\n      add\n      sload\n        /* \"UniswapV2Locker.sol\":8880:8887  _amount */\n      dup12\n        /* \"UniswapV2Locker.sol\":8880:8891  _amount.mul */\n      tag_214\n      swap1\n        /* \"UniswapV2Locker.sol\":8880:8911  _amount.mul(gFees.liquidityFee) */\n      swap2\n      swap1\n      0xffffffff\n      and\n      jump\t// in\n        /* \"UniswapV2Locker.sol\":8880:8921  _amount.mul(gFees.liquidityFee).div(1000) */\n    tag_296:\n        /* \"UniswapV2Locker.sol\":8857:8921  uint256 liquidityFee = _amount.mul(gFees.liquidityFee).div(1000) */\n      swap1\n      pop\n        /* \"UniswapV2Locker.sol\":8933:8944  _fee_in_eth */\n      dup5\n        /* \"UniswapV2Locker.sol\":8932:8944  !_fee_in_eth */\n      iszero\n        /* \"UniswapV2Locker.sol\":8932:8982  !_fee_in_eth && !feeWhitelist.contains(msg.sender) */\n      dup1\n      iszero\n      tag_298\n      jumpi\n      pop\n        /* \"UniswapV2Locker.sol\":8949:8982  feeWhitelist.contains(msg.sender) */\n      tag_299\n        /* \"UniswapV2Locker.sol\":8949:8961  feeWhitelist */\n      0x10\n        /* \"UniswapV2Locker.sol\":8971:8981  msg.sender */\n      caller\n        /* \"UniswapV2Locker.sol\":8949:8970  feeWhitelist.contains */\n      tag_260\n        /* \"UniswapV2Locker.sol\":8949:8982  feeWhitelist.contains(msg.sender) */\n      jump\t// in\n    tag_299:\n        /* \"UniswapV2Locker.sol\":8948:8982  !feeWhitelist.contains(msg.sender) */\n      iszero\n        /* \"UniswapV2Locker.sol\":8932:8982  !_fee_in_eth && !feeWhitelist.contains(msg.sender) */\n    tag_298:\n        /* \"UniswapV2Locker.sol\":8928:9135  if (!_fee_in_eth && !feeWhitelist.contains(msg.sender)) { // fee discount for large lockers using secondary token\r... */\n      iszero\n      tag_300\n      jumpi\n        /* \"UniswapV2Locker.sol\":9088:9116  gFees.secondaryTokenDiscount */\n      sload(0x0a)\n        /* \"UniswapV2Locker.sol\":9064:9127  liquidityFee.mul(1000 - gFees.secondaryTokenDiscount).div(1000) */\n      tag_301\n      swap1\n        /* \"UniswapV2Locker.sol\":9122:9126  1000 */\n      0x03e8\n      swap1\n        /* \"UniswapV2Locker.sol\":9064:9117  liquidityFee.mul(1000 - gFees.secondaryTokenDiscount) */\n      tag_213\n      swap1\n        /* \"UniswapV2Locker.sol\":9064:9076  liquidityFee */\n      dup5\n      swap1\n        /* \"UniswapV2Locker.sol\":9081:9116  1000 - gFees.secondaryTokenDiscount */\n      dup4\n      sub\n        /* \"UniswapV2Locker.sol\":9064:9080  liquidityFee.mul */\n      tag_214\n        /* \"UniswapV2Locker.sol\":9064:9117  liquidityFee.mul(1000 - gFees.secondaryTokenDiscount) */\n      jump\t// in\n        /* \"UniswapV2Locker.sol\":9064:9127  liquidityFee.mul(1000 - gFees.secondaryTokenDiscount).div(1000) */\n    tag_301:\n        /* \"UniswapV2Locker.sol\":9049:9127  liquidityFee = liquidityFee.mul(1000 - gFees.secondaryTokenDiscount).div(1000) */\n      swap1\n      pop\n        /* \"UniswapV2Locker.sol\":8928:9135  if (!_fee_in_eth && !feeWhitelist.contains(msg.sender)) { // fee discount for large lockers using secondary token\r... */\n    tag_300:\n        /* \"UniswapV2Locker.sol\":9179:9186  devaddr */\n      sload(0x12)\n        /* \"UniswapV2Locker.sol\":9141:9201  TransferHelper.safeTransfer(_lpToken, devaddr, liquidityFee) */\n      tag_303\n      swap1\n        /* \"UniswapV2Locker.sol\":9169:9177  _lpToken */\n      dup11\n      swap1\n      sub(shl(0xa0, 0x01), 0x01)\n        /* \"UniswapV2Locker.sol\":9179:9186  devaddr */\n      and\n        /* \"UniswapV2Locker.sol\":9188:9200  liquidityFee */\n      dup4\n        /* \"UniswapV2Locker.sol\":9141:9168  TransferHelper.safeTransfer */\n      tag_179\n        /* \"UniswapV2Locker.sol\":9141:9201  TransferHelper.safeTransfer(_lpToken, devaddr, liquidityFee) */\n      jump\t// in\n    tag_303:\n        /* \"UniswapV2Locker.sol\":9208:9228  uint256 amountLocked */\n      0x00\n        /* \"UniswapV2Locker.sol\":9231:9256  _amount.sub(liquidityFee) */\n      tag_304\n        /* \"UniswapV2Locker.sol\":9231:9238  _amount */\n      dup10\n        /* \"UniswapV2Locker.sol\":9243:9255  liquidityFee */\n      dup4\n        /* \"UniswapV2Locker.sol\":9231:9242  _amount.sub */\n      tag_167\n        /* \"UniswapV2Locker.sol\":9231:9256  _amount.sub(liquidityFee) */\n      jump\t// in\n    tag_304:\n        /* \"UniswapV2Locker.sol\":9208:9256  uint256 amountLocked = _amount.sub(liquidityFee) */\n      swap1\n      pop\n        /* \"UniswapV2Locker.sol\":9265:9292  TokenLock memory token_lock */\n      tag_305\n      tag_198\n      jump\t// in\n    tag_305:\n        /* \"UniswapV2Locker.sol\":9321:9336  block.timestamp */\n      timestamp\n        /* \"UniswapV2Locker.sol\":9299:9309  token_lock */\n      dup2\n        /* \"UniswapV2Locker.sol\":9299:9318  token_lock.lockDate */\n      0x00\n      add\n        /* \"UniswapV2Locker.sol\":9299:9336  token_lock.lockDate = block.timestamp */\n      dup2\n      dup2\n      mstore\n      pop\n      pop\n        /* \"UniswapV2Locker.sol\":9363:9375  amountLocked */\n      dup2\n        /* \"UniswapV2Locker.sol\":9343:9353  token_lock */\n      dup2\n        /* \"UniswapV2Locker.sol\":9343:9360  token_lock.amount */\n      0x20\n      add\n        /* \"UniswapV2Locker.sol\":9343:9375  token_lock.amount = amountLocked */\n      dup2\n      dup2\n      mstore\n      pop\n      pop\n        /* \"UniswapV2Locker.sol\":9409:9421  amountLocked */\n      dup2\n        /* \"UniswapV2Locker.sol\":9382:9392  token_lock */\n      dup2\n        /* \"UniswapV2Locker.sol\":9382:9406  token_lock.initialAmount */\n      0x40\n      add\n        /* \"UniswapV2Locker.sol\":9382:9421  token_lock.initialAmount = amountLocked */\n      dup2\n      dup2\n      mstore\n      pop\n      pop\n        /* \"UniswapV2Locker.sol\":9452:9464  _unlock_date */\n      dup9\n        /* \"UniswapV2Locker.sol\":9428:9438  token_lock */\n      dup2\n        /* \"UniswapV2Locker.sol\":9428:9449  token_lock.unlockDate */\n      0x60\n      add\n        /* \"UniswapV2Locker.sol\":9428:9464  token_lock.unlockDate = _unlock_date */\n      dup2\n      dup2\n      mstore\n      pop\n      pop\n        /* \"UniswapV2Locker.sol\":9491:9501  tokenLocks */\n      0x06\n        /* \"UniswapV2Locker.sol\":9491:9511  tokenLocks[_lpToken] */\n      0x00\n        /* \"UniswapV2Locker.sol\":9502:9510  _lpToken */\n      dup13\n      sub(shl(0xa0, 0x01), 0x01)\n        /* \"UniswapV2Locker.sol\":9491:9511  tokenLocks[_lpToken] */\n      and\n      sub(shl(0xa0, 0x01), 0x01)\n      and\n      dup2\n      mstore\n      0x20\n      add\n      swap1\n      dup2\n      mstore\n      0x20\n      add\n      0x00\n      keccak256\n        /* \"UniswapV2Locker.sol\":9491:9518  tokenLocks[_lpToken].length */\n      dup1\n      sload\n      swap1\n      pop\n        /* \"UniswapV2Locker.sol\":9471:9481  token_lock */\n      dup2\n        /* \"UniswapV2Locker.sol\":9471:9488  token_lock.lockID */\n      0x80\n      add\n        /* \"UniswapV2Locker.sol\":9471:9518  token_lock.lockID = tokenLocks[_lpToken].length */\n      dup2\n      dup2\n      mstore\n      pop\n      pop\n        /* \"UniswapV2Locker.sol\":9544:9555  _withdrawer */\n      dup6\n        /* \"UniswapV2Locker.sol\":9525:9535  token_lock */\n      dup2\n        /* \"UniswapV2Locker.sol\":9525:9541  token_lock.owner */\n      0xa0\n      add\n        /* \"UniswapV2Locker.sol\":9525:9555  token_lock.owner = _withdrawer */\n      swap1\n      sub(shl(0xa0, 0x01), 0x01)\n      and\n      swap1\n      dup2\n      sub(shl(0xa0, 0x01), 0x01)\n      and\n      dup2\n      mstore\n      pop\n      pop\n        /* \"UniswapV2Locker.sol\":9606:9616  tokenLocks */\n      0x06\n        /* \"UniswapV2Locker.sol\":9606:9626  tokenLocks[_lpToken] */\n      0x00\n        /* \"UniswapV2Locker.sol\":9617:9625  _lpToken */\n      dup13\n      sub(shl(0xa0, 0x01), 0x01)\n        /* \"UniswapV2Locker.sol\":9606:9626  tokenLocks[_lpToken] */\n      and\n      sub(shl(0xa0, 0x01), 0x01)\n      and\n      dup2\n      mstore\n      0x20\n      add\n      swap1\n      dup2\n      mstore\n      0x20\n      add\n      0x00\n      keccak256\n        /* \"UniswapV2Locker.sol\":9632:9642  token_lock */\n      dup2\n        /* \"UniswapV2Locker.sol\":9606:9643  tokenLocks[_lpToken].push(token_lock) */\n      swap1\n      dup1\n      0x01\n      dup2\n      sload\n      add\n      dup1\n      dup3\n      sstore\n      dup1\n      swap2\n      pop\n      pop\n      0x01\n      swap1\n      sub\n      swap1\n      0x00\n      mstore\n      keccak256(0x00, 0x20)\n      swap1\n      0x06\n      mul\n      add\n      0x00\n      swap1\n      swap2\n      swap1\n      swap2\n      swap1\n      swap2\n      pop\n      0x00\n      dup3\n      add\n      mload\n      dup2\n      0x00\n      add\n      sstore\n      0x20\n      dup3\n      add\n      mload\n      dup2\n      0x01\n      add\n      sstore\n      0x40\n      dup3\n      add\n      mload\n      dup2\n      0x02\n      add\n      sstore\n      0x60\n      dup3\n      add\n      mload\n      dup2\n      0x03\n      add\n      sstore\n      0x80\n      dup3\n      add\n      mload\n      dup2\n      0x04\n      add\n      sstore\n      0xa0\n      dup3\n      add\n      mload\n      dup2\n      0x05\n      add\n      exp(0x0100, 0x00)\n      dup2\n      sload\n      dup2\n      sub(shl(0xa0, 0x01), 0x01)\n      mul\n      not\n      and\n      swap1\n      dup4\n      sub(shl(0xa0, 0x01), 0x01)\n      and\n      mul\n      or\n      swap1\n      sstore\n      pop\n      pop\n      pop\n        /* \"UniswapV2Locker.sol\":9650:9676  lockedTokens.add(_lpToken) */\n      tag_307\n        /* \"UniswapV2Locker.sol\":9667:9675  _lpToken */\n      dup12\n        /* \"UniswapV2Locker.sol\":9650:9662  lockedTokens */\n      0x04\n        /* \"UniswapV2Locker.sol\":9650:9666  lockedTokens.add */\n      tag_308\n      swap1\n        /* \"UniswapV2Locker.sol\":9650:9676  lockedTokens.add(_lpToken) */\n      swap2\n      swap1\n      0xffffffff\n      and\n      jump\t// in\n    tag_307:\n      pop\n      sub(shl(0xa0, 0x01), 0x01)\n        /* \"UniswapV2Locker.sol\":9746:9764  users[_withdrawer] */\n      dup7\n      and\n        /* \"UniswapV2Locker.sol\":9722:9743  UserInfo storage user */\n      0x00\n        /* \"UniswapV2Locker.sol\":9746:9764  users[_withdrawer] */\n      swap1\n      dup2\n      mstore\n        /* \"UniswapV2Locker.sol\":9746:9751  users */\n      0x03\n        /* \"UniswapV2Locker.sol\":9746:9764  users[_withdrawer] */\n      0x20\n      mstore\n      0x40\n      swap1\n      keccak256\n        /* \"UniswapV2Locker.sol\":9771:9802  user.lockedTokens.add(_lpToken) */\n      tag_309\n        /* \"UniswapV2Locker.sol\":9746:9764  users[_withdrawer] */\n      dup2\n        /* \"UniswapV2Locker.sol\":9793:9801  _lpToken */\n      dup14\n        /* \"UniswapV2Locker.sol\":9771:9792  user.lockedTokens.add */\n      tag_308\n        /* \"UniswapV2Locker.sol\":9771:9802  user.lockedTokens.add(_lpToken) */\n      jump\t// in\n    tag_309:\n      pop\n      sub(shl(0xa0, 0x01), 0x01)\n        /* \"UniswapV2Locker.sol\":9840:9868  user.locksForToken[_lpToken] */\n      dup13\n      and\n        /* \"UniswapV2Locker.sol\":9809:9837  uint256[] storage user_locks */\n      0x00\n        /* \"UniswapV2Locker.sol\":9840:9868  user.locksForToken[_lpToken] */\n      dup2\n      dup2\n      mstore\n        /* \"UniswapV2Locker.sol\":9840:9858  user.locksForToken */\n      0x02\n      dup4\n      add\n        /* \"UniswapV2Locker.sol\":9840:9868  user.locksForToken[_lpToken] */\n      0x20\n      swap1\n      dup2\n      mstore\n      0x40\n      dup1\n      dup4\n      keccak256\n        /* \"UniswapV2Locker.sol\":9891:9908  token_lock.lockID */\n      0x80\n      dup1\n      dup9\n      add\n      mload\n        /* \"UniswapV2Locker.sol\":9875:9909  user_locks.push(token_lock.lockID) */\n      dup3\n      sload\n      0x01\n      dup2\n      add\n      dup5\n      sstore\n      dup4\n      dup8\n      mstore\n      swap6\n      dup6\n      swap1\n      keccak256\n      swap1\n      swap6\n      add\n      swap5\n      swap1\n      swap5\n      sstore\n        /* \"UniswapV2Locker.sol\":9959:9976  token_lock.amount */\n      dup7\n      dup4\n      add\n      mload\n        /* \"UniswapV2Locker.sol\":9978:9997  token_lock.lockDate */\n      dup8\n      mload\n        /* \"UniswapV2Locker.sol\":9999:10020  token_lock.unlockDate */\n      0x60\n      dup1\n      dup11\n      add\n      mload\n        /* \"UniswapV2Locker.sol\":9927:10021  onDeposit(_lpToken, msg.sender, token_lock.amount, token_lock.lockDate, token_lock.unlockDate) */\n      dup6\n      mload\n      swap9\n      dup10\n      mstore\n        /* \"UniswapV2Locker.sol\":9947:9957  msg.sender */\n      caller\n        /* \"UniswapV2Locker.sol\":9927:10021  onDeposit(_lpToken, msg.sender, token_lock.amount, token_lock.lockDate, token_lock.unlockDate) */\n      swap7\n      dup10\n      add\n      swap7\n      swap1\n      swap7\n      mstore\n      dup8\n      dup6\n      add\n      swap3\n      swap1\n      swap3\n      mstore\n      swap1\n      dup7\n      add\n      mstore\n      swap3\n      dup5\n      add\n      swap2\n      swap1\n      swap2\n      mstore\n      mload\n        /* \"UniswapV2Locker.sol\":9840:9868  user.locksForToken[_lpToken] */\n      swap1\n      swap2\n        /* \"UniswapV2Locker.sol\":9927:10021  onDeposit(_lpToken, msg.sender, token_lock.amount, token_lock.lockDate, token_lock.unlockDate) */\n      0x830357565da6ecfc26d8d9f69df488ed6f70361af9a07e570544aeb5c5e765e5\n      swap2\n      swap1\n      dup2\n      swap1\n      sub\n      0xa0\n      add\n      swap1\n      log1\n      pop\n      pop\n        /* \"ReentrancyGuard.sol\":1823:1824  1 */\n      0x01\n        /* \"ReentrancyGuard.sol\":2785:2807  _status = _NOT_ENTERED */\n      dup1\n      sstore\n      pop\n      pop\n      pop\n      pop\n      pop\n      pop\n      pop\n      pop\n      pop\n      pop\n      pop\n        /* \"UniswapV2Locker.sol\":6197:10027  function lockLPToken (address _lpToken, uint256 _amount, uint256 _unlock_date, address payable _referral, bool _fee_in_eth, address payable _withdrawer) external payable nonReentrant {\r... */\n      jump\t// out\n        /* \"UniswapV2Locker.sol\":1372:1405  IUniFactory public uniswapFactory */\n    tag_83:\n      and(sub(shl(0xa0, 0x01), 0x01), sload(0x02))\n      dup2\n      jump\t// out\n        /* \"UniswapV2Locker.sol\":18621:18748  function getWhitelistedUserAtIndex (uint256 _index) external view returns (address) {\r... */\n    tag_87:\n        /* \"UniswapV2Locker.sol\":18696:18703  address */\n      0x00\n        /* \"UniswapV2Locker.sol\":18719:18742  feeWhitelist.at(_index) */\n      tag_147\n        /* \"UniswapV2Locker.sol\":18719:18731  feeWhitelist */\n      0x10\n        /* \"UniswapV2Locker.sol\":18735:18741  _index */\n      dup4\n        /* \"UniswapV2Locker.sol\":18719:18734  feeWhitelist.at */\n      tag_148\n        /* \"UniswapV2Locker.sol\":18719:18742  feeWhitelist.at(_index) */\n      jump\t// in\n        /* \"Ownable.sol\":1214:1291  function owner() public view returns (address) {... */\n    tag_90:\n        /* \"Ownable.sol\":1252:1259  address */\n      0x00\n        /* \"Ownable.sol\":1278:1284  _owner */\n      sload\n      sub(shl(0xa0, 0x01), 0x01)\n      and\n        /* \"Ownable.sol\":1214:1291  function owner() public view returns (address) {... */\n      swap1\n      jump\t// out\n        /* \"UniswapV2Locker.sol\":17635:17825  function getUserLockedTokenAtIndex (address _user, uint256 _index) external view returns (address) {\r... */\n    tag_94:\n      sub(shl(0xa0, 0x01), 0x01)\n        /* \"UniswapV2Locker.sol\":17765:17777  users[_user] */\n      dup3\n      and\n        /* \"UniswapV2Locker.sol\":17725:17732  address */\n      0x00\n        /* \"UniswapV2Locker.sol\":17765:17777  users[_user] */\n      swap1\n      dup2\n      mstore\n        /* \"UniswapV2Locker.sol\":17765:17770  users */\n      0x03\n        /* \"UniswapV2Locker.sol\":17765:17777  users[_user] */\n      0x20\n      mstore\n      0x40\n      dup2\n      keccak256\n        /* \"UniswapV2Locker.sol\":17791:17819  user.lockedTokens.at(_index) */\n      tag_315\n        /* \"UniswapV2Locker.sol\":17765:17777  users[_user] */\n      dup2\n        /* \"UniswapV2Locker.sol\":17812:17818  _index */\n      dup5\n        /* \"UniswapV2Locker.sol\":17791:17811  user.lockedTokens.at */\n      tag_148\n        /* \"UniswapV2Locker.sol\":17791:17819  user.lockedTokens.at(_index) */\n      jump\t// in\n    tag_315:\n        /* \"UniswapV2Locker.sol\":17784:17819  return user.lockedTokens.at(_index) */\n      swap5\n        /* \"UniswapV2Locker.sol\":17635:17825  function getUserLockedTokenAtIndex (address _user, uint256 _index) external view returns (address) {\r... */\n      swap4\n      pop\n      pop\n      pop\n      pop\n      jump\t// out\n        /* \"UniswapV2Locker.sol\":2882:2904  FeeStruct public gFees */\n    tag_97:\n      sload(0x07)\n      sload(0x08)\n      sload(0x09)\n      sload(0x0a)\n      sload(0x0b)\n      sload(0x0c)\n      sload(0x0d)\n      sload(0x0e)\n      sload(0x0f)\n      sub(shl(0xa0, 0x01), 0x01)\n      swap8\n      dup9\n      and\n      swap8\n      swap1\n      swap3\n      and\n      swap2\n      dup10\n      jump\t// out\n        /* \"UniswapV2Locker.sol\":5508:5691  function whitelistFeeAccount(address _user, bool _add) public onlyOwner {\r... */\n    tag_101:\n        /* \"Ownable.sol\":1428:1440  _msgSender() */\n      tag_317\n        /* \"Ownable.sol\":1428:1438  _msgSender */\n      tag_152\n        /* \"Ownable.sol\":1428:1440  _msgSender() */\n      jump\t// in\n    tag_317:\n        /* \"Ownable.sol\":1418:1424  _owner */\n      sload(0x00)\n      sub(shl(0xa0, 0x01), 0x01)\n      swap1\n      dup2\n      and\n        /* \"Ownable.sol\":1418:1440  _owner == _msgSender() */\n      swap2\n      and\n      eq\n        /* \"Ownable.sol\":1410:1477  require(_owner == _msgSender(), \"Ownable: caller is not the owner\") */\n      tag_318\n      jumpi\n      0x40\n      dup1\n      mload\n      shl(0xe5, 0x461bcd)\n      dup2\n      mstore\n      0x20\n      0x04\n      dup3\n      add\n      dup2\n      swap1\n      mstore\n      0x24\n      dup3\n      add\n      mstore\n      0x00\n      dup1\n      mload\n      0x20\n      data_9924ebdf1add33d25d4ef888e16131f0a5687b0580a36c21b5c301a6c462effe\n      dup4\n      codecopy\n      dup2\n      mload\n      swap2\n      mstore\n      0x44\n      dup3\n      add\n      mstore\n      swap1\n      mload\n      swap1\n      dup2\n      swap1\n      sub\n      0x64\n      add\n      swap1\n      revert\n    tag_318:\n        /* \"UniswapV2Locker.sol\":5591:5595  _add */\n      dup1\n        /* \"UniswapV2Locker.sol\":5587:5686  if (_add) {\r... */\n      iszero\n      tag_320\n      jumpi\n        /* \"UniswapV2Locker.sol\":5606:5629  feeWhitelist.add(_user) */\n      tag_321\n        /* \"UniswapV2Locker.sol\":5606:5618  feeWhitelist */\n      0x10\n        /* \"UniswapV2Locker.sol\":5623:5628  _user */\n      dup4\n        /* \"UniswapV2Locker.sol\":5606:5622  feeWhitelist.add */\n      tag_308\n        /* \"UniswapV2Locker.sol\":5606:5629  feeWhitelist.add(_user) */\n      jump\t// in\n    tag_321:\n      pop\n        /* \"UniswapV2Locker.sol\":5587:5686  if (_add) {\r... */\n      jump(tag_322)\n    tag_320:\n        /* \"UniswapV2Locker.sol\":5652:5678  feeWhitelist.remove(_user) */\n      tag_323\n        /* \"UniswapV2Locker.sol\":5652:5664  feeWhitelist */\n      0x10\n        /* \"UniswapV2Locker.sol\":5672:5677  _user */\n      dup4\n        /* \"UniswapV2Locker.sol\":5652:5671  feeWhitelist.remove */\n      tag_177\n        /* \"UniswapV2Locker.sol\":5652:5678  feeWhitelist.remove(_user) */\n      jump\t// in\n    tag_323:\n      pop\n        /* \"UniswapV2Locker.sol\":5587:5686  if (_add) {\r... */\n    tag_322:\n        /* \"UniswapV2Locker.sol\":5508:5691  function whitelistFeeAccount(address _user, bool _add) public onlyOwner {\r... */\n      pop\n      pop\n      jump\t// out\n        /* \"UniswapV2Locker.sol\":17458:17627  function getUserNumLockedTokens (address _user) external view returns (uint256) {\r... */\n    tag_105:\n      sub(shl(0xa0, 0x01), 0x01)\n        /* \"UniswapV2Locker.sol\":17569:17581  users[_user] */\n      dup2\n      and\n        /* \"UniswapV2Locker.sol\":17529:17536  uint256 */\n      0x00\n        /* \"UniswapV2Locker.sol\":17569:17581  users[_user] */\n      swap1\n      dup2\n      mstore\n        /* \"UniswapV2Locker.sol\":17569:17574  users */\n      0x03\n        /* \"UniswapV2Locker.sol\":17569:17581  users[_user] */\n      0x20\n      mstore\n      0x40\n      dup2\n      keccak256\n        /* \"UniswapV2Locker.sol\":17595:17621  user.lockedTokens.length() */\n      tag_325\n        /* \"UniswapV2Locker.sol\":17569:17581  users[_user] */\n      dup2\n        /* \"UniswapV2Locker.sol\":17595:17619  user.lockedTokens.length */\n      tag_182\n        /* \"UniswapV2Locker.sol\":17595:17621  user.lockedTokens.length() */\n      jump\t// in\n    tag_325:\n        /* \"UniswapV2Locker.sol\":17588:17621  return user.lockedTokens.length() */\n      swap4\n        /* \"UniswapV2Locker.sol\":17458:17627  function getUserNumLockedTokens (address _user) external view returns (uint256) {\r... */\n      swap3\n      pop\n      pop\n      pop\n      jump\t// out\n        /* \"UniswapV2Locker.sol\":17833:18030  function getUserNumLocksForToken (address _user, address _lpToken) external view returns (uint256) {\r... */\n    tag_109:\n      sub(shl(0xa0, 0x01), 0x01)\n        /* \"UniswapV2Locker.sol\":17963:17975  users[_user] */\n      swap2\n      dup3\n      and\n        /* \"UniswapV2Locker.sol\":17923:17930  uint256 */\n      0x00\n        /* \"UniswapV2Locker.sol\":17963:17975  users[_user] */\n      swap1\n      dup2\n      mstore\n        /* \"UniswapV2Locker.sol\":17963:17968  users */\n      0x03\n        /* \"UniswapV2Locker.sol\":17963:17975  users[_user] */\n      0x20\n      swap1\n      dup2\n      mstore\n      0x40\n      dup1\n      dup4\n      keccak256\n        /* \"UniswapV2Locker.sol\":17989:18017  user.locksForToken[_lpToken] */\n      swap4\n      swap1\n      swap5\n      and\n      dup3\n      mstore\n        /* \"UniswapV2Locker.sol\":17989:18007  user.locksForToken */\n      0x02\n      swap1\n      swap3\n      add\n        /* \"UniswapV2Locker.sol\":17989:18017  user.locksForToken[_lpToken] */\n      swap1\n      swap2\n      mstore\n      keccak256\n        /* \"UniswapV2Locker.sol\":17989:18024  user.locksForToken[_lpToken].length */\n      sload\n      swap1\n        /* \"UniswapV2Locker.sol\":17833:18030  function getUserNumLocksForToken (address _user, address _lpToken) external view returns (uint256) {\r... */\n      jump\t// out\n        /* \"UniswapV2Locker.sol\":12561:13481  function incrementLock (address _lpToken, uint256 _index, uint256 _lockID, uint256 _amount) external nonReentrant {\r... */\n    tag_113:\n        /* \"ReentrancyGuard.sol\":1867:1868  2 */\n      0x02\n        /* \"ReentrancyGuard.sol\":2473:2480  _status */\n      sload(0x01)\n        /* \"ReentrancyGuard.sol\":2473:2492  _status != _ENTERED */\n      eq\n      iszero\n        /* \"ReentrancyGuard.sol\":2465:2528  require(_status != _ENTERED, \"ReentrancyGuard: reentrant call\") */\n      tag_328\n      jumpi\n      0x40\n      dup1\n      mload\n      shl(0xe5, 0x461bcd)\n      dup2\n      mstore\n      0x20\n      0x04\n      dup3\n      add\n      mstore\n      0x1f\n      0x24\n      dup3\n      add\n      mstore\n      0x00\n      dup1\n      mload\n      0x20\n      data_0d74825aecb0211bbe1f02ccfb998d9e49771bedb2c6414e20fd8978a2e0f54c\n      dup4\n      codecopy\n      dup2\n      mload\n      swap2\n      mstore\n      0x44\n      dup3\n      add\n      mstore\n      swap1\n      mload\n      swap1\n      dup2\n      swap1\n      sub\n      0x64\n      add\n      swap1\n      revert\n    tag_328:\n        /* \"ReentrancyGuard.sol\":1867:1868  2 */\n      0x02\n        /* \"ReentrancyGuard.sol\":2606:2613  _status */\n      0x01\n        /* \"ReentrancyGuard.sol\":2606:2624  _status = _ENTERED */\n      sstore\n        /* \"UniswapV2Locker.sol\":12690:12701  _amount > 0 */\n      dup1\n        /* \"UniswapV2Locker.sol\":12682:12717  require(_amount > 0, 'ZERO AMOUNT') */\n      tag_330\n      jumpi\n      0x40\n      dup1\n      mload\n      shl(0xe5, 0x461bcd)\n      dup2\n      mstore\n      0x20\n      0x04\n      dup3\n      add\n      mstore\n      0x0b\n      0x24\n      dup3\n      add\n      mstore\n      shl(0xaa, 0x16915493c8105353d55395)\n      0x44\n      dup3\n      add\n      mstore\n      swap1\n      mload\n      swap1\n      dup2\n      swap1\n      sub\n      0x64\n      add\n      swap1\n      revert\n    tag_330:\n        /* \"UniswapV2Locker.sol\":12747:12757  msg.sender */\n      caller\n        /* \"UniswapV2Locker.sol\":12724:12738  uint256 lockID */\n      0x00\n        /* \"UniswapV2Locker.sol\":12741:12758  users[msg.sender] */\n      swap1\n      dup2\n      mstore\n        /* \"UniswapV2Locker.sol\":12741:12746  users */\n      0x03\n        /* \"UniswapV2Locker.sol\":12741:12758  users[msg.sender] */\n      0x20\n      swap1\n      dup2\n      mstore\n      0x40\n      dup1\n      dup4\n      keccak256\n      sub(shl(0xa0, 0x01), 0x01)\n        /* \"UniswapV2Locker.sol\":12741:12782  users[msg.sender].locksForToken[_lpToken] */\n      dup9\n      and\n      dup5\n      mstore\n        /* \"UniswapV2Locker.sol\":12741:12772  users[msg.sender].locksForToken */\n      0x02\n      add\n        /* \"UniswapV2Locker.sol\":12741:12782  users[msg.sender].locksForToken[_lpToken] */\n      swap1\n      swap2\n      mstore\n      dup2\n      keccak256\n        /* \"UniswapV2Locker.sol\":12741:12790  users[msg.sender].locksForToken[_lpToken][_index] */\n      dup1\n      sload\n        /* \"UniswapV2Locker.sol\":12783:12789  _index */\n      dup6\n      swap1\n        /* \"UniswapV2Locker.sol\":12741:12790  users[msg.sender].locksForToken[_lpToken][_index] */\n      dup2\n      lt\n      tag_331\n      jumpi\n      invalid\n    tag_331:\n      swap1\n      0x00\n      mstore\n      keccak256(0x00, 0x20)\n      add\n      sload\n        /* \"UniswapV2Locker.sol\":12724:12790  uint256 lockID = users[msg.sender].locksForToken[_lpToken][_index] */\n      swap1\n      pop\n        /* \"UniswapV2Locker.sol\":12797:12823  TokenLock storage userLock */\n      0x00\n        /* \"UniswapV2Locker.sol\":12826:12836  tokenLocks */\n      0x06\n        /* \"UniswapV2Locker.sol\":12826:12846  tokenLocks[_lpToken] */\n      0x00\n        /* \"UniswapV2Locker.sol\":12837:12845  _lpToken */\n      dup8\n      sub(shl(0xa0, 0x01), 0x01)\n        /* \"UniswapV2Locker.sol\":12826:12846  tokenLocks[_lpToken] */\n      and\n      sub(shl(0xa0, 0x01), 0x01)\n      and\n      dup2\n      mstore\n      0x20\n      add\n      swap1\n      dup2\n      mstore\n      0x20\n      add\n      0x00\n      keccak256\n        /* \"UniswapV2Locker.sol\":12847:12853  lockID */\n      dup3\n        /* \"UniswapV2Locker.sol\":12826:12854  tokenLocks[_lpToken][lockID] */\n      dup2\n      sload\n      dup2\n      lt\n      tag_333\n      jumpi\n      invalid\n    tag_333:\n      swap1\n      0x00\n      mstore\n      keccak256(0x00, 0x20)\n      swap1\n      0x06\n      mul\n      add\n        /* \"UniswapV2Locker.sol\":12797:12854  TokenLock storage userLock = tokenLocks[_lpToken][lockID] */\n      swap1\n      pop\n        /* \"UniswapV2Locker.sol\":12879:12886  _lockID */\n      dup4\n        /* \"UniswapV2Locker.sol\":12869:12875  lockID */\n      dup3\n        /* \"UniswapV2Locker.sol\":12869:12886  lockID == _lockID */\n      eq\n        /* \"UniswapV2Locker.sol\":12869:12918  lockID == _lockID && userLock.owner == msg.sender */\n      dup1\n      iszero\n      tag_335\n      jumpi\n      pop\n        /* \"UniswapV2Locker.sol\":12890:12904  userLock.owner */\n      0x05\n      dup2\n      add\n      sload\n      sub(shl(0xa0, 0x01), 0x01)\n      and\n        /* \"UniswapV2Locker.sol\":12908:12918  msg.sender */\n      caller\n        /* \"UniswapV2Locker.sol\":12890:12918  userLock.owner == msg.sender */\n      eq\n        /* \"UniswapV2Locker.sol\":12869:12918  lockID == _lockID && userLock.owner == msg.sender */\n    tag_335:\n        /* \"UniswapV2Locker.sol\":12861:12936  require(lockID == _lockID && userLock.owner == msg.sender, 'LOCK MISMATCH') */\n      tag_336\n      jumpi\n      0x40\n      dup1\n      mload\n      shl(0xe5, 0x461bcd)\n      dup2\n      mstore\n      0x20\n      0x04\n      dup3\n      add\n      mstore\n      0x0d\n      0x24\n      dup3\n      add\n      mstore\n      shl(0x9b, 0x0989e8696409a92a69a82a8869)\n      0x44\n      dup3\n      add\n      mstore\n      swap1\n      mload\n      swap1\n      dup2\n      swap1\n      sub\n      0x64\n      add\n      swap1\n      revert\n    tag_336:\n        /* \"UniswapV2Locker.sol\":12985:13071  TransferHelper.safeTransferFrom(_lpToken, address(msg.sender), address(this), _amount) */\n      tag_337\n        /* \"UniswapV2Locker.sol\":13017:13025  _lpToken */\n      dup7\n        /* \"UniswapV2Locker.sol\":13035:13045  msg.sender */\n      caller\n        /* \"UniswapV2Locker.sol\":13056:13060  this */\n      address\n        /* \"UniswapV2Locker.sol\":13063:13070  _amount */\n      dup7\n        /* \"UniswapV2Locker.sol\":12985:13016  TransferHelper.safeTransferFrom */\n      tag_251\n        /* \"UniswapV2Locker.sol\":12985:13071  TransferHelper.safeTransferFrom(_lpToken, address(msg.sender), address(this), _amount) */\n      jump\t// in\n    tag_337:\n        /* \"UniswapV2Locker.sol\":13122:13142  uint256 liquidityFee */\n      0x00\n        /* \"UniswapV2Locker.sol\":13145:13186  _amount.mul(gFees.liquidityFee).div(1000) */\n      tag_338\n        /* \"UniswapV2Locker.sol\":13181:13185  1000 */\n      0x03e8\n        /* \"UniswapV2Locker.sol\":13145:13176  _amount.mul(gFees.liquidityFee) */\n      tag_213\n        /* \"UniswapV2Locker.sol\":13157:13162  gFees */\n      0x07\n        /* \"UniswapV2Locker.sol\":13157:13175  gFees.liquidityFee */\n      0x04\n      add\n      sload\n        /* \"UniswapV2Locker.sol\":13145:13152  _amount */\n      dup8\n        /* \"UniswapV2Locker.sol\":13145:13156  _amount.mul */\n      tag_214\n      swap1\n        /* \"UniswapV2Locker.sol\":13145:13176  _amount.mul(gFees.liquidityFee) */\n      swap2\n      swap1\n      0xffffffff\n      and\n      jump\t// in\n        /* \"UniswapV2Locker.sol\":13145:13186  _amount.mul(gFees.liquidityFee).div(1000) */\n    tag_338:\n        /* \"UniswapV2Locker.sol\":13231:13238  devaddr */\n      sload(0x12)\n        /* \"UniswapV2Locker.sol\":13122:13186  uint256 liquidityFee = _amount.mul(gFees.liquidityFee).div(1000) */\n      swap1\n      swap2\n      pop\n        /* \"UniswapV2Locker.sol\":13193:13253  TransferHelper.safeTransfer(_lpToken, devaddr, liquidityFee) */\n      tag_340\n      swap1\n        /* \"UniswapV2Locker.sol\":13221:13229  _lpToken */\n      dup9\n      swap1\n      sub(shl(0xa0, 0x01), 0x01)\n        /* \"UniswapV2Locker.sol\":13231:13238  devaddr */\n      and\n        /* \"UniswapV2Locker.sol\":13122:13186  uint256 liquidityFee = _amount.mul(gFees.liquidityFee).div(1000) */\n      dup4\n        /* \"UniswapV2Locker.sol\":13193:13220  TransferHelper.safeTransfer */\n      tag_179\n        /* \"UniswapV2Locker.sol\":13193:13253  TransferHelper.safeTransfer(_lpToken, devaddr, liquidityFee) */\n      jump\t// in\n    tag_340:\n        /* \"UniswapV2Locker.sol\":13260:13280  uint256 amountLocked */\n      0x00\n        /* \"UniswapV2Locker.sol\":13283:13308  _amount.sub(liquidityFee) */\n      tag_341\n        /* \"UniswapV2Locker.sol\":13283:13290  _amount */\n      dup6\n        /* \"UniswapV2Locker.sol\":13295:13307  liquidityFee */\n      dup4\n        /* \"UniswapV2Locker.sol\":13283:13294  _amount.sub */\n      tag_167\n        /* \"UniswapV2Locker.sol\":13283:13308  _amount.sub(liquidityFee) */\n      jump\t// in\n    tag_341:\n        /* \"UniswapV2Locker.sol\":13339:13354  userLock.amount */\n      0x01\n      dup5\n      add\n      sload\n        /* \"UniswapV2Locker.sol\":13260:13308  uint256 amountLocked = _amount.sub(liquidityFee) */\n      swap1\n      swap2\n      pop\n        /* \"UniswapV2Locker.sol\":13339:13372  userLock.amount.add(amountLocked) */\n      tag_342\n      swap1\n        /* \"UniswapV2Locker.sol\":13260:13308  uint256 amountLocked = _amount.sub(liquidityFee) */\n      dup3\n        /* \"UniswapV2Locker.sol\":13339:13358  userLock.amount.add */\n      tag_343\n        /* \"UniswapV2Locker.sol\":13339:13372  userLock.amount.add(amountLocked) */\n      jump\t// in\n    tag_342:\n        /* \"UniswapV2Locker.sol\":13321:13336  userLock.amount */\n      0x01\n      dup5\n      add\n        /* \"UniswapV2Locker.sol\":13321:13372  userLock.amount = userLock.amount.add(amountLocked) */\n      sstore\n        /* \"UniswapV2Locker.sol\":13436:13453  userLock.lockDate */\n      dup3\n      sload\n        /* \"UniswapV2Locker.sol\":13455:13474  userLock.unlockDate */\n      0x03\n      dup5\n      add\n      sload\n        /* \"UniswapV2Locker.sol\":13390:13475  onDeposit(_lpToken, msg.sender, amountLocked, userLock.lockDate, userLock.unlockDate) */\n      0x40\n      dup1\n      mload\n      sub(shl(0xa0, 0x01), 0x01)\n      dup13\n      and\n      dup2\n      mstore\n        /* \"UniswapV2Locker.sol\":13410:13420  msg.sender */\n      caller\n        /* \"UniswapV2Locker.sol\":13390:13475  onDeposit(_lpToken, msg.sender, amountLocked, userLock.lockDate, userLock.unlockDate) */\n      0x20\n      dup3\n      add\n      mstore\n      dup1\n      dup3\n      add\n      dup6\n      swap1\n      mstore\n      0x60\n      dup2\n      add\n      swap4\n      swap1\n      swap4\n      mstore\n      0x80\n      dup4\n      add\n      swap2\n      swap1\n      swap2\n      mstore\n      mload\n      0x830357565da6ecfc26d8d9f69df488ed6f70361af9a07e570544aeb5c5e765e5\n      swap2\n      dup2\n      swap1\n      sub\n      0xa0\n      add\n      swap1\n      log1\n      pop\n      pop\n        /* \"ReentrancyGuard.sol\":1823:1824  1 */\n      0x01\n        /* \"ReentrancyGuard.sol\":2785:2807  _status = _NOT_ENTERED */\n      dup1\n      sstore\n      pop\n      pop\n      pop\n      pop\n      pop\n      pop\n        /* \"UniswapV2Locker.sol\":12561:13481  function incrementLock (address _lpToken, uint256 _index, uint256 _lockID, uint256 _amount) external nonReentrant {\r... */\n      jump\t// out\n        /* \"UniswapV2Locker.sol\":18756:18881  function getUserWhitelistStatus (address _user) external view returns (bool) {\r... */\n    tag_117:\n        /* \"UniswapV2Locker.sol\":18827:18831  bool */\n      0x00\n        /* \"UniswapV2Locker.sol\":18847:18875  feeWhitelist.contains(_user) */\n      tag_147\n        /* \"UniswapV2Locker.sol\":18847:18859  feeWhitelist */\n      0x10\n        /* \"UniswapV2Locker.sol\":18869:18874  _user */\n      dup4\n        /* \"UniswapV2Locker.sol\":18847:18868  feeWhitelist.contains */\n      tag_260\n        /* \"UniswapV2Locker.sol\":18847:18875  feeWhitelist.contains(_user) */\n      jump\t// in\n        /* \"UniswapV2Locker.sol\":14932:15961  function transferLockOwnership (address _lpToken, uint256 _index, uint256 _lockID, address payable _newOwner) external {\r... */\n    tag_121:\n        /* \"UniswapV2Locker.sol\":15066:15076  msg.sender */\n      caller\n      sub(shl(0xa0, 0x01), 0x01)\n        /* \"UniswapV2Locker.sol\":15066:15089  msg.sender != _newOwner */\n      dup3\n      and\n      eq\n      iszero\n        /* \"UniswapV2Locker.sol\":15058:15099  require(msg.sender != _newOwner, 'OWNER') */\n      tag_347\n      jumpi\n      0x40\n      dup1\n      mload\n      shl(0xe5, 0x461bcd)\n      dup2\n      mstore\n      0x20\n      0x04\n      dup3\n      add\n      mstore\n      0x05\n      0x24\n      dup3\n      add\n      mstore\n      shl(0xd9, 0x27aba722a9)\n      0x44\n      dup3\n      add\n      mstore\n      swap1\n      mload\n      swap1\n      dup2\n      swap1\n      sub\n      0x64\n      add\n      swap1\n      revert\n    tag_347:\n        /* \"UniswapV2Locker.sol\":15129:15139  msg.sender */\n      caller\n        /* \"UniswapV2Locker.sol\":15106:15120  uint256 lockID */\n      0x00\n        /* \"UniswapV2Locker.sol\":15123:15140  users[msg.sender] */\n      swap1\n      dup2\n      mstore\n        /* \"UniswapV2Locker.sol\":15123:15128  users */\n      0x03\n        /* \"UniswapV2Locker.sol\":15123:15140  users[msg.sender] */\n      0x20\n      swap1\n      dup2\n      mstore\n      0x40\n      dup1\n      dup4\n      keccak256\n      sub(shl(0xa0, 0x01), 0x01)\n        /* \"UniswapV2Locker.sol\":15123:15164  users[msg.sender].locksForToken[_lpToken] */\n      dup9\n      and\n      dup5\n      mstore\n        /* \"UniswapV2Locker.sol\":15123:15154  users[msg.sender].locksForToken */\n      0x02\n      add\n        /* \"UniswapV2Locker.sol\":15123:15164  users[msg.sender].locksForToken[_lpToken] */\n      swap1\n      swap2\n      mstore\n      dup2\n      keccak256\n        /* \"UniswapV2Locker.sol\":15123:15172  users[msg.sender].locksForToken[_lpToken][_index] */\n      dup1\n      sload\n        /* \"UniswapV2Locker.sol\":15165:15171  _index */\n      dup6\n      swap1\n        /* \"UniswapV2Locker.sol\":15123:15172  users[msg.sender].locksForToken[_lpToken][_index] */\n      dup2\n      lt\n      tag_348\n      jumpi\n      invalid\n    tag_348:\n      swap1\n      0x00\n      mstore\n      keccak256(0x00, 0x20)\n      add\n      sload\n        /* \"UniswapV2Locker.sol\":15106:15172  uint256 lockID = users[msg.sender].locksForToken[_lpToken][_index] */\n      swap1\n      pop\n        /* \"UniswapV2Locker.sol\":15179:15212  TokenLock storage transferredLock */\n      0x00\n        /* \"UniswapV2Locker.sol\":15215:15225  tokenLocks */\n      0x06\n        /* \"UniswapV2Locker.sol\":15215:15235  tokenLocks[_lpToken] */\n      0x00\n        /* \"UniswapV2Locker.sol\":15226:15234  _lpToken */\n      dup8\n      sub(shl(0xa0, 0x01), 0x01)\n        /* \"UniswapV2Locker.sol\":15215:15235  tokenLocks[_lpToken] */\n      and\n      sub(shl(0xa0, 0x01), 0x01)\n      and\n      dup2\n      mstore\n      0x20\n      add\n      swap1\n      dup2\n      mstore\n      0x20\n      add\n      0x00\n      keccak256\n        /* \"UniswapV2Locker.sol\":15236:15242  lockID */\n      dup3\n        /* \"UniswapV2Locker.sol\":15215:15243  tokenLocks[_lpToken][lockID] */\n      dup2\n      sload\n      dup2\n      lt\n      tag_350\n      jumpi\n      invalid\n    tag_350:\n      swap1\n      0x00\n      mstore\n      keccak256(0x00, 0x20)\n      swap1\n      0x06\n      mul\n      add\n        /* \"UniswapV2Locker.sol\":15179:15243  TokenLock storage transferredLock = tokenLocks[_lpToken][lockID] */\n      swap1\n      pop\n        /* \"UniswapV2Locker.sol\":15268:15275  _lockID */\n      dup4\n        /* \"UniswapV2Locker.sol\":15258:15264  lockID */\n      dup3\n        /* \"UniswapV2Locker.sol\":15258:15275  lockID == _lockID */\n      eq\n        /* \"UniswapV2Locker.sol\":15258:15314  lockID == _lockID && transferredLock.owner == msg.sender */\n      dup1\n      iszero\n      tag_352\n      jumpi\n      pop\n        /* \"UniswapV2Locker.sol\":15279:15300  transferredLock.owner */\n      0x05\n      dup2\n      add\n      sload\n      sub(shl(0xa0, 0x01), 0x01)\n      and\n        /* \"UniswapV2Locker.sol\":15304:15314  msg.sender */\n      caller\n        /* \"UniswapV2Locker.sol\":15279:15314  transferredLock.owner == msg.sender */\n      eq\n        /* \"UniswapV2Locker.sol\":15258:15314  lockID == _lockID && transferredLock.owner == msg.sender */\n    tag_352:\n        /* \"UniswapV2Locker.sol\":15250:15332  require(lockID == _lockID && transferredLock.owner == msg.sender, 'LOCK MISMATCH') */\n      tag_353\n      jumpi\n      0x40\n      dup1\n      mload\n      shl(0xe5, 0x461bcd)\n      dup2\n      mstore\n      0x20\n      0x04\n      dup3\n      add\n      mstore\n      0x0d\n      0x24\n      dup3\n      add\n      mstore\n      shl(0x9b, 0x0989e8696409a92a69a82a8869)\n      0x44\n      dup3\n      add\n      mstore\n      swap1\n      mload\n      swap1\n      dup2\n      swap1\n      sub\n      0x64\n      add\n      swap1\n      revert\n    tag_353:\n      sub(shl(0xa0, 0x01), 0x01)\n        /* \"UniswapV2Locker.sol\":15447:15463  users[_newOwner] */\n      dup4\n      and\n        /* \"UniswapV2Locker.sol\":15423:15444  UserInfo storage user */\n      0x00\n        /* \"UniswapV2Locker.sol\":15447:15463  users[_newOwner] */\n      swap1\n      dup2\n      mstore\n        /* \"UniswapV2Locker.sol\":15447:15452  users */\n      0x03\n        /* \"UniswapV2Locker.sol\":15447:15463  users[_newOwner] */\n      0x20\n      mstore\n      0x40\n      swap1\n      keccak256\n        /* \"UniswapV2Locker.sol\":15470:15501  user.lockedTokens.add(_lpToken) */\n      tag_354\n        /* \"UniswapV2Locker.sol\":15447:15463  users[_newOwner] */\n      dup2\n        /* \"UniswapV2Locker.sol\":15492:15500  _lpToken */\n      dup9\n        /* \"UniswapV2Locker.sol\":15470:15491  user.lockedTokens.add */\n      tag_308\n        /* \"UniswapV2Locker.sol\":15470:15501  user.lockedTokens.add(_lpToken) */\n      jump\t// in\n    tag_354:\n      pop\n      sub(shl(0xa0, 0x01), 0x01)\n        /* \"UniswapV2Locker.sol\":15539:15567  user.locksForToken[_lpToken] */\n      dup8\n      and\n        /* \"UniswapV2Locker.sol\":15508:15536  uint256[] storage user_locks */\n      0x00\n        /* \"UniswapV2Locker.sol\":15539:15567  user.locksForToken[_lpToken] */\n      dup2\n      dup2\n      mstore\n        /* \"UniswapV2Locker.sol\":15539:15557  user.locksForToken */\n      0x02\n      dup1\n      dup5\n      add\n        /* \"UniswapV2Locker.sol\":15539:15567  user.locksForToken[_lpToken] */\n      0x20\n      swap1\n      dup2\n      mstore\n      0x40\n      dup1\n      dup5\n      keccak256\n        /* \"UniswapV2Locker.sol\":15590:15612  transferredLock.lockID */\n      0x04\n      dup9\n      add\n      sload\n        /* \"UniswapV2Locker.sol\":15574:15613  user_locks.push(transferredLock.lockID) */\n      dup2\n      sload\n      0x01\n      dup2\n      add\n      dup4\n      sstore\n      dup3\n      dup8\n      mstore\n      dup5\n      dup8\n      keccak256\n      add\n      sstore\n        /* \"UniswapV2Locker.sol\":15705:15715  msg.sender */\n      caller\n        /* \"UniswapV2Locker.sol\":15699:15716  users[msg.sender] */\n      dup6\n      mstore\n        /* \"UniswapV2Locker.sol\":15699:15704  users */\n      0x03\n        /* \"UniswapV2Locker.sol\":15699:15716  users[msg.sender] */\n      dup4\n      mstore\n      dup2\n      dup6\n      keccak256\n        /* \"UniswapV2Locker.sol\":15699:15740  users[msg.sender].locksForToken[_lpToken] */\n      swap6\n      dup6\n      mstore\n        /* \"UniswapV2Locker.sol\":15699:15730  users[msg.sender].locksForToken */\n      swap5\n      swap1\n      swap3\n      add\n        /* \"UniswapV2Locker.sol\":15699:15740  users[msg.sender].locksForToken[_lpToken] */\n      swap1\n      mstore\n      swap1\n      keccak256\n        /* \"UniswapV2Locker.sol\":15777:15793  userLocks.length */\n      dup1\n      sload\n        /* \"UniswapV2Locker.sol\":15699:15740  users[msg.sender].locksForToken[_lpToken] */\n      dup2\n      swap1\n      not(0x00)\n        /* \"UniswapV2Locker.sol\":15777:15795  userLocks.length-1 */\n      dup2\n      add\n      swap1\n        /* \"UniswapV2Locker.sol\":15767:15796  userLocks[userLocks.length-1] */\n      dup2\n      lt\n      tag_356\n      jumpi\n      invalid\n    tag_356:\n      swap1\n      0x00\n      mstore\n      keccak256(0x00, 0x20)\n      add\n      sload\n        /* \"UniswapV2Locker.sol\":15747:15756  userLocks */\n      dup2\n        /* \"UniswapV2Locker.sol\":15757:15763  _index */\n      dup10\n        /* \"UniswapV2Locker.sol\":15747:15764  userLocks[_index] */\n      dup2\n      sload\n      dup2\n      lt\n      tag_358\n      jumpi\n      invalid\n    tag_358:\n      swap1\n      0x00\n      mstore\n      keccak256(0x00, 0x20)\n      add\n        /* \"UniswapV2Locker.sol\":15747:15796  userLocks[_index] = userLocks[userLocks.length-1] */\n      dup2\n      swap1\n      sstore\n      pop\n        /* \"UniswapV2Locker.sol\":15803:15812  userLocks */\n      dup1\n        /* \"UniswapV2Locker.sol\":15803:15818  userLocks.pop() */\n      dup1\n      sload\n      dup1\n      tag_360\n      jumpi\n      invalid\n    tag_360:\n      0x00\n      dup3\n      dup2\n      mstore\n      0x20\n      dup2\n      keccak256\n      dup3\n      add\n      not(0x00)\n      swap1\n      dup2\n      add\n      swap2\n      swap1\n      swap2\n      sstore\n      add\n      swap1\n      sstore\n        /* \"UniswapV2Locker.sol\":15829:15845  userLocks.length */\n      dup1\n      sload\n        /* \"UniswapV2Locker.sol\":15825:15916  if (userLocks.length == 0) {\r... */\n      tag_362\n      jumpi\n        /* \"UniswapV2Locker.sol\":15867:15877  msg.sender */\n      caller\n        /* \"UniswapV2Locker.sol\":15861:15878  users[msg.sender] */\n      0x00\n      swap1\n      dup2\n      mstore\n        /* \"UniswapV2Locker.sol\":15861:15866  users */\n      0x03\n        /* \"UniswapV2Locker.sol\":15861:15878  users[msg.sender] */\n      0x20\n      mstore\n      0x40\n      swap1\n      keccak256\n        /* \"UniswapV2Locker.sol\":15861:15908  users[msg.sender].lockedTokens.remove(_lpToken) */\n      tag_363\n      swap1\n        /* \"UniswapV2Locker.sol\":15899:15907  _lpToken */\n      dup11\n        /* \"UniswapV2Locker.sol\":15861:15898  users[msg.sender].lockedTokens.remove */\n      tag_177\n        /* \"UniswapV2Locker.sol\":15861:15908  users[msg.sender].lockedTokens.remove(_lpToken) */\n      jump\t// in\n    tag_363:\n      pop\n        /* \"UniswapV2Locker.sol\":15825:15916  if (userLocks.length == 0) {\r... */\n    tag_362:\n      pop\n      pop\n      pop\n        /* \"UniswapV2Locker.sol\":15922:15943  transferredLock.owner */\n      0x05\n      add\n        /* \"UniswapV2Locker.sol\":15922:15955  transferredLock.owner = _newOwner */\n      dup1\n      sload\n      not(sub(shl(0xa0, 0x01), 0x01))\n      and\n      sub(shl(0xa0, 0x01), 0x01)\n      swap4\n      swap1\n      swap4\n      and\n      swap3\n      swap1\n      swap3\n      or\n      swap1\n      swap2\n      sstore\n      pop\n      pop\n      pop\n      pop\n        /* \"UniswapV2Locker.sol\":14932:15961  function transferLockOwnership (address _lpToken, uint256 _index, uint256 _lockID, address payable _newOwner) external {\r... */\n      jump\t// out\n        /* \"UniswapV2Locker.sol\":2087:2136  mapping(address => TokenLock[]) public tokenLocks */\n    tag_125:\n      mstore(0x20, 0x06)\n      dup2\n      0x00\n      mstore\n      keccak256(0x00, 0x40)\n      dup2\n      dup2\n      sload\n      dup2\n      lt\n      tag_364\n      jumpi\n      invalid\n    tag_364:\n      0x00\n      swap2\n      dup3\n      mstore\n      0x20\n      swap1\n      swap2\n      keccak256\n      0x06\n      swap1\n      swap2\n      mul\n      add\n      dup1\n      sload\n      0x01\n      dup3\n      add\n      sload\n      0x02\n      dup4\n      add\n      sload\n      0x03\n      dup5\n      add\n      sload\n      0x04\n      dup6\n      add\n      sload\n      0x05\n      swap1\n      swap6\n      add\n      sload\n      swap4\n      swap7\n      pop\n      swap2\n      swap5\n      pop\n      swap3\n      swap1\n      swap2\n      sub(shl(0xa0, 0x01), 0x01)\n      and\n      dup7\n      jump\t// out\n        /* \"UniswapV2Locker.sol\":3594:3684  function setDev(address payable _devaddr) public onlyOwner {\r... */\n    tag_129:\n        /* \"Ownable.sol\":1428:1440  _msgSender() */\n      tag_367\n        /* \"Ownable.sol\":1428:1438  _msgSender */\n      tag_152\n        /* \"Ownable.sol\":1428:1440  _msgSender() */\n      jump\t// in\n    tag_367:\n        /* \"Ownable.sol\":1418:1424  _owner */\n      sload(0x00)\n      sub(shl(0xa0, 0x01), 0x01)\n      swap1\n      dup2\n      and\n        /* \"Ownable.sol\":1418:1440  _owner == _msgSender() */\n      swap2\n      and\n      eq\n        /* \"Ownable.sol\":1410:1477  require(_owner == _msgSender(), \"Ownable: caller is not the owner\") */\n      tag_368\n      jumpi\n      0x40\n      dup1\n      mload\n      shl(0xe5, 0x461bcd)\n      dup2\n      mstore\n      0x20\n      0x04\n      dup3\n      add\n      dup2\n      swap1\n      mstore\n      0x24\n      dup3\n      add\n      mstore\n      0x00\n      dup1\n      mload\n      0x20\n      data_9924ebdf1add33d25d4ef888e16131f0a5687b0580a36c21b5c301a6c462effe\n      dup4\n      codecopy\n      dup2\n      mload\n      swap2\n      mstore\n      0x44\n      dup3\n      add\n      mstore\n      swap1\n      mload\n      swap1\n      dup2\n      swap1\n      sub\n      0x64\n      add\n      swap1\n      revert\n    tag_368:\n        /* \"UniswapV2Locker.sol\":3660:3667  devaddr */\n      0x12\n        /* \"UniswapV2Locker.sol\":3660:3678  devaddr = _devaddr */\n      dup1\n      sload\n      not(sub(shl(0xa0, 0x01), 0x01))\n      and\n      sub(shl(0xa0, 0x01), 0x01)\n      swap3\n      swap1\n      swap3\n      and\n      swap2\n      swap1\n      swap2\n      or\n      swap1\n      sstore\n        /* \"UniswapV2Locker.sol\":3594:3684  function setDev(address payable _devaddr) public onlyOwner {\r... */\n      jump\t// out\n        /* \"UniswapV2Locker.sol\":18038:18478  function getUserLockForTokenAtIndex (address _user, address _lpToken, uint256 _index) external view \r... */\n    tag_133:\n        /* \"UniswapV2Locker.sol\":18151:18158  uint256 */\n      0x00\n        /* \"UniswapV2Locker.sol\":18160:18167  uint256 */\n      dup1\n        /* \"UniswapV2Locker.sol\":18169:18176  uint256 */\n      0x00\n        /* \"UniswapV2Locker.sol\":18178:18185  uint256 */\n      dup1\n        /* \"UniswapV2Locker.sol\":18187:18194  uint256 */\n      0x00\n        /* \"UniswapV2Locker.sol\":18196:18203  address */\n      dup1\n        /* \"UniswapV2Locker.sol\":18212:18226  uint256 lockID */\n      0x00\n        /* \"UniswapV2Locker.sol\":18229:18234  users */\n      0x03\n        /* \"UniswapV2Locker.sol\":18229:18241  users[_user] */\n      0x00\n        /* \"UniswapV2Locker.sol\":18235:18240  _user */\n      dup12\n      sub(shl(0xa0, 0x01), 0x01)\n        /* \"UniswapV2Locker.sol\":18229:18241  users[_user] */\n      and\n      sub(shl(0xa0, 0x01), 0x01)\n      and\n      dup2\n      mstore\n      0x20\n      add\n      swap1\n      dup2\n      mstore\n      0x20\n      add\n      0x00\n      keccak256\n        /* \"UniswapV2Locker.sol\":18229:18255  users[_user].locksForToken */\n      0x02\n      add\n        /* \"UniswapV2Locker.sol\":18229:18265  users[_user].locksForToken[_lpToken] */\n      0x00\n        /* \"UniswapV2Locker.sol\":18256:18264  _lpToken */\n      dup11\n      sub(shl(0xa0, 0x01), 0x01)\n        /* \"UniswapV2Locker.sol\":18229:18265  users[_user].locksForToken[_lpToken] */\n      and\n      sub(shl(0xa0, 0x01), 0x01)\n      and\n      dup2\n      mstore\n      0x20\n      add\n      swap1\n      dup2\n      mstore\n      0x20\n      add\n      0x00\n      keccak256\n        /* \"UniswapV2Locker.sol\":18266:18272  _index */\n      dup9\n        /* \"UniswapV2Locker.sol\":18229:18273  users[_user].locksForToken[_lpToken][_index] */\n      dup2\n      sload\n      dup2\n      lt\n      tag_371\n      jumpi\n      invalid\n    tag_371:\n      swap1\n      0x00\n      mstore\n      keccak256(0x00, 0x20)\n      add\n      sload\n        /* \"UniswapV2Locker.sol\":18212:18273  uint256 lockID = users[_user].locksForToken[_lpToken][_index] */\n      swap1\n      pop\n        /* \"UniswapV2Locker.sol\":18280:18307  TokenLock storage tokenLock */\n      0x00\n        /* \"UniswapV2Locker.sol\":18310:18320  tokenLocks */\n      0x06\n        /* \"UniswapV2Locker.sol\":18310:18330  tokenLocks[_lpToken] */\n      0x00\n        /* \"UniswapV2Locker.sol\":18321:18329  _lpToken */\n      dup12\n      sub(shl(0xa0, 0x01), 0x01)\n        /* \"UniswapV2Locker.sol\":18310:18330  tokenLocks[_lpToken] */\n      and\n      sub(shl(0xa0, 0x01), 0x01)\n      and\n      dup2\n      mstore\n      0x20\n      add\n      swap1\n      dup2\n      mstore\n      0x20\n      add\n      0x00\n      keccak256\n        /* \"UniswapV2Locker.sol\":18331:18337  lockID */\n      dup3\n        /* \"UniswapV2Locker.sol\":18310:18338  tokenLocks[_lpToken][lockID] */\n      dup2\n      sload\n      dup2\n      lt\n      tag_373\n      jumpi\n      invalid\n    tag_373:\n      0x00\n      swap2\n      dup3\n      mstore\n      0x20\n      swap1\n      swap2\n      keccak256\n      0x06\n      swap1\n      swap2\n      mul\n      add\n        /* \"UniswapV2Locker.sol\":18353:18371  tokenLock.lockDate */\n      dup1\n      sload\n        /* \"UniswapV2Locker.sol\":18373:18389  tokenLock.amount */\n      0x01\n      dup3\n      add\n      sload\n        /* \"UniswapV2Locker.sol\":18391:18414  tokenLock.initialAmount */\n      0x02\n      dup4\n      add\n      sload\n        /* \"UniswapV2Locker.sol\":18416:18436  tokenLock.unlockDate */\n      0x03\n      dup5\n      add\n      sload\n        /* \"UniswapV2Locker.sol\":18438:18454  tokenLock.lockID */\n      0x04\n      dup6\n      add\n      sload\n        /* \"UniswapV2Locker.sol\":18456:18471  tokenLock.owner */\n      0x05\n      swap1\n      swap6\n      add\n      sload\n        /* \"UniswapV2Locker.sol\":18353:18371  tokenLock.lockDate */\n      swap4\n      swap13\n      pop\n        /* \"UniswapV2Locker.sol\":18373:18389  tokenLock.amount */\n      swap2\n      swap11\n      pop\n        /* \"UniswapV2Locker.sol\":18391:18414  tokenLock.initialAmount */\n      swap9\n      pop\n        /* \"UniswapV2Locker.sol\":18416:18436  tokenLock.unlockDate */\n      swap7\n      pop\n        /* \"UniswapV2Locker.sol\":18438:18454  tokenLock.lockID */\n      swap1\n      swap5\n      pop\n      sub(shl(0xa0, 0x01), 0x01)\n        /* \"UniswapV2Locker.sol\":18456:18471  tokenLock.owner */\n      and\n      swap3\n      pop\n      pop\n      pop\n        /* \"UniswapV2Locker.sol\":18038:18478  function getUserLockForTokenAtIndex (address _user, address _lpToken, uint256 _index) external view \r... */\n      swap4\n      swap8\n      pop\n      swap4\n      swap8\n      swap2\n      swap6\n      pop\n      swap4\n      pop\n      jump\t// out\n        /* \"UniswapV2Locker.sol\":16030:17051  function migrate (address _lpToken, uint256 _index, uint256 _lockID, uint256 _amount) external nonReentrant {\r... */\n    tag_137:\n        /* \"ReentrancyGuard.sol\":1867:1868  2 */\n      0x02\n        /* \"ReentrancyGuard.sol\":2473:2480  _status */\n      sload(0x01)\n        /* \"ReentrancyGuard.sol\":2473:2492  _status != _ENTERED */\n      eq\n      iszero\n        /* \"ReentrancyGuard.sol\":2465:2528  require(_status != _ENTERED, \"ReentrancyGuard: reentrant call\") */\n      tag_376\n      jumpi\n      0x40\n      dup1\n      mload\n      shl(0xe5, 0x461bcd)\n      dup2\n      mstore\n      0x20\n      0x04\n      dup3\n      add\n      mstore\n      0x1f\n      0x24\n      dup3\n      add\n      mstore\n      0x00\n      dup1\n      mload\n      0x20\n      data_0d74825aecb0211bbe1f02ccfb998d9e49771bedb2c6414e20fd8978a2e0f54c\n      dup4\n      codecopy\n      dup2\n      mload\n      swap2\n      mstore\n      0x44\n      dup3\n      add\n      mstore\n      swap1\n      mload\n      swap1\n      dup2\n      swap1\n      sub\n      0x64\n      add\n      swap1\n      revert\n    tag_376:\n        /* \"ReentrancyGuard.sol\":1867:1868  2 */\n      0x02\n        /* \"ReentrancyGuard.sol\":2606:2613  _status */\n      0x01\n        /* \"ReentrancyGuard.sol\":2606:2624  _status = _ENTERED */\n      sstore\n        /* \"UniswapV2Locker.sol\":16161:16169  migrator */\n      and(sub(shl(0xa0, 0x01), 0x01), sload(0x13))\n        /* \"UniswapV2Locker.sol\":16145:16196  require(address(migrator) != address(0), \"NOT SET\") */\n      tag_378\n      jumpi\n      0x40\n      dup1\n      mload\n      shl(0xe5, 0x461bcd)\n      dup2\n      mstore\n      0x20\n      0x04\n      dup3\n      add\n      mstore\n      0x07\n      0x24\n      dup3\n      add\n      mstore\n      shl(0xca, 0x1393d50814d155)\n      0x44\n      dup3\n      add\n      mstore\n      swap1\n      mload\n      swap1\n      dup2\n      swap1\n      sub\n      0x64\n      add\n      swap1\n      revert\n    tag_378:\n        /* \"UniswapV2Locker.sol\":16221:16222  0 */\n      0x00\n        /* \"UniswapV2Locker.sol\":16211:16218  _amount */\n      dup2\n        /* \"UniswapV2Locker.sol\":16211:16222  _amount > 0 */\n      gt\n        /* \"UniswapV2Locker.sol\":16203:16241  require(_amount > 0, 'ZERO MIGRATION') */\n      tag_379\n      jumpi\n      0x40\n      dup1\n      mload\n      shl(0xe5, 0x461bcd)\n      dup2\n      mstore\n      0x20\n      0x04\n      dup3\n      add\n      mstore\n      0x0e\n      0x24\n      dup3\n      add\n      mstore\n      shl(0x91, 0x2d22a9279026a4a3a920aa24a7a7)\n      0x44\n      dup3\n      add\n      mstore\n      swap1\n      mload\n      swap1\n      dup2\n      swap1\n      sub\n      0x64\n      add\n      swap1\n      revert\n    tag_379:\n        /* \"UniswapV2Locker.sol\":16277:16287  msg.sender */\n      caller\n        /* \"UniswapV2Locker.sol\":16254:16268  uint256 lockID */\n      0x00\n        /* \"UniswapV2Locker.sol\":16271:16288  users[msg.sender] */\n      swap1\n      dup2\n      mstore\n        /* \"UniswapV2Locker.sol\":16271:16276  users */\n      0x03\n        /* \"UniswapV2Locker.sol\":16271:16288  users[msg.sender] */\n      0x20\n      swap1\n      dup2\n      mstore\n      0x40\n      dup1\n      dup4\n      keccak256\n      sub(shl(0xa0, 0x01), 0x01)\n        /* \"UniswapV2Locker.sol\":16271:16312  users[msg.sender].locksForToken[_lpToken] */\n      dup9\n      and\n      dup5\n      mstore\n        /* \"UniswapV2Locker.sol\":16271:16302  users[msg.sender].locksForToken */\n      0x02\n      add\n        /* \"UniswapV2Locker.sol\":16271:16312  users[msg.sender].locksForToken[_lpToken] */\n      swap1\n      swap2\n      mstore\n      dup2\n      keccak256\n        /* \"UniswapV2Locker.sol\":16271:16320  users[msg.sender].locksForToken[_lpToken][_index] */\n      dup1\n      sload\n        /* \"UniswapV2Locker.sol\":16313:16319  _index */\n      dup6\n      swap1\n        /* \"UniswapV2Locker.sol\":16271:16320  users[msg.sender].locksForToken[_lpToken][_index] */\n      dup2\n      lt\n      tag_380\n      jumpi\n      invalid\n    tag_380:\n      swap1\n      0x00\n      mstore\n      keccak256(0x00, 0x20)\n      add\n      sload\n        /* \"UniswapV2Locker.sol\":16254:16320  uint256 lockID = users[msg.sender].locksForToken[_lpToken][_index] */\n      swap1\n      pop\n        /* \"UniswapV2Locker.sol\":16327:16353  TokenLock storage userLock */\n      0x00\n        /* \"UniswapV2Locker.sol\":16356:16366  tokenLocks */\n      0x06\n        /* \"UniswapV2Locker.sol\":16356:16376  tokenLocks[_lpToken] */\n      0x00\n        /* \"UniswapV2Locker.sol\":16367:16375  _lpToken */\n      dup8\n      sub(shl(0xa0, 0x01), 0x01)\n        /* \"UniswapV2Locker.sol\":16356:16376  tokenLocks[_lpToken] */\n      and\n      sub(shl(0xa0, 0x01), 0x01)\n      and\n      dup2\n      mstore\n      0x20\n      add\n      swap1\n      dup2\n      mstore\n      0x20\n      add\n      0x00\n      keccak256\n        /* \"UniswapV2Locker.sol\":16377:16383  lockID */\n      dup3\n        /* \"UniswapV2Locker.sol\":16356:16384  tokenLocks[_lpToken][lockID] */\n      dup2\n      sload\n      dup2\n      lt\n      tag_382\n      jumpi\n      invalid\n    tag_382:\n      swap1\n      0x00\n      mstore\n      keccak256(0x00, 0x20)\n      swap1\n      0x06\n      mul\n      add\n        /* \"UniswapV2Locker.sol\":16327:16384  TokenLock storage userLock = tokenLocks[_lpToken][lockID] */\n      swap1\n      pop\n        /* \"UniswapV2Locker.sol\":16409:16416  _lockID */\n      dup4\n        /* \"UniswapV2Locker.sol\":16399:16405  lockID */\n      dup3\n        /* \"UniswapV2Locker.sol\":16399:16416  lockID == _lockID */\n      eq\n        /* \"UniswapV2Locker.sol\":16399:16448  lockID == _lockID && userLock.owner == msg.sender */\n      dup1\n      iszero\n      tag_384\n      jumpi\n      pop\n        /* \"UniswapV2Locker.sol\":16420:16434  userLock.owner */\n      0x05\n      dup2\n      add\n      sload\n      sub(shl(0xa0, 0x01), 0x01)\n      and\n        /* \"UniswapV2Locker.sol\":16438:16448  msg.sender */\n      caller\n        /* \"UniswapV2Locker.sol\":16420:16448  userLock.owner == msg.sender */\n      eq\n        /* \"UniswapV2Locker.sol\":16399:16448  lockID == _lockID && userLock.owner == msg.sender */\n    tag_384:\n        /* \"UniswapV2Locker.sol\":16391:16466  require(lockID == _lockID && userLock.owner == msg.sender, 'LOCK MISMATCH') */\n      tag_385\n      jumpi\n      0x40\n      dup1\n      mload\n      shl(0xe5, 0x461bcd)\n      dup2\n      mstore\n      0x20\n      0x04\n      dup3\n      add\n      mstore\n      0x0d\n      0x24\n      dup3\n      add\n      mstore\n      shl(0x9b, 0x0989e8696409a92a69a82a8869)\n      0x44\n      dup3\n      add\n      mstore\n      swap1\n      mload\n      swap1\n      dup2\n      swap1\n      sub\n      0x64\n      add\n      swap1\n      revert\n    tag_385:\n        /* \"UniswapV2Locker.sol\":16527:16542  userLock.amount */\n      0x01\n      dup2\n      add\n      sload\n        /* \"UniswapV2Locker.sol\":16527:16555  userLock.amount.sub(_amount) */\n      tag_386\n      swap1\n        /* \"UniswapV2Locker.sol\":16547:16554  _amount */\n      dup5\n        /* \"UniswapV2Locker.sol\":16527:16546  userLock.amount.sub */\n      tag_167\n        /* \"UniswapV2Locker.sol\":16527:16555  userLock.amount.sub(_amount) */\n      jump\t// in\n    tag_386:\n        /* \"UniswapV2Locker.sol\":16509:16524  userLock.amount */\n      0x01\n      dup3\n      add\n        /* \"UniswapV2Locker.sol\":16509:16555  userLock.amount = userLock.amount.sub(_amount) */\n      dup2\n      swap1\n      sstore\n        /* \"UniswapV2Locker.sol\":16595:16894  if (userLock.amount == 0) {\r... */\n      tag_387\n      jumpi\n        /* \"UniswapV2Locker.sol\":16666:16676  msg.sender */\n      caller\n        /* \"UniswapV2Locker.sol\":16630:16657  uint256[] storage userLocks */\n      0x00\n        /* \"UniswapV2Locker.sol\":16660:16677  users[msg.sender] */\n      swap1\n      dup2\n      mstore\n        /* \"UniswapV2Locker.sol\":16660:16665  users */\n      0x03\n        /* \"UniswapV2Locker.sol\":16660:16677  users[msg.sender] */\n      0x20\n      swap1\n      dup2\n      mstore\n      0x40\n      dup1\n      dup4\n      keccak256\n      sub(shl(0xa0, 0x01), 0x01)\n        /* \"UniswapV2Locker.sol\":16660:16701  users[msg.sender].locksForToken[_lpToken] */\n      dup11\n      and\n      dup5\n      mstore\n        /* \"UniswapV2Locker.sol\":16660:16691  users[msg.sender].locksForToken */\n      0x02\n      add\n        /* \"UniswapV2Locker.sol\":16660:16701  users[msg.sender].locksForToken[_lpToken] */\n      swap1\n      swap2\n      mstore\n      swap1\n      keccak256\n        /* \"UniswapV2Locker.sol\":16740:16756  userLocks.length */\n      dup1\n      sload\n        /* \"UniswapV2Locker.sol\":16660:16701  users[msg.sender].locksForToken[_lpToken] */\n      dup2\n      swap1\n      not(0x00)\n        /* \"UniswapV2Locker.sol\":16740:16758  userLocks.length-1 */\n      dup2\n      add\n      swap1\n        /* \"UniswapV2Locker.sol\":16730:16759  userLocks[userLocks.length-1] */\n      dup2\n      lt\n      tag_388\n      jumpi\n      invalid\n    tag_388:\n      swap1\n      0x00\n      mstore\n      keccak256(0x00, 0x20)\n      add\n      sload\n        /* \"UniswapV2Locker.sol\":16710:16719  userLocks */\n      dup2\n        /* \"UniswapV2Locker.sol\":16720:16726  _index */\n      dup8\n        /* \"UniswapV2Locker.sol\":16710:16727  userLocks[_index] */\n      dup2\n      sload\n      dup2\n      lt\n      tag_390\n      jumpi\n      invalid\n    tag_390:\n      swap1\n      0x00\n      mstore\n      keccak256(0x00, 0x20)\n      add\n        /* \"UniswapV2Locker.sol\":16710:16759  userLocks[_index] = userLocks[userLocks.length-1] */\n      dup2\n      swap1\n      sstore\n      pop\n        /* \"UniswapV2Locker.sol\":16768:16777  userLocks */\n      dup1\n        /* \"UniswapV2Locker.sol\":16768:16783  userLocks.pop() */\n      dup1\n      sload\n      dup1\n      tag_392\n      jumpi\n      invalid\n    tag_392:\n      0x00\n      dup3\n      dup2\n      mstore\n      0x20\n      dup2\n      keccak256\n      dup3\n      add\n      not(0x00)\n      swap1\n      dup2\n      add\n      swap2\n      swap1\n      swap2\n      sstore\n      add\n      swap1\n      sstore\n        /* \"UniswapV2Locker.sol\":16796:16812  userLocks.length */\n      dup1\n      sload\n        /* \"UniswapV2Locker.sol\":16792:16887  if (userLocks.length == 0) {\r... */\n      tag_394\n      jumpi\n        /* \"UniswapV2Locker.sol\":16836:16846  msg.sender */\n      caller\n        /* \"UniswapV2Locker.sol\":16830:16847  users[msg.sender] */\n      0x00\n      swap1\n      dup2\n      mstore\n        /* \"UniswapV2Locker.sol\":16830:16835  users */\n      0x03\n        /* \"UniswapV2Locker.sol\":16830:16847  users[msg.sender] */\n      0x20\n      mstore\n      0x40\n      swap1\n      keccak256\n        /* \"UniswapV2Locker.sol\":16830:16877  users[msg.sender].lockedTokens.remove(_lpToken) */\n      tag_395\n      swap1\n        /* \"UniswapV2Locker.sol\":16868:16876  _lpToken */\n      dup9\n        /* \"UniswapV2Locker.sol\":16830:16867  users[msg.sender].lockedTokens.remove */\n      tag_177\n        /* \"UniswapV2Locker.sol\":16830:16877  users[msg.sender].lockedTokens.remove(_lpToken) */\n      jump\t// in\n    tag_395:\n      pop\n        /* \"UniswapV2Locker.sol\":16792:16887  if (userLocks.length == 0) {\r... */\n    tag_394:\n        /* \"UniswapV2Locker.sol\":16595:16894  if (userLock.amount == 0) {\r... */\n      pop\n    tag_387:\n        /* \"UniswapV2Locker.sol\":16951:16959  migrator */\n      sload(0x13)\n        /* \"UniswapV2Locker.sol\":16906:16970  TransferHelper.safeApprove(_lpToken, address(migrator), _amount) */\n      tag_396\n      swap1\n        /* \"UniswapV2Locker.sol\":16933:16941  _lpToken */\n      dup8\n      swap1\n      sub(shl(0xa0, 0x01), 0x01)\n        /* \"UniswapV2Locker.sol\":16951:16959  migrator */\n      and\n        /* \"UniswapV2Locker.sol\":16962:16969  _amount */\n      dup6\n        /* \"UniswapV2Locker.sol\":16906:16932  TransferHelper.safeApprove */\n      tag_286\n        /* \"UniswapV2Locker.sol\":16906:16970  TransferHelper.safeApprove(_lpToken, address(migrator), _amount) */\n      jump\t// in\n    tag_396:\n        /* \"UniswapV2Locker.sol\":16977:16985  migrator */\n      sload(0x13)\n        /* \"UniswapV2Locker.sol\":17013:17032  userLock.unlockDate */\n      0x03\n      dup3\n      add\n      sload\n        /* \"UniswapV2Locker.sol\":16977:17045  migrator.migrate(_lpToken, _amount, userLock.unlockDate, msg.sender) */\n      0x40\n      dup1\n      mload\n      shl(0xe0, 0xdb5ecd3f)\n      dup2\n      mstore\n      sub(shl(0xa0, 0x01), 0x01)\n      dup11\n      dup2\n      and\n      0x04\n      dup4\n      add\n      mstore\n      0x24\n      dup3\n      add\n      dup9\n      swap1\n      mstore\n      0x44\n      dup3\n      add\n      swap4\n      swap1\n      swap4\n      mstore\n        /* \"UniswapV2Locker.sol\":17034:17044  msg.sender */\n      caller\n        /* \"UniswapV2Locker.sol\":16977:17045  migrator.migrate(_lpToken, _amount, userLock.unlockDate, msg.sender) */\n      0x64\n      dup3\n      add\n      mstore\n      swap1\n      mload\n        /* \"UniswapV2Locker.sol\":16977:16985  migrator */\n      swap2\n      swap1\n      swap3\n      and\n      swap2\n        /* \"UniswapV2Locker.sol\":16977:16993  migrator.migrate */\n      0xdb5ecd3f\n      swap2\n        /* \"UniswapV2Locker.sol\":16977:17045  migrator.migrate(_lpToken, _amount, userLock.unlockDate, msg.sender) */\n      0x84\n      dup1\n      dup4\n      add\n      swap3\n      0x20\n      swap3\n      swap2\n      swap1\n      dup3\n      swap1\n      sub\n      add\n      dup2\n        /* \"UniswapV2Locker.sol\":16977:16985  migrator */\n      0x00\n      dup8\n        /* \"UniswapV2Locker.sol\":16977:17045  migrator.migrate(_lpToken, _amount, userLock.unlockDate, msg.sender) */\n      dup1\n      extcodesize\n      iszero\n      dup1\n      iszero\n      tag_397\n      jumpi\n      0x00\n      dup1\n      revert\n    tag_397:\n      pop\n      gas\n      call\n      iszero\n      dup1\n      iszero\n      tag_399\n      jumpi\n      returndatasize\n      0x00\n      dup1\n      returndatacopy\n      revert(0x00, returndatasize)\n    tag_399:\n      pop\n      pop\n      pop\n      pop\n      mload(0x40)\n      returndatasize\n      0x20\n      dup2\n      lt\n      iszero\n      tag_217\n      jumpi\n      0x00\n      dup1\n      revert\n        /* \"UniswapV2Locker.sol\":4603:4775  function setReferralTokenAndHold(IERCBurn _referralToken, uint256 _hold) public onlyOwner {\r... */\n    tag_141:\n        /* \"Ownable.sol\":1428:1440  _msgSender() */\n      tag_402\n        /* \"Ownable.sol\":1428:1438  _msgSender */\n      tag_152\n        /* \"Ownable.sol\":1428:1440  _msgSender() */\n      jump\t// in\n    tag_402:\n        /* \"Ownable.sol\":1418:1424  _owner */\n      sload(0x00)\n      sub(shl(0xa0, 0x01), 0x01)\n      swap1\n      dup2\n      and\n        /* \"Ownable.sol\":1418:1440  _owner == _msgSender() */\n      swap2\n      and\n      eq\n        /* \"Ownable.sol\":1410:1477  require(_owner == _msgSender(), \"Ownable: caller is not the owner\") */\n      tag_403\n      jumpi\n      0x40\n      dup1\n      mload\n      shl(0xe5, 0x461bcd)\n      dup2\n      mstore\n      0x20\n      0x04\n      dup3\n      add\n      dup2\n      swap1\n      mstore\n      0x24\n      dup3\n      add\n      mstore\n      0x00\n      dup1\n      mload\n      0x20\n      data_9924ebdf1add33d25d4ef888e16131f0a5687b0580a36c21b5c301a6c462effe\n      dup4\n      codecopy\n      dup2\n      mload\n      swap2\n      mstore\n      0x44\n      dup3\n      add\n      mstore\n      swap1\n      mload\n      swap1\n      dup2\n      swap1\n      sub\n      0x64\n      add\n      swap1\n      revert\n    tag_403:\n        /* \"UniswapV2Locker.sol\":4700:4719  gFees.referralToken */\n      0x0d\n        /* \"UniswapV2Locker.sol\":4700:4736  gFees.referralToken = _referralToken */\n      dup1\n      sload\n      not(sub(shl(0xa0, 0x01), 0x01))\n      and\n      sub(shl(0xa0, 0x01), 0x01)\n      swap4\n      swap1\n      swap4\n      and\n      swap3\n      swap1\n      swap3\n      or\n      swap1\n      swap2\n      sstore\n        /* \"UniswapV2Locker.sol\":4743:4761  gFees.referralHold */\n      0x0e\n        /* \"UniswapV2Locker.sol\":4743:4769  gFees.referralHold = _hold */\n      sstore\n        /* \"UniswapV2Locker.sol\":4603:4775  function setReferralTokenAndHold(IERCBurn _referralToken, uint256 _hold) public onlyOwner {\r... */\n      jump\t// out\n        /* \"Ownable.sol\":2131:2371  function transferOwnership(address newOwner) public virtual onlyOwner {... */\n    tag_145:\n        /* \"Ownable.sol\":1428:1440  _msgSender() */\n      tag_406\n        /* \"Ownable.sol\":1428:1438  _msgSender */\n      tag_152\n        /* \"Ownable.sol\":1428:1440  _msgSender() */\n      jump\t// in\n    tag_406:\n        /* \"Ownable.sol\":1418:1424  _owner */\n      sload(0x00)\n      sub(shl(0xa0, 0x01), 0x01)\n      swap1\n      dup2\n      and\n        /* \"Ownable.sol\":1418:1440  _owner == _msgSender() */\n      swap2\n      and\n      eq\n        /* \"Ownable.sol\":1410:1477  require(_owner == _msgSender(), \"Ownable: caller is not the owner\") */\n      tag_407\n      jumpi\n      0x40\n      dup1\n      mload\n      shl(0xe5, 0x461bcd)\n      dup2\n      mstore\n      0x20\n      0x04\n      dup3\n      add\n      dup2\n      swap1\n      mstore\n      0x24\n      dup3\n      add\n      mstore\n      0x00\n      dup1\n      mload\n      0x20\n      data_9924ebdf1add33d25d4ef888e16131f0a5687b0580a36c21b5c301a6c462effe\n      dup4\n      codecopy\n      dup2\n      mload\n      swap2\n      mstore\n      0x44\n      dup3\n      add\n      mstore\n      swap1\n      mload\n      swap1\n      dup2\n      swap1\n      sub\n      0x64\n      add\n      swap1\n      revert\n    tag_407:\n      sub(shl(0xa0, 0x01), 0x01)\n        /* \"Ownable.sol\":2219:2241  newOwner != address(0) */\n      dup2\n      and\n        /* \"Ownable.sol\":2211:2284  require(newOwner != address(0), \"Ownable: new owner is the zero address\") */\n      tag_409\n      jumpi\n      mload(0x40)\n      shl(0xe5, 0x461bcd)\n      dup2\n      mstore\n      0x04\n      add\n      dup1\n      dup1\n      0x20\n      add\n      dup3\n      dup2\n      sub\n      dup3\n      mstore\n      0x26\n      dup2\n      mstore\n      0x20\n      add\n      dup1\n      data_245f15ff17f551913a7a18385165551503906a406f905ac1c2437281a7cd0cfe\n      0x26\n      swap2\n      codecopy\n      0x40\n      add\n      swap2\n      pop\n      pop\n      mload(0x40)\n      dup1\n      swap2\n      sub\n      swap1\n      revert\n    tag_409:\n        /* \"Ownable.sol\":2320:2326  _owner */\n      0x00\n      dup1\n      sload\n        /* \"Ownable.sol\":2299:2337  OwnershipTransferred(_owner, newOwner) */\n      mload(0x40)\n      sub(shl(0xa0, 0x01), 0x01)\n      dup1\n      dup6\n      and\n      swap4\n        /* \"Ownable.sol\":2320:2326  _owner */\n      swap3\n      and\n      swap2\n        /* \"Ownable.sol\":2299:2337  OwnershipTransferred(_owner, newOwner) */\n      0x8be0079c531659141344cd1fd0a4f28419497f9722a3daafe3b4186f6b6457e0\n      swap2\n      log3\n        /* \"Ownable.sol\":2347:2353  _owner */\n      0x00\n        /* \"Ownable.sol\":2347:2364  _owner = newOwner */\n      dup1\n      sload\n      not(sub(shl(0xa0, 0x01), 0x01))\n      and\n      sub(shl(0xa0, 0x01), 0x01)\n      swap3\n      swap1\n      swap3\n      and\n      swap2\n      swap1\n      swap2\n      or\n      swap1\n      sstore\n        /* \"Ownable.sol\":2131:2371  function transferOwnership(address newOwner) public virtual onlyOwner {... */\n      jump\t// out\n        /* \"EnumerableSet.sol\":8032:8181  function at(AddressSet storage set, uint256 index) internal view returns (address) {\r... */\n    tag_148:\n        /* \"EnumerableSet.sol\":8106:8113  address */\n      0x00\n        /* \"EnumerableSet.sol\":8149:8171  _at(set._inner, index) */\n      tag_325\n        /* \"EnumerableSet.sol\":8153:8156  set */\n      dup4\n        /* \"EnumerableSet.sol\":8165:8170  index */\n      dup4\n        /* \"EnumerableSet.sol\":8149:8152  _at */\n      tag_412\n        /* \"EnumerableSet.sol\":8149:8171  _at(set._inner, index) */\n      jump\t// in\n        /* \"Context.sol\":731:835  function _msgSender() internal view virtual returns (address payable) {... */\n    tag_152:\n        /* \"Context.sol\":818:828  msg.sender */\n      caller\n        /* \"Context.sol\":731:835  function _msgSender() internal view virtual returns (address payable) {... */\n      swap1\n      jump\t// out\n        /* \"SafeMath.sol\":1512:1648  function sub(uint256 a, uint256 b) internal pure returns (uint256) {\r... */\n    tag_167:\n        /* \"SafeMath.sol\":1570:1577  uint256 */\n      0x00\n        /* \"SafeMath.sol\":1597:1640  sub(a, b, \"SafeMath: subtraction overflow\") */\n      tag_325\n        /* \"SafeMath.sol\":1601:1602  a */\n      dup4\n        /* \"SafeMath.sol\":1604:1605  b */\n      dup4\n        /* \"SafeMath.sol\":1597:1640  sub(a, b, \"SafeMath: subtraction overflow\") */\n      mload(0x40)\n      dup1\n      0x40\n      add\n      0x40\n      mstore\n      dup1\n      0x1e\n      dup2\n      mstore\n      0x20\n      add\n      0x536166654d6174683a207375627472616374696f6e206f766572666c6f770000\n      dup2\n      mstore\n      pop\n        /* \"SafeMath.sol\":1597:1600  sub */\n      tag_416\n        /* \"SafeMath.sol\":1597:1640  sub(a, b, \"SafeMath: subtraction overflow\") */\n      jump\t// in\n        /* \"EnumerableSet.sol\":7092:7241  function remove(AddressSet storage set, address value) internal returns (bool) {\r... */\n    tag_177:\n        /* \"EnumerableSet.sol\":7165:7169  bool */\n      0x00\n        /* \"EnumerableSet.sol\":7189:7233  _remove(set._inner, bytes32(uint256(value))) */\n      tag_325\n        /* \"EnumerableSet.sol\":7197:7200  set */\n      dup4\n      sub(shl(0xa0, 0x01), 0x01)\n        /* \"EnumerableSet.sol\":7217:7231  uint256(value) */\n      dup5\n      and\n        /* \"EnumerableSet.sol\":7189:7196  _remove */\n      tag_419\n        /* \"EnumerableSet.sol\":7189:7233  _remove(set._inner, bytes32(uint256(value))) */\n      jump\t// in\n        /* \"TransferHelper.sol\":453:747  function safeTransfer(address token, address to, uint value) internal {\r... */\n    tag_179:\n        /* \"TransferHelper.sol\":581:626  abi.encodeWithSelector(0xa9059cbb, to, value) */\n      0x40\n      dup1\n      mload\n      sub(shl(0xa0, 0x01), 0x01)\n      dup5\n      dup2\n      and\n      0x24\n      dup4\n      add\n      mstore\n      0x44\n      dup1\n      dup4\n      add\n      dup6\n      swap1\n      mstore\n      dup4\n      mload\n      dup1\n      dup5\n      sub\n      swap1\n      swap2\n      add\n      dup2\n      mstore\n      0x64\n      swap1\n      swap3\n      add\n      dup4\n      mstore\n      0x20\n      dup3\n      add\n      dup1\n      mload\n      sub(shl(0xe0, 0x01), 0x01)\n      and\n      shl(0xe0, 0xa9059cbb)\n      or\n      dup2\n      mstore\n        /* \"TransferHelper.sol\":570:627  token.call(abi.encodeWithSelector(0xa9059cbb, to, value)) */\n      swap3\n      mload\n      dup3\n      mload\n        /* \"TransferHelper.sol\":535:547  bool success */\n      0x00\n      swap5\n        /* \"TransferHelper.sol\":549:566  bytes memory data */\n      0x60\n      swap5\n        /* \"TransferHelper.sol\":570:580  token.call */\n      swap4\n      dup10\n      and\n      swap4\n        /* \"TransferHelper.sol\":581:626  abi.encodeWithSelector(0xa9059cbb, to, value) */\n      swap3\n        /* \"TransferHelper.sol\":570:627  token.call(abi.encodeWithSelector(0xa9059cbb, to, value)) */\n      swap2\n      dup3\n      swap2\n        /* \"TransferHelper.sol\":581:626  abi.encodeWithSelector(0xa9059cbb, to, value) */\n      swap1\n        /* \"TransferHelper.sol\":570:627  token.call(abi.encodeWithSelector(0xa9059cbb, to, value)) */\n      dup1\n      dup4\n        /* \"TransferHelper.sol\":581:626  abi.encodeWithSelector(0xa9059cbb, to, value) */\n      dup4\n        /* \"TransferHelper.sol\":570:627  token.call(abi.encodeWithSelector(0xa9059cbb, to, value)) */\n    tag_421:\n      0x20\n      dup4\n      lt\n      tag_423\n      jumpi\n      dup1\n      mload\n      dup3\n      mstore\n      not(0x1f)\n      swap1\n      swap3\n      add\n      swap2\n      0x20\n      swap2\n      dup3\n      add\n      swap2\n      add\n      jump(tag_421)\n    tag_423:\n      0x01\n      dup4\n      0x20\n      sub\n      0x0100\n      exp\n      sub\n      dup1\n      not\n      dup3\n      mload\n      and\n      dup2\n      dup5\n      mload\n      and\n      dup1\n      dup3\n      or\n      dup6\n      mstore\n      pop\n      pop\n      pop\n      pop\n      pop\n      pop\n      swap1\n      pop\n      add\n      swap2\n      pop\n      pop\n      0x00\n      mload(0x40)\n      dup1\n      dup4\n      sub\n      dup2\n      0x00\n      dup7\n      gas\n      call\n      swap2\n      pop\n      pop\n      returndatasize\n      dup1\n      0x00\n      dup2\n      eq\n      tag_426\n      jumpi\n      mload(0x40)\n      swap2\n      pop\n      and(add(returndatasize, 0x3f), not(0x1f))\n      dup3\n      add\n      0x40\n      mstore\n      returndatasize\n      dup3\n      mstore\n      returndatasize\n      0x00\n      0x20\n      dup5\n      add\n      returndatacopy\n      jump(tag_425)\n    tag_426:\n      0x60\n      swap2\n      pop\n    tag_425:\n      pop\n        /* \"TransferHelper.sol\":534:627  (bool success, bytes memory data) = token.call(abi.encodeWithSelector(0xa9059cbb, to, value)) */\n      swap2\n      pop\n      swap2\n      pop\n        /* \"TransferHelper.sol\":646:653  success */\n      dup2\n        /* \"TransferHelper.sol\":646:703  success && (data.length == 0 || abi.decode(data, (bool))) */\n      dup1\n      iszero\n      tag_428\n      jumpi\n      pop\n        /* \"TransferHelper.sol\":658:669  data.length */\n      dup1\n      mload\n        /* \"TransferHelper.sol\":658:674  data.length == 0 */\n      iszero\n      dup1\n        /* \"TransferHelper.sol\":658:702  data.length == 0 || abi.decode(data, (bool)) */\n      tag_428\n      jumpi\n      pop\n        /* \"TransferHelper.sol\":689:693  data */\n      dup1\n        /* \"TransferHelper.sol\":678:702  abi.decode(data, (bool)) */\n      dup1\n      0x20\n      add\n      swap1\n      mload\n      0x20\n      dup2\n      lt\n      iszero\n      tag_429\n      jumpi\n      0x00\n      dup1\n      revert\n    tag_429:\n      pop\n      mload\n        /* \"TransferHelper.sol\":658:702  data.length == 0 || abi.decode(data, (bool)) */\n    tag_428:\n        /* \"TransferHelper.sol\":638:739  require(success && (data.length == 0 || abi.decode(data, (bool))), 'TransferHelper: TRANSFER_FAILED') */\n      tag_430\n      jumpi\n      0x40\n      dup1\n      mload\n      shl(0xe5, 0x461bcd)\n      dup2\n      mstore\n      0x20\n      0x04\n      dup3\n      add\n      mstore\n      0x1f\n      0x24\n      dup3\n      add\n      mstore\n      0x5472616e7366657248656c7065723a205452414e534645525f4641494c454400\n      0x44\n      dup3\n      add\n      mstore\n      swap1\n      mload\n      swap1\n      dup2\n      swap1\n      sub\n      0x64\n      add\n      swap1\n      revert\n    tag_430:\n        /* \"TransferHelper.sol\":453:747  function safeTransfer(address token, address to, uint value) internal {\r... */\n      pop\n      pop\n      pop\n      pop\n      pop\n      jump\t// out\n        /* \"EnumerableSet.sol\":7571:7688  function length(AddressSet storage set) internal view returns (uint256) {\r... */\n    tag_182:\n        /* \"EnumerableSet.sol\":7634:7641  uint256 */\n      0x00\n        /* \"EnumerableSet.sol\":7661:7680  _length(set._inner) */\n      tag_147\n        /* \"EnumerableSet.sol\":7669:7672  set */\n      dup3\n        /* \"EnumerableSet.sol\":7661:7668  _length */\n      tag_433\n        /* \"EnumerableSet.sol\":7661:7680  _length(set._inner) */\n      jump\t// in\n        /* \"SafeMath.sol\":2402:2873  function mul(uint256 a, uint256 b) internal pure returns (uint256) {\r... */\n    tag_214:\n        /* \"SafeMath.sol\":2460:2467  uint256 */\n      0x00\n        /* \"SafeMath.sol\":2705:2711  a == 0 */\n      dup3\n        /* \"SafeMath.sol\":2701:2748  if (a == 0) {\r... */\n      tag_435\n      jumpi\n      pop\n        /* \"SafeMath.sol\":2735:2736  0 */\n      0x00\n        /* \"SafeMath.sol\":2728:2736  return 0 */\n      jump(tag_147)\n        /* \"SafeMath.sol\":2701:2748  if (a == 0) {\r... */\n    tag_435:\n        /* \"SafeMath.sol\":2772:2777  a * b */\n      dup3\n      dup3\n      mul\n        /* \"SafeMath.sol\":2776:2777  b */\n      dup3\n        /* \"SafeMath.sol\":2772:2773  a */\n      dup5\n        /* \"SafeMath.sol\":2772:2777  a * b */\n      dup3\n        /* \"SafeMath.sol\":2772:2773  a */\n      dup2\n        /* \"SafeMath.sol\":2796:2801  c / a */\n      tag_436\n      jumpi\n      invalid\n    tag_436:\n      div\n        /* \"SafeMath.sol\":2796:2806  c / a == b */\n      eq\n        /* \"SafeMath.sol\":2788:2844  require(c / a == b, \"SafeMath: multiplication overflow\") */\n      tag_325\n      jumpi\n      mload(0x40)\n      shl(0xe5, 0x461bcd)\n      dup2\n      mstore\n      0x04\n      add\n      dup1\n      dup1\n      0x20\n      add\n      dup3\n      dup2\n      sub\n      dup3\n      mstore\n      0x21\n      dup2\n      mstore\n      0x20\n      add\n      dup1\n      data_9113bb53c2876a3805b2c9242029423fc540a728243ce887ab24c82cf119fba3\n      0x21\n      swap2\n      codecopy\n      0x40\n      add\n      swap2\n      pop\n      pop\n      mload(0x40)\n      dup1\n      swap2\n      sub\n      swap1\n      revert\n        /* \"SafeMath.sol\":3349:3481  function div(uint256 a, uint256 b) internal pure returns (uint256) {\r... */\n    tag_215:\n        /* \"SafeMath.sol\":3407:3414  uint256 */\n      0x00\n        /* \"SafeMath.sol\":3434:3473  div(a, b, \"SafeMath: division by zero\") */\n      tag_325\n        /* \"SafeMath.sol\":3438:3439  a */\n      dup4\n        /* \"SafeMath.sol\":3441:3442  b */\n      dup4\n        /* \"SafeMath.sol\":3434:3473  div(a, b, \"SafeMath: division by zero\") */\n      mload(0x40)\n      dup1\n      0x40\n      add\n      0x40\n      mstore\n      dup1\n      0x1a\n      dup2\n      mstore\n      0x20\n      add\n      0x536166654d6174683a206469766973696f6e206279207a65726f000000000000\n      dup2\n      mstore\n      pop\n        /* \"SafeMath.sol\":3434:3437  div */\n      tag_440\n        /* \"SafeMath.sol\":3434:3473  div(a, b, \"SafeMath: division by zero\") */\n      jump\t// in\n        /* \"TransferHelper.sol\":755:1078  function safeTransferFrom(address token, address from, address to, uint value) internal {\r... */\n    tag_251:\n        /* \"TransferHelper.sol\":901:952  abi.encodeWithSelector(0x23b872dd, from, to, value) */\n      0x40\n      dup1\n      mload\n      sub(shl(0xa0, 0x01), 0x01)\n      dup6\n      dup2\n      and\n      0x24\n      dup4\n      add\n      mstore\n      dup5\n      dup2\n      and\n      0x44\n      dup4\n      add\n      mstore\n      0x64\n      dup1\n      dup4\n      add\n      dup6\n      swap1\n      mstore\n      dup4\n      mload\n      dup1\n      dup5\n      sub\n      swap1\n      swap2\n      add\n      dup2\n      mstore\n      0x84\n      swap1\n      swap3\n      add\n      dup4\n      mstore\n      0x20\n      dup3\n      add\n      dup1\n      mload\n      sub(shl(0xe0, 0x01), 0x01)\n      and\n      shl(0xe0, 0x23b872dd)\n      or\n      dup2\n      mstore\n        /* \"TransferHelper.sol\":890:953  token.call(abi.encodeWithSelector(0x23b872dd, from, to, value)) */\n      swap3\n      mload\n      dup3\n      mload\n        /* \"TransferHelper.sol\":855:867  bool success */\n      0x00\n      swap5\n        /* \"TransferHelper.sol\":869:886  bytes memory data */\n      0x60\n      swap5\n        /* \"TransferHelper.sol\":890:900  token.call */\n      swap4\n      dup11\n      and\n      swap4\n        /* \"TransferHelper.sol\":901:952  abi.encodeWithSelector(0x23b872dd, from, to, value) */\n      swap3\n        /* \"TransferHelper.sol\":890:953  token.call(abi.encodeWithSelector(0x23b872dd, from, to, value)) */\n      swap2\n      dup3\n      swap2\n        /* \"TransferHelper.sol\":901:952  abi.encodeWithSelector(0x23b872dd, from, to, value) */\n      swap1\n        /* \"TransferHelper.sol\":890:953  token.call(abi.encodeWithSelector(0x23b872dd, from, to, value)) */\n      dup1\n      dup4\n        /* \"TransferHelper.sol\":901:952  abi.encodeWithSelector(0x23b872dd, from, to, value) */\n      dup4\n        /* \"TransferHelper.sol\":890:953  token.call(abi.encodeWithSelector(0x23b872dd, from, to, value)) */\n    tag_442:\n      0x20\n      dup4\n      lt\n      tag_444\n      jumpi\n      dup1\n      mload\n      dup3\n      mstore\n      not(0x1f)\n      swap1\n      swap3\n      add\n      swap2\n      0x20\n      swap2\n      dup3\n      add\n      swap2\n      add\n      jump(tag_442)\n    tag_444:\n      0x01\n      dup4\n      0x20\n      sub\n      0x0100\n      exp\n      sub\n      dup1\n      not\n      dup3\n      mload\n      and\n      dup2\n      dup5\n      mload\n      and\n      dup1\n      dup3\n      or\n      dup6\n      mstore\n      pop\n      pop\n      pop\n      pop\n      pop\n      pop\n      swap1\n      pop\n      add\n      swap2\n      pop\n      pop\n      0x00\n      mload(0x40)\n      dup1\n      dup4\n      sub\n      dup2\n      0x00\n      dup7\n      gas\n      call\n      swap2\n      pop\n      pop\n      returndatasize\n      dup1\n      0x00\n      dup2\n      eq\n      tag_447\n      jumpi\n      mload(0x40)\n      swap2\n      pop\n      and(add(returndatasize, 0x3f), not(0x1f))\n      dup3\n      add\n      0x40\n      mstore\n      returndatasize\n      dup3\n      mstore\n      returndatasize\n      0x00\n      0x20\n      dup5\n      add\n      returndatacopy\n      jump(tag_446)\n    tag_447:\n      0x60\n      swap2\n      pop\n    tag_446:\n      pop\n        /* \"TransferHelper.sol\":854:953  (bool success, bytes memory data) = token.call(abi.encodeWithSelector(0x23b872dd, from, to, value)) */\n      swap2\n      pop\n      swap2\n      pop\n        /* \"TransferHelper.sol\":972:979  success */\n      dup2\n        /* \"TransferHelper.sol\":972:1029  success && (data.length == 0 || abi.decode(data, (bool))) */\n      dup1\n      iszero\n      tag_449\n      jumpi\n      pop\n        /* \"TransferHelper.sol\":984:995  data.length */\n      dup1\n      mload\n        /* \"TransferHelper.sol\":984:1000  data.length == 0 */\n      iszero\n      dup1\n        /* \"TransferHelper.sol\":984:1028  data.length == 0 || abi.decode(data, (bool)) */\n      tag_449\n      jumpi\n      pop\n        /* \"TransferHelper.sol\":1015:1019  data */\n      dup1\n        /* \"TransferHelper.sol\":1004:1028  abi.decode(data, (bool)) */\n      dup1\n      0x20\n      add\n      swap1\n      mload\n      0x20\n      dup2\n      lt\n      iszero\n      tag_450\n      jumpi\n      0x00\n      dup1\n      revert\n    tag_450:\n      pop\n      mload\n        /* \"TransferHelper.sol\":984:1028  data.length == 0 || abi.decode(data, (bool)) */\n    tag_449:\n        /* \"TransferHelper.sol\":964:1070  require(success && (data.length == 0 || abi.decode(data, (bool))), 'TransferHelper: TRANSFER_FROM_FAILED') */\n      tag_451\n      jumpi\n      mload(0x40)\n      shl(0xe5, 0x461bcd)\n      dup2\n      mstore\n      0x04\n      add\n      dup1\n      dup1\n      0x20\n      add\n      dup3\n      dup2\n      sub\n      dup3\n      mstore\n      0x24\n      dup2\n      mstore\n      0x20\n      add\n      dup1\n      data_eb2904bf3c0c9ae693b53eb0188a703c388998a9c405b7965ca678cef9a51d18\n      0x24\n      swap2\n      codecopy\n      0x40\n      add\n      swap2\n      pop\n      pop\n      mload(0x40)\n      dup1\n      swap2\n      sub\n      swap1\n      revert\n    tag_451:\n        /* \"TransferHelper.sol\":755:1078  function safeTransferFrom(address token, address from, address to, uint value) internal {\r... */\n      pop\n      pop\n      pop\n      pop\n      pop\n      pop\n      jump\t// out\n        /* \"EnumerableSet.sol\":7327:7485  function contains(AddressSet storage set, address value) internal view returns (bool) {\r... */\n    tag_260:\n        /* \"EnumerableSet.sol\":7407:7411  bool */\n      0x00\n        /* \"EnumerableSet.sol\":7431:7477  _contains(set._inner, bytes32(uint256(value))) */\n      tag_325\n        /* \"EnumerableSet.sol\":7441:7444  set */\n      dup4\n      sub(shl(0xa0, 0x01), 0x01)\n        /* \"EnumerableSet.sol\":7461:7475  uint256(value) */\n      dup5\n      and\n        /* \"EnumerableSet.sol\":7431:7440  _contains */\n      tag_454\n        /* \"EnumerableSet.sol\":7431:7477  _contains(set._inner, bytes32(uint256(value))) */\n      jump\t// in\n        /* \"TransferHelper.sol\":153:445  function safeApprove(address token, address to, uint value) internal {\r... */\n    tag_286:\n        /* \"TransferHelper.sol\":280:325  abi.encodeWithSelector(0x095ea7b3, to, value) */\n      0x40\n      dup1\n      mload\n      sub(shl(0xa0, 0x01), 0x01)\n      dup5\n      dup2\n      and\n      0x24\n      dup4\n      add\n      mstore\n      0x44\n      dup1\n      dup4\n      add\n      dup6\n      swap1\n      mstore\n      dup4\n      mload\n      dup1\n      dup5\n      sub\n      swap1\n      swap2\n      add\n      dup2\n      mstore\n      0x64\n      swap1\n      swap3\n      add\n      dup4\n      mstore\n      0x20\n      dup3\n      add\n      dup1\n      mload\n      sub(shl(0xe0, 0x01), 0x01)\n      and\n      shl(0xe0, 0x095ea7b3)\n      or\n      dup2\n      mstore\n        /* \"TransferHelper.sol\":269:326  token.call(abi.encodeWithSelector(0x095ea7b3, to, value)) */\n      swap3\n      mload\n      dup3\n      mload\n        /* \"TransferHelper.sol\":234:246  bool success */\n      0x00\n      swap5\n        /* \"TransferHelper.sol\":248:265  bytes memory data */\n      0x60\n      swap5\n        /* \"TransferHelper.sol\":269:279  token.call */\n      swap4\n      dup10\n      and\n      swap4\n        /* \"TransferHelper.sol\":280:325  abi.encodeWithSelector(0x095ea7b3, to, value) */\n      swap3\n        /* \"TransferHelper.sol\":269:326  token.call(abi.encodeWithSelector(0x095ea7b3, to, value)) */\n      swap2\n      dup3\n      swap2\n        /* \"TransferHelper.sol\":280:325  abi.encodeWithSelector(0x095ea7b3, to, value) */\n      swap1\n        /* \"TransferHelper.sol\":269:326  token.call(abi.encodeWithSelector(0x095ea7b3, to, value)) */\n      dup1\n      dup4\n        /* \"TransferHelper.sol\":280:325  abi.encodeWithSelector(0x095ea7b3, to, value) */\n      dup4\n        /* \"TransferHelper.sol\":269:326  token.call(abi.encodeWithSelector(0x095ea7b3, to, value)) */\n    tag_456:\n      0x20\n      dup4\n      lt\n      tag_458\n      jumpi\n      dup1\n      mload\n      dup3\n      mstore\n      not(0x1f)\n      swap1\n      swap3\n      add\n      swap2\n      0x20\n      swap2\n      dup3\n      add\n      swap2\n      add\n      jump(tag_456)\n    tag_458:\n      0x01\n      dup4\n      0x20\n      sub\n      0x0100\n      exp\n      sub\n      dup1\n      not\n      dup3\n      mload\n      and\n      dup2\n      dup5\n      mload\n      and\n      dup1\n      dup3\n      or\n      dup6\n      mstore\n      pop\n      pop\n      pop\n      pop\n      pop\n      pop\n      swap1\n      pop\n      add\n      swap2\n      pop\n      pop\n      0x00\n      mload(0x40)\n      dup1\n      dup4\n      sub\n      dup2\n      0x00\n      dup7\n      gas\n      call\n      swap2\n      pop\n      pop\n      returndatasize\n      dup1\n      0x00\n      dup2\n      eq\n      tag_461\n      jumpi\n      mload(0x40)\n      swap2\n      pop\n      and(add(returndatasize, 0x3f), not(0x1f))\n      dup3\n      add\n      0x40\n      mstore\n      returndatasize\n      dup3\n      mstore\n      returndatasize\n      0x00\n      0x20\n      dup5\n      add\n      returndatacopy\n      jump(tag_460)\n    tag_461:\n      0x60\n      swap2\n      pop\n    tag_460:\n      pop\n        /* \"TransferHelper.sol\":233:326  (bool success, bytes memory data) = token.call(abi.encodeWithSelector(0x095ea7b3, to, value)) */\n      swap2\n      pop\n      swap2\n      pop\n        /* \"TransferHelper.sol\":345:352  success */\n      dup2\n        /* \"TransferHelper.sol\":345:402  success && (data.length == 0 || abi.decode(data, (bool))) */\n      dup1\n      iszero\n      tag_463\n      jumpi\n      pop\n        /* \"TransferHelper.sol\":357:368  data.length */\n      dup1\n      mload\n        /* \"TransferHelper.sol\":357:373  data.length == 0 */\n      iszero\n      dup1\n        /* \"TransferHelper.sol\":357:401  data.length == 0 || abi.decode(data, (bool)) */\n      tag_463\n      jumpi\n      pop\n        /* \"TransferHelper.sol\":388:392  data */\n      dup1\n        /* \"TransferHelper.sol\":377:401  abi.decode(data, (bool)) */\n      dup1\n      0x20\n      add\n      swap1\n      mload\n      0x20\n      dup2\n      lt\n      iszero\n      tag_464\n      jumpi\n      0x00\n      dup1\n      revert\n    tag_464:\n      pop\n      mload\n        /* \"TransferHelper.sol\":357:401  data.length == 0 || abi.decode(data, (bool)) */\n    tag_463:\n        /* \"TransferHelper.sol\":337:437  require(success && (data.length == 0 || abi.decode(data, (bool))), 'TransferHelper: APPROVE_FAILED') */\n      tag_430\n      jumpi\n      0x40\n      dup1\n      mload\n      shl(0xe5, 0x461bcd)\n      dup2\n      mstore\n      0x20\n      0x04\n      dup3\n      add\n      mstore\n      0x1e\n      0x24\n      dup3\n      add\n      mstore\n      0x5472616e7366657248656c7065723a20415050524f56455f4641494c45440000\n      0x44\n      dup3\n      add\n      mstore\n      swap1\n      mload\n      swap1\n      dup2\n      swap1\n      sub\n      0x64\n      add\n      swap1\n      revert\n        /* \"EnumerableSet.sol\":6773:6916  function add(AddressSet storage set, address value) internal returns (bool) {\r... */\n    tag_308:\n        /* \"EnumerableSet.sol\":6843:6847  bool */\n      0x00\n        /* \"EnumerableSet.sol\":6867:6908  _add(set._inner, bytes32(uint256(value))) */\n      tag_325\n        /* \"EnumerableSet.sol\":6872:6875  set */\n      dup4\n      sub(shl(0xa0, 0x01), 0x01)\n        /* \"EnumerableSet.sol\":6892:6906  uint256(value) */\n      dup5\n      and\n        /* \"EnumerableSet.sol\":6867:6871  _add */\n      tag_468\n        /* \"EnumerableSet.sol\":6867:6908  _add(set._inner, bytes32(uint256(value))) */\n      jump\t// in\n        /* \"SafeMath.sol\":1048:1229  function add(uint256 a, uint256 b) internal pure returns (uint256) {\r... */\n    tag_343:\n        /* \"SafeMath.sol\":1106:1113  uint256 */\n      0x00\n        /* \"SafeMath.sol\":1138:1143  a + b */\n      dup3\n      dup3\n      add\n        /* \"SafeMath.sol\":1162:1168  c >= a */\n      dup4\n      dup2\n      lt\n      iszero\n        /* \"SafeMath.sol\":1154:1200  require(c >= a, \"SafeMath: addition overflow\") */\n      tag_325\n      jumpi\n      0x40\n      dup1\n      mload\n      shl(0xe5, 0x461bcd)\n      dup2\n      mstore\n      0x20\n      0x04\n      dup3\n      add\n      mstore\n      0x1b\n      0x24\n      dup3\n      add\n      mstore\n      0x536166654d6174683a206164646974696f6e206f766572666c6f770000000000\n      0x44\n      dup3\n      add\n      mstore\n      swap1\n      mload\n      swap1\n      dup2\n      swap1\n      sub\n      0x64\n      add\n      swap1\n      revert\n        /* \"EnumerableSet.sol\":4725:4929  function _at(Set storage set, uint256 index) private view returns (bytes32) {\r... */\n    tag_412:\n        /* \"EnumerableSet.sol\":4820:4838  set._values.length */\n      dup2\n      sload\n        /* \"EnumerableSet.sol\":4792:4799  bytes32 */\n      0x00\n      swap1\n        /* \"EnumerableSet.sol\":4820:4846  set._values.length > index */\n      dup3\n      lt\n        /* \"EnumerableSet.sol\":4812:4885  require(set._values.length > index, \"EnumerableSet: index out of bounds\") */\n      tag_472\n      jumpi\n      mload(0x40)\n      shl(0xe5, 0x461bcd)\n      dup2\n      mstore\n      0x04\n      add\n      dup1\n      dup1\n      0x20\n      add\n      dup3\n      dup2\n      sub\n      dup3\n      mstore\n      0x22\n      dup2\n      mstore\n      0x20\n      add\n      dup1\n      data_045d6834e6193a687012a3ad777f612279e549b6945364d9d2324f48610d3cbb\n      0x22\n      swap2\n      codecopy\n      0x40\n      add\n      swap2\n      pop\n      pop\n      mload(0x40)\n      dup1\n      swap2\n      sub\n      swap1\n      revert\n    tag_472:\n        /* \"EnumerableSet.sol\":4903:4906  set */\n      dup3\n        /* \"EnumerableSet.sol\":4903:4914  set._values */\n      0x00\n      add\n        /* \"EnumerableSet.sol\":4915:4920  index */\n      dup3\n        /* \"EnumerableSet.sol\":4903:4921  set._values[index] */\n      dup2\n      sload\n      dup2\n      lt\n      tag_473\n      jumpi\n      invalid\n    tag_473:\n      swap1\n      0x00\n      mstore\n      keccak256(0x00, 0x20)\n      add\n      sload\n        /* \"EnumerableSet.sol\":4896:4921  return set._values[index] */\n      swap1\n      pop\n        /* \"EnumerableSet.sol\":4725:4929  function _at(Set storage set, uint256 index) private view returns (bytes32) {\r... */\n      swap3\n      swap2\n      pop\n      pop\n      jump\t// out\n        /* \"SafeMath.sol\":1951:2143  function sub(uint256 a, uint256 b, string memory errorMessage) internal pure returns (uint256) {\r... */\n    tag_416:\n        /* \"SafeMath.sol\":2037:2044  uint256 */\n      0x00\n        /* \"SafeMath.sol\":2073:2085  errorMessage */\n      dup2\n        /* \"SafeMath.sol\":2065:2071  b <= a */\n      dup5\n      dup5\n      gt\n      iszero\n        /* \"SafeMath.sol\":2057:2086  require(b <= a, errorMessage) */\n      tag_476\n      jumpi\n      mload(0x40)\n      shl(0xe5, 0x461bcd)\n      dup2\n      mstore\n      0x04\n      add\n      dup1\n      dup1\n      0x20\n      add\n      dup3\n      dup2\n      sub\n      dup3\n      mstore\n      dup4\n      dup2\n      dup2\n      mload\n      dup2\n      mstore\n      0x20\n      add\n      swap2\n      pop\n      dup1\n      mload\n      swap1\n      0x20\n      add\n      swap1\n      dup1\n      dup4\n      dup4\n      0x00\n    tag_477:\n      dup4\n      dup2\n      lt\n      iszero\n      tag_479\n      jumpi\n      dup2\n      dup2\n      add\n      mload\n      dup4\n      dup3\n      add\n      mstore\n      0x20\n      add\n      jump(tag_477)\n    tag_479:\n      pop\n      pop\n      pop\n      pop\n      swap1\n      pop\n      swap1\n      dup2\n      add\n      swap1\n      0x1f\n      and\n      dup1\n      iszero\n      tag_480\n      jumpi\n      dup1\n      dup3\n      sub\n      dup1\n      mload\n      0x01\n      dup4\n      0x20\n      sub\n      0x0100\n      exp\n      sub\n      not\n      and\n      dup2\n      mstore\n      0x20\n      add\n      swap2\n      pop\n    tag_480:\n      pop\n      swap3\n      pop\n      pop\n      pop\n      mload(0x40)\n      dup1\n      swap2\n      sub\n      swap1\n      revert\n    tag_476:\n      pop\n      pop\n      pop\n        /* \"SafeMath.sol\":2109:2114  a - b */\n      swap1\n      sub\n      swap1\n        /* \"SafeMath.sol\":1951:2143  function sub(uint256 a, uint256 b, string memory errorMessage) internal pure returns (uint256) {\r... */\n      jump\t// out\n        /* \"EnumerableSet.sol\":2427:3971  function _remove(Set storage set, bytes32 value) private returns (bool) {\r... */\n    tag_419:\n        /* \"EnumerableSet.sol\":2493:2497  bool */\n      0x00\n        /* \"EnumerableSet.sol\":2632:2651  set._indexes[value] */\n      dup2\n      dup2\n      mstore\n        /* \"EnumerableSet.sol\":2632:2644  set._indexes */\n      0x01\n      dup4\n      add\n        /* \"EnumerableSet.sol\":2632:2651  set._indexes[value] */\n      0x20\n      mstore\n      0x40\n      dup2\n      keccak256\n      sload\n        /* \"EnumerableSet.sol\":2668:2683  valueIndex != 0 */\n      dup1\n      iszero\n        /* \"EnumerableSet.sol\":2664:3964  if (valueIndex != 0) { // Equivalent to contains(set, value)\r... */\n      tag_482\n      jumpi\n        /* \"EnumerableSet.sol\":3103:3121  set._values.length */\n      dup4\n      sload\n      not(0x00)\n        /* \"EnumerableSet.sol\":3054:3068  valueIndex - 1 */\n      dup1\n      dup4\n      add\n      swap2\n        /* \"EnumerableSet.sol\":3103:3125  set._values.length - 1 */\n      swap1\n      dup2\n      add\n      swap1\n        /* \"EnumerableSet.sol\":3030:3051  uint256 toDeleteIndex */\n      0x00\n      swap1\n        /* \"EnumerableSet.sol\":3103:3106  set */\n      dup8\n      swap1\n        /* \"EnumerableSet.sol\":3103:3125  set._values.length - 1 */\n      dup4\n      swap1\n        /* \"EnumerableSet.sol\":3390:3412  set._values[lastIndex] */\n      dup2\n      lt\n      tag_483\n      jumpi\n      invalid\n    tag_483:\n      swap1\n      0x00\n      mstore\n      keccak256(0x00, 0x20)\n      add\n      sload\n        /* \"EnumerableSet.sol\":3370:3412  bytes32 lastvalue = set._values[lastIndex] */\n      swap1\n      pop\n        /* \"EnumerableSet.sol\":3536:3545  lastvalue */\n      dup1\n        /* \"EnumerableSet.sol\":3507:3510  set */\n      dup8\n        /* \"EnumerableSet.sol\":3507:3518  set._values */\n      0x00\n      add\n        /* \"EnumerableSet.sol\":3519:3532  toDeleteIndex */\n      dup5\n        /* \"EnumerableSet.sol\":3507:3533  set._values[toDeleteIndex] */\n      dup2\n      sload\n      dup2\n      lt\n      tag_485\n      jumpi\n      invalid\n    tag_485:\n      0x00\n      swap2\n      dup3\n      mstore\n      0x20\n      dup1\n      dup4\n      keccak256\n      swap1\n      swap2\n      add\n        /* \"EnumerableSet.sol\":3507:3545  set._values[toDeleteIndex] = lastvalue */\n      swap3\n      swap1\n      swap3\n      sstore\n        /* \"EnumerableSet.sol\":3613:3636  set._indexes[lastvalue] */\n      dup3\n      dup2\n      mstore\n        /* \"EnumerableSet.sol\":3655:3656  1 */\n      0x01\n        /* \"EnumerableSet.sol\":3613:3625  set._indexes */\n      dup10\n      dup2\n      add\n        /* \"EnumerableSet.sol\":3613:3636  set._indexes[lastvalue] */\n      swap1\n      swap3\n      mstore\n      0x40\n      swap1\n      keccak256\n        /* \"EnumerableSet.sol\":3639:3656  toDeleteIndex + 1 */\n      swap1\n      dup5\n      add\n        /* \"EnumerableSet.sol\":3613:3656  set._indexes[lastvalue] = toDeleteIndex + 1 */\n      swap1\n      sstore\n        /* \"EnumerableSet.sol\":3765:3782  set._values.pop() */\n      dup7\n      sload\n        /* \"EnumerableSet.sol\":3613:3616  set */\n      dup8\n      swap1\n        /* \"EnumerableSet.sol\":3765:3782  set._values.pop() */\n      dup1\n      tag_487\n      jumpi\n      invalid\n    tag_487:\n      0x01\n      swap1\n      sub\n      dup2\n      dup2\n      swap1\n      0x00\n      mstore\n      keccak256(0x00, 0x20)\n      add\n      0x00\n      swap1\n      sstore\n      swap1\n      sstore\n        /* \"EnumerableSet.sol\":3860:3863  set */\n      dup7\n        /* \"EnumerableSet.sol\":3860:3872  set._indexes */\n      0x01\n      add\n        /* \"EnumerableSet.sol\":3860:3879  set._indexes[value] */\n      0x00\n        /* \"EnumerableSet.sol\":3873:3878  value */\n      dup8\n        /* \"EnumerableSet.sol\":3860:3879  set._indexes[value] */\n      dup2\n      mstore\n      0x20\n      add\n      swap1\n      dup2\n      mstore\n      0x20\n      add\n      0x00\n      keccak256\n        /* \"EnumerableSet.sol\":3853:3879  delete set._indexes[value] */\n      0x00\n      swap1\n      sstore\n        /* \"EnumerableSet.sol\":3903:3907  true */\n      0x01\n        /* \"EnumerableSet.sol\":3896:3907  return true */\n      swap5\n      pop\n      pop\n      pop\n      pop\n      pop\n      jump(tag_147)\n        /* \"EnumerableSet.sol\":2664:3964  if (valueIndex != 0) { // Equivalent to contains(set, value)\r... */\n    tag_482:\n        /* \"EnumerableSet.sol\":3947:3952  false */\n      0x00\n        /* \"EnumerableSet.sol\":3940:3952  return false */\n      swap2\n      pop\n      pop\n      jump(tag_147)\n        /* \"EnumerableSet.sol\":4272:4381  function _length(Set storage set) private view returns (uint256) {\r... */\n    tag_433:\n        /* \"EnumerableSet.sol\":4355:4373  set._values.length */\n      sload\n      swap1\n        /* \"EnumerableSet.sol\":4272:4381  function _length(Set storage set) private view returns (uint256) {\r... */\n      jump\t// out\n        /* \"SafeMath.sol\":3977:4255  function div(uint256 a, uint256 b, string memory errorMessage) internal pure returns (uint256) {\r... */\n    tag_440:\n        /* \"SafeMath.sol\":4063:4070  uint256 */\n      0x00\n        /* \"SafeMath.sol\":4098:4110  errorMessage */\n      dup2\n        /* \"SafeMath.sol\":4091:4096  b > 0 */\n      dup4\n        /* \"SafeMath.sol\":4083:4111  require(b > 0, errorMessage) */\n      tag_492\n      jumpi\n      mload(0x40)\n      shl(0xe5, 0x461bcd)\n      dup2\n      mstore\n      0x20\n      0x04\n      dup3\n      add\n      dup2\n      dup2\n      mstore\n      dup4\n      mload\n      0x24\n      dup5\n      add\n      mstore\n      dup4\n      mload\n      swap1\n      swap3\n      dup4\n      swap3\n      0x44\n      swap1\n      swap2\n      add\n      swap2\n      swap1\n      dup6\n      add\n      swap1\n      dup1\n      dup4\n      dup4\n      0x00\n      dup4\n      iszero\n      tag_479\n      jumpi\n      dup2\n      dup2\n      add\n      mload\n      dup4\n      dup3\n      add\n      mstore\n      0x20\n      add\n      jump(tag_477)\n    tag_492:\n      pop\n        /* \"SafeMath.sol\":4122:4131  uint256 c */\n      0x00\n        /* \"SafeMath.sol\":4138:4139  b */\n      dup4\n        /* \"SafeMath.sol\":4134:4135  a */\n      dup6\n        /* \"SafeMath.sol\":4134:4139  a / b */\n      dup2\n      tag_497\n      jumpi\n      invalid\n    tag_497:\n      div\n      swap6\n        /* \"SafeMath.sol\":3977:4255  function div(uint256 a, uint256 b, string memory errorMessage) internal pure returns (uint256) {\r... */\n      swap5\n      pop\n      pop\n      pop\n      pop\n      pop\n      jump\t// out\n        /* \"EnumerableSet.sol\":4057:4186  function _contains(Set storage set, bytes32 value) private view returns (bool) {\r... */\n    tag_454:\n        /* \"EnumerableSet.sol\":4130:4134  bool */\n      0x00\n        /* \"EnumerableSet.sol\":4154:4173  set._indexes[value] */\n      swap1\n      dup2\n      mstore\n        /* \"EnumerableSet.sol\":4154:4166  set._indexes */\n      0x01\n      swap2\n      swap1\n      swap2\n      add\n        /* \"EnumerableSet.sol\":4154:4173  set._indexes[value] */\n      0x20\n      mstore\n      0x40\n      swap1\n      keccak256\n      sload\n        /* \"EnumerableSet.sol\":4154:4178  set._indexes[value] != 0 */\n      iszero\n      iszero\n      swap1\n        /* \"EnumerableSet.sol\":4057:4186  function _contains(Set storage set, bytes32 value) private view returns (bool) {\r... */\n      jump\t// out\n        /* \"EnumerableSet.sol\":1837:2251  function _add(Set storage set, bytes32 value) private returns (bool) {\r... */\n    tag_468:\n        /* \"EnumerableSet.sol\":1900:1904  bool */\n      0x00\n        /* \"EnumerableSet.sol\":1922:1943  _contains(set, value) */\n      tag_500\n        /* \"EnumerableSet.sol\":1932:1935  set */\n      dup4\n        /* \"EnumerableSet.sol\":1937:1942  value */\n      dup4\n        /* \"EnumerableSet.sol\":1922:1931  _contains */\n      tag_454\n        /* \"EnumerableSet.sol\":1922:1943  _contains(set, value) */\n      jump\t// in\n    tag_500:\n        /* \"EnumerableSet.sol\":1917:2244  if (!_contains(set, value)) {\r... */\n      tag_501\n      jumpi\n      pop\n        /* \"EnumerableSet.sol\":1960:1983  set._values.push(value) */\n      dup2\n      sload\n      0x01\n      dup2\n      dup2\n      add\n      dup5\n      sstore\n        /* \"EnumerableSet.sol\":1960:1971  set._values */\n      0x00\n        /* \"EnumerableSet.sol\":1960:1983  set._values.push(value) */\n      dup5\n      dup2\n      mstore\n      0x20\n      dup1\n      dup3\n      keccak256\n      swap1\n      swap4\n      add\n      dup5\n      swap1\n      sstore\n        /* \"EnumerableSet.sol\":2143:2161  set._values.length */\n      dup5\n      sload\n        /* \"EnumerableSet.sol\":2121:2140  set._indexes[value] */\n      dup5\n      dup3\n      mstore\n        /* \"EnumerableSet.sol\":2121:2133  set._indexes */\n      dup3\n      dup7\n      add\n        /* \"EnumerableSet.sol\":2121:2140  set._indexes[value] */\n      swap1\n      swap4\n      mstore\n      0x40\n      swap1\n      keccak256\n        /* \"EnumerableSet.sol\":2121:2161  set._indexes[value] = set._values.length */\n      swap2\n      swap1\n      swap2\n      sstore\n        /* \"EnumerableSet.sol\":2176:2187  return true */\n      jump(tag_147)\n        /* \"EnumerableSet.sol\":1917:2244  if (!_contains(set, value)) {\r... */\n    tag_501:\n      pop\n        /* \"EnumerableSet.sol\":2227:2232  false */\n      0x00\n        /* \"EnumerableSet.sol\":2220:2232  return false */\n      jump(tag_147)\n    tag_198:\n      mload(0x40)\n      dup1\n      0xc0\n      add\n      0x40\n      mstore\n      dup1\n      0x00\n      dup2\n      mstore\n      0x20\n      add\n      0x00\n      dup2\n      mstore\n      0x20\n      add\n      0x00\n      dup2\n      mstore\n      0x20\n      add\n      0x00\n      dup2\n      mstore\n      0x20\n      add\n      0x00\n      dup2\n      mstore\n      0x20\n      add\n      and(sub(shl(0xa0, 0x01), 0x01), 0x00)\n      dup2\n      mstore\n      pop\n      swap1\n      jump\t// out\n    stop\n    data_045d6834e6193a687012a3ad777f612279e549b6945364d9d2324f48610d3cbb 456e756d657261626c655365743a20696e646578206f7574206f6620626f756e6473\n    data_0d74825aecb0211bbe1f02ccfb998d9e49771bedb2c6414e20fd8978a2e0f54c 5265656e7472616e637947756172643a207265656e7472616e742063616c6c00\n    data_245f15ff17f551913a7a18385165551503906a406f905ac1c2437281a7cd0cfe 4f776e61626c653a206e6577206f776e657220697320746865207a65726f2061646472657373\n    data_9113bb53c2876a3805b2c9242029423fc540a728243ce887ab24c82cf119fba3 536166654d6174683a206d756c7469706c69636174696f6e206f766572666c6f77\n    data_9924ebdf1add33d25d4ef888e16131f0a5687b0580a36c21b5c301a6c462effe 4f776e61626c653a2063616c6c6572206973206e6f7420746865206f776e6572\n    data_eb2904bf3c0c9ae693b53eb0188a703c388998a9c405b7965ca678cef9a51d18 5472616e7366657248656c7065723a205452414e534645525f46524f4d5f4641494c4544\n\n    auxdata: 0xa2646970667358221220fc389b771b27f20ed2d9f86db07d8abbad5aeb5c07c6e23fcbc1ce47bce14e0764736f6c634300060c0033\n}\n",
				"bytecode": {
					"linkReferences": {},
					"object": "60806040523480156200001157600080fd5b506040516200321a3803806200321a833981810160405260208110156200003757600080fd5b505160006200004562000100565b600080546001600160a01b0319166001600160a01b0383169081178255604051929350917f8be0079c531659141344cd1fd0a4f28419497f9722a3daafe3b4186f6b6457e0908290a3506001805560128054336001600160a01b03199182161790915560fa600c55670de0b6b3a764000060075568056bc75e2d6310000060095560c8600a908155600b55678ac7230489e80000600e556064600f55600280549091166001600160a01b039290921691909117905562000104565b3390565b61310680620001146000396000f3fe6080604052600436106101c25760003560e01c80638da5cb5b116100f7578063b9863a4411610095578063d4ff493f11610064578063d4ff493f14610773578063ee424278146107b6578063f02c2643146107fb578063f2fde38b14610834576101c2565b8063b9863a441461063d578063bef497fd14610684578063ccebfa3f146106cb578063d477f05f14610740576101c2565b806391ff1eb1116100d157806391ff1eb11461054f578063a39698151461058a578063a69d9c4f146105bd578063a9b07cea146105f8576101c2565b80638da5cb5b1461048c578063903df806146104a157806390e1a003146104da576101c2565b8063715018a6116101645780638931a4be1161013e5780638931a4be146103d05780638af416f6146104035780638bdb2afa1461044d5780638c301df814610462576101c2565b8063715018a61461035e578063783451e81461037357806386f6c3c114610388576101c2565b80634532d776116101a05780634532d776146102875780634bb18e3f146102cc578063582d5adc146102e157806360491d2414610319576101c2565b806314dd79a3146101c75780631f2a1d2f1461020d57806323cf311814610252575b600080fd5b3480156101d357600080fd5b506101f1600480360360208110156101ea57600080fd5b5035610867565b604080516001600160a01b039092168252519081900360200190f35b34801561021957600080fd5b506102406004803603602081101561023057600080fd5b50356001600160a01b031661087a565b60408051918252519081900360200190f35b34801561025e57600080fd5b506102856004803603602081101561027557600080fd5b50356001600160a01b0316610895565b005b34801561029357600080fd5b50610285600480360360808110156102aa57600080fd5b506001600160a01b03813516906020810135906040810135906060013561090f565b3480156102d857600080fd5b50610240610bd3565b610285600480360360808110156102f757600080fd5b506001600160a01b038135169060208101359060408101359060600135610be4565b34801561032557600080fd5b506102856004803603608081101561033c57600080fd5b506001600160a01b038135169060208101359060408101359060600135610eba565b34801561036a57600080fd5b506102856110f3565b34801561037f57600080fd5b50610240611195565b34801561039457600080fd5b50610285600480360360c08110156103ab57600080fd5b5080359060208101359060408101359060608101359060808101359060a001356111a1565b3480156103dc57600080fd5b50610285600480360360208110156103f357600080fd5b50356001600160a01b0316611216565b610285600480360360c081101561041957600080fd5b506001600160a01b0381358116916020810135916040820135916060810135821691608082013515159160a0013516611290565b34801561045957600080fd5b506101f1611b4d565b34801561046e57600080fd5b506101f16004803603602081101561048557600080fd5b5035611b5c565b34801561049857600080fd5b506101f1611b69565b3480156104ad57600080fd5b506101f1600480360360408110156104c457600080fd5b506001600160a01b038135169060200135611b78565b3480156104e657600080fd5b506104ef611ba2565b604051808a8152602001896001600160a01b03168152602001888152602001878152602001868152602001858152602001846001600160a01b03168152602001838152602001828152602001995050505050505050505060405180910390f35b34801561055b57600080fd5b506102856004803603604081101561057257600080fd5b506001600160a01b0381351690602001351515611bd0565b34801561059657600080fd5b50610240600480360360208110156105ad57600080fd5b50356001600160a01b0316611c50565b3480156105c957600080fd5b50610240600480360360408110156105e057600080fd5b506001600160a01b0381358116916020013516611c78565b34801561060457600080fd5b506102856004803603608081101561061b57600080fd5b506001600160a01b038135169060208101359060408101359060600135611ca7565b34801561064957600080fd5b506106706004803603602081101561066057600080fd5b50356001600160a01b0316611ee5565b604080519115158252519081900360200190f35b34801561069057600080fd5b50610285600480360360808110156106a757600080fd5b506001600160a01b0381358116916020810135916040820135916060013516611ef2565b3480156106d757600080fd5b50610704600480360360408110156106ee57600080fd5b506001600160a01b038135169060200135612125565b60408051968752602087019590955285850193909352606085019190915260808401526001600160a01b031660a0830152519081900360c00190f35b34801561074c57600080fd5b506102856004803603602081101561076357600080fd5b50356001600160a01b031661217f565b34801561077f57600080fd5b506107046004803603606081101561079657600080fd5b506001600160a01b038135811691602081013590911690604001356121f9565b3480156107c257600080fd5b50610285600480360360808110156107d957600080fd5b506001600160a01b0381351690602081013590604081013590606001356122eb565b34801561080757600080fd5b506102856004803603604081101561081e57600080fd5b506001600160a01b038135169060200135612607565b34801561084057600080fd5b506102856004803603602081101561085757600080fd5b50356001600160a01b0316612685565b600061087460048361277d565b92915050565b6001600160a01b031660009081526006602052604090205490565b61089d612789565b6000546001600160a01b039081169116146108ed576040805162461bcd60e51b8152602060048201819052602482015260008051602061308d833981519152604482015290519081900360640190fd5b601380546001600160a01b0319166001600160a01b0392909216919091179055565b60026001541415610955576040805162461bcd60e51b815260206004820152601f6024820152600080516020613026833981519152604482015290519081900360640190fd5b60026001558061099d576040805162461bcd60e51b815260206004820152600e60248201526d16915493c815d2551211149055d360921b604482015290519081900360640190fd5b3360009081526003602090815260408083206001600160a01b038816845260020190915281208054859081106109cf57fe5b90600052602060002001549050600060066000876001600160a01b03166001600160a01b031681526020019081526020016000208281548110610a0e57fe5b906000526020600020906006020190508382148015610a39575060058101546001600160a01b031633145b610a7a576040805162461bcd60e51b815260206004820152600d60248201526c0989e8696409a92a69a82a8869609b1b604482015290519081900360640190fd5b42816003015410610abc576040805162461bcd60e51b81526020600482015260076024820152661393d50816515560ca1b604482015290519081900360640190fd5b6001810154610acb908461278d565b60018201819055610b78573360009081526003602090815260408083206001600160a01b038a1684526002019091529020805481906000198101908110610b0e57fe5b9060005260206000200154818781548110610b2557fe5b906000526020600020018190555080805480610b3d57fe5b6000828152602081208201600019908101919091550190558054610b7657336000908152600360205260409020610b7490886127cf565b505b505b610b838633856127e4565b604080516001600160a01b03881681526020810185905281517fccad973dcd043c7d680389db4378bd6b9775db7124092e9e0422c9e46d7985dc929181900390910190a150506001805550505050565b6000610bdf601061294e565b905090565b60026001541415610c2a576040805162461bcd60e51b815260206004820152601f6024820152600080516020613026833981519152604482015290519081900360640190fd5b600260015580610c6f576040805162461bcd60e51b815260206004820152600b60248201526a16915493c8105353d5539560aa1b604482015290519081900360640190fd5b3360009081526003602090815260408083206001600160a01b03881684526002019091528120805485908110610ca157fe5b90600052602060002001549050600060066000876001600160a01b03166001600160a01b031681526020019081526020016000208281548110610ce057fe5b906000526020600020906006020190508382148015610d0b575060058101546001600160a01b031633145b610d4c576040805162461bcd60e51b815260206004820152600d60248201526c0989e8696409a92a69a82a8869609b1b604482015290519081900360640190fd5b6007543414610d90576040805162461bcd60e51b815260206004820152600b60248201526a119151481393d50813515560aa1b604482015290519081900360640190fd5b6012546007546040516001600160a01b039092169181156108fc0291906000818181858888f19350505050158015610dcc573d6000803e3d6000fd5b506001810154610ddc908461278d565b6001820155610de9612fc4565b8154815260208082018581526040808401968752600394850154606085019081526001600160a01b039a8b1660008181526006808752848220805460808a018181523360a08c01818152858c52600180850186559487528b87209c5193909502909b019182559751818301559b516002808e019190915594518c8b0155865160048d015590516005909b0180546001600160a01b0319169b909e169a909a17909c55948b52948352808a20938a52929093018152908720915182548086018455928852962001949094558055505050565b60026001541415610f00576040805162461bcd60e51b815260206004820152601f6024820152600080516020613026833981519152604482015290519081900360640190fd5b60026001556402540be4008110610f52576040805162461bcd60e51b81526020600482015260116024820152701512535154d51053540812539590531251607a1b604482015290519081900360640190fd5b3360009081526003602090815260408083206001600160a01b03881684526002019091528120805485908110610f8457fe5b90600052602060002001549050600060066000876001600160a01b03166001600160a01b031681526020019081526020016000208281548110610fc357fe5b906000526020600020906006020190508382148015610fee575060058101546001600160a01b031633145b61102f576040805162461bcd60e51b815260206004820152600d60248201526c0989e8696409a92a69a82a8869609b1b604482015290519081900360640190fd5b82816003015410611077576040805162461bcd60e51b815260206004820152600d60248201526c554e4c4f434b204245464f524560981b604482015290519081900360640190fd5b60006110a16103e861109b600760040154856001015461295990919063ffffffff16565b906129b2565b905060006110bc82846001015461278d90919063ffffffff16565b60018401819055600384018690556012549091506110e59089906001600160a01b0316846127e4565b505060018055505050505050565b6110fb612789565b6000546001600160a01b0390811691161461114b576040805162461bcd60e51b8152602060048201819052602482015260008051602061308d833981519152604482015290519081900360640190fd5b600080546040516001600160a01b03909116907f8be0079c531659141344cd1fd0a4f28419497f9722a3daafe3b4186f6b6457e0908390a3600080546001600160a01b0319169055565b6000610bdf600461294e565b6111a9612789565b6000546001600160a01b039081169116146111f9576040805162461bcd60e51b8152602060048201819052602482015260008051602061308d833981519152604482015290519081900360640190fd5b600c95909555600f93909355600791909155600955600a55600b55565b61121e612789565b6000546001600160a01b0390811691161461126e576040805162461bcd60e51b8152602060048201819052602482015260008051602061308d833981519152604482015290519081900360640190fd5b600880546001600160a01b0319166001600160a01b0392909216919091179055565b600260015414156112d6576040805162461bcd60e51b815260206004820152601f6024820152600080516020613026833981519152604482015290519081900360640190fd5b60026001556402540be4008410611328576040805162461bcd60e51b81526020600482015260116024820152701512535154d51053540812539590531251607a1b604482015290519081900360640190fd5b6000851161136c576040805162461bcd60e51b815260206004820152600c60248201526b125394d551919250d251539560a21b604482015290519081900360640190fd5b60025460408051630dfe168160e01b8152905188926000926001600160a01b039182169263e6a4390592861691630dfe1681916004808301926020929190829003018186803b1580156113be57600080fd5b505afa1580156113d2573d6000803e3d6000fd5b505050506040513d60208110156113e857600080fd5b50516040805163d21220a760e01b815290516001600160a01b0387169163d21220a7916004808301926020929190829003018186803b15801561142a57600080fd5b505afa15801561143e573d6000803e3d6000fd5b505050506040513d602081101561145457600080fd5b5051604080516001600160e01b031960e086901b1681526001600160a01b039384166004820152929091166024830152516044808301926020929190829003018186803b1580156114a457600080fd5b505afa1580156114b8573d6000803e3d6000fd5b505050506040513d60208110156114ce57600080fd5b505190506001600160a01b038082169089161461151e576040805162461bcd60e51b81526020600482015260096024820152682727aa102aa724ab1960b91b604482015290519081900360640190fd5b61152a8833308a6129f4565b6001600160a01b0385161580159061154c5750600d546001600160a01b031615155b1561161557600e54600d54604080516370a0823160e01b81526001600160a01b038981166004830152915191909216916370a08231916024808301926020929190829003018186803b1580156115a157600080fd5b505afa1580156115b5573d6000803e3d6000fd5b505050506040513d60208110156115cb57600080fd5b50511015611615576040805162461bcd60e51b8152602060048201526012602482015271494e41444551554154452042414c414e434560701b604482015290519081900360640190fd5b611620601033612b51565b61188e578315611760576007546001600160a01b0386161561165757600f54611654906103e89061109b9084908303612959565b90505b803414611699576040805162461bcd60e51b815260206004820152600b60248201526a119151481393d50813515560aa1b604482015290519081900360640190fd5b8080158015906116b157506001600160a01b03871615155b1561171e5760006116d66103e861109b6007600501548561295990919063ffffffff16565b6040519091506001600160a01b0389169082156108fc029083906000818181858888f1935050505015801561170f573d6000803e3d6000fd5b5061171a828261278d565b9150505b6012546040516001600160a01b039091169082156108fc029083906000818181858888f19350505050158015611758573d6000803e3d6000fd5b505050611889565b6009546001600160a01b0386161561178d57600f5461178a906103e89061109b9084908303612959565b90505b6008546117a5906001600160a01b03163330846129f4565b600c54158015906117be57506001600160a01b03861615155b156118225760006117e36103e861109b6007600501548561295990919063ffffffff16565b6008549091506117fd906001600160a01b03168883612b66565b600854611814906001600160a01b031688836127e4565b61181e828261278d565b9150505b60085460408051630852cd8d60e31b81526004810184905290516001600160a01b03909216916342966c689160248082019260009290919082900301818387803b15801561186f57600080fd5b505af1158015611883573d6000803e3d6000fd5b50505050505b6118c2565b34156118c25760405133903480156108fc02916000818181858888f193505050501580156118c0573d6000803e3d6000fd5b505b60006118e26103e861109b6007600401548b61295990919063ffffffff16565b9050841580156118fa57506118f8601033612b51565b155b1561191a57600a54611917906103e89061109b9084908303612959565b90505b601254611932908a906001600160a01b0316836127e4565b600061193e898361278d565b9050611948612fc4565b42816000018181525050818160200181815250508181604001818152505088816060018181525050600660008c6001600160a01b03166001600160a01b0316815260200190815260200160002080549050816080018181525050858160a001906001600160a01b031690816001600160a01b031681525050600660008c6001600160a01b03166001600160a01b03168152602001908152602001600020819080600181540180825580915050600190039060005260206000209060060201600090919091909150600082015181600001556020820151816001015560408201518160020155606082015181600301556080820151816004015560a08201518160050160006101000a8154816001600160a01b0302191690836001600160a01b031602179055505050611a848b6004612cc990919063ffffffff16565b506001600160a01b0386166000908152600360205260409020611aa7818d612cc9565b506001600160a01b038c1660008181526002830160209081526040808320608080880151825460018101845583875295859020909501949094558683015187516060808a0151855198895233968901969096528785019290925290860152928401919091525190917f830357565da6ecfc26d8d9f69df488ed6f70361af9a07e570544aeb5c5e765e5919081900360a00190a15050600180555050505050505050505050565b6002546001600160a01b031681565b600061087460108361277d565b6000546001600160a01b031690565b6001600160a01b0382166000908152600360205260408120611b9a818461277d565b949350505050565b600754600854600954600a54600b54600c54600d54600e54600f546001600160a01b03978816979092169189565b611bd8612789565b6000546001600160a01b03908116911614611c28576040805162461bcd60e51b8152602060048201819052602482015260008051602061308d833981519152604482015290519081900360640190fd5b8015611c3f57611c39601083612cc9565b50611c4c565b611c4a6010836127cf565b505b5050565b6001600160a01b0381166000908152600360205260408120611c718161294e565b9392505050565b6001600160a01b0391821660009081526003602090815260408083209390941682526002909201909152205490565b60026001541415611ced576040805162461bcd60e51b815260206004820152601f6024820152600080516020613026833981519152604482015290519081900360640190fd5b600260015580611d32576040805162461bcd60e51b815260206004820152600b60248201526a16915493c8105353d5539560aa1b604482015290519081900360640190fd5b3360009081526003602090815260408083206001600160a01b03881684526002019091528120805485908110611d6457fe5b90600052602060002001549050600060066000876001600160a01b03166001600160a01b031681526020019081526020016000208281548110611da357fe5b906000526020600020906006020190508382148015611dce575060058101546001600160a01b031633145b611e0f576040805162461bcd60e51b815260206004820152600d60248201526c0989e8696409a92a69a82a8869609b1b604482015290519081900360640190fd5b611e1b863330866129f4565b6000611e3b6103e861109b6007600401548761295990919063ffffffff16565b601254909150611e569088906001600160a01b0316836127e4565b6000611e62858361278d565b6001840154909150611e749082612cde565b600184015582546003840154604080516001600160a01b038c16815233602082015280820185905260608101939093526080830191909152517f830357565da6ecfc26d8d9f69df488ed6f70361af9a07e570544aeb5c5e765e59181900360a00190a1505060018055505050505050565b6000610874601083612b51565b336001600160a01b0382161415611f38576040805162461bcd60e51b815260206004820152600560248201526427aba722a960d91b604482015290519081900360640190fd5b3360009081526003602090815260408083206001600160a01b03881684526002019091528120805485908110611f6a57fe5b90600052602060002001549050600060066000876001600160a01b03166001600160a01b031681526020019081526020016000208281548110611fa957fe5b906000526020600020906006020190508382148015611fd4575060058101546001600160a01b031633145b612015576040805162461bcd60e51b815260206004820152600d60248201526c0989e8696409a92a69a82a8869609b1b604482015290519081900360640190fd5b6001600160a01b03831660009081526003602052604090206120378188612cc9565b506001600160a01b038716600081815260028084016020908152604080842060048801548154600181018355828752848720015533855260038352818520958552949092019052902080548190600019810190811061209257fe5b90600052602060002001548189815481106120a957fe5b9060005260206000200181905550808054806120c157fe5b60008281526020812082016000199081019190915501905580546120fa573360009081526003602052604090206120f8908a6127cf565b505b50505060050180546001600160a01b0319166001600160a01b03939093169290921790915550505050565b6006602052816000526040600020818154811061213e57fe5b60009182526020909120600690910201805460018201546002830154600384015460048501546005909501549396509194509290916001600160a01b031686565b612187612789565b6000546001600160a01b039081169116146121d7576040805162461bcd60e51b8152602060048201819052602482015260008051602061308d833981519152604482015290519081900360640190fd5b601280546001600160a01b0319166001600160a01b0392909216919091179055565b6000806000806000806000600360008b6001600160a01b03166001600160a01b0316815260200190815260200160002060020160008a6001600160a01b03166001600160a01b03168152602001908152602001600020888154811061225a57fe5b906000526020600020015490506000600660008b6001600160a01b03166001600160a01b03168152602001908152602001600020828154811061229957fe5b6000918252602090912060069091020180546001820154600283015460038401546004850154600590950154939c50919a50985096509094506001600160a01b03169250505093975093979195509350565b60026001541415612331576040805162461bcd60e51b815260206004820152601f6024820152600080516020613026833981519152604482015290519081900360640190fd5b60026001556013546001600160a01b031661237d576040805162461bcd60e51b81526020600482015260076024820152661393d50814d15560ca1b604482015290519081900360640190fd5b600081116123c3576040805162461bcd60e51b815260206004820152600e60248201526d2d22a9279026a4a3a920aa24a7a760911b604482015290519081900360640190fd5b3360009081526003602090815260408083206001600160a01b038816845260020190915281208054859081106123f557fe5b90600052602060002001549050600060066000876001600160a01b03166001600160a01b03168152602001908152602001600020828154811061243457fe5b90600052602060002090600602019050838214801561245f575060058101546001600160a01b031633145b6124a0576040805162461bcd60e51b815260206004820152600d60248201526c0989e8696409a92a69a82a8869609b1b604482015290519081900360640190fd5b60018101546124af908461278d565b6001820181905561255c573360009081526003602090815260408083206001600160a01b038a16845260020190915290208054819060001981019081106124f257fe5b906000526020600020015481878154811061250957fe5b90600052602060002001819055508080548061252157fe5b600082815260208120820160001990810191909155019055805461255a5733600090815260036020526040902061255890886127cf565b505b505b6013546125749087906001600160a01b031685612b66565b60135460038201546040805163db5ecd3f60e01b81526001600160a01b038a811660048301526024820188905260448201939093523360648201529051919092169163db5ecd3f9160848083019260209291908290030181600087803b1580156125dd57600080fd5b505af11580156125f1573d6000803e3d6000fd5b505050506040513d60208110156110e557600080fd5b61260f612789565b6000546001600160a01b0390811691161461265f576040805162461bcd60e51b8152602060048201819052602482015260008051602061308d833981519152604482015290519081900360640190fd5b600d80546001600160a01b0319166001600160a01b039390931692909217909155600e55565b61268d612789565b6000546001600160a01b039081169116146126dd576040805162461bcd60e51b8152602060048201819052602482015260008051602061308d833981519152604482015290519081900360640190fd5b6001600160a01b0381166127225760405162461bcd60e51b81526004018080602001828103825260268152602001806130466026913960400191505060405180910390fd5b600080546040516001600160a01b03808516939216917f8be0079c531659141344cd1fd0a4f28419497f9722a3daafe3b4186f6b6457e091a3600080546001600160a01b0319166001600160a01b0392909216919091179055565b6000611c718383612d38565b3390565b6000611c7183836040518060400160405280601e81526020017f536166654d6174683a207375627472616374696f6e206f766572666c6f770000815250612d9c565b6000611c71836001600160a01b038416612e33565b604080516001600160a01b038481166024830152604480830185905283518084039091018152606490920183526020820180516001600160e01b031663a9059cbb60e01b178152925182516000946060949389169392918291908083835b602083106128615780518252601f199092019160209182019101612842565b6001836020036101000a0380198251168184511680821785525050505050509050019150506000604051808303816000865af19150503d80600081146128c3576040519150601f19603f3d011682016040523d82523d6000602084013e6128c8565b606091505b50915091508180156128f65750805115806128f657508080602001905160208110156128f357600080fd5b50515b612947576040805162461bcd60e51b815260206004820152601f60248201527f5472616e7366657248656c7065723a205452414e534645525f4641494c454400604482015290519081900360640190fd5b5050505050565b600061087482612ef9565b60008261296857506000610874565b8282028284828161297557fe5b0414611c715760405162461bcd60e51b815260040180806020018281038252602181526020018061306c6021913960400191505060405180910390fd5b6000611c7183836040518060400160405280601a81526020017f536166654d6174683a206469766973696f6e206279207a65726f000000000000815250612efd565b604080516001600160a01b0385811660248301528481166044830152606480830185905283518084039091018152608490920183526020820180516001600160e01b03166323b872dd60e01b17815292518251600094606094938a169392918291908083835b60208310612a795780518252601f199092019160209182019101612a5a565b6001836020036101000a0380198251168184511680821785525050505050509050019150506000604051808303816000865af19150503d8060008114612adb576040519150601f19603f3d011682016040523d82523d6000602084013e612ae0565b606091505b5091509150818015612b0e575080511580612b0e5750808060200190516020811015612b0b57600080fd5b50515b612b495760405162461bcd60e51b81526004018080602001828103825260248152602001806130ad6024913960400191505060405180910390fd5b505050505050565b6000611c71836001600160a01b038416612f62565b604080516001600160a01b038481166024830152604480830185905283518084039091018152606490920183526020820180516001600160e01b031663095ea7b360e01b178152925182516000946060949389169392918291908083835b60208310612be35780518252601f199092019160209182019101612bc4565b6001836020036101000a0380198251168184511680821785525050505050509050019150506000604051808303816000865af19150503d8060008114612c45576040519150601f19603f3d011682016040523d82523d6000602084013e612c4a565b606091505b5091509150818015612c78575080511580612c785750808060200190516020811015612c7557600080fd5b50515b612947576040805162461bcd60e51b815260206004820152601e60248201527f5472616e7366657248656c7065723a20415050524f56455f4641494c45440000604482015290519081900360640190fd5b6000611c71836001600160a01b038416612f7a565b600082820183811015611c71576040805162461bcd60e51b815260206004820152601b60248201527f536166654d6174683a206164646974696f6e206f766572666c6f770000000000604482015290519081900360640190fd5b81546000908210612d7a5760405162461bcd60e51b81526004018080602001828103825260228152602001806130046022913960400191505060405180910390fd5b826000018281548110612d8957fe5b9060005260206000200154905092915050565b60008184841115612e2b5760405162461bcd60e51b81526004018080602001828103825283818151815260200191508051906020019080838360005b83811015612df0578181015183820152602001612dd8565b50505050905090810190601f168015612e1d5780820380516001836020036101000a031916815260200191505b509250505060405180910390fd5b505050900390565b60008181526001830160205260408120548015612eef5783546000198083019190810190600090879083908110612e6657fe5b9060005260206000200154905080876000018481548110612e8357fe5b600091825260208083209091019290925582815260018981019092526040902090840190558654879080612eb357fe5b60019003818190600052602060002001600090559055866001016000878152602001908152602001600020600090556001945050505050610874565b6000915050610874565b5490565b60008183612f4c5760405162461bcd60e51b8152602060048201818152835160248401528351909283926044909101919085019080838360008315612df0578181015183820152602001612dd8565b506000838581612f5857fe5b0495945050505050565b60009081526001919091016020526040902054151590565b6000612f868383612f62565b612fbc57508154600181810184556000848152602080822090930184905584548482528286019093526040902091909155610874565b506000610874565b6040518060c00160405280600081526020016000815260200160008152602001600081526020016000815260200160006001600160a01b03168152509056fe456e756d657261626c655365743a20696e646578206f7574206f6620626f756e64735265656e7472616e637947756172643a207265656e7472616e742063616c6c004f776e61626c653a206e6577206f776e657220697320746865207a65726f2061646472657373536166654d6174683a206d756c7469706c69636174696f6e206f766572666c6f774f776e61626c653a2063616c6c6572206973206e6f7420746865206f776e65725472616e7366657248656c7065723a205452414e534645525f46524f4d5f4641494c4544a2646970667358221220fc389b771b27f20ed2d9f86db07d8abbad5aeb5c07c6e23fcbc1ce47bce14e0764736f6c634300060c0033",
					"opcodes": "PUSH1 0x80 PUSH1 0x40 MSTORE CALLVALUE DUP1 ISZERO PUSH3 0x11 JUMPI PUSH1 0x0 DUP1 REVERT JUMPDEST POP PUSH1 0x40 MLOAD PUSH3 0x321A CODESIZE SUB DUP1 PUSH3 0x321A DUP4 CODECOPY DUP2 DUP2 ADD PUSH1 0x40 MSTORE PUSH1 0x20 DUP2 LT ISZERO PUSH3 0x37 JUMPI PUSH1 0x0 DUP1 REVERT JUMPDEST POP MLOAD PUSH1 0x0 PUSH3 0x45 PUSH3 0x100 JUMP JUMPDEST PUSH1 0x0 DUP1 SLOAD PUSH1 0x1 PUSH1 0x1 PUSH1 0xA0 SHL SUB NOT AND PUSH1 0x1 PUSH1 0x1 PUSH1 0xA0 SHL SUB DUP4 AND SWAP1 DUP2 OR DUP3 SSTORE PUSH1 0x40 MLOAD SWAP3 SWAP4 POP SWAP2 PUSH32 0x8BE0079C531659141344CD1FD0A4F28419497F9722A3DAAFE3B4186F6B6457E0 SWAP1 DUP3 SWAP1 LOG3 POP PUSH1 0x1 DUP1 SSTORE PUSH1 0x12 DUP1 SLOAD CALLER PUSH1 0x1 PUSH1 0x1 PUSH1 0xA0 SHL SUB NOT SWAP2 DUP3 AND OR SWAP1 SWAP2 SSTORE PUSH1 0xFA PUSH1 0xC SSTORE PUSH8 0xDE0B6B3A7640000 PUSH1 0x7 SSTORE PUSH9 0x56BC75E2D63100000 PUSH1 0x9 SSTORE PUSH1 0xC8 PUSH1 0xA SWAP1 DUP2 SSTORE PUSH1 0xB SSTORE PUSH8 0x8AC7230489E80000 PUSH1 0xE SSTORE PUSH1 0x64 PUSH1 0xF SSTORE PUSH1 0x2 DUP1 SLOAD SWAP1 SWAP2 AND PUSH1 0x1 PUSH1 0x1 PUSH1 0xA0 SHL SUB SWAP3 SWAP1 SWAP3 AND SWAP2 SWAP1 SWAP2 OR SWAP1 SSTORE PUSH3 0x104 JUMP JUMPDEST CALLER SWAP1 JUMP JUMPDEST PUSH2 0x3106 DUP1 PUSH3 0x114 PUSH1 0x0 CODECOPY PUSH1 0x0 RETURN INVALID PUSH1 0x80 PUSH1 0x40 MSTORE PUSH1 0x4 CALLDATASIZE LT PUSH2 0x1C2 JUMPI PUSH1 0x0 CALLDATALOAD PUSH1 0xE0 SHR DUP1 PUSH4 0x8DA5CB5B GT PUSH2 0xF7 JUMPI DUP1 PUSH4 0xB9863A44 GT PUSH2 0x95 JUMPI DUP1 PUSH4 0xD4FF493F GT PUSH2 0x64 JUMPI DUP1 PUSH4 0xD4FF493F EQ PUSH2 0x773 JUMPI DUP1 PUSH4 0xEE424278 EQ PUSH2 0x7B6 JUMPI DUP1 PUSH4 0xF02C2643 EQ PUSH2 0x7FB JUMPI DUP1 PUSH4 0xF2FDE38B EQ PUSH2 0x834 JUMPI PUSH2 0x1C2 JUMP JUMPDEST DUP1 PUSH4 0xB9863A44 EQ PUSH2 0x63D JUMPI DUP1 PUSH4 0xBEF497FD EQ PUSH2 0x684 JUMPI DUP1 PUSH4 0xCCEBFA3F EQ PUSH2 0x6CB JUMPI DUP1 PUSH4 0xD477F05F EQ PUSH2 0x740 JUMPI PUSH2 0x1C2 JUMP JUMPDEST DUP1 PUSH4 0x91FF1EB1 GT PUSH2 0xD1 JUMPI DUP1 PUSH4 0x91FF1EB1 EQ PUSH2 0x54F JUMPI DUP1 PUSH4 0xA3969815 EQ PUSH2 0x58A JUMPI DUP1 PUSH4 0xA69D9C4F EQ PUSH2 0x5BD JUMPI DUP1 PUSH4 0xA9B07CEA EQ PUSH2 0x5F8 JUMPI PUSH2 0x1C2 JUMP JUMPDEST DUP1 PUSH4 0x8DA5CB5B EQ PUSH2 0x48C JUMPI DUP1 PUSH4 0x903DF806 EQ PUSH2 0x4A1 JUMPI DUP1 PUSH4 0x90E1A003 EQ PUSH2 0x4DA JUMPI PUSH2 0x1C2 JUMP JUMPDEST DUP1 PUSH4 0x715018A6 GT PUSH2 0x164 JUMPI DUP1 PUSH4 0x8931A4BE GT PUSH2 0x13E JUMPI DUP1 PUSH4 0x8931A4BE EQ PUSH2 0x3D0 JUMPI DUP1 PUSH4 0x8AF416F6 EQ PUSH2 0x403 JUMPI DUP1 PUSH4 0x8BDB2AFA EQ PUSH2 0x44D JUMPI DUP1 PUSH4 0x8C301DF8 EQ PUSH2 0x462 JUMPI PUSH2 0x1C2 JUMP JUMPDEST DUP1 PUSH4 0x715018A6 EQ PUSH2 0x35E JUMPI DUP1 PUSH4 0x783451E8 EQ PUSH2 0x373 JUMPI DUP1 PUSH4 0x86F6C3C1 EQ PUSH2 0x388 JUMPI PUSH2 0x1C2 JUMP JUMPDEST DUP1 PUSH4 0x4532D776 GT PUSH2 0x1A0 JUMPI DUP1 PUSH4 0x4532D776 EQ PUSH2 0x287 JUMPI DUP1 PUSH4 0x4BB18E3F EQ PUSH2 0x2CC JUMPI DUP1 PUSH4 0x582D5ADC EQ PUSH2 0x2E1 JUMPI DUP1 PUSH4 0x60491D24 EQ PUSH2 0x319 JUMPI PUSH2 0x1C2 JUMP JUMPDEST DUP1 PUSH4 0x14DD79A3 EQ PUSH2 0x1C7 JUMPI DUP1 PUSH4 0x1F2A1D2F EQ PUSH2 0x20D JUMPI DUP1 PUSH4 0x23CF3118 EQ PUSH2 0x252 JUMPI JUMPDEST PUSH1 0x0 DUP1 REVERT JUMPDEST CALLVALUE DUP1 ISZERO PUSH2 0x1D3 JUMPI PUSH1 0x0 DUP1 REVERT JUMPDEST POP PUSH2 0x1F1 PUSH1 0x4 DUP1 CALLDATASIZE SUB PUSH1 0x20 DUP2 LT ISZERO PUSH2 0x1EA JUMPI PUSH1 0x0 DUP1 REVERT JUMPDEST POP CALLDATALOAD PUSH2 0x867 JUMP JUMPDEST PUSH1 0x40 DUP1 MLOAD PUSH1 0x1 PUSH1 0x1 PUSH1 0xA0 SHL SUB SWAP1 SWAP3 AND DUP3 MSTORE MLOAD SWAP1 DUP2 SWAP1 SUB PUSH1 0x20 ADD SWAP1 RETURN JUMPDEST CALLVALUE DUP1 ISZERO PUSH2 0x219 JUMPI PUSH1 0x0 DUP1 REVERT JUMPDEST POP PUSH2 0x240 PUSH1 0x4 DUP1 CALLDATASIZE SUB PUSH1 0x20 DUP2 LT ISZERO PUSH2 0x230 JUMPI PUSH1 0x0 DUP1 REVERT JUMPDEST POP CALLDATALOAD PUSH1 0x1 PUSH1 0x1 PUSH1 0xA0 SHL SUB AND PUSH2 0x87A JUMP JUMPDEST PUSH1 0x40 DUP1 MLOAD SWAP2 DUP3 MSTORE MLOAD SWAP1 DUP2 SWAP1 SUB PUSH1 0x20 ADD SWAP1 RETURN JUMPDEST CALLVALUE DUP1 ISZERO PUSH2 0x25E JUMPI PUSH1 0x0 DUP1 REVERT JUMPDEST POP PUSH2 0x285 PUSH1 0x4 DUP1 CALLDATASIZE SUB PUSH1 0x20 DUP2 LT ISZERO PUSH2 0x275 JUMPI PUSH1 0x0 DUP1 REVERT JUMPDEST POP CALLDATALOAD PUSH1 0x1 PUSH1 0x1 PUSH1 0xA0 SHL SUB AND PUSH2 0x895 JUMP JUMPDEST STOP JUMPDEST CALLVALUE DUP1 ISZERO PUSH2 0x293 JUMPI PUSH1 0x0 DUP1 REVERT JUMPDEST POP PUSH2 0x285 PUSH1 0x4 DUP1 CALLDATASIZE SUB PUSH1 0x80 DUP2 LT ISZERO PUSH2 0x2AA JUMPI PUSH1 0x0 DUP1 REVERT JUMPDEST POP PUSH1 0x1 PUSH1 0x1 PUSH1 0xA0 SHL SUB DUP2 CALLDATALOAD AND SWAP1 PUSH1 0x20 DUP2 ADD CALLDATALOAD SWAP1 PUSH1 0x40 DUP2 ADD CALLDATALOAD SWAP1 PUSH1 0x60 ADD CALLDATALOAD PUSH2 0x90F JUMP JUMPDEST CALLVALUE DUP1 ISZERO PUSH2 0x2D8 JUMPI PUSH1 0x0 DUP1 REVERT JUMPDEST POP PUSH2 0x240 PUSH2 0xBD3 JUMP JUMPDEST PUSH2 0x285 PUSH1 0x4 DUP1 CALLDATASIZE SUB PUSH1 0x80 DUP2 LT ISZERO PUSH2 0x2F7 JUMPI PUSH1 0x0 DUP1 REVERT JUMPDEST POP PUSH1 0x1 PUSH1 0x1 PUSH1 0xA0 SHL SUB DUP2 CALLDATALOAD AND SWAP1 PUSH1 0x20 DUP2 ADD CALLDATALOAD SWAP1 PUSH1 0x40 DUP2 ADD CALLDATALOAD SWAP1 PUSH1 0x60 ADD CALLDATALOAD PUSH2 0xBE4 JUMP JUMPDEST CALLVALUE DUP1 ISZERO PUSH2 0x325 JUMPI PUSH1 0x0 DUP1 REVERT JUMPDEST POP PUSH2 0x285 PUSH1 0x4 DUP1 CALLDATASIZE SUB PUSH1 0x80 DUP2 LT ISZERO PUSH2 0x33C JUMPI PUSH1 0x0 DUP1 REVERT JUMPDEST POP PUSH1 0x1 PUSH1 0x1 PUSH1 0xA0 SHL SUB DUP2 CALLDATALOAD AND SWAP1 PUSH1 0x20 DUP2 ADD CALLDATALOAD SWAP1 PUSH1 0x40 DUP2 ADD CALLDATALOAD SWAP1 PUSH1 0x60 ADD CALLDATALOAD PUSH2 0xEBA JUMP JUMPDEST CALLVALUE DUP1 ISZERO PUSH2 0x36A JUMPI PUSH1 0x0 DUP1 REVERT JUMPDEST POP PUSH2 0x285 PUSH2 0x10F3 JUMP JUMPDEST CALLVALUE DUP1 ISZERO PUSH2 0x37F JUMPI PUSH1 0x0 DUP1 REVERT JUMPDEST POP PUSH2 0x240 PUSH2 0x1195 JUMP JUMPDEST CALLVALUE DUP1 ISZERO PUSH2 0x394 JUMPI PUSH1 0x0 DUP1 REVERT JUMPDEST POP PUSH2 0x285 PUSH1 0x4 DUP1 CALLDATASIZE SUB PUSH1 0xC0 DUP2 LT ISZERO PUSH2 0x3AB JUMPI PUSH1 0x0 DUP1 REVERT JUMPDEST POP DUP1 CALLDATALOAD SWAP1 PUSH1 0x20 DUP2 ADD CALLDATALOAD SWAP1 PUSH1 0x40 DUP2 ADD CALLDATALOAD SWAP1 PUSH1 0x60 DUP2 ADD CALLDATALOAD SWAP1 PUSH1 0x80 DUP2 ADD CALLDATALOAD SWAP1 PUSH1 0xA0 ADD CALLDATALOAD PUSH2 0x11A1 JUMP JUMPDEST CALLVALUE DUP1 ISZERO PUSH2 0x3DC JUMPI PUSH1 0x0 DUP1 REVERT JUMPDEST POP PUSH2 0x285 PUSH1 0x4 DUP1 CALLDATASIZE SUB PUSH1 0x20 DUP2 LT ISZERO PUSH2 0x3F3 JUMPI PUSH1 0x0 DUP1 REVERT JUMPDEST POP CALLDATALOAD PUSH1 0x1 PUSH1 0x1 PUSH1 0xA0 SHL SUB AND PUSH2 0x1216 JUMP JUMPDEST PUSH2 0x285 PUSH1 0x4 DUP1 CALLDATASIZE SUB PUSH1 0xC0 DUP2 LT ISZERO PUSH2 0x419 JUMPI PUSH1 0x0 DUP1 REVERT JUMPDEST POP PUSH1 0x1 PUSH1 0x1 PUSH1 0xA0 SHL SUB DUP2 CALLDATALOAD DUP2 AND SWAP2 PUSH1 0x20 DUP2 ADD CALLDATALOAD SWAP2 PUSH1 0x40 DUP3 ADD CALLDATALOAD SWAP2 PUSH1 0x60 DUP2 ADD CALLDATALOAD DUP3 AND SWAP2 PUSH1 0x80 DUP3 ADD CALLDATALOAD ISZERO ISZERO SWAP2 PUSH1 0xA0 ADD CALLDATALOAD AND PUSH2 0x1290 JUMP JUMPDEST CALLVALUE DUP1 ISZERO PUSH2 0x459 JUMPI PUSH1 0x0 DUP1 REVERT JUMPDEST POP PUSH2 0x1F1 PUSH2 0x1B4D JUMP JUMPDEST CALLVALUE DUP1 ISZERO PUSH2 0x46E JUMPI PUSH1 0x0 DUP1 REVERT JUMPDEST POP PUSH2 0x1F1 PUSH1 0x4 DUP1 CALLDATASIZE SUB PUSH1 0x20 DUP2 LT ISZERO PUSH2 0x485 JUMPI PUSH1 0x0 DUP1 REVERT JUMPDEST POP CALLDATALOAD PUSH2 0x1B5C JUMP JUMPDEST CALLVALUE DUP1 ISZERO PUSH2 0x498 JUMPI PUSH1 0x0 DUP1 REVERT JUMPDEST POP PUSH2 0x1F1 PUSH2 0x1B69 JUMP JUMPDEST CALLVALUE DUP1 ISZERO PUSH2 0x4AD JUMPI PUSH1 0x0 DUP1 REVERT JUMPDEST POP PUSH2 0x1F1 PUSH1 0x4 DUP1 CALLDATASIZE SUB PUSH1 0x40 DUP2 LT ISZERO PUSH2 0x4C4 JUMPI PUSH1 0x0 DUP1 REVERT JUMPDEST POP PUSH1 0x1 PUSH1 0x1 PUSH1 0xA0 SHL SUB DUP2 CALLDATALOAD AND SWAP1 PUSH1 0x20 ADD CALLDATALOAD PUSH2 0x1B78 JUMP JUMPDEST CALLVALUE DUP1 ISZERO PUSH2 0x4E6 JUMPI PUSH1 0x0 DUP1 REVERT JUMPDEST POP PUSH2 0x4EF PUSH2 0x1BA2 JUMP JUMPDEST PUSH1 0x40 MLOAD DUP1 DUP11 DUP2 MSTORE PUSH1 0x20 ADD DUP10 PUSH1 0x1 PUSH1 0x1 PUSH1 0xA0 SHL SUB AND DUP2 MSTORE PUSH1 0x20 ADD DUP9 DUP2 MSTORE PUSH1 0x20 ADD DUP8 DUP2 MSTORE PUSH1 0x20 ADD DUP7 DUP2 MSTORE PUSH1 0x20 ADD DUP6 DUP2 MSTORE PUSH1 0x20 ADD DUP5 PUSH1 0x1 PUSH1 0x1 PUSH1 0xA0 SHL SUB AND DUP2 MSTORE PUSH1 0x20 ADD DUP4 DUP2 MSTORE PUSH1 0x20 ADD DUP3 DUP2 MSTORE PUSH1 0x20 ADD SWAP10 POP POP POP POP POP POP POP POP POP POP PUSH1 0x40 MLOAD DUP1 SWAP2 SUB SWAP1 RETURN JUMPDEST CALLVALUE DUP1 ISZERO PUSH2 0x55B JUMPI PUSH1 0x0 DUP1 REVERT JUMPDEST POP PUSH2 0x285 PUSH1 0x4 DUP1 CALLDATASIZE SUB PUSH1 0x40 DUP2 LT ISZERO PUSH2 0x572 JUMPI PUSH1 0x0 DUP1 REVERT JUMPDEST POP PUSH1 0x1 PUSH1 0x1 PUSH1 0xA0 SHL SUB DUP2 CALLDATALOAD AND SWAP1 PUSH1 0x20 ADD CALLDATALOAD ISZERO ISZERO PUSH2 0x1BD0 JUMP JUMPDEST CALLVALUE DUP1 ISZERO PUSH2 0x596 JUMPI PUSH1 0x0 DUP1 REVERT JUMPDEST POP PUSH2 0x240 PUSH1 0x4 DUP1 CALLDATASIZE SUB PUSH1 0x20 DUP2 LT ISZERO PUSH2 0x5AD JUMPI PUSH1 0x0 DUP1 REVERT JUMPDEST POP CALLDATALOAD PUSH1 0x1 PUSH1 0x1 PUSH1 0xA0 SHL SUB AND PUSH2 0x1C50 JUMP JUMPDEST CALLVALUE DUP1 ISZERO PUSH2 0x5C9 JUMPI PUSH1 0x0 DUP1 REVERT JUMPDEST POP PUSH2 0x240 PUSH1 0x4 DUP1 CALLDATASIZE SUB PUSH1 0x40 DUP2 LT ISZERO PUSH2 0x5E0 JUMPI PUSH1 0x0 DUP1 REVERT JUMPDEST POP PUSH1 0x1 PUSH1 0x1 PUSH1 0xA0 SHL SUB DUP2 CALLDATALOAD DUP2 AND SWAP2 PUSH1 0x20 ADD CALLDATALOAD AND PUSH2 0x1C78 JUMP JUMPDEST CALLVALUE DUP1 ISZERO PUSH2 0x604 JUMPI PUSH1 0x0 DUP1 REVERT JUMPDEST POP PUSH2 0x285 PUSH1 0x4 DUP1 CALLDATASIZE SUB PUSH1 0x80 DUP2 LT ISZERO PUSH2 0x61B JUMPI PUSH1 0x0 DUP1 REVERT JUMPDEST POP PUSH1 0x1 PUSH1 0x1 PUSH1 0xA0 SHL SUB DUP2 CALLDATALOAD AND SWAP1 PUSH1 0x20 DUP2 ADD CALLDATALOAD SWAP1 PUSH1 0x40 DUP2 ADD CALLDATALOAD SWAP1 PUSH1 0x60 ADD CALLDATALOAD PUSH2 0x1CA7 JUMP JUMPDEST CALLVALUE DUP1 ISZERO PUSH2 0x649 JUMPI PUSH1 0x0 DUP1 REVERT JUMPDEST POP PUSH2 0x670 PUSH1 0x4 DUP1 CALLDATASIZE SUB PUSH1 0x20 DUP2 LT ISZERO PUSH2 0x660 JUMPI PUSH1 0x0 DUP1 REVERT JUMPDEST POP CALLDATALOAD PUSH1 0x1 PUSH1 0x1 PUSH1 0xA0 SHL SUB AND PUSH2 0x1EE5 JUMP JUMPDEST PUSH1 0x40 DUP1 MLOAD SWAP2 ISZERO ISZERO DUP3 MSTORE MLOAD SWAP1 DUP2 SWAP1 SUB PUSH1 0x20 ADD SWAP1 RETURN JUMPDEST CALLVALUE DUP1 ISZERO PUSH2 0x690 JUMPI PUSH1 0x0 DUP1 REVERT JUMPDEST POP PUSH2 0x285 PUSH1 0x4 DUP1 CALLDATASIZE SUB PUSH1 0x80 DUP2 LT ISZERO PUSH2 0x6A7 JUMPI PUSH1 0x0 DUP1 REVERT JUMPDEST POP PUSH1 0x1 PUSH1 0x1 PUSH1 0xA0 SHL SUB DUP2 CALLDATALOAD DUP2 AND SWAP2 PUSH1 0x20 DUP2 ADD CALLDATALOAD SWAP2 PUSH1 0x40 DUP3 ADD CALLDATALOAD SWAP2 PUSH1 0x60 ADD CALLDATALOAD AND PUSH2 0x1EF2 JUMP JUMPDEST CALLVALUE DUP1 ISZERO PUSH2 0x6D7 JUMPI PUSH1 0x0 DUP1 REVERT JUMPDEST POP PUSH2 0x704 PUSH1 0x4 DUP1 CALLDATASIZE SUB PUSH1 0x40 DUP2 LT ISZERO PUSH2 0x6EE JUMPI PUSH1 0x0 DUP1 REVERT JUMPDEST POP PUSH1 0x1 PUSH1 0x1 PUSH1 0xA0 SHL SUB DUP2 CALLDATALOAD AND SWAP1 PUSH1 0x20 ADD CALLDATALOAD PUSH2 0x2125 JUMP JUMPDEST PUSH1 0x40 DUP1 MLOAD SWAP7 DUP8 MSTORE PUSH1 0x20 DUP8 ADD SWAP6 SWAP1 SWAP6 MSTORE DUP6 DUP6 ADD SWAP4 SWAP1 SWAP4 MSTORE PUSH1 0x60 DUP6 ADD SWAP2 SWAP1 SWAP2 MSTORE PUSH1 0x80 DUP5 ADD MSTORE PUSH1 0x1 PUSH1 0x1 PUSH1 0xA0 SHL SUB AND PUSH1 0xA0 DUP4 ADD MSTORE MLOAD SWAP1 DUP2 SWAP1 SUB PUSH1 0xC0 ADD SWAP1 RETURN JUMPDEST CALLVALUE DUP1 ISZERO PUSH2 0x74C JUMPI PUSH1 0x0 DUP1 REVERT JUMPDEST POP PUSH2 0x285 PUSH1 0x4 DUP1 CALLDATASIZE SUB PUSH1 0x20 DUP2 LT ISZERO PUSH2 0x763 JUMPI PUSH1 0x0 DUP1 REVERT JUMPDEST POP CALLDATALOAD PUSH1 0x1 PUSH1 0x1 PUSH1 0xA0 SHL SUB AND PUSH2 0x217F JUMP JUMPDEST CALLVALUE DUP1 ISZERO PUSH2 0x77F JUMPI PUSH1 0x0 DUP1 REVERT JUMPDEST POP PUSH2 0x704 PUSH1 0x4 DUP1 CALLDATASIZE SUB PUSH1 0x60 DUP2 LT ISZERO PUSH2 0x796 JUMPI PUSH1 0x0 DUP1 REVERT JUMPDEST POP PUSH1 0x1 PUSH1 0x1 PUSH1 0xA0 SHL SUB DUP2 CALLDATALOAD DUP2 AND SWAP2 PUSH1 0x20 DUP2 ADD CALLDATALOAD SWAP1 SWAP2 AND SWAP1 PUSH1 0x40 ADD CALLDATALOAD PUSH2 0x21F9 JUMP JUMPDEST CALLVALUE DUP1 ISZERO PUSH2 0x7C2 JUMPI PUSH1 0x0 DUP1 REVERT JUMPDEST POP PUSH2 0x285 PUSH1 0x4 DUP1 CALLDATASIZE SUB PUSH1 0x80 DUP2 LT ISZERO PUSH2 0x7D9 JUMPI PUSH1 0x0 DUP1 REVERT JUMPDEST POP PUSH1 0x1 PUSH1 0x1 PUSH1 0xA0 SHL SUB DUP2 CALLDATALOAD AND SWAP1 PUSH1 0x20 DUP2 ADD CALLDATALOAD SWAP1 PUSH1 0x40 DUP2 ADD CALLDATALOAD SWAP1 PUSH1 0x60 ADD CALLDATALOAD PUSH2 0x22EB JUMP JUMPDEST CALLVALUE DUP1 ISZERO PUSH2 0x807 JUMPI PUSH1 0x0 DUP1 REVERT JUMPDEST POP PUSH2 0x285 PUSH1 0x4 DUP1 CALLDATASIZE SUB PUSH1 0x40 DUP2 LT ISZERO PUSH2 0x81E JUMPI PUSH1 0x0 DUP1 REVERT JUMPDEST POP PUSH1 0x1 PUSH1 0x1 PUSH1 0xA0 SHL SUB DUP2 CALLDATALOAD AND SWAP1 PUSH1 0x20 ADD CALLDATALOAD PUSH2 0x2607 JUMP JUMPDEST CALLVALUE DUP1 ISZERO PUSH2 0x840 JUMPI PUSH1 0x0 DUP1 REVERT JUMPDEST POP PUSH2 0x285 PUSH1 0x4 DUP1 CALLDATASIZE SUB PUSH1 0x20 DUP2 LT ISZERO PUSH2 0x857 JUMPI PUSH1 0x0 DUP1 REVERT JUMPDEST POP CALLDATALOAD PUSH1 0x1 PUSH1 0x1 PUSH1 0xA0 SHL SUB AND PUSH2 0x2685 JUMP JUMPDEST PUSH1 0x0 PUSH2 0x874 PUSH1 0x4 DUP4 PUSH2 0x277D JUMP JUMPDEST SWAP3 SWAP2 POP POP JUMP JUMPDEST PUSH1 0x1 PUSH1 0x1 PUSH1 0xA0 SHL SUB AND PUSH1 0x0 SWAP1 DUP2 MSTORE PUSH1 0x6 PUSH1 0x20 MSTORE PUSH1 0x40 SWAP1 KECCAK256 SLOAD SWAP1 JUMP JUMPDEST PUSH2 0x89D PUSH2 0x2789 JUMP JUMPDEST PUSH1 0x0 SLOAD PUSH1 0x1 PUSH1 0x1 PUSH1 0xA0 SHL SUB SWAP1 DUP2 AND SWAP2 AND EQ PUSH2 0x8ED JUMPI PUSH1 0x40 DUP1 MLOAD PUSH3 0x461BCD PUSH1 0xE5 SHL DUP2 MSTORE PUSH1 0x20 PUSH1 0x4 DUP3 ADD DUP2 SWAP1 MSTORE PUSH1 0x24 DUP3 ADD MSTORE PUSH1 0x0 DUP1 MLOAD PUSH1 0x20 PUSH2 0x308D DUP4 CODECOPY DUP2 MLOAD SWAP2 MSTORE PUSH1 0x44 DUP3 ADD MSTORE SWAP1 MLOAD SWAP1 DUP2 SWAP1 SUB PUSH1 0x64 ADD SWAP1 REVERT JUMPDEST PUSH1 0x13 DUP1 SLOAD PUSH1 0x1 PUSH1 0x1 PUSH1 0xA0 SHL SUB NOT AND PUSH1 0x1 PUSH1 0x1 PUSH1 0xA0 SHL SUB SWAP3 SWAP1 SWAP3 AND SWAP2 SWAP1 SWAP2 OR SWAP1 SSTORE JUMP JUMPDEST PUSH1 0x2 PUSH1 0x1 SLOAD EQ ISZERO PUSH2 0x955 JUMPI PUSH1 0x40 DUP1 MLOAD PUSH3 0x461BCD PUSH1 0xE5 SHL DUP2 MSTORE PUSH1 0x20 PUSH1 0x4 DUP3 ADD MSTORE PUSH1 0x1F PUSH1 0x24 DUP3 ADD MSTORE PUSH1 0x0 DUP1 MLOAD PUSH1 0x20 PUSH2 0x3026 DUP4 CODECOPY DUP2 MLOAD SWAP2 MSTORE PUSH1 0x44 DUP3 ADD MSTORE SWAP1 MLOAD SWAP1 DUP2 SWAP1 SUB PUSH1 0x64 ADD SWAP1 REVERT JUMPDEST PUSH1 0x2 PUSH1 0x1 SSTORE DUP1 PUSH2 0x99D JUMPI PUSH1 0x40 DUP1 MLOAD PUSH3 0x461BCD PUSH1 0xE5 SHL DUP2 MSTORE PUSH1 0x20 PUSH1 0x4 DUP3 ADD MSTORE PUSH1 0xE PUSH1 0x24 DUP3 ADD MSTORE PUSH14 0x16915493C815D2551211149055D3 PUSH1 0x92 SHL PUSH1 0x44 DUP3 ADD MSTORE SWAP1 MLOAD SWAP1 DUP2 SWAP1 SUB PUSH1 0x64 ADD SWAP1 REVERT JUMPDEST CALLER PUSH1 0x0 SWAP1 DUP2 MSTORE PUSH1 0x3 PUSH1 0x20 SWAP1 DUP2 MSTORE PUSH1 0x40 DUP1 DUP4 KECCAK256 PUSH1 0x1 PUSH1 0x1 PUSH1 0xA0 SHL SUB DUP9 AND DUP5 MSTORE PUSH1 0x2 ADD SWAP1 SWAP2 MSTORE DUP2 KECCAK256 DUP1 SLOAD DUP6 SWAP1 DUP2 LT PUSH2 0x9CF JUMPI INVALID JUMPDEST SWAP1 PUSH1 0x0 MSTORE PUSH1 0x20 PUSH1 0x0 KECCAK256 ADD SLOAD SWAP1 POP PUSH1 0x0 PUSH1 0x6 PUSH1 0x0 DUP8 PUSH1 0x1 PUSH1 0x1 PUSH1 0xA0 SHL SUB AND PUSH1 0x1 PUSH1 0x1 PUSH1 0xA0 SHL SUB AND DUP2 MSTORE PUSH1 0x20 ADD SWAP1 DUP2 MSTORE PUSH1 0x20 ADD PUSH1 0x0 KECCAK256 DUP3 DUP2 SLOAD DUP2 LT PUSH2 0xA0E JUMPI INVALID JUMPDEST SWAP1 PUSH1 0x0 MSTORE PUSH1 0x20 PUSH1 0x0 KECCAK256 SWAP1 PUSH1 0x6 MUL ADD SWAP1 POP DUP4 DUP3 EQ DUP1 ISZERO PUSH2 0xA39 JUMPI POP PUSH1 0x5 DUP2 ADD SLOAD PUSH1 0x1 PUSH1 0x1 PUSH1 0xA0 SHL SUB AND CALLER EQ JUMPDEST PUSH2 0xA7A JUMPI PUSH1 0x40 DUP1 MLOAD PUSH3 0x461BCD PUSH1 0xE5 SHL DUP2 MSTORE PUSH1 0x20 PUSH1 0x4 DUP3 ADD MSTORE PUSH1 0xD PUSH1 0x24 DUP3 ADD MSTORE PUSH13 0x989E8696409A92A69A82A8869 PUSH1 0x9B SHL PUSH1 0x44 DUP3 ADD MSTORE SWAP1 MLOAD SWAP1 DUP2 SWAP1 SUB PUSH1 0x64 ADD SWAP1 REVERT JUMPDEST TIMESTAMP DUP2 PUSH1 0x3 ADD SLOAD LT PUSH2 0xABC JUMPI PUSH1 0x40 DUP1 MLOAD PUSH3 0x461BCD PUSH1 0xE5 SHL DUP2 MSTORE PUSH1 0x20 PUSH1 0x4 DUP3 ADD MSTORE PUSH1 0x7 PUSH1 0x24 DUP3 ADD MSTORE PUSH7 0x1393D508165155 PUSH1 0xCA SHL PUSH1 0x44 DUP3 ADD MSTORE SWAP1 MLOAD SWAP1 DUP2 SWAP1 SUB PUSH1 0x64 ADD SWAP1 REVERT JUMPDEST PUSH1 0x1 DUP2 ADD SLOAD PUSH2 0xACB SWAP1 DUP5 PUSH2 0x278D JUMP JUMPDEST PUSH1 0x1 DUP3 ADD DUP2 SWAP1 SSTORE PUSH2 0xB78 JUMPI CALLER PUSH1 0x0 SWAP1 DUP2 MSTORE PUSH1 0x3 PUSH1 0x20 SWAP1 DUP2 MSTORE PUSH1 0x40 DUP1 DUP4 KECCAK256 PUSH1 0x1 PUSH1 0x1 PUSH1 0xA0 SHL SUB DUP11 AND DUP5 MSTORE PUSH1 0x2 ADD SWAP1 SWAP2 MSTORE SWAP1 KECCAK256 DUP1 SLOAD DUP2 SWAP1 PUSH1 0x0 NOT DUP2 ADD SWAP1 DUP2 LT PUSH2 0xB0E JUMPI INVALID JUMPDEST SWAP1 PUSH1 0x0 MSTORE PUSH1 0x20 PUSH1 0x0 KECCAK256 ADD SLOAD DUP2 DUP8 DUP2 SLOAD DUP2 LT PUSH2 0xB25 JUMPI INVALID JUMPDEST SWAP1 PUSH1 0x0 MSTORE PUSH1 0x20 PUSH1 0x0 KECCAK256 ADD DUP2 SWAP1 SSTORE POP DUP1 DUP1 SLOAD DUP1 PUSH2 0xB3D JUMPI INVALID JUMPDEST PUSH1 0x0 DUP3 DUP2 MSTORE PUSH1 0x20 DUP2 KECCAK256 DUP3 ADD PUSH1 0x0 NOT SWAP1 DUP2 ADD SWAP2 SWAP1 SWAP2 SSTORE ADD SWAP1 SSTORE DUP1 SLOAD PUSH2 0xB76 JUMPI CALLER PUSH1 0x0 SWAP1 DUP2 MSTORE PUSH1 0x3 PUSH1 0x20 MSTORE PUSH1 0x40 SWAP1 KECCAK256 PUSH2 0xB74 SWAP1 DUP9 PUSH2 0x27CF JUMP JUMPDEST POP JUMPDEST POP JUMPDEST PUSH2 0xB83 DUP7 CALLER DUP6 PUSH2 0x27E4 JUMP JUMPDEST PUSH1 0x40 DUP1 MLOAD PUSH1 0x1 PUSH1 0x1 PUSH1 0xA0 SHL SUB DUP9 AND DUP2 MSTORE PUSH1 0x20 DUP2 ADD DUP6 SWAP1 MSTORE DUP2 MLOAD PUSH32 0xCCAD973DCD043C7D680389DB4378BD6B9775DB7124092E9E0422C9E46D7985DC SWAP3 SWAP2 DUP2 SWAP1 SUB SWAP1 SWAP2 ADD SWAP1 LOG1 POP POP PUSH1 0x1 DUP1 SSTORE POP POP POP POP JUMP JUMPDEST PUSH1 0x0 PUSH2 0xBDF PUSH1 0x10 PUSH2 0x294E JUMP JUMPDEST SWAP1 POP SWAP1 JUMP JUMPDEST PUSH1 0x2 PUSH1 0x1 SLOAD EQ ISZERO PUSH2 0xC2A JUMPI PUSH1 0x40 DUP1 MLOAD PUSH3 0x461BCD PUSH1 0xE5 SHL DUP2 MSTORE PUSH1 0x20 PUSH1 0x4 DUP3 ADD MSTORE PUSH1 0x1F PUSH1 0x24 DUP3 ADD MSTORE PUSH1 0x0 DUP1 MLOAD PUSH1 0x20 PUSH2 0x3026 DUP4 CODECOPY DUP2 MLOAD SWAP2 MSTORE PUSH1 0x44 DUP3 ADD MSTORE SWAP1 MLOAD SWAP1 DUP2 SWAP1 SUB PUSH1 0x64 ADD SWAP1 REVERT JUMPDEST PUSH1 0x2 PUSH1 0x1 SSTORE DUP1 PUSH2 0xC6F JUMPI PUSH1 0x40 DUP1 MLOAD PUSH3 0x461BCD PUSH1 0xE5 SHL DUP2 MSTORE PUSH1 0x20 PUSH1 0x4 DUP3 ADD MSTORE PUSH1 0xB PUSH1 0x24 DUP3 ADD MSTORE PUSH11 0x16915493C8105353D55395 PUSH1 0xAA SHL PUSH1 0x44 DUP3 ADD MSTORE SWAP1 MLOAD SWAP1 DUP2 SWAP1 SUB PUSH1 0x64 ADD SWAP1 REVERT JUMPDEST CALLER PUSH1 0x0 SWAP1 DUP2 MSTORE PUSH1 0x3 PUSH1 0x20 SWAP1 DUP2 MSTORE PUSH1 0x40 DUP1 DUP4 KECCAK256 PUSH1 0x1 PUSH1 0x1 PUSH1 0xA0 SHL SUB DUP9 AND DUP5 MSTORE PUSH1 0x2 ADD SWAP1 SWAP2 MSTORE DUP2 KECCAK256 DUP1 SLOAD DUP6 SWAP1 DUP2 LT PUSH2 0xCA1 JUMPI INVALID JUMPDEST SWAP1 PUSH1 0x0 MSTORE PUSH1 0x20 PUSH1 0x0 KECCAK256 ADD SLOAD SWAP1 POP PUSH1 0x0 PUSH1 0x6 PUSH1 0x0 DUP8 PUSH1 0x1 PUSH1 0x1 PUSH1 0xA0 SHL SUB AND PUSH1 0x1 PUSH1 0x1 PUSH1 0xA0 SHL SUB AND DUP2 MSTORE PUSH1 0x20 ADD SWAP1 DUP2 MSTORE PUSH1 0x20 ADD PUSH1 0x0 KECCAK256 DUP3 DUP2 SLOAD DUP2 LT PUSH2 0xCE0 JUMPI INVALID JUMPDEST SWAP1 PUSH1 0x0 MSTORE PUSH1 0x20 PUSH1 0x0 KECCAK256 SWAP1 PUSH1 0x6 MUL ADD SWAP1 POP DUP4 DUP3 EQ DUP1 ISZERO PUSH2 0xD0B JUMPI POP PUSH1 0x5 DUP2 ADD SLOAD PUSH1 0x1 PUSH1 0x1 PUSH1 0xA0 SHL SUB AND CALLER EQ JUMPDEST PUSH2 0xD4C JUMPI PUSH1 0x40 DUP1 MLOAD PUSH3 0x461BCD PUSH1 0xE5 SHL DUP2 MSTORE PUSH1 0x20 PUSH1 0x4 DUP3 ADD MSTORE PUSH1 0xD PUSH1 0x24 DUP3 ADD MSTORE PUSH13 0x989E8696409A92A69A82A8869 PUSH1 0x9B SHL PUSH1 0x44 DUP3 ADD MSTORE SWAP1 MLOAD SWAP1 DUP2 SWAP1 SUB PUSH1 0x64 ADD SWAP1 REVERT JUMPDEST PUSH1 0x7 SLOAD CALLVALUE EQ PUSH2 0xD90 JUMPI PUSH1 0x40 DUP1 MLOAD PUSH3 0x461BCD PUSH1 0xE5 SHL DUP2 MSTORE PUSH1 0x20 PUSH1 0x4 DUP3 ADD MSTORE PUSH1 0xB PUSH1 0x24 DUP3 ADD MSTORE PUSH11 0x119151481393D508135155 PUSH1 0xAA SHL PUSH1 0x44 DUP3 ADD MSTORE SWAP1 MLOAD SWAP1 DUP2 SWAP1 SUB PUSH1 0x64 ADD SWAP1 REVERT JUMPDEST PUSH1 0x12 SLOAD PUSH1 0x7 SLOAD PUSH1 0x40 MLOAD PUSH1 0x1 PUSH1 0x1 PUSH1 0xA0 SHL SUB SWAP1 SWAP3 AND SWAP2 DUP2 ISZERO PUSH2 0x8FC MUL SWAP2 SWAP1 PUSH1 0x0 DUP2 DUP2 DUP2 DUP6 DUP9 DUP9 CALL SWAP4 POP POP POP POP ISZERO DUP1 ISZERO PUSH2 0xDCC JUMPI RETURNDATASIZE PUSH1 0x0 DUP1 RETURNDATACOPY RETURNDATASIZE PUSH1 0x0 REVERT JUMPDEST POP PUSH1 0x1 DUP2 ADD SLOAD PUSH2 0xDDC SWAP1 DUP5 PUSH2 0x278D JUMP JUMPDEST PUSH1 0x1 DUP3 ADD SSTORE PUSH2 0xDE9 PUSH2 0x2FC4 JUMP JUMPDEST DUP2 SLOAD DUP2 MSTORE PUSH1 0x20 DUP1 DUP3 ADD DUP6 DUP2 MSTORE PUSH1 0x40 DUP1 DUP5 ADD SWAP7 DUP8 MSTORE PUSH1 0x3 SWAP5 DUP6 ADD SLOAD PUSH1 0x60 DUP6 ADD SWAP1 DUP2 MSTORE PUSH1 0x1 PUSH1 0x1 PUSH1 0xA0 SHL SUB SWAP11 DUP12 AND PUSH1 0x0 DUP2 DUP2 MSTORE PUSH1 0x6 DUP1 DUP8 MSTORE DUP5 DUP3 KECCAK256 DUP1 SLOAD PUSH1 0x80 DUP11 ADD DUP2 DUP2 MSTORE CALLER PUSH1 0xA0 DUP13 ADD DUP2 DUP2 MSTORE DUP6 DUP13 MSTORE PUSH1 0x1 DUP1 DUP6 ADD DUP7 SSTORE SWAP5 DUP8 MSTORE DUP12 DUP8 KECCAK256 SWAP13 MLOAD SWAP4 SWAP1 SWAP6 MUL SWAP1 SWAP12 ADD SWAP2 DUP3 SSTORE SWAP8 MLOAD DUP2 DUP4 ADD SSTORE SWAP12 MLOAD PUSH1 0x2 DUP1 DUP15 ADD SWAP2 SWAP1 SWAP2 SSTORE SWAP5 MLOAD DUP13 DUP12 ADD SSTORE DUP7 MLOAD PUSH1 0x4 DUP14 ADD SSTORE SWAP1 MLOAD PUSH1 0x5 SWAP1 SWAP12 ADD DUP1 SLOAD PUSH1 0x1 PUSH1 0x1 PUSH1 0xA0 SHL SUB NOT AND SWAP12 SWAP1 SWAP15 AND SWAP11 SWAP1 SWAP11 OR SWAP1 SWAP13 SSTORE SWAP5 DUP12 MSTORE SWAP5 DUP4 MSTORE DUP1 DUP11 KECCAK256 SWAP4 DUP11 MSTORE SWAP3 SWAP1 SWAP4 ADD DUP2 MSTORE SWAP1 DUP8 KECCAK256 SWAP2 MLOAD DUP3 SLOAD DUP1 DUP7 ADD DUP5 SSTORE SWAP3 DUP9 MSTORE SWAP7 KECCAK256 ADD SWAP5 SWAP1 SWAP5 SSTORE DUP1 SSTORE POP POP POP JUMP JUMPDEST PUSH1 0x2 PUSH1 0x1 SLOAD EQ ISZERO PUSH2 0xF00 JUMPI PUSH1 0x40 DUP1 MLOAD PUSH3 0x461BCD PUSH1 0xE5 SHL DUP2 MSTORE PUSH1 0x20 PUSH1 0x4 DUP3 ADD MSTORE PUSH1 0x1F PUSH1 0x24 DUP3 ADD MSTORE PUSH1 0x0 DUP1 MLOAD PUSH1 0x20 PUSH2 0x3026 DUP4 CODECOPY DUP2 MLOAD SWAP2 MSTORE PUSH1 0x44 DUP3 ADD MSTORE SWAP1 MLOAD SWAP1 DUP2 SWAP1 SUB PUSH1 0x64 ADD SWAP1 REVERT JUMPDEST PUSH1 0x2 PUSH1 0x1 SSTORE PUSH5 0x2540BE400 DUP2 LT PUSH2 0xF52 JUMPI PUSH1 0x40 DUP1 MLOAD PUSH3 0x461BCD PUSH1 0xE5 SHL DUP2 MSTORE PUSH1 0x20 PUSH1 0x4 DUP3 ADD MSTORE PUSH1 0x11 PUSH1 0x24 DUP3 ADD MSTORE PUSH17 0x1512535154D51053540812539590531251 PUSH1 0x7A SHL PUSH1 0x44 DUP3 ADD MSTORE SWAP1 MLOAD SWAP1 DUP2 SWAP1 SUB PUSH1 0x64 ADD SWAP1 REVERT JUMPDEST CALLER PUSH1 0x0 SWAP1 DUP2 MSTORE PUSH1 0x3 PUSH1 0x20 SWAP1 DUP2 MSTORE PUSH1 0x40 DUP1 DUP4 KECCAK256 PUSH1 0x1 PUSH1 0x1 PUSH1 0xA0 SHL SUB DUP9 AND DUP5 MSTORE PUSH1 0x2 ADD SWAP1 SWAP2 MSTORE DUP2 KECCAK256 DUP1 SLOAD DUP6 SWAP1 DUP2 LT PUSH2 0xF84 JUMPI INVALID JUMPDEST SWAP1 PUSH1 0x0 MSTORE PUSH1 0x20 PUSH1 0x0 KECCAK256 ADD SLOAD SWAP1 POP PUSH1 0x0 PUSH1 0x6 PUSH1 0x0 DUP8 PUSH1 0x1 PUSH1 0x1 PUSH1 0xA0 SHL SUB AND PUSH1 0x1 PUSH1 0x1 PUSH1 0xA0 SHL SUB AND DUP2 MSTORE PUSH1 0x20 ADD SWAP1 DUP2 MSTORE PUSH1 0x20 ADD PUSH1 0x0 KECCAK256 DUP3 DUP2 SLOAD DUP2 LT PUSH2 0xFC3 JUMPI INVALID JUMPDEST SWAP1 PUSH1 0x0 MSTORE PUSH1 0x20 PUSH1 0x0 KECCAK256 SWAP1 PUSH1 0x6 MUL ADD SWAP1 POP DUP4 DUP3 EQ DUP1 ISZERO PUSH2 0xFEE JUMPI POP PUSH1 0x5 DUP2 ADD SLOAD PUSH1 0x1 PUSH1 0x1 PUSH1 0xA0 SHL SUB AND CALLER EQ JUMPDEST PUSH2 0x102F JUMPI PUSH1 0x40 DUP1 MLOAD PUSH3 0x461BCD PUSH1 0xE5 SHL DUP2 MSTORE PUSH1 0x20 PUSH1 0x4 DUP3 ADD MSTORE PUSH1 0xD PUSH1 0x24 DUP3 ADD MSTORE PUSH13 0x989E8696409A92A69A82A8869 PUSH1 0x9B SHL PUSH1 0x44 DUP3 ADD MSTORE SWAP1 MLOAD SWAP1 DUP2 SWAP1 SUB PUSH1 0x64 ADD SWAP1 REVERT JUMPDEST DUP3 DUP2 PUSH1 0x3 ADD SLOAD LT PUSH2 0x1077 JUMPI PUSH1 0x40 DUP1 MLOAD PUSH3 0x461BCD PUSH1 0xE5 SHL DUP2 MSTORE PUSH1 0x20 PUSH1 0x4 DUP3 ADD MSTORE PUSH1 0xD PUSH1 0x24 DUP3 ADD MSTORE PUSH13 0x554E4C4F434B204245464F5245 PUSH1 0x98 SHL PUSH1 0x44 DUP3 ADD MSTORE SWAP1 MLOAD SWAP1 DUP2 SWAP1 SUB PUSH1 0x64 ADD SWAP1 REVERT JUMPDEST PUSH1 0x0 PUSH2 0x10A1 PUSH2 0x3E8 PUSH2 0x109B PUSH1 0x7 PUSH1 0x4 ADD SLOAD DUP6 PUSH1 0x1 ADD SLOAD PUSH2 0x2959 SWAP1 SWAP2 SWAP1 PUSH4 0xFFFFFFFF AND JUMP JUMPDEST SWAP1 PUSH2 0x29B2 JUMP JUMPDEST SWAP1 POP PUSH1 0x0 PUSH2 0x10BC DUP3 DUP5 PUSH1 0x1 ADD SLOAD PUSH2 0x278D SWAP1 SWAP2 SWAP1 PUSH4 0xFFFFFFFF AND JUMP JUMPDEST PUSH1 0x1 DUP5 ADD DUP2 SWAP1 SSTORE PUSH1 0x3 DUP5 ADD DUP7 SWAP1 SSTORE PUSH1 0x12 SLOAD SWAP1 SWAP2 POP PUSH2 0x10E5 SWAP1 DUP10 SWAP1 PUSH1 0x1 PUSH1 0x1 PUSH1 0xA0 SHL SUB AND DUP5 PUSH2 0x27E4 JUMP JUMPDEST POP POP PUSH1 0x1 DUP1 SSTORE POP POP POP POP POP POP JUMP JUMPDEST PUSH2 0x10FB PUSH2 0x2789 JUMP JUMPDEST PUSH1 0x0 SLOAD PUSH1 0x1 PUSH1 0x1 PUSH1 0xA0 SHL SUB SWAP1 DUP2 AND SWAP2 AND EQ PUSH2 0x114B JUMPI PUSH1 0x40 DUP1 MLOAD PUSH3 0x461BCD PUSH1 0xE5 SHL DUP2 MSTORE PUSH1 0x20 PUSH1 0x4 DUP3 ADD DUP2 SWAP1 MSTORE PUSH1 0x24 DUP3 ADD MSTORE PUSH1 0x0 DUP1 MLOAD PUSH1 0x20 PUSH2 0x308D DUP4 CODECOPY DUP2 MLOAD SWAP2 MSTORE PUSH1 0x44 DUP3 ADD MSTORE SWAP1 MLOAD SWAP1 DUP2 SWAP1 SUB PUSH1 0x64 ADD SWAP1 REVERT JUMPDEST PUSH1 0x0 DUP1 SLOAD PUSH1 0x40 MLOAD PUSH1 0x1 PUSH1 0x1 PUSH1 0xA0 SHL SUB SWAP1 SWAP2 AND SWAP1 PUSH32 0x8BE0079C531659141344CD1FD0A4F28419497F9722A3DAAFE3B4186F6B6457E0 SWAP1 DUP4 SWAP1 LOG3 PUSH1 0x0 DUP1 SLOAD PUSH1 0x1 PUSH1 0x1 PUSH1 0xA0 SHL SUB NOT AND SWAP1 SSTORE JUMP JUMPDEST PUSH1 0x0 PUSH2 0xBDF PUSH1 0x4 PUSH2 0x294E JUMP JUMPDEST PUSH2 0x11A9 PUSH2 0x2789 JUMP JUMPDEST PUSH1 0x0 SLOAD PUSH1 0x1 PUSH1 0x1 PUSH1 0xA0 SHL SUB SWAP1 DUP2 AND SWAP2 AND EQ PUSH2 0x11F9 JUMPI PUSH1 0x40 DUP1 MLOAD PUSH3 0x461BCD PUSH1 0xE5 SHL DUP2 MSTORE PUSH1 0x20 PUSH1 0x4 DUP3 ADD DUP2 SWAP1 MSTORE PUSH1 0x24 DUP3 ADD MSTORE PUSH1 0x0 DUP1 MLOAD PUSH1 0x20 PUSH2 0x308D DUP4 CODECOPY DUP2 MLOAD SWAP2 MSTORE PUSH1 0x44 DUP3 ADD MSTORE SWAP1 MLOAD SWAP1 DUP2 SWAP1 SUB PUSH1 0x64 ADD SWAP1 REVERT JUMPDEST PUSH1 0xC SWAP6 SWAP1 SWAP6 SSTORE PUSH1 0xF SWAP4 SWAP1 SWAP4 SSTORE PUSH1 0x7 SWAP2 SWAP1 SWAP2 SSTORE PUSH1 0x9 SSTORE PUSH1 0xA SSTORE PUSH1 0xB SSTORE JUMP JUMPDEST PUSH2 0x121E PUSH2 0x2789 JUMP JUMPDEST PUSH1 0x0 SLOAD PUSH1 0x1 PUSH1 0x1 PUSH1 0xA0 SHL SUB SWAP1 DUP2 AND SWAP2 AND EQ PUSH2 0x126E JUMPI PUSH1 0x40 DUP1 MLOAD PUSH3 0x461BCD PUSH1 0xE5 SHL DUP2 MSTORE PUSH1 0x20 PUSH1 0x4 DUP3 ADD DUP2 SWAP1 MSTORE PUSH1 0x24 DUP3 ADD MSTORE PUSH1 0x0 DUP1 MLOAD PUSH1 0x20 PUSH2 0x308D DUP4 CODECOPY DUP2 MLOAD SWAP2 MSTORE PUSH1 0x44 DUP3 ADD MSTORE SWAP1 MLOAD SWAP1 DUP2 SWAP1 SUB PUSH1 0x64 ADD SWAP1 REVERT JUMPDEST PUSH1 0x8 DUP1 SLOAD PUSH1 0x1 PUSH1 0x1 PUSH1 0xA0 SHL SUB NOT AND PUSH1 0x1 PUSH1 0x1 PUSH1 0xA0 SHL SUB SWAP3 SWAP1 SWAP3 AND SWAP2 SWAP1 SWAP2 OR SWAP1 SSTORE JUMP JUMPDEST PUSH1 0x2 PUSH1 0x1 SLOAD EQ ISZERO PUSH2 0x12D6 JUMPI PUSH1 0x40 DUP1 MLOAD PUSH3 0x461BCD PUSH1 0xE5 SHL DUP2 MSTORE PUSH1 0x20 PUSH1 0x4 DUP3 ADD MSTORE PUSH1 0x1F PUSH1 0x24 DUP3 ADD MSTORE PUSH1 0x0 DUP1 MLOAD PUSH1 0x20 PUSH2 0x3026 DUP4 CODECOPY DUP2 MLOAD SWAP2 MSTORE PUSH1 0x44 DUP3 ADD MSTORE SWAP1 MLOAD SWAP1 DUP2 SWAP1 SUB PUSH1 0x64 ADD SWAP1 REVERT JUMPDEST PUSH1 0x2 PUSH1 0x1 SSTORE PUSH5 0x2540BE400 DUP5 LT PUSH2 0x1328 JUMPI PUSH1 0x40 DUP1 MLOAD PUSH3 0x461BCD PUSH1 0xE5 SHL DUP2 MSTORE PUSH1 0x20 PUSH1 0x4 DUP3 ADD MSTORE PUSH1 0x11 PUSH1 0x24 DUP3 ADD MSTORE PUSH17 0x1512535154D51053540812539590531251 PUSH1 0x7A SHL PUSH1 0x44 DUP3 ADD MSTORE SWAP1 MLOAD SWAP1 DUP2 SWAP1 SUB PUSH1 0x64 ADD SWAP1 REVERT JUMPDEST PUSH1 0x0 DUP6 GT PUSH2 0x136C JUMPI PUSH1 0x40 DUP1 MLOAD PUSH3 0x461BCD PUSH1 0xE5 SHL DUP2 MSTORE PUSH1 0x20 PUSH1 0x4 DUP3 ADD MSTORE PUSH1 0xC PUSH1 0x24 DUP3 ADD MSTORE PUSH12 0x125394D551919250D2515395 PUSH1 0xA2 SHL PUSH1 0x44 DUP3 ADD MSTORE SWAP1 MLOAD SWAP1 DUP2 SWAP1 SUB PUSH1 0x64 ADD SWAP1 REVERT JUMPDEST PUSH1 0x2 SLOAD PUSH1 0x40 DUP1 MLOAD PUSH4 0xDFE1681 PUSH1 0xE0 SHL DUP2 MSTORE SWAP1 MLOAD DUP9 SWAP3 PUSH1 0x0 SWAP3 PUSH1 0x1 PUSH1 0x1 PUSH1 0xA0 SHL SUB SWAP2 DUP3 AND SWAP3 PUSH4 0xE6A43905 SWAP3 DUP7 AND SWAP2 PUSH4 0xDFE1681 SWAP2 PUSH1 0x4 DUP1 DUP4 ADD SWAP3 PUSH1 0x20 SWAP3 SWAP2 SWAP1 DUP3 SWAP1 SUB ADD DUP2 DUP7 DUP1 EXTCODESIZE ISZERO DUP1 ISZERO PUSH2 0x13BE JUMPI PUSH1 0x0 DUP1 REVERT JUMPDEST POP GAS STATICCALL ISZERO DUP1 ISZERO PUSH2 0x13D2 JUMPI RETURNDATASIZE PUSH1 0x0 DUP1 RETURNDATACOPY RETURNDATASIZE PUSH1 0x0 REVERT JUMPDEST POP POP POP POP PUSH1 0x40 MLOAD RETURNDATASIZE PUSH1 0x20 DUP2 LT ISZERO PUSH2 0x13E8 JUMPI PUSH1 0x0 DUP1 REVERT JUMPDEST POP MLOAD PUSH1 0x40 DUP1 MLOAD PUSH4 0xD21220A7 PUSH1 0xE0 SHL DUP2 MSTORE SWAP1 MLOAD PUSH1 0x1 PUSH1 0x1 PUSH1 0xA0 SHL SUB DUP8 AND SWAP2 PUSH4 0xD21220A7 SWAP2 PUSH1 0x4 DUP1 DUP4 ADD SWAP3 PUSH1 0x20 SWAP3 SWAP2 SWAP1 DUP3 SWAP1 SUB ADD DUP2 DUP7 DUP1 EXTCODESIZE ISZERO DUP1 ISZERO PUSH2 0x142A JUMPI PUSH1 0x0 DUP1 REVERT JUMPDEST POP GAS STATICCALL ISZERO DUP1 ISZERO PUSH2 0x143E JUMPI RETURNDATASIZE PUSH1 0x0 DUP1 RETURNDATACOPY RETURNDATASIZE PUSH1 0x0 REVERT JUMPDEST POP POP POP POP PUSH1 0x40 MLOAD RETURNDATASIZE PUSH1 0x20 DUP2 LT ISZERO PUSH2 0x1454 JUMPI PUSH1 0x0 DUP1 REVERT JUMPDEST POP MLOAD PUSH1 0x40 DUP1 MLOAD PUSH1 0x1 PUSH1 0x1 PUSH1 0xE0 SHL SUB NOT PUSH1 0xE0 DUP7 SWAP1 SHL AND DUP2 MSTORE PUSH1 0x1 PUSH1 0x1 PUSH1 0xA0 SHL SUB SWAP4 DUP5 AND PUSH1 0x4 DUP3 ADD MSTORE SWAP3 SWAP1 SWAP2 AND PUSH1 0x24 DUP4 ADD MSTORE MLOAD PUSH1 0x44 DUP1 DUP4 ADD SWAP3 PUSH1 0x20 SWAP3 SWAP2 SWAP1 DUP3 SWAP1 SUB ADD DUP2 DUP7 DUP1 EXTCODESIZE ISZERO DUP1 ISZERO PUSH2 0x14A4 JUMPI PUSH1 0x0 DUP1 REVERT JUMPDEST POP GAS STATICCALL ISZERO DUP1 ISZERO PUSH2 0x14B8 JUMPI RETURNDATASIZE PUSH1 0x0 DUP1 RETURNDATACOPY RETURNDATASIZE PUSH1 0x0 REVERT JUMPDEST POP POP POP POP PUSH1 0x40 MLOAD RETURNDATASIZE PUSH1 0x20 DUP2 LT ISZERO PUSH2 0x14CE JUMPI PUSH1 0x0 DUP1 REVERT JUMPDEST POP MLOAD SWAP1 POP PUSH1 0x1 PUSH1 0x1 PUSH1 0xA0 SHL SUB DUP1 DUP3 AND SWAP1 DUP10 AND EQ PUSH2 0x151E JUMPI PUSH1 0x40 DUP1 MLOAD PUSH3 0x461BCD PUSH1 0xE5 SHL DUP2 MSTORE PUSH1 0x20 PUSH1 0x4 DUP3 ADD MSTORE PUSH1 0x9 PUSH1 0x24 DUP3 ADD MSTORE PUSH9 0x2727AA102AA724AB19 PUSH1 0xB9 SHL PUSH1 0x44 DUP3 ADD MSTORE SWAP1 MLOAD SWAP1 DUP2 SWAP1 SUB PUSH1 0x64 ADD SWAP1 REVERT JUMPDEST PUSH2 0x152A DUP9 CALLER ADDRESS DUP11 PUSH2 0x29F4 JUMP JUMPDEST PUSH1 0x1 PUSH1 0x1 PUSH1 0xA0 SHL SUB DUP6 AND ISZERO DUP1 ISZERO SWAP1 PUSH2 0x154C JUMPI POP PUSH1 0xD SLOAD PUSH1 0x1 PUSH1 0x1 PUSH1 0xA0 SHL SUB AND ISZERO ISZERO JUMPDEST ISZERO PUSH2 0x1615 JUMPI PUSH1 0xE SLOAD PUSH1 0xD SLOAD PUSH1 0x40 DUP1 MLOAD PUSH4 0x70A08231 PUSH1 0xE0 SHL DUP2 MSTORE PUSH1 0x1 PUSH1 0x1 PUSH1 0xA0 SHL SUB DUP10 DUP2 AND PUSH1 0x4 DUP4 ADD MSTORE SWAP2 MLOAD SWAP2 SWAP1 SWAP3 AND SWAP2 PUSH4 0x70A08231 SWAP2 PUSH1 0x24 DUP1 DUP4 ADD SWAP3 PUSH1 0x20 SWAP3 SWAP2 SWAP1 DUP3 SWAP1 SUB ADD DUP2 DUP7 DUP1 EXTCODESIZE ISZERO DUP1 ISZERO PUSH2 0x15A1 JUMPI PUSH1 0x0 DUP1 REVERT JUMPDEST POP GAS STATICCALL ISZERO DUP1 ISZERO PUSH2 0x15B5 JUMPI RETURNDATASIZE PUSH1 0x0 DUP1 RETURNDATACOPY RETURNDATASIZE PUSH1 0x0 REVERT JUMPDEST POP POP POP POP PUSH1 0x40 MLOAD RETURNDATASIZE PUSH1 0x20 DUP2 LT ISZERO PUSH2 0x15CB JUMPI PUSH1 0x0 DUP1 REVERT JUMPDEST POP MLOAD LT ISZERO PUSH2 0x1615 JUMPI PUSH1 0x40 DUP1 MLOAD PUSH3 0x461BCD PUSH1 0xE5 SHL DUP2 MSTORE PUSH1 0x20 PUSH1 0x4 DUP3 ADD MSTORE PUSH1 0x12 PUSH1 0x24 DUP3 ADD MSTORE PUSH18 0x494E41444551554154452042414C414E4345 PUSH1 0x70 SHL PUSH1 0x44 DUP3 ADD MSTORE SWAP1 MLOAD SWAP1 DUP2 SWAP1 SUB PUSH1 0x64 ADD SWAP1 REVERT JUMPDEST PUSH2 0x1620 PUSH1 0x10 CALLER PUSH2 0x2B51 JUMP JUMPDEST PUSH2 0x188E JUMPI DUP4 ISZERO PUSH2 0x1760 JUMPI PUSH1 0x7 SLOAD PUSH1 0x1 PUSH1 0x1 PUSH1 0xA0 SHL SUB DUP7 AND ISZERO PUSH2 0x1657 JUMPI PUSH1 0xF SLOAD PUSH2 0x1654 SWAP1 PUSH2 0x3E8 SWAP1 PUSH2 0x109B SWAP1 DUP5 SWAP1 DUP4 SUB PUSH2 0x2959 JUMP JUMPDEST SWAP1 POP JUMPDEST DUP1 CALLVALUE EQ PUSH2 0x1699 JUMPI PUSH1 0x40 DUP1 MLOAD PUSH3 0x461BCD PUSH1 0xE5 SHL DUP2 MSTORE PUSH1 0x20 PUSH1 0x4 DUP3 ADD MSTORE PUSH1 0xB PUSH1 0x24 DUP3 ADD MSTORE PUSH11 0x119151481393D508135155 PUSH1 0xAA SHL PUSH1 0x44 DUP3 ADD MSTORE SWAP1 MLOAD SWAP1 DUP2 SWAP1 SUB PUSH1 0x64 ADD SWAP1 REVERT JUMPDEST DUP1 DUP1 ISZERO DUP1 ISZERO SWAP1 PUSH2 0x16B1 JUMPI POP PUSH1 0x1 PUSH1 0x1 PUSH1 0xA0 SHL SUB DUP8 AND ISZERO ISZERO JUMPDEST ISZERO PUSH2 0x171E JUMPI PUSH1 0x0 PUSH2 0x16D6 PUSH2 0x3E8 PUSH2 0x109B PUSH1 0x7 PUSH1 0x5 ADD SLOAD DUP6 PUSH2 0x2959 SWAP1 SWAP2 SWAP1 PUSH4 0xFFFFFFFF AND JUMP JUMPDEST PUSH1 0x40 MLOAD SWAP1 SWAP2 POP PUSH1 0x1 PUSH1 0x1 PUSH1 0xA0 SHL SUB DUP10 AND SWAP1 DUP3 ISZERO PUSH2 0x8FC MUL SWAP1 DUP4 SWAP1 PUSH1 0x0 DUP2 DUP2 DUP2 DUP6 DUP9 DUP9 CALL SWAP4 POP POP POP POP ISZERO DUP1 ISZERO PUSH2 0x170F JUMPI RETURNDATASIZE PUSH1 0x0 DUP1 RETURNDATACOPY RETURNDATASIZE PUSH1 0x0 REVERT JUMPDEST POP PUSH2 0x171A DUP3 DUP3 PUSH2 0x278D JUMP JUMPDEST SWAP2 POP POP JUMPDEST PUSH1 0x12 SLOAD PUSH1 0x40 MLOAD PUSH1 0x1 PUSH1 0x1 PUSH1 0xA0 SHL SUB SWAP1 SWAP2 AND SWAP1 DUP3 ISZERO PUSH2 0x8FC MUL SWAP1 DUP4 SWAP1 PUSH1 0x0 DUP2 DUP2 DUP2 DUP6 DUP9 DUP9 CALL SWAP4 POP POP POP POP ISZERO DUP1 ISZERO PUSH2 0x1758 JUMPI RETURNDATASIZE PUSH1 0x0 DUP1 RETURNDATACOPY RETURNDATASIZE PUSH1 0x0 REVERT JUMPDEST POP POP POP PUSH2 0x1889 JUMP JUMPDEST PUSH1 0x9 SLOAD PUSH1 0x1 PUSH1 0x1 PUSH1 0xA0 SHL SUB DUP7 AND ISZERO PUSH2 0x178D JUMPI PUSH1 0xF SLOAD PUSH2 0x178A SWAP1 PUSH2 0x3E8 SWAP1 PUSH2 0x109B SWAP1 DUP5 SWAP1 DUP4 SUB PUSH2 0x2959 JUMP JUMPDEST SWAP1 POP JUMPDEST PUSH1 0x8 SLOAD PUSH2 0x17A5 SWAP1 PUSH1 0x1 PUSH1 0x1 PUSH1 0xA0 SHL SUB AND CALLER ADDRESS DUP5 PUSH2 0x29F4 JUMP JUMPDEST PUSH1 0xC SLOAD ISZERO DUP1 ISZERO SWAP1 PUSH2 0x17BE JUMPI POP PUSH1 0x1 PUSH1 0x1 PUSH1 0xA0 SHL SUB DUP7 AND ISZERO ISZERO JUMPDEST ISZERO PUSH2 0x1822 JUMPI PUSH1 0x0 PUSH2 0x17E3 PUSH2 0x3E8 PUSH2 0x109B PUSH1 0x7 PUSH1 0x5 ADD SLOAD DUP6 PUSH2 0x2959 SWAP1 SWAP2 SWAP1 PUSH4 0xFFFFFFFF AND JUMP JUMPDEST PUSH1 0x8 SLOAD SWAP1 SWAP2 POP PUSH2 0x17FD SWAP1 PUSH1 0x1 PUSH1 0x1 PUSH1 0xA0 SHL SUB AND DUP9 DUP4 PUSH2 0x2B66 JUMP JUMPDEST PUSH1 0x8 SLOAD PUSH2 0x1814 SWAP1 PUSH1 0x1 PUSH1 0x1 PUSH1 0xA0 SHL SUB AND DUP9 DUP4 PUSH2 0x27E4 JUMP JUMPDEST PUSH2 0x181E DUP3 DUP3 PUSH2 0x278D JUMP JUMPDEST SWAP2 POP POP JUMPDEST PUSH1 0x8 SLOAD PUSH1 0x40 DUP1 MLOAD PUSH4 0x852CD8D PUSH1 0xE3 SHL DUP2 MSTORE PUSH1 0x4 DUP2 ADD DUP5 SWAP1 MSTORE SWAP1 MLOAD PUSH1 0x1 PUSH1 0x1 PUSH1 0xA0 SHL SUB SWAP1 SWAP3 AND SWAP2 PUSH4 0x42966C68 SWAP2 PUSH1 0x24 DUP1 DUP3 ADD SWAP3 PUSH1 0x0 SWAP3 SWAP1 SWAP2 SWAP1 DUP3 SWAP1 SUB ADD DUP2 DUP4 DUP8 DUP1 EXTCODESIZE ISZERO DUP1 ISZERO PUSH2 0x186F JUMPI PUSH1 0x0 DUP1 REVERT JUMPDEST POP GAS CALL ISZERO DUP1 ISZERO PUSH2 0x1883 JUMPI RETURNDATASIZE PUSH1 0x0 DUP1 RETURNDATACOPY RETURNDATASIZE PUSH1 0x0 REVERT JUMPDEST POP POP POP POP POP JUMPDEST PUSH2 0x18C2 JUMP JUMPDEST CALLVALUE ISZERO PUSH2 0x18C2 JUMPI PUSH1 0x40 MLOAD CALLER SWAP1 CALLVALUE DUP1 ISZERO PUSH2 0x8FC MUL SWAP2 PUSH1 0x0 DUP2 DUP2 DUP2 DUP6 DUP9 DUP9 CALL SWAP4 POP POP POP POP ISZERO DUP1 ISZERO PUSH2 0x18C0 JUMPI RETURNDATASIZE PUSH1 0x0 DUP1 RETURNDATACOPY RETURNDATASIZE PUSH1 0x0 REVERT JUMPDEST POP JUMPDEST PUSH1 0x0 PUSH2 0x18E2 PUSH2 0x3E8 PUSH2 0x109B PUSH1 0x7 PUSH1 0x4 ADD SLOAD DUP12 PUSH2 0x2959 SWAP1 SWAP2 SWAP1 PUSH4 0xFFFFFFFF AND JUMP JUMPDEST SWAP1 POP DUP5 ISZERO DUP1 ISZERO PUSH2 0x18FA JUMPI POP PUSH2 0x18F8 PUSH1 0x10 CALLER PUSH2 0x2B51 JUMP JUMPDEST ISZERO JUMPDEST ISZERO PUSH2 0x191A JUMPI PUSH1 0xA SLOAD PUSH2 0x1917 SWAP1 PUSH2 0x3E8 SWAP1 PUSH2 0x109B SWAP1 DUP5 SWAP1 DUP4 SUB PUSH2 0x2959 JUMP JUMPDEST SWAP1 POP JUMPDEST PUSH1 0x12 SLOAD PUSH2 0x1932 SWAP1 DUP11 SWAP1 PUSH1 0x1 PUSH1 0x1 PUSH1 0xA0 SHL SUB AND DUP4 PUSH2 0x27E4 JUMP JUMPDEST PUSH1 0x0 PUSH2 0x193E DUP10 DUP4 PUSH2 0x278D JUMP JUMPDEST SWAP1 POP PUSH2 0x1948 PUSH2 0x2FC4 JUMP JUMPDEST TIMESTAMP DUP2 PUSH1 0x0 ADD DUP2 DUP2 MSTORE POP POP DUP2 DUP2 PUSH1 0x20 ADD DUP2 DUP2 MSTORE POP POP DUP2 DUP2 PUSH1 0x40 ADD DUP2 DUP2 MSTORE POP POP DUP9 DUP2 PUSH1 0x60 ADD DUP2 DUP2 MSTORE POP POP PUSH1 0x6 PUSH1 0x0 DUP13 PUSH1 0x1 PUSH1 0x1 PUSH1 0xA0 SHL SUB AND PUSH1 0x1 PUSH1 0x1 PUSH1 0xA0 SHL SUB AND DUP2 MSTORE PUSH1 0x20 ADD SWAP1 DUP2 MSTORE PUSH1 0x20 ADD PUSH1 0x0 KECCAK256 DUP1 SLOAD SWAP1 POP DUP2 PUSH1 0x80 ADD DUP2 DUP2 MSTORE POP POP DUP6 DUP2 PUSH1 0xA0 ADD SWAP1 PUSH1 0x1 PUSH1 0x1 PUSH1 0xA0 SHL SUB AND SWAP1 DUP2 PUSH1 0x1 PUSH1 0x1 PUSH1 0xA0 SHL SUB AND DUP2 MSTORE POP POP PUSH1 0x6 PUSH1 0x0 DUP13 PUSH1 0x1 PUSH1 0x1 PUSH1 0xA0 SHL SUB AND PUSH1 0x1 PUSH1 0x1 PUSH1 0xA0 SHL SUB AND DUP2 MSTORE PUSH1 0x20 ADD SWAP1 DUP2 MSTORE PUSH1 0x20 ADD PUSH1 0x0 KECCAK256 DUP2 SWAP1 DUP1 PUSH1 0x1 DUP2 SLOAD ADD DUP1 DUP3 SSTORE DUP1 SWAP2 POP POP PUSH1 0x1 SWAP1 SUB SWAP1 PUSH1 0x0 MSTORE PUSH1 0x20 PUSH1 0x0 KECCAK256 SWAP1 PUSH1 0x6 MUL ADD PUSH1 0x0 SWAP1 SWAP2 SWAP1 SWAP2 SWAP1 SWAP2 POP PUSH1 0x0 DUP3 ADD MLOAD DUP2 PUSH1 0x0 ADD SSTORE PUSH1 0x20 DUP3 ADD MLOAD DUP2 PUSH1 0x1 ADD SSTORE PUSH1 0x40 DUP3 ADD MLOAD DUP2 PUSH1 0x2 ADD SSTORE PUSH1 0x60 DUP3 ADD MLOAD DUP2 PUSH1 0x3 ADD SSTORE PUSH1 0x80 DUP3 ADD MLOAD DUP2 PUSH1 0x4 ADD SSTORE PUSH1 0xA0 DUP3 ADD MLOAD DUP2 PUSH1 0x5 ADD PUSH1 0x0 PUSH2 0x100 EXP DUP2 SLOAD DUP2 PUSH1 0x1 PUSH1 0x1 PUSH1 0xA0 SHL SUB MUL NOT AND SWAP1 DUP4 PUSH1 0x1 PUSH1 0x1 PUSH1 0xA0 SHL SUB AND MUL OR SWAP1 SSTORE POP POP POP PUSH2 0x1A84 DUP12 PUSH1 0x4 PUSH2 0x2CC9 SWAP1 SWAP2 SWAP1 PUSH4 0xFFFFFFFF AND JUMP JUMPDEST POP PUSH1 0x1 PUSH1 0x1 PUSH1 0xA0 SHL SUB DUP7 AND PUSH1 0x0 SWAP1 DUP2 MSTORE PUSH1 0x3 PUSH1 0x20 MSTORE PUSH1 0x40 SWAP1 KECCAK256 PUSH2 0x1AA7 DUP2 DUP14 PUSH2 0x2CC9 JUMP JUMPDEST POP PUSH1 0x1 PUSH1 0x1 PUSH1 0xA0 SHL SUB DUP13 AND PUSH1 0x0 DUP2 DUP2 MSTORE PUSH1 0x2 DUP4 ADD PUSH1 0x20 SWAP1 DUP2 MSTORE PUSH1 0x40 DUP1 DUP4 KECCAK256 PUSH1 0x80 DUP1 DUP9 ADD MLOAD DUP3 SLOAD PUSH1 0x1 DUP2 ADD DUP5 SSTORE DUP4 DUP8 MSTORE SWAP6 DUP6 SWAP1 KECCAK256 SWAP1 SWAP6 ADD SWAP5 SWAP1 SWAP5 SSTORE DUP7 DUP4 ADD MLOAD DUP8 MLOAD PUSH1 0x60 DUP1 DUP11 ADD MLOAD DUP6 MLOAD SWAP9 DUP10 MSTORE CALLER SWAP7 DUP10 ADD SWAP7 SWAP1 SWAP7 MSTORE DUP8 DUP6 ADD SWAP3 SWAP1 SWAP3 MSTORE SWAP1 DUP7 ADD MSTORE SWAP3 DUP5 ADD SWAP2 SWAP1 SWAP2 MSTORE MLOAD SWAP1 SWAP2 PUSH32 0x830357565DA6ECFC26D8D9F69DF488ED6F70361AF9A07E570544AEB5C5E765E5 SWAP2 SWAP1 DUP2 SWAP1 SUB PUSH1 0xA0 ADD SWAP1 LOG1 POP POP PUSH1 0x1 DUP1 SSTORE POP POP POP POP POP POP POP POP POP POP POP JUMP JUMPDEST PUSH1 0x2 SLOAD PUSH1 0x1 PUSH1 0x1 PUSH1 0xA0 SHL SUB AND DUP2 JUMP JUMPDEST PUSH1 0x0 PUSH2 0x874 PUSH1 0x10 DUP4 PUSH2 0x277D JUMP JUMPDEST PUSH1 0x0 SLOAD PUSH1 0x1 PUSH1 0x1 PUSH1 0xA0 SHL SUB AND SWAP1 JUMP JUMPDEST PUSH1 0x1 PUSH1 0x1 PUSH1 0xA0 SHL SUB DUP3 AND PUSH1 0x0 SWAP1 DUP2 MSTORE PUSH1 0x3 PUSH1 0x20 MSTORE PUSH1 0x40 DUP2 KECCAK256 PUSH2 0x1B9A DUP2 DUP5 PUSH2 0x277D JUMP JUMPDEST SWAP5 SWAP4 POP POP POP POP JUMP JUMPDEST PUSH1 0x7 SLOAD PUSH1 0x8 SLOAD PUSH1 0x9 SLOAD PUSH1 0xA SLOAD PUSH1 0xB SLOAD PUSH1 0xC SLOAD PUSH1 0xD SLOAD PUSH1 0xE SLOAD PUSH1 0xF SLOAD PUSH1 0x1 PUSH1 0x1 PUSH1 0xA0 SHL SUB SWAP8 DUP9 AND SWAP8 SWAP1 SWAP3 AND SWAP2 DUP10 JUMP JUMPDEST PUSH2 0x1BD8 PUSH2 0x2789 JUMP JUMPDEST PUSH1 0x0 SLOAD PUSH1 0x1 PUSH1 0x1 PUSH1 0xA0 SHL SUB SWAP1 DUP2 AND SWAP2 AND EQ PUSH2 0x1C28 JUMPI PUSH1 0x40 DUP1 MLOAD PUSH3 0x461BCD PUSH1 0xE5 SHL DUP2 MSTORE PUSH1 0x20 PUSH1 0x4 DUP3 ADD DUP2 SWAP1 MSTORE PUSH1 0x24 DUP3 ADD MSTORE PUSH1 0x0 DUP1 MLOAD PUSH1 0x20 PUSH2 0x308D DUP4 CODECOPY DUP2 MLOAD SWAP2 MSTORE PUSH1 0x44 DUP3 ADD MSTORE SWAP1 MLOAD SWAP1 DUP2 SWAP1 SUB PUSH1 0x64 ADD SWAP1 REVERT JUMPDEST DUP1 ISZERO PUSH2 0x1C3F JUMPI PUSH2 0x1C39 PUSH1 0x10 DUP4 PUSH2 0x2CC9 JUMP JUMPDEST POP PUSH2 0x1C4C JUMP JUMPDEST PUSH2 0x1C4A PUSH1 0x10 DUP4 PUSH2 0x27CF JUMP JUMPDEST POP JUMPDEST POP POP JUMP JUMPDEST PUSH1 0x1 PUSH1 0x1 PUSH1 0xA0 SHL SUB DUP2 AND PUSH1 0x0 SWAP1 DUP2 MSTORE PUSH1 0x3 PUSH1 0x20 MSTORE PUSH1 0x40 DUP2 KECCAK256 PUSH2 0x1C71 DUP2 PUSH2 0x294E JUMP JUMPDEST SWAP4 SWAP3 POP POP POP JUMP JUMPDEST PUSH1 0x1 PUSH1 0x1 PUSH1 0xA0 SHL SUB SWAP2 DUP3 AND PUSH1 0x0 SWAP1 DUP2 MSTORE PUSH1 0x3 PUSH1 0x20 SWAP1 DUP2 MSTORE PUSH1 0x40 DUP1 DUP4 KECCAK256 SWAP4 SWAP1 SWAP5 AND DUP3 MSTORE PUSH1 0x2 SWAP1 SWAP3 ADD SWAP1 SWAP2 MSTORE KECCAK256 SLOAD SWAP1 JUMP JUMPDEST PUSH1 0x2 PUSH1 0x1 SLOAD EQ ISZERO PUSH2 0x1CED JUMPI PUSH1 0x40 DUP1 MLOAD PUSH3 0x461BCD PUSH1 0xE5 SHL DUP2 MSTORE PUSH1 0x20 PUSH1 0x4 DUP3 ADD MSTORE PUSH1 0x1F PUSH1 0x24 DUP3 ADD MSTORE PUSH1 0x0 DUP1 MLOAD PUSH1 0x20 PUSH2 0x3026 DUP4 CODECOPY DUP2 MLOAD SWAP2 MSTORE PUSH1 0x44 DUP3 ADD MSTORE SWAP1 MLOAD SWAP1 DUP2 SWAP1 SUB PUSH1 0x64 ADD SWAP1 REVERT JUMPDEST PUSH1 0x2 PUSH1 0x1 SSTORE DUP1 PUSH2 0x1D32 JUMPI PUSH1 0x40 DUP1 MLOAD PUSH3 0x461BCD PUSH1 0xE5 SHL DUP2 MSTORE PUSH1 0x20 PUSH1 0x4 DUP3 ADD MSTORE PUSH1 0xB PUSH1 0x24 DUP3 ADD MSTORE PUSH11 0x16915493C8105353D55395 PUSH1 0xAA SHL PUSH1 0x44 DUP3 ADD MSTORE SWAP1 MLOAD SWAP1 DUP2 SWAP1 SUB PUSH1 0x64 ADD SWAP1 REVERT JUMPDEST CALLER PUSH1 0x0 SWAP1 DUP2 MSTORE PUSH1 0x3 PUSH1 0x20 SWAP1 DUP2 MSTORE PUSH1 0x40 DUP1 DUP4 KECCAK256 PUSH1 0x1 PUSH1 0x1 PUSH1 0xA0 SHL SUB DUP9 AND DUP5 MSTORE PUSH1 0x2 ADD SWAP1 SWAP2 MSTORE DUP2 KECCAK256 DUP1 SLOAD DUP6 SWAP1 DUP2 LT PUSH2 0x1D64 JUMPI INVALID JUMPDEST SWAP1 PUSH1 0x0 MSTORE PUSH1 0x20 PUSH1 0x0 KECCAK256 ADD SLOAD SWAP1 POP PUSH1 0x0 PUSH1 0x6 PUSH1 0x0 DUP8 PUSH1 0x1 PUSH1 0x1 PUSH1 0xA0 SHL SUB AND PUSH1 0x1 PUSH1 0x1 PUSH1 0xA0 SHL SUB AND DUP2 MSTORE PUSH1 0x20 ADD SWAP1 DUP2 MSTORE PUSH1 0x20 ADD PUSH1 0x0 KECCAK256 DUP3 DUP2 SLOAD DUP2 LT PUSH2 0x1DA3 JUMPI INVALID JUMPDEST SWAP1 PUSH1 0x0 MSTORE PUSH1 0x20 PUSH1 0x0 KECCAK256 SWAP1 PUSH1 0x6 MUL ADD SWAP1 POP DUP4 DUP3 EQ DUP1 ISZERO PUSH2 0x1DCE JUMPI POP PUSH1 0x5 DUP2 ADD SLOAD PUSH1 0x1 PUSH1 0x1 PUSH1 0xA0 SHL SUB AND CALLER EQ JUMPDEST PUSH2 0x1E0F JUMPI PUSH1 0x40 DUP1 MLOAD PUSH3 0x461BCD PUSH1 0xE5 SHL DUP2 MSTORE PUSH1 0x20 PUSH1 0x4 DUP3 ADD MSTORE PUSH1 0xD PUSH1 0x24 DUP3 ADD MSTORE PUSH13 0x989E8696409A92A69A82A8869 PUSH1 0x9B SHL PUSH1 0x44 DUP3 ADD MSTORE SWAP1 MLOAD SWAP1 DUP2 SWAP1 SUB PUSH1 0x64 ADD SWAP1 REVERT JUMPDEST PUSH2 0x1E1B DUP7 CALLER ADDRESS DUP7 PUSH2 0x29F4 JUMP JUMPDEST PUSH1 0x0 PUSH2 0x1E3B PUSH2 0x3E8 PUSH2 0x109B PUSH1 0x7 PUSH1 0x4 ADD SLOAD DUP8 PUSH2 0x2959 SWAP1 SWAP2 SWAP1 PUSH4 0xFFFFFFFF AND JUMP JUMPDEST PUSH1 0x12 SLOAD SWAP1 SWAP2 POP PUSH2 0x1E56 SWAP1 DUP9 SWAP1 PUSH1 0x1 PUSH1 0x1 PUSH1 0xA0 SHL SUB AND DUP4 PUSH2 0x27E4 JUMP JUMPDEST PUSH1 0x0 PUSH2 0x1E62 DUP6 DUP4 PUSH2 0x278D JUMP JUMPDEST PUSH1 0x1 DUP5 ADD SLOAD SWAP1 SWAP2 POP PUSH2 0x1E74 SWAP1 DUP3 PUSH2 0x2CDE JUMP JUMPDEST PUSH1 0x1 DUP5 ADD SSTORE DUP3 SLOAD PUSH1 0x3 DUP5 ADD SLOAD PUSH1 0x40 DUP1 MLOAD PUSH1 0x1 PUSH1 0x1 PUSH1 0xA0 SHL SUB DUP13 AND DUP2 MSTORE CALLER PUSH1 0x20 DUP3 ADD MSTORE DUP1 DUP3 ADD DUP6 SWAP1 MSTORE PUSH1 0x60 DUP2 ADD SWAP4 SWAP1 SWAP4 MSTORE PUSH1 0x80 DUP4 ADD SWAP2 SWAP1 SWAP2 MSTORE MLOAD PUSH32 0x830357565DA6ECFC26D8D9F69DF488ED6F70361AF9A07E570544AEB5C5E765E5 SWAP2 DUP2 SWAP1 SUB PUSH1 0xA0 ADD SWAP1 LOG1 POP POP PUSH1 0x1 DUP1 SSTORE POP POP POP POP POP POP JUMP JUMPDEST PUSH1 0x0 PUSH2 0x874 PUSH1 0x10 DUP4 PUSH2 0x2B51 JUMP JUMPDEST CALLER PUSH1 0x1 PUSH1 0x1 PUSH1 0xA0 SHL SUB DUP3 AND EQ ISZERO PUSH2 0x1F38 JUMPI PUSH1 0x40 DUP1 MLOAD PUSH3 0x461BCD PUSH1 0xE5 SHL DUP2 MSTORE PUSH1 0x20 PUSH1 0x4 DUP3 ADD MSTORE PUSH1 0x5 PUSH1 0x24 DUP3 ADD MSTORE PUSH5 0x27ABA722A9 PUSH1 0xD9 SHL PUSH1 0x44 DUP3 ADD MSTORE SWAP1 MLOAD SWAP1 DUP2 SWAP1 SUB PUSH1 0x64 ADD SWAP1 REVERT JUMPDEST CALLER PUSH1 0x0 SWAP1 DUP2 MSTORE PUSH1 0x3 PUSH1 0x20 SWAP1 DUP2 MSTORE PUSH1 0x40 DUP1 DUP4 KECCAK256 PUSH1 0x1 PUSH1 0x1 PUSH1 0xA0 SHL SUB DUP9 AND DUP5 MSTORE PUSH1 0x2 ADD SWAP1 SWAP2 MSTORE DUP2 KECCAK256 DUP1 SLOAD DUP6 SWAP1 DUP2 LT PUSH2 0x1F6A JUMPI INVALID JUMPDEST SWAP1 PUSH1 0x0 MSTORE PUSH1 0x20 PUSH1 0x0 KECCAK256 ADD SLOAD SWAP1 POP PUSH1 0x0 PUSH1 0x6 PUSH1 0x0 DUP8 PUSH1 0x1 PUSH1 0x1 PUSH1 0xA0 SHL SUB AND PUSH1 0x1 PUSH1 0x1 PUSH1 0xA0 SHL SUB AND DUP2 MSTORE PUSH1 0x20 ADD SWAP1 DUP2 MSTORE PUSH1 0x20 ADD PUSH1 0x0 KECCAK256 DUP3 DUP2 SLOAD DUP2 LT PUSH2 0x1FA9 JUMPI INVALID JUMPDEST SWAP1 PUSH1 0x0 MSTORE PUSH1 0x20 PUSH1 0x0 KECCAK256 SWAP1 PUSH1 0x6 MUL ADD SWAP1 POP DUP4 DUP3 EQ DUP1 ISZERO PUSH2 0x1FD4 JUMPI POP PUSH1 0x5 DUP2 ADD SLOAD PUSH1 0x1 PUSH1 0x1 PUSH1 0xA0 SHL SUB AND CALLER EQ JUMPDEST PUSH2 0x2015 JUMPI PUSH1 0x40 DUP1 MLOAD PUSH3 0x461BCD PUSH1 0xE5 SHL DUP2 MSTORE PUSH1 0x20 PUSH1 0x4 DUP3 ADD MSTORE PUSH1 0xD PUSH1 0x24 DUP3 ADD MSTORE PUSH13 0x989E8696409A92A69A82A8869 PUSH1 0x9B SHL PUSH1 0x44 DUP3 ADD MSTORE SWAP1 MLOAD SWAP1 DUP2 SWAP1 SUB PUSH1 0x64 ADD SWAP1 REVERT JUMPDEST PUSH1 0x1 PUSH1 0x1 PUSH1 0xA0 SHL SUB DUP4 AND PUSH1 0x0 SWAP1 DUP2 MSTORE PUSH1 0x3 PUSH1 0x20 MSTORE PUSH1 0x40 SWAP1 KECCAK256 PUSH2 0x2037 DUP2 DUP9 PUSH2 0x2CC9 JUMP JUMPDEST POP PUSH1 0x1 PUSH1 0x1 PUSH1 0xA0 SHL SUB DUP8 AND PUSH1 0x0 DUP2 DUP2 MSTORE PUSH1 0x2 DUP1 DUP5 ADD PUSH1 0x20 SWAP1 DUP2 MSTORE PUSH1 0x40 DUP1 DUP5 KECCAK256 PUSH1 0x4 DUP9 ADD SLOAD DUP2 SLOAD PUSH1 0x1 DUP2 ADD DUP4 SSTORE DUP3 DUP8 MSTORE DUP5 DUP8 KECCAK256 ADD SSTORE CALLER DUP6 MSTORE PUSH1 0x3 DUP4 MSTORE DUP2 DUP6 KECCAK256 SWAP6 DUP6 MSTORE SWAP5 SWAP1 SWAP3 ADD SWAP1 MSTORE SWAP1 KECCAK256 DUP1 SLOAD DUP2 SWAP1 PUSH1 0x0 NOT DUP2 ADD SWAP1 DUP2 LT PUSH2 0x2092 JUMPI INVALID JUMPDEST SWAP1 PUSH1 0x0 MSTORE PUSH1 0x20 PUSH1 0x0 KECCAK256 ADD SLOAD DUP2 DUP10 DUP2 SLOAD DUP2 LT PUSH2 0x20A9 JUMPI INVALID JUMPDEST SWAP1 PUSH1 0x0 MSTORE PUSH1 0x20 PUSH1 0x0 KECCAK256 ADD DUP2 SWAP1 SSTORE POP DUP1 DUP1 SLOAD DUP1 PUSH2 0x20C1 JUMPI INVALID JUMPDEST PUSH1 0x0 DUP3 DUP2 MSTORE PUSH1 0x20 DUP2 KECCAK256 DUP3 ADD PUSH1 0x0 NOT SWAP1 DUP2 ADD SWAP2 SWAP1 SWAP2 SSTORE ADD SWAP1 SSTORE DUP1 SLOAD PUSH2 0x20FA JUMPI CALLER PUSH1 0x0 SWAP1 DUP2 MSTORE PUSH1 0x3 PUSH1 0x20 MSTORE PUSH1 0x40 SWAP1 KECCAK256 PUSH2 0x20F8 SWAP1 DUP11 PUSH2 0x27CF JUMP JUMPDEST POP JUMPDEST POP POP POP PUSH1 0x5 ADD DUP1 SLOAD PUSH1 0x1 PUSH1 0x1 PUSH1 0xA0 SHL SUB NOT AND PUSH1 0x1 PUSH1 0x1 PUSH1 0xA0 SHL SUB SWAP4 SWAP1 SWAP4 AND SWAP3 SWAP1 SWAP3 OR SWAP1 SWAP2 SSTORE POP POP POP POP JUMP JUMPDEST PUSH1 0x6 PUSH1 0x20 MSTORE DUP2 PUSH1 0x0 MSTORE PUSH1 0x40 PUSH1 0x0 KECCAK256 DUP2 DUP2 SLOAD DUP2 LT PUSH2 0x213E JUMPI INVALID JUMPDEST PUSH1 0x0 SWAP2 DUP3 MSTORE PUSH1 0x20 SWAP1 SWAP2 KECCAK256 PUSH1 0x6 SWAP1 SWAP2 MUL ADD DUP1 SLOAD PUSH1 0x1 DUP3 ADD SLOAD PUSH1 0x2 DUP4 ADD SLOAD PUSH1 0x3 DUP5 ADD SLOAD PUSH1 0x4 DUP6 ADD SLOAD PUSH1 0x5 SWAP1 SWAP6 ADD SLOAD SWAP4 SWAP7 POP SWAP2 SWAP5 POP SWAP3 SWAP1 SWAP2 PUSH1 0x1 PUSH1 0x1 PUSH1 0xA0 SHL SUB AND DUP7 JUMP JUMPDEST PUSH2 0x2187 PUSH2 0x2789 JUMP JUMPDEST PUSH1 0x0 SLOAD PUSH1 0x1 PUSH1 0x1 PUSH1 0xA0 SHL SUB SWAP1 DUP2 AND SWAP2 AND EQ PUSH2 0x21D7 JUMPI PUSH1 0x40 DUP1 MLOAD PUSH3 0x461BCD PUSH1 0xE5 SHL DUP2 MSTORE PUSH1 0x20 PUSH1 0x4 DUP3 ADD DUP2 SWAP1 MSTORE PUSH1 0x24 DUP3 ADD MSTORE PUSH1 0x0 DUP1 MLOAD PUSH1 0x20 PUSH2 0x308D DUP4 CODECOPY DUP2 MLOAD SWAP2 MSTORE PUSH1 0x44 DUP3 ADD MSTORE SWAP1 MLOAD SWAP1 DUP2 SWAP1 SUB PUSH1 0x64 ADD SWAP1 REVERT JUMPDEST PUSH1 0x12 DUP1 SLOAD PUSH1 0x1 PUSH1 0x1 PUSH1 0xA0 SHL SUB NOT AND PUSH1 0x1 PUSH1 0x1 PUSH1 0xA0 SHL SUB SWAP3 SWAP1 SWAP3 AND SWAP2 SWAP1 SWAP2 OR SWAP1 SSTORE JUMP JUMPDEST PUSH1 0x0 DUP1 PUSH1 0x0 DUP1 PUSH1 0x0 DUP1 PUSH1 0x0 PUSH1 0x3 PUSH1 0x0 DUP12 PUSH1 0x1 PUSH1 0x1 PUSH1 0xA0 SHL SUB AND PUSH1 0x1 PUSH1 0x1 PUSH1 0xA0 SHL SUB AND DUP2 MSTORE PUSH1 0x20 ADD SWAP1 DUP2 MSTORE PUSH1 0x20 ADD PUSH1 0x0 KECCAK256 PUSH1 0x2 ADD PUSH1 0x0 DUP11 PUSH1 0x1 PUSH1 0x1 PUSH1 0xA0 SHL SUB AND PUSH1 0x1 PUSH1 0x1 PUSH1 0xA0 SHL SUB AND DUP2 MSTORE PUSH1 0x20 ADD SWAP1 DUP2 MSTORE PUSH1 0x20 ADD PUSH1 0x0 KECCAK256 DUP9 DUP2 SLOAD DUP2 LT PUSH2 0x225A JUMPI INVALID JUMPDEST SWAP1 PUSH1 0x0 MSTORE PUSH1 0x20 PUSH1 0x0 KECCAK256 ADD SLOAD SWAP1 POP PUSH1 0x0 PUSH1 0x6 PUSH1 0x0 DUP12 PUSH1 0x1 PUSH1 0x1 PUSH1 0xA0 SHL SUB AND PUSH1 0x1 PUSH1 0x1 PUSH1 0xA0 SHL SUB AND DUP2 MSTORE PUSH1 0x20 ADD SWAP1 DUP2 MSTORE PUSH1 0x20 ADD PUSH1 0x0 KECCAK256 DUP3 DUP2 SLOAD DUP2 LT PUSH2 0x2299 JUMPI INVALID JUMPDEST PUSH1 0x0 SWAP2 DUP3 MSTORE PUSH1 0x20 SWAP1 SWAP2 KECCAK256 PUSH1 0x6 SWAP1 SWAP2 MUL ADD DUP1 SLOAD PUSH1 0x1 DUP3 ADD SLOAD PUSH1 0x2 DUP4 ADD SLOAD PUSH1 0x3 DUP5 ADD SLOAD PUSH1 0x4 DUP6 ADD SLOAD PUSH1 0x5 SWAP1 SWAP6 ADD SLOAD SWAP4 SWAP13 POP SWAP2 SWAP11 POP SWAP9 POP SWAP7 POP SWAP1 SWAP5 POP PUSH1 0x1 PUSH1 0x1 PUSH1 0xA0 SHL SUB AND SWAP3 POP POP POP SWAP4 SWAP8 POP SWAP4 SWAP8 SWAP2 SWAP6 POP SWAP4 POP JUMP JUMPDEST PUSH1 0x2 PUSH1 0x1 SLOAD EQ ISZERO PUSH2 0x2331 JUMPI PUSH1 0x40 DUP1 MLOAD PUSH3 0x461BCD PUSH1 0xE5 SHL DUP2 MSTORE PUSH1 0x20 PUSH1 0x4 DUP3 ADD MSTORE PUSH1 0x1F PUSH1 0x24 DUP3 ADD MSTORE PUSH1 0x0 DUP1 MLOAD PUSH1 0x20 PUSH2 0x3026 DUP4 CODECOPY DUP2 MLOAD SWAP2 MSTORE PUSH1 0x44 DUP3 ADD MSTORE SWAP1 MLOAD SWAP1 DUP2 SWAP1 SUB PUSH1 0x64 ADD SWAP1 REVERT JUMPDEST PUSH1 0x2 PUSH1 0x1 SSTORE PUSH1 0x13 SLOAD PUSH1 0x1 PUSH1 0x1 PUSH1 0xA0 SHL SUB AND PUSH2 0x237D JUMPI PUSH1 0x40 DUP1 MLOAD PUSH3 0x461BCD PUSH1 0xE5 SHL DUP2 MSTORE PUSH1 0x20 PUSH1 0x4 DUP3 ADD MSTORE PUSH1 0x7 PUSH1 0x24 DUP3 ADD MSTORE PUSH7 0x1393D50814D155 PUSH1 0xCA SHL PUSH1 0x44 DUP3 ADD MSTORE SWAP1 MLOAD SWAP1 DUP2 SWAP1 SUB PUSH1 0x64 ADD SWAP1 REVERT JUMPDEST PUSH1 0x0 DUP2 GT PUSH2 0x23C3 JUMPI PUSH1 0x40 DUP1 MLOAD PUSH3 0x461BCD PUSH1 0xE5 SHL DUP2 MSTORE PUSH1 0x20 PUSH1 0x4 DUP3 ADD MSTORE PUSH1 0xE PUSH1 0x24 DUP3 ADD MSTORE PUSH14 0x2D22A9279026A4A3A920AA24A7A7 PUSH1 0x91 SHL PUSH1 0x44 DUP3 ADD MSTORE SWAP1 MLOAD SWAP1 DUP2 SWAP1 SUB PUSH1 0x64 ADD SWAP1 REVERT JUMPDEST CALLER PUSH1 0x0 SWAP1 DUP2 MSTORE PUSH1 0x3 PUSH1 0x20 SWAP1 DUP2 MSTORE PUSH1 0x40 DUP1 DUP4 KECCAK256 PUSH1 0x1 PUSH1 0x1 PUSH1 0xA0 SHL SUB DUP9 AND DUP5 MSTORE PUSH1 0x2 ADD SWAP1 SWAP2 MSTORE DUP2 KECCAK256 DUP1 SLOAD DUP6 SWAP1 DUP2 LT PUSH2 0x23F5 JUMPI INVALID JUMPDEST SWAP1 PUSH1 0x0 MSTORE PUSH1 0x20 PUSH1 0x0 KECCAK256 ADD SLOAD SWAP1 POP PUSH1 0x0 PUSH1 0x6 PUSH1 0x0 DUP8 PUSH1 0x1 PUSH1 0x1 PUSH1 0xA0 SHL SUB AND PUSH1 0x1 PUSH1 0x1 PUSH1 0xA0 SHL SUB AND DUP2 MSTORE PUSH1 0x20 ADD SWAP1 DUP2 MSTORE PUSH1 0x20 ADD PUSH1 0x0 KECCAK256 DUP3 DUP2 SLOAD DUP2 LT PUSH2 0x2434 JUMPI INVALID JUMPDEST SWAP1 PUSH1 0x0 MSTORE PUSH1 0x20 PUSH1 0x0 KECCAK256 SWAP1 PUSH1 0x6 MUL ADD SWAP1 POP DUP4 DUP3 EQ DUP1 ISZERO PUSH2 0x245F JUMPI POP PUSH1 0x5 DUP2 ADD SLOAD PUSH1 0x1 PUSH1 0x1 PUSH1 0xA0 SHL SUB AND CALLER EQ JUMPDEST PUSH2 0x24A0 JUMPI PUSH1 0x40 DUP1 MLOAD PUSH3 0x461BCD PUSH1 0xE5 SHL DUP2 MSTORE PUSH1 0x20 PUSH1 0x4 DUP3 ADD MSTORE PUSH1 0xD PUSH1 0x24 DUP3 ADD MSTORE PUSH13 0x989E8696409A92A69A82A8869 PUSH1 0x9B SHL PUSH1 0x44 DUP3 ADD MSTORE SWAP1 MLOAD SWAP1 DUP2 SWAP1 SUB PUSH1 0x64 ADD SWAP1 REVERT JUMPDEST PUSH1 0x1 DUP2 ADD SLOAD PUSH2 0x24AF SWAP1 DUP5 PUSH2 0x278D JUMP JUMPDEST PUSH1 0x1 DUP3 ADD DUP2 SWAP1 SSTORE PUSH2 0x255C JUMPI CALLER PUSH1 0x0 SWAP1 DUP2 MSTORE PUSH1 0x3 PUSH1 0x20 SWAP1 DUP2 MSTORE PUSH1 0x40 DUP1 DUP4 KECCAK256 PUSH1 0x1 PUSH1 0x1 PUSH1 0xA0 SHL SUB DUP11 AND DUP5 MSTORE PUSH1 0x2 ADD SWAP1 SWAP2 MSTORE SWAP1 KECCAK256 DUP1 SLOAD DUP2 SWAP1 PUSH1 0x0 NOT DUP2 ADD SWAP1 DUP2 LT PUSH2 0x24F2 JUMPI INVALID JUMPDEST SWAP1 PUSH1 0x0 MSTORE PUSH1 0x20 PUSH1 0x0 KECCAK256 ADD SLOAD DUP2 DUP8 DUP2 SLOAD DUP2 LT PUSH2 0x2509 JUMPI INVALID JUMPDEST SWAP1 PUSH1 0x0 MSTORE PUSH1 0x20 PUSH1 0x0 KECCAK256 ADD DUP2 SWAP1 SSTORE POP DUP1 DUP1 SLOAD DUP1 PUSH2 0x2521 JUMPI INVALID JUMPDEST PUSH1 0x0 DUP3 DUP2 MSTORE PUSH1 0x20 DUP2 KECCAK256 DUP3 ADD PUSH1 0x0 NOT SWAP1 DUP2 ADD SWAP2 SWAP1 SWAP2 SSTORE ADD SWAP1 SSTORE DUP1 SLOAD PUSH2 0x255A JUMPI CALLER PUSH1 0x0 SWAP1 DUP2 MSTORE PUSH1 0x3 PUSH1 0x20 MSTORE PUSH1 0x40 SWAP1 KECCAK256 PUSH2 0x2558 SWAP1 DUP9 PUSH2 0x27CF JUMP JUMPDEST POP JUMPDEST POP JUMPDEST PUSH1 0x13 SLOAD PUSH2 0x2574 SWAP1 DUP8 SWAP1 PUSH1 0x1 PUSH1 0x1 PUSH1 0xA0 SHL SUB AND DUP6 PUSH2 0x2B66 JUMP JUMPDEST PUSH1 0x13 SLOAD PUSH1 0x3 DUP3 ADD SLOAD PUSH1 0x40 DUP1 MLOAD PUSH4 0xDB5ECD3F PUSH1 0xE0 SHL DUP2 MSTORE PUSH1 0x1 PUSH1 0x1 PUSH1 0xA0 SHL SUB DUP11 DUP2 AND PUSH1 0x4 DUP4 ADD MSTORE PUSH1 0x24 DUP3 ADD DUP9 SWAP1 MSTORE PUSH1 0x44 DUP3 ADD SWAP4 SWAP1 SWAP4 MSTORE CALLER PUSH1 0x64 DUP3 ADD MSTORE SWAP1 MLOAD SWAP2 SWAP1 SWAP3 AND SWAP2 PUSH4 0xDB5ECD3F SWAP2 PUSH1 0x84 DUP1 DUP4 ADD SWAP3 PUSH1 0x20 SWAP3 SWAP2 SWAP1 DUP3 SWAP1 SUB ADD DUP2 PUSH1 0x0 DUP8 DUP1 EXTCODESIZE ISZERO DUP1 ISZERO PUSH2 0x25DD JUMPI PUSH1 0x0 DUP1 REVERT JUMPDEST POP GAS CALL ISZERO DUP1 ISZERO PUSH2 0x25F1 JUMPI RETURNDATASIZE PUSH1 0x0 DUP1 RETURNDATACOPY RETURNDATASIZE PUSH1 0x0 REVERT JUMPDEST POP POP POP POP PUSH1 0x40 MLOAD RETURNDATASIZE PUSH1 0x20 DUP2 LT ISZERO PUSH2 0x10E5 JUMPI PUSH1 0x0 DUP1 REVERT JUMPDEST PUSH2 0x260F PUSH2 0x2789 JUMP JUMPDEST PUSH1 0x0 SLOAD PUSH1 0x1 PUSH1 0x1 PUSH1 0xA0 SHL SUB SWAP1 DUP2 AND SWAP2 AND EQ PUSH2 0x265F JUMPI PUSH1 0x40 DUP1 MLOAD PUSH3 0x461BCD PUSH1 0xE5 SHL DUP2 MSTORE PUSH1 0x20 PUSH1 0x4 DUP3 ADD DUP2 SWAP1 MSTORE PUSH1 0x24 DUP3 ADD MSTORE PUSH1 0x0 DUP1 MLOAD PUSH1 0x20 PUSH2 0x308D DUP4 CODECOPY DUP2 MLOAD SWAP2 MSTORE PUSH1 0x44 DUP3 ADD MSTORE SWAP1 MLOAD SWAP1 DUP2 SWAP1 SUB PUSH1 0x64 ADD SWAP1 REVERT JUMPDEST PUSH1 0xD DUP1 SLOAD PUSH1 0x1 PUSH1 0x1 PUSH1 0xA0 SHL SUB NOT AND PUSH1 0x1 PUSH1 0x1 PUSH1 0xA0 SHL SUB SWAP4 SWAP1 SWAP4 AND SWAP3 SWAP1 SWAP3 OR SWAP1 SWAP2 SSTORE PUSH1 0xE SSTORE JUMP JUMPDEST PUSH2 0x268D PUSH2 0x2789 JUMP JUMPDEST PUSH1 0x0 SLOAD PUSH1 0x1 PUSH1 0x1 PUSH1 0xA0 SHL SUB SWAP1 DUP2 AND SWAP2 AND EQ PUSH2 0x26DD JUMPI PUSH1 0x40 DUP1 MLOAD PUSH3 0x461BCD PUSH1 0xE5 SHL DUP2 MSTORE PUSH1 0x20 PUSH1 0x4 DUP3 ADD DUP2 SWAP1 MSTORE PUSH1 0x24 DUP3 ADD MSTORE PUSH1 0x0 DUP1 MLOAD PUSH1 0x20 PUSH2 0x308D DUP4 CODECOPY DUP2 MLOAD SWAP2 MSTORE PUSH1 0x44 DUP3 ADD MSTORE SWAP1 MLOAD SWAP1 DUP2 SWAP1 SUB PUSH1 0x64 ADD SWAP1 REVERT JUMPDEST PUSH1 0x1 PUSH1 0x1 PUSH1 0xA0 SHL SUB DUP2 AND PUSH2 0x2722 JUMPI PUSH1 0x40 MLOAD PUSH3 0x461BCD PUSH1 0xE5 SHL DUP2 MSTORE PUSH1 0x4 ADD DUP1 DUP1 PUSH1 0x20 ADD DUP3 DUP2 SUB DUP3 MSTORE PUSH1 0x26 DUP2 MSTORE PUSH1 0x20 ADD DUP1 PUSH2 0x3046 PUSH1 0x26 SWAP2 CODECOPY PUSH1 0x40 ADD SWAP2 POP POP PUSH1 0x40 MLOAD DUP1 SWAP2 SUB SWAP1 REVERT JUMPDEST PUSH1 0x0 DUP1 SLOAD PUSH1 0x40 MLOAD PUSH1 0x1 PUSH1 0x1 PUSH1 0xA0 SHL SUB DUP1 DUP6 AND SWAP4 SWAP3 AND SWAP2 PUSH32 0x8BE0079C531659141344CD1FD0A4F28419497F9722A3DAAFE3B4186F6B6457E0 SWAP2 LOG3 PUSH1 0x0 DUP1 SLOAD PUSH1 0x1 PUSH1 0x1 PUSH1 0xA0 SHL SUB NOT AND PUSH1 0x1 PUSH1 0x1 PUSH1 0xA0 SHL SUB SWAP3 SWAP1 SWAP3 AND SWAP2 SWAP1 SWAP2 OR SWAP1 SSTORE JUMP JUMPDEST PUSH1 0x0 PUSH2 0x1C71 DUP4 DUP4 PUSH2 0x2D38 JUMP JUMPDEST CALLER SWAP1 JUMP JUMPDEST PUSH1 0x0 PUSH2 0x1C71 DUP4 DUP4 PUSH1 0x40 MLOAD DUP1 PUSH1 0x40 ADD PUSH1 0x40 MSTORE DUP1 PUSH1 0x1E DUP2 MSTORE PUSH1 0x20 ADD PUSH32 0x536166654D6174683A207375627472616374696F6E206F766572666C6F770000 DUP2 MSTORE POP PUSH2 0x2D9C JUMP JUMPDEST PUSH1 0x0 PUSH2 0x1C71 DUP4 PUSH1 0x1 PUSH1 0x1 PUSH1 0xA0 SHL SUB DUP5 AND PUSH2 0x2E33 JUMP JUMPDEST PUSH1 0x40 DUP1 MLOAD PUSH1 0x1 PUSH1 0x1 PUSH1 0xA0 SHL SUB DUP5 DUP2 AND PUSH1 0x24 DUP4 ADD MSTORE PUSH1 0x44 DUP1 DUP4 ADD DUP6 SWAP1 MSTORE DUP4 MLOAD DUP1 DUP5 SUB SWAP1 SWAP2 ADD DUP2 MSTORE PUSH1 0x64 SWAP1 SWAP3 ADD DUP4 MSTORE PUSH1 0x20 DUP3 ADD DUP1 MLOAD PUSH1 0x1 PUSH1 0x1 PUSH1 0xE0 SHL SUB AND PUSH4 0xA9059CBB PUSH1 0xE0 SHL OR DUP2 MSTORE SWAP3 MLOAD DUP3 MLOAD PUSH1 0x0 SWAP5 PUSH1 0x60 SWAP5 SWAP4 DUP10 AND SWAP4 SWAP3 SWAP2 DUP3 SWAP2 SWAP1 DUP1 DUP4 DUP4 JUMPDEST PUSH1 0x20 DUP4 LT PUSH2 0x2861 JUMPI DUP1 MLOAD DUP3 MSTORE PUSH1 0x1F NOT SWAP1 SWAP3 ADD SWAP2 PUSH1 0x20 SWAP2 DUP3 ADD SWAP2 ADD PUSH2 0x2842 JUMP JUMPDEST PUSH1 0x1 DUP4 PUSH1 0x20 SUB PUSH2 0x100 EXP SUB DUP1 NOT DUP3 MLOAD AND DUP2 DUP5 MLOAD AND DUP1 DUP3 OR DUP6 MSTORE POP POP POP POP POP POP SWAP1 POP ADD SWAP2 POP POP PUSH1 0x0 PUSH1 0x40 MLOAD DUP1 DUP4 SUB DUP2 PUSH1 0x0 DUP7 GAS CALL SWAP2 POP POP RETURNDATASIZE DUP1 PUSH1 0x0 DUP2 EQ PUSH2 0x28C3 JUMPI PUSH1 0x40 MLOAD SWAP2 POP PUSH1 0x1F NOT PUSH1 0x3F RETURNDATASIZE ADD AND DUP3 ADD PUSH1 0x40 MSTORE RETURNDATASIZE DUP3 MSTORE RETURNDATASIZE PUSH1 0x0 PUSH1 0x20 DUP5 ADD RETURNDATACOPY PUSH2 0x28C8 JUMP JUMPDEST PUSH1 0x60 SWAP2 POP JUMPDEST POP SWAP2 POP SWAP2 POP DUP2 DUP1 ISZERO PUSH2 0x28F6 JUMPI POP DUP1 MLOAD ISZERO DUP1 PUSH2 0x28F6 JUMPI POP DUP1 DUP1 PUSH1 0x20 ADD SWAP1 MLOAD PUSH1 0x20 DUP2 LT ISZERO PUSH2 0x28F3 JUMPI PUSH1 0x0 DUP1 REVERT JUMPDEST POP MLOAD JUMPDEST PUSH2 0x2947 JUMPI PUSH1 0x40 DUP1 MLOAD PUSH3 0x461BCD PUSH1 0xE5 SHL DUP2 MSTORE PUSH1 0x20 PUSH1 0x4 DUP3 ADD MSTORE PUSH1 0x1F PUSH1 0x24 DUP3 ADD MSTORE PUSH32 0x5472616E7366657248656C7065723A205452414E534645525F4641494C454400 PUSH1 0x44 DUP3 ADD MSTORE SWAP1 MLOAD SWAP1 DUP2 SWAP1 SUB PUSH1 0x64 ADD SWAP1 REVERT JUMPDEST POP POP POP POP POP JUMP JUMPDEST PUSH1 0x0 PUSH2 0x874 DUP3 PUSH2 0x2EF9 JUMP JUMPDEST PUSH1 0x0 DUP3 PUSH2 0x2968 JUMPI POP PUSH1 0x0 PUSH2 0x874 JUMP JUMPDEST DUP3 DUP3 MUL DUP3 DUP5 DUP3 DUP2 PUSH2 0x2975 JUMPI INVALID JUMPDEST DIV EQ PUSH2 0x1C71 JUMPI PUSH1 0x40 MLOAD PUSH3 0x461BCD PUSH1 0xE5 SHL DUP2 MSTORE PUSH1 0x4 ADD DUP1 DUP1 PUSH1 0x20 ADD DUP3 DUP2 SUB DUP3 MSTORE PUSH1 0x21 DUP2 MSTORE PUSH1 0x20 ADD DUP1 PUSH2 0x306C PUSH1 0x21 SWAP2 CODECOPY PUSH1 0x40 ADD SWAP2 POP POP PUSH1 0x40 MLOAD DUP1 SWAP2 SUB SWAP1 REVERT JUMPDEST PUSH1 0x0 PUSH2 0x1C71 DUP4 DUP4 PUSH1 0x40 MLOAD DUP1 PUSH1 0x40 ADD PUSH1 0x40 MSTORE DUP1 PUSH1 0x1A DUP2 MSTORE PUSH1 0x20 ADD PUSH32 0x536166654D6174683A206469766973696F6E206279207A65726F000000000000 DUP2 MSTORE POP PUSH2 0x2EFD JUMP JUMPDEST PUSH1 0x40 DUP1 MLOAD PUSH1 0x1 PUSH1 0x1 PUSH1 0xA0 SHL SUB DUP6 DUP2 AND PUSH1 0x24 DUP4 ADD MSTORE DUP5 DUP2 AND PUSH1 0x44 DUP4 ADD MSTORE PUSH1 0x64 DUP1 DUP4 ADD DUP6 SWAP1 MSTORE DUP4 MLOAD DUP1 DUP5 SUB SWAP1 SWAP2 ADD DUP2 MSTORE PUSH1 0x84 SWAP1 SWAP3 ADD DUP4 MSTORE PUSH1 0x20 DUP3 ADD DUP1 MLOAD PUSH1 0x1 PUSH1 0x1 PUSH1 0xE0 SHL SUB AND PUSH4 0x23B872DD PUSH1 0xE0 SHL OR DUP2 MSTORE SWAP3 MLOAD DUP3 MLOAD PUSH1 0x0 SWAP5 PUSH1 0x60 SWAP5 SWAP4 DUP11 AND SWAP4 SWAP3 SWAP2 DUP3 SWAP2 SWAP1 DUP1 DUP4 DUP4 JUMPDEST PUSH1 0x20 DUP4 LT PUSH2 0x2A79 JUMPI DUP1 MLOAD DUP3 MSTORE PUSH1 0x1F NOT SWAP1 SWAP3 ADD SWAP2 PUSH1 0x20 SWAP2 DUP3 ADD SWAP2 ADD PUSH2 0x2A5A JUMP JUMPDEST PUSH1 0x1 DUP4 PUSH1 0x20 SUB PUSH2 0x100 EXP SUB DUP1 NOT DUP3 MLOAD AND DUP2 DUP5 MLOAD AND DUP1 DUP3 OR DUP6 MSTORE POP POP POP POP POP POP SWAP1 POP ADD SWAP2 POP POP PUSH1 0x0 PUSH1 0x40 MLOAD DUP1 DUP4 SUB DUP2 PUSH1 0x0 DUP7 GAS CALL SWAP2 POP POP RETURNDATASIZE DUP1 PUSH1 0x0 DUP2 EQ PUSH2 0x2ADB JUMPI PUSH1 0x40 MLOAD SWAP2 POP PUSH1 0x1F NOT PUSH1 0x3F RETURNDATASIZE ADD AND DUP3 ADD PUSH1 0x40 MSTORE RETURNDATASIZE DUP3 MSTORE RETURNDATASIZE PUSH1 0x0 PUSH1 0x20 DUP5 ADD RETURNDATACOPY PUSH2 0x2AE0 JUMP JUMPDEST PUSH1 0x60 SWAP2 POP JUMPDEST POP SWAP2 POP SWAP2 POP DUP2 DUP1 ISZERO PUSH2 0x2B0E JUMPI POP DUP1 MLOAD ISZERO DUP1 PUSH2 0x2B0E JUMPI POP DUP1 DUP1 PUSH1 0x20 ADD SWAP1 MLOAD PUSH1 0x20 DUP2 LT ISZERO PUSH2 0x2B0B JUMPI PUSH1 0x0 DUP1 REVERT JUMPDEST POP MLOAD JUMPDEST PUSH2 0x2B49 JUMPI PUSH1 0x40 MLOAD PUSH3 0x461BCD PUSH1 0xE5 SHL DUP2 MSTORE PUSH1 0x4 ADD DUP1 DUP1 PUSH1 0x20 ADD DUP3 DUP2 SUB DUP3 MSTORE PUSH1 0x24 DUP2 MSTORE PUSH1 0x20 ADD DUP1 PUSH2 0x30AD PUSH1 0x24 SWAP2 CODECOPY PUSH1 0x40 ADD SWAP2 POP POP PUSH1 0x40 MLOAD DUP1 SWAP2 SUB SWAP1 REVERT JUMPDEST POP POP POP POP POP POP JUMP JUMPDEST PUSH1 0x0 PUSH2 0x1C71 DUP4 PUSH1 0x1 PUSH1 0x1 PUSH1 0xA0 SHL SUB DUP5 AND PUSH2 0x2F62 JUMP JUMPDEST PUSH1 0x40 DUP1 MLOAD PUSH1 0x1 PUSH1 0x1 PUSH1 0xA0 SHL SUB DUP5 DUP2 AND PUSH1 0x24 DUP4 ADD MSTORE PUSH1 0x44 DUP1 DUP4 ADD DUP6 SWAP1 MSTORE DUP4 MLOAD DUP1 DUP5 SUB SWAP1 SWAP2 ADD DUP2 MSTORE PUSH1 0x64 SWAP1 SWAP3 ADD DUP4 MSTORE PUSH1 0x20 DUP3 ADD DUP1 MLOAD PUSH1 0x1 PUSH1 0x1 PUSH1 0xE0 SHL SUB AND PUSH4 0x95EA7B3 PUSH1 0xE0 SHL OR DUP2 MSTORE SWAP3 MLOAD DUP3 MLOAD PUSH1 0x0 SWAP5 PUSH1 0x60 SWAP5 SWAP4 DUP10 AND SWAP4 SWAP3 SWAP2 DUP3 SWAP2 SWAP1 DUP1 DUP4 DUP4 JUMPDEST PUSH1 0x20 DUP4 LT PUSH2 0x2BE3 JUMPI DUP1 MLOAD DUP3 MSTORE PUSH1 0x1F NOT SWAP1 SWAP3 ADD SWAP2 PUSH1 0x20 SWAP2 DUP3 ADD SWAP2 ADD PUSH2 0x2BC4 JUMP JUMPDEST PUSH1 0x1 DUP4 PUSH1 0x20 SUB PUSH2 0x100 EXP SUB DUP1 NOT DUP3 MLOAD AND DUP2 DUP5 MLOAD AND DUP1 DUP3 OR DUP6 MSTORE POP POP POP POP POP POP SWAP1 POP ADD SWAP2 POP POP PUSH1 0x0 PUSH1 0x40 MLOAD DUP1 DUP4 SUB DUP2 PUSH1 0x0 DUP7 GAS CALL SWAP2 POP POP RETURNDATASIZE DUP1 PUSH1 0x0 DUP2 EQ PUSH2 0x2C45 JUMPI PUSH1 0x40 MLOAD SWAP2 POP PUSH1 0x1F NOT PUSH1 0x3F RETURNDATASIZE ADD AND DUP3 ADD PUSH1 0x40 MSTORE RETURNDATASIZE DUP3 MSTORE RETURNDATASIZE PUSH1 0x0 PUSH1 0x20 DUP5 ADD RETURNDATACOPY PUSH2 0x2C4A JUMP JUMPDEST PUSH1 0x60 SWAP2 POP JUMPDEST POP SWAP2 POP SWAP2 POP DUP2 DUP1 ISZERO PUSH2 0x2C78 JUMPI POP DUP1 MLOAD ISZERO DUP1 PUSH2 0x2C78 JUMPI POP DUP1 DUP1 PUSH1 0x20 ADD SWAP1 MLOAD PUSH1 0x20 DUP2 LT ISZERO PUSH2 0x2C75 JUMPI PUSH1 0x0 DUP1 REVERT JUMPDEST POP MLOAD JUMPDEST PUSH2 0x2947 JUMPI PUSH1 0x40 DUP1 MLOAD PUSH3 0x461BCD PUSH1 0xE5 SHL DUP2 MSTORE PUSH1 0x20 PUSH1 0x4 DUP3 ADD MSTORE PUSH1 0x1E PUSH1 0x24 DUP3 ADD MSTORE PUSH32 0x5472616E7366657248656C7065723A20415050524F56455F4641494C45440000 PUSH1 0x44 DUP3 ADD MSTORE SWAP1 MLOAD SWAP1 DUP2 SWAP1 SUB PUSH1 0x64 ADD SWAP1 REVERT JUMPDEST PUSH1 0x0 PUSH2 0x1C71 DUP4 PUSH1 0x1 PUSH1 0x1 PUSH1 0xA0 SHL SUB DUP5 AND PUSH2 0x2F7A JUMP JUMPDEST PUSH1 0x0 DUP3 DUP3 ADD DUP4 DUP2 LT ISZERO PUSH2 0x1C71 JUMPI PUSH1 0x40 DUP1 MLOAD PUSH3 0x461BCD PUSH1 0xE5 SHL DUP2 MSTORE PUSH1 0x20 PUSH1 0x4 DUP3 ADD MSTORE PUSH1 0x1B PUSH1 0x24 DUP3 ADD MSTORE PUSH32 0x536166654D6174683A206164646974696F6E206F766572666C6F770000000000 PUSH1 0x44 DUP3 ADD MSTORE SWAP1 MLOAD SWAP1 DUP2 SWAP1 SUB PUSH1 0x64 ADD SWAP1 REVERT JUMPDEST DUP2 SLOAD PUSH1 0x0 SWAP1 DUP3 LT PUSH2 0x2D7A JUMPI PUSH1 0x40 MLOAD PUSH3 0x461BCD PUSH1 0xE5 SHL DUP2 MSTORE PUSH1 0x4 ADD DUP1 DUP1 PUSH1 0x20 ADD DUP3 DUP2 SUB DUP3 MSTORE PUSH1 0x22 DUP2 MSTORE PUSH1 0x20 ADD DUP1 PUSH2 0x3004 PUSH1 0x22 SWAP2 CODECOPY PUSH1 0x40 ADD SWAP2 POP POP PUSH1 0x40 MLOAD DUP1 SWAP2 SUB SWAP1 REVERT JUMPDEST DUP3 PUSH1 0x0 ADD DUP3 DUP2 SLOAD DUP2 LT PUSH2 0x2D89 JUMPI INVALID JUMPDEST SWAP1 PUSH1 0x0 MSTORE PUSH1 0x20 PUSH1 0x0 KECCAK256 ADD SLOAD SWAP1 POP SWAP3 SWAP2 POP POP JUMP JUMPDEST PUSH1 0x0 DUP2 DUP5 DUP5 GT ISZERO PUSH2 0x2E2B JUMPI PUSH1 0x40 MLOAD PUSH3 0x461BCD PUSH1 0xE5 SHL DUP2 MSTORE PUSH1 0x4 ADD DUP1 DUP1 PUSH1 0x20 ADD DUP3 DUP2 SUB DUP3 MSTORE DUP4 DUP2 DUP2 MLOAD DUP2 MSTORE PUSH1 0x20 ADD SWAP2 POP DUP1 MLOAD SWAP1 PUSH1 0x20 ADD SWAP1 DUP1 DUP4 DUP4 PUSH1 0x0 JUMPDEST DUP4 DUP2 LT ISZERO PUSH2 0x2DF0 JUMPI DUP2 DUP2 ADD MLOAD DUP4 DUP3 ADD MSTORE PUSH1 0x20 ADD PUSH2 0x2DD8 JUMP JUMPDEST POP POP POP POP SWAP1 POP SWAP1 DUP2 ADD SWAP1 PUSH1 0x1F AND DUP1 ISZERO PUSH2 0x2E1D JUMPI DUP1 DUP3 SUB DUP1 MLOAD PUSH1 0x1 DUP4 PUSH1 0x20 SUB PUSH2 0x100 EXP SUB NOT AND DUP2 MSTORE PUSH1 0x20 ADD SWAP2 POP JUMPDEST POP SWAP3 POP POP POP PUSH1 0x40 MLOAD DUP1 SWAP2 SUB SWAP1 REVERT JUMPDEST POP POP POP SWAP1 SUB SWAP1 JUMP JUMPDEST PUSH1 0x0 DUP2 DUP2 MSTORE PUSH1 0x1 DUP4 ADD PUSH1 0x20 MSTORE PUSH1 0x40 DUP2 KECCAK256 SLOAD DUP1 ISZERO PUSH2 0x2EEF JUMPI DUP4 SLOAD PUSH1 0x0 NOT DUP1 DUP4 ADD SWAP2 SWAP1 DUP2 ADD SWAP1 PUSH1 0x0 SWAP1 DUP8 SWAP1 DUP4 SWAP1 DUP2 LT PUSH2 0x2E66 JUMPI INVALID JUMPDEST SWAP1 PUSH1 0x0 MSTORE PUSH1 0x20 PUSH1 0x0 KECCAK256 ADD SLOAD SWAP1 POP DUP1 DUP8 PUSH1 0x0 ADD DUP5 DUP2 SLOAD DUP2 LT PUSH2 0x2E83 JUMPI INVALID JUMPDEST PUSH1 0x0 SWAP2 DUP3 MSTORE PUSH1 0x20 DUP1 DUP4 KECCAK256 SWAP1 SWAP2 ADD SWAP3 SWAP1 SWAP3 SSTORE DUP3 DUP2 MSTORE PUSH1 0x1 DUP10 DUP2 ADD SWAP1 SWAP3 MSTORE PUSH1 0x40 SWAP1 KECCAK256 SWAP1 DUP5 ADD SWAP1 SSTORE DUP7 SLOAD DUP8 SWAP1 DUP1 PUSH2 0x2EB3 JUMPI INVALID JUMPDEST PUSH1 0x1 SWAP1 SUB DUP2 DUP2 SWAP1 PUSH1 0x0 MSTORE PUSH1 0x20 PUSH1 0x0 KECCAK256 ADD PUSH1 0x0 SWAP1 SSTORE SWAP1 SSTORE DUP7 PUSH1 0x1 ADD PUSH1 0x0 DUP8 DUP2 MSTORE PUSH1 0x20 ADD SWAP1 DUP2 MSTORE PUSH1 0x20 ADD PUSH1 0x0 KECCAK256 PUSH1 0x0 SWAP1 SSTORE PUSH1 0x1 SWAP5 POP POP POP POP POP PUSH2 0x874 JUMP JUMPDEST PUSH1 0x0 SWAP2 POP POP PUSH2 0x874 JUMP JUMPDEST SLOAD SWAP1 JUMP JUMPDEST PUSH1 0x0 DUP2 DUP4 PUSH2 0x2F4C JUMPI PUSH1 0x40 MLOAD PUSH3 0x461BCD PUSH1 0xE5 SHL DUP2 MSTORE PUSH1 0x20 PUSH1 0x4 DUP3 ADD DUP2 DUP2 MSTORE DUP4 MLOAD PUSH1 0x24 DUP5 ADD MSTORE DUP4 MLOAD SWAP1 SWAP3 DUP4 SWAP3 PUSH1 0x44 SWAP1 SWAP2 ADD SWAP2 SWAP1 DUP6 ADD SWAP1 DUP1 DUP4 DUP4 PUSH1 0x0 DUP4 ISZERO PUSH2 0x2DF0 JUMPI DUP2 DUP2 ADD MLOAD DUP4 DUP3 ADD MSTORE PUSH1 0x20 ADD PUSH2 0x2DD8 JUMP JUMPDEST POP PUSH1 0x0 DUP4 DUP6 DUP2 PUSH2 0x2F58 JUMPI INVALID JUMPDEST DIV SWAP6 SWAP5 POP POP POP POP POP JUMP JUMPDEST PUSH1 0x0 SWAP1 DUP2 MSTORE PUSH1 0x1 SWAP2 SWAP1 SWAP2 ADD PUSH1 0x20 MSTORE PUSH1 0x40 SWAP1 KECCAK256 SLOAD ISZERO ISZERO SWAP1 JUMP JUMPDEST PUSH1 0x0 PUSH2 0x2F86 DUP4 DUP4 PUSH2 0x2F62 JUMP JUMPDEST PUSH2 0x2FBC JUMPI POP DUP2 SLOAD PUSH1 0x1 DUP2 DUP2 ADD DUP5 SSTORE PUSH1 0x0 DUP5 DUP2 MSTORE PUSH1 0x20 DUP1 DUP3 KECCAK256 SWAP1 SWAP4 ADD DUP5 SWAP1 SSTORE DUP5 SLOAD DUP5 DUP3 MSTORE DUP3 DUP7 ADD SWAP1 SWAP4 MSTORE PUSH1 0x40 SWAP1 KECCAK256 SWAP2 SWAP1 SWAP2 SSTORE PUSH2 0x874 JUMP JUMPDEST POP PUSH1 0x0 PUSH2 0x874 JUMP JUMPDEST PUSH1 0x40 MLOAD DUP1 PUSH1 0xC0 ADD PUSH1 0x40 MSTORE DUP1 PUSH1 0x0 DUP2 MSTORE PUSH1 0x20 ADD PUSH1 0x0 DUP2 MSTORE PUSH1 0x20 ADD PUSH1 0x0 DUP2 MSTORE PUSH1 0x20 ADD PUSH1 0x0 DUP2 MSTORE PUSH1 0x20 ADD PUSH1 0x0 DUP2 MSTORE PUSH1 0x20 ADD PUSH1 0x0 PUSH1 0x1 PUSH1 0x1 PUSH1 0xA0 SHL SUB AND DUP2 MSTORE POP SWAP1 JUMP INVALID GASLIMIT PUSH15 0x756D657261626C655365743A20696E PUSH5 0x6578206F75 PUSH21 0x206F6620626F756E64735265656E7472616E637947 PUSH22 0x6172643A207265656E7472616E742063616C6C004F77 PUSH15 0x61626C653A206E6577206F776E6572 KECCAK256 PUSH10 0x7320746865207A65726F KECCAK256 PUSH2 0x6464 PUSH19 0x657373536166654D6174683A206D756C746970 PUSH13 0x69636174696F6E206F76657266 PUSH13 0x6F774F776E61626C653A206361 PUSH13 0x6C6572206973206E6F74207468 PUSH6 0x206F776E6572 SLOAD PUSH19 0x616E7366657248656C7065723A205452414E53 CHAINID GASLIMIT MSTORE 0x5F CHAINID MSTORE 0x4F 0x4D 0x5F CHAINID COINBASE 0x49 0x4C GASLIMIT DIFFICULTY LOG2 PUSH5 0x6970667358 0x22 SLT KECCAK256 0xFC CODESIZE SWAP12 PUSH24 0x1B27F20ED2D9F86DB07D8ABBAD5AEB5C07C6E23FCBC1CE47 0xBC 0xE1 0x4E SMOD PUSH5 0x736F6C6343 STOP MOD 0xC STOP CALLER "
				},
				"gasEstimates": {
					"creation": {
						"codeDepositCost": "2510000",
						"executionCost": "infinite",
						"totalCost": "infinite"
					},
					"external": {
						"gFees()": "7754",
						"getLockedTokenAtIndex(uint256)": "infinite",
						"getNumLockedTokens()": "1141",
						"getNumLocksForToken(address)": "1211",
						"getUserLockForTokenAtIndex(address,address,uint256)": "8360",
						"getUserLockedTokenAtIndex(address,uint256)": "infinite",
						"getUserNumLockedTokens(address)": "1291",
						"getUserNumLocksForToken(address,address)": "1348",
						"getUserWhitelistStatus(address)": "1299",
						"getWhitelistedUserAtIndex(uint256)": "infinite",
						"getWhitelistedUsersLength()": "1141",
						"incrementLock(address,uint256,uint256,uint256)": "infinite",
						"lockLPToken(address,uint256,uint256,address,bool,address)": "infinite",
						"migrate(address,uint256,uint256,uint256)": "infinite",
						"owner()": "1083",
						"relock(address,uint256,uint256,uint256)": "infinite",
						"renounceOwnership()": "infinite",
						"setDev(address)": "infinite",
						"setFees(uint256,uint256,uint256,uint256,uint256,uint256)": "infinite",
						"setMigrator(address)": "infinite",
						"setReferralTokenAndHold(address,uint256)": "infinite",
						"setSecondaryFeeToken(address)": "infinite",
						"splitLock(address,uint256,uint256,uint256)": "infinite",
						"tokenLocks(address,uint256)": "6339",
						"transferLockOwnership(address,uint256,uint256,address)": "infinite",
						"transferOwnership(address)": "infinite",
						"uniswapFactory()": "1126",
						"whitelistFeeAccount(address,bool)": "infinite",
						"withdraw(address,uint256,uint256,uint256)": "infinite"
					}
				},
				"methodIdentifiers": {
					"gFees()": "90e1a003",
					"getLockedTokenAtIndex(uint256)": "14dd79a3",
					"getNumLockedTokens()": "783451e8",
					"getNumLocksForToken(address)": "1f2a1d2f",
					"getUserLockForTokenAtIndex(address,address,uint256)": "d4ff493f",
					"getUserLockedTokenAtIndex(address,uint256)": "903df806",
					"getUserNumLockedTokens(address)": "a3969815",
					"getUserNumLocksForToken(address,address)": "a69d9c4f",
					"getUserWhitelistStatus(address)": "b9863a44",
					"getWhitelistedUserAtIndex(uint256)": "8c301df8",
					"getWhitelistedUsersLength()": "4bb18e3f",
					"incrementLock(address,uint256,uint256,uint256)": "a9b07cea",
					"lockLPToken(address,uint256,uint256,address,bool,address)": "8af416f6",
					"migrate(address,uint256,uint256,uint256)": "ee424278",
					"owner()": "8da5cb5b",
					"relock(address,uint256,uint256,uint256)": "60491d24",
					"renounceOwnership()": "715018a6",
					"setDev(address)": "d477f05f",
					"setFees(uint256,uint256,uint256,uint256,uint256,uint256)": "86f6c3c1",
					"setMigrator(address)": "23cf3118",
					"setReferralTokenAndHold(address,uint256)": "f02c2643",
					"setSecondaryFeeToken(address)": "8931a4be",
					"splitLock(address,uint256,uint256,uint256)": "582d5adc",
					"tokenLocks(address,uint256)": "ccebfa3f",
					"transferLockOwnership(address,uint256,uint256,address)": "bef497fd",
					"transferOwnership(address)": "f2fde38b",
					"uniswapFactory()": "8bdb2afa",
					"whitelistFeeAccount(address,bool)": "91ff1eb1",
					"withdraw(address,uint256,uint256,uint256)": "4532d776"
				}
			},
			"storageLayout": {
				"storage": [
					{
						"astId": 510,
						"contract": "UniswapV2Locker.sol:UniswapV2Locker",
						"label": "_owner",
						"offset": 0,
						"slot": "0",
						"type": "t_address"
					},
					{
						"astId": 622,
						"contract": "UniswapV2Locker.sol:UniswapV2Locker",
						"label": "_status",
						"offset": 0,
						"slot": "1",
						"type": "t_uint256"
					},
					{
						"astId": 1072,
						"contract": "UniswapV2Locker.sol:UniswapV2Locker",
						"label": "uniswapFactory",
						"offset": 0,
						"slot": "2",
						"type": "t_contract(IUniFactory)1046"
					},
					{
						"astId": 1097,
						"contract": "UniswapV2Locker.sol:UniswapV2Locker",
						"label": "users",
						"offset": 0,
						"slot": "3",
						"type": "t_mapping(t_address,t_struct(UserInfo)1080_storage)"
					},
					{
						"astId": 1099,
						"contract": "UniswapV2Locker.sol:UniswapV2Locker",
						"label": "lockedTokens",
						"offset": 0,
						"slot": "4",
						"type": "t_struct(AddressSet)298_storage"
					},
					{
						"astId": 1104,
						"contract": "UniswapV2Locker.sol:UniswapV2Locker",
						"label": "tokenLocks",
						"offset": 0,
						"slot": "6",
						"type": "t_mapping(t_address,t_array(t_struct(TokenLock)1093_storage)dyn_storage)"
					},
					{
						"astId": 1125,
						"contract": "UniswapV2Locker.sol:UniswapV2Locker",
						"label": "gFees",
						"offset": 0,
						"slot": "7",
						"type": "t_struct(FeeStruct)1123_storage"
					},
					{
						"astId": 1127,
						"contract": "UniswapV2Locker.sol:UniswapV2Locker",
						"label": "feeWhitelist",
						"offset": 0,
						"slot": "16",
						"type": "t_struct(AddressSet)298_storage"
					},
					{
						"astId": 1129,
						"contract": "UniswapV2Locker.sol:UniswapV2Locker",
						"label": "devaddr",
						"offset": 0,
						"slot": "18",
						"type": "t_address_payable"
					},
					{
						"astId": 1131,
						"contract": "UniswapV2Locker.sol:UniswapV2Locker",
						"label": "migrator",
						"offset": 0,
						"slot": "19",
						"type": "t_contract(IMigrator)1060"
					}
				],
				"types": {
					"t_address": {
						"encoding": "inplace",
						"label": "address",
						"numberOfBytes": "20"
					},
					"t_address_payable": {
						"encoding": "inplace",
						"label": "address payable",
						"numberOfBytes": "20"
					},
					"t_array(t_bytes32)dyn_storage": {
						"base": "t_bytes32",
						"encoding": "dynamic_array",
						"label": "bytes32[]",
						"numberOfBytes": "32"
					},
					"t_array(t_struct(TokenLock)1093_storage)dyn_storage": {
						"base": "t_struct(TokenLock)1093_storage",
						"encoding": "dynamic_array",
						"label": "struct UniswapV2Locker.TokenLock[]",
						"numberOfBytes": "32"
					},
					"t_array(t_uint256)dyn_storage": {
						"base": "t_uint256",
						"encoding": "dynamic_array",
						"label": "uint256[]",
						"numberOfBytes": "32"
					},
					"t_bytes32": {
						"encoding": "inplace",
						"label": "bytes32",
						"numberOfBytes": "32"
					},
					"t_contract(IERCBurn)1036": {
						"encoding": "inplace",
						"label": "contract IERCBurn",
						"numberOfBytes": "20"
					},
					"t_contract(IMigrator)1060": {
						"encoding": "inplace",
						"label": "contract IMigrator",
						"numberOfBytes": "20"
					},
					"t_contract(IUniFactory)1046": {
						"encoding": "inplace",
						"label": "contract IUniFactory",
						"numberOfBytes": "20"
					},
					"t_mapping(t_address,t_array(t_struct(TokenLock)1093_storage)dyn_storage)": {
						"encoding": "mapping",
						"key": "t_address",
						"label": "mapping(address => struct UniswapV2Locker.TokenLock[])",
						"numberOfBytes": "32",
						"value": "t_array(t_struct(TokenLock)1093_storage)dyn_storage"
					},
					"t_mapping(t_address,t_array(t_uint256)dyn_storage)": {
						"encoding": "mapping",
						"key": "t_address",
						"label": "mapping(address => uint256[])",
						"numberOfBytes": "32",
						"value": "t_array(t_uint256)dyn_storage"
					},
					"t_mapping(t_address,t_struct(UserInfo)1080_storage)": {
						"encoding": "mapping",
						"key": "t_address",
						"label": "mapping(address => struct UniswapV2Locker.UserInfo)",
						"numberOfBytes": "32",
						"value": "t_struct(UserInfo)1080_storage"
					},
					"t_mapping(t_bytes32,t_uint256)": {
						"encoding": "mapping",
						"key": "t_bytes32",
						"label": "mapping(bytes32 => uint256)",
						"numberOfBytes": "32",
						"value": "t_uint256"
					},
					"t_struct(AddressSet)298_storage": {
						"encoding": "inplace",
						"label": "struct EnumerableSet.AddressSet",
						"members": [
							{
								"astId": 297,
								"contract": "UniswapV2Locker.sol:UniswapV2Locker",
								"label": "_inner",
								"offset": 0,
								"slot": "0",
								"type": "t_struct(Set)33_storage"
							}
						],
						"numberOfBytes": "64"
					},
					"t_struct(FeeStruct)1123_storage": {
						"encoding": "inplace",
						"label": "struct UniswapV2Locker.FeeStruct",
						"members": [
							{
								"astId": 1106,
								"contract": "UniswapV2Locker.sol:UniswapV2Locker",
								"label": "ethFee",
								"offset": 0,
								"slot": "0",
								"type": "t_uint256"
							},
							{
								"astId": 1108,
								"contract": "UniswapV2Locker.sol:UniswapV2Locker",
								"label": "secondaryFeeToken",
								"offset": 0,
								"slot": "1",
								"type": "t_contract(IERCBurn)1036"
							},
							{
								"astId": 1110,
								"contract": "UniswapV2Locker.sol:UniswapV2Locker",
								"label": "secondaryTokenFee",
								"offset": 0,
								"slot": "2",
								"type": "t_uint256"
							},
							{
								"astId": 1112,
								"contract": "UniswapV2Locker.sol:UniswapV2Locker",
								"label": "secondaryTokenDiscount",
								"offset": 0,
								"slot": "3",
								"type": "t_uint256"
							},
							{
								"astId": 1114,
								"contract": "UniswapV2Locker.sol:UniswapV2Locker",
								"label": "liquidityFee",
								"offset": 0,
								"slot": "4",
								"type": "t_uint256"
							},
							{
								"astId": 1116,
								"contract": "UniswapV2Locker.sol:UniswapV2Locker",
								"label": "referralPercent",
								"offset": 0,
								"slot": "5",
								"type": "t_uint256"
							},
							{
								"astId": 1118,
								"contract": "UniswapV2Locker.sol:UniswapV2Locker",
								"label": "referralToken",
								"offset": 0,
								"slot": "6",
								"type": "t_contract(IERCBurn)1036"
							},
							{
								"astId": 1120,
								"contract": "UniswapV2Locker.sol:UniswapV2Locker",
								"label": "referralHold",
								"offset": 0,
								"slot": "7",
								"type": "t_uint256"
							},
							{
								"astId": 1122,
								"contract": "UniswapV2Locker.sol:UniswapV2Locker",
								"label": "referralDiscount",
								"offset": 0,
								"slot": "8",
								"type": "t_uint256"
							}
						],
						"numberOfBytes": "288"
					},
					"t_struct(Set)33_storage": {
						"encoding": "inplace",
						"label": "struct EnumerableSet.Set",
						"members": [
							{
								"astId": 28,
								"contract": "UniswapV2Locker.sol:UniswapV2Locker",
								"label": "_values",
								"offset": 0,
								"slot": "0",
								"type": "t_array(t_bytes32)dyn_storage"
							},
							{
								"astId": 32,
								"contract": "UniswapV2Locker.sol:UniswapV2Locker",
								"label": "_indexes",
								"offset": 0,
								"slot": "1",
								"type": "t_mapping(t_bytes32,t_uint256)"
							}
						],
						"numberOfBytes": "64"
					},
					"t_struct(TokenLock)1093_storage": {
						"encoding": "inplace",
						"label": "struct UniswapV2Locker.TokenLock",
						"members": [
							{
								"astId": 1082,
								"contract": "UniswapV2Locker.sol:UniswapV2Locker",
								"label": "lockDate",
								"offset": 0,
								"slot": "0",
								"type": "t_uint256"
							},
							{
								"astId": 1084,
								"contract": "UniswapV2Locker.sol:UniswapV2Locker",
								"label": "amount",
								"offset": 0,
								"slot": "1",
								"type": "t_uint256"
							},
							{
								"astId": 1086,
								"contract": "UniswapV2Locker.sol:UniswapV2Locker",
								"label": "initialAmount",
								"offset": 0,
								"slot": "2",
								"type": "t_uint256"
							},
							{
								"astId": 1088,
								"contract": "UniswapV2Locker.sol:UniswapV2Locker",
								"label": "unlockDate",
								"offset": 0,
								"slot": "3",
								"type": "t_uint256"
							},
							{
								"astId": 1090,
								"contract": "UniswapV2Locker.sol:UniswapV2Locker",
								"label": "lockID",
								"offset": 0,
								"slot": "4",
								"type": "t_uint256"
							},
							{
								"astId": 1092,
								"contract": "UniswapV2Locker.sol:UniswapV2Locker",
								"label": "owner",
								"offset": 0,
								"slot": "5",
								"type": "t_address"
							}
						],
						"numberOfBytes": "192"
					},
					"t_struct(UserInfo)1080_storage": {
						"encoding": "inplace",
						"label": "struct UniswapV2Locker.UserInfo",
						"members": [
							{
								"astId": 1074,
								"contract": "UniswapV2Locker.sol:UniswapV2Locker",
								"label": "lockedTokens",
								"offset": 0,
								"slot": "0",
								"type": "t_struct(AddressSet)298_storage"
							},
							{
								"astId": 1079,
								"contract": "UniswapV2Locker.sol:UniswapV2Locker",
								"label": "locksForToken",
								"offset": 0,
								"slot": "2",
								"type": "t_mapping(t_address,t_array(t_uint256)dyn_storage)"
							}
						],
						"numberOfBytes": "96"
					},
					"t_uint256": {
						"encoding": "inplace",
						"label": "uint256",
						"numberOfBytes": "32"
					}
				}
			},
			"userdoc": {
				"kind": "user",
				"methods": {
					"incrementLock(address,uint256,uint256,uint256)": {
						"notice": "increase the amount of tokens per a specific lock, this is preferable to creating a new lock, less fees, and faster loading on our live block explorer"
					},
					"lockLPToken(address,uint256,uint256,address,bool,address)": {
						"notice": "Creates a new lock"
					},
					"migrate(address,uint256,uint256,uint256)": {
						"notice": "migrates liquidity to uniswap v3"
					},
					"relock(address,uint256,uint256,uint256)": {
						"notice": "extend a lock with a new unlock date, _index and _lockID ensure the correct lock is changed this prevents errors when a user performs multiple tx per block possibly with varying gas prices"
					},
					"setFees(uint256,uint256,uint256,uint256,uint256,uint256)": {
						"notice": "This is the function to set fees to transfer eth to reffers  here reffers means inviter"
					},
					"setMigrator(address)": {
						"notice": "set the migrator contract which allows locked lp tokens to be migrated to uniswap v3"
					},
					"setReferralTokenAndHold(address,uint256)": {
						"notice": "This functionsets the referral token and hold period for the locking contract.referrers need to hold the specified token and hold amount to be elegible for referral fees"
					},
					"splitLock(address,uint256,uint256,uint256)": {
						"notice": "split a lock into two seperate locks, useful when a lock is about to expire and youd like to relock a portion and withdraw a smaller portion"
					},
					"transferLockOwnership(address,uint256,uint256,address)": {
						"notice": "transfer a lock to a new owner, e.g. presale project -> project owner"
					},
					"whitelistFeeAccount(address,bool)": {
						"notice": "whitelisted accounts dont pay flatrate fees on locking whitelisted accounts means invester."
					},
					"withdraw(address,uint256,uint256,uint256)": {
						"notice": "withdraw a specified amount from a lock. _index and _lockID ensure the correct lock is changed this prevents errors when a user performs multiple tx per block possibly with varying gas prices"
					}
				},
				"version": 1
			}
		}
	}
}